S033000073656E736F722D6163747561746F722D6E6F64652D65667233326D673132703433326631303234676C3132352E7333371D
S113000070D50320916203008158030085580300D2
S1130010A70B0000000000000000FFFF54000000D8
S113002004180F00000000000000000000000000A1
S113003000000000000000000000000000000000BC
S113004000000000000000000000000000000000AC
S11300500000000070D50320916203008158030062
S113006085580300A70A02020002000004180FAC1E
S11300700023000000000000000000000000000059
S1130080000000000000000000000000000000006C
S1130090000000000000000000000000FFFFFFFF60
S11300A0FFFFFFFFFFFFFFFFFFFFFFFFFFFFFFFF5C
S11300B0FFFFFFFF00E00F00000000000000000051
S11300C0FFFFFFFFFFFFFFFF1C0000000000000018
S11300D000000000000000000000000010FD0320EC
S11300E010FD032070D50320F4A70300CA6C03009D
S11300F098C60320701700200000100000000000C4
S113020070D50320916203008158030085580300D0
S11302108D5803008958030091580300F15A0300D4
S1130220F15A0300F15A0300F15A0300F15A030092
S113023095580300F15A0300F15A0300F5C1010077
S11302400BA1020095E602007DAF0100F15A030004
S11302509DE60200DFE60200BDE60200BBE6020006
S1130260D7E60200F9B301006FB6010067A70200E8
S1130270A3330000F15A0300F15A03005F0D00009C
S1130280F15A0300F15A03008DB60100F15A03003C
S1130290F15A0300F15A0300F15A0300F15A030022
S11302A0F15A0300F15A0300F15A0300F15A030012
S11302B0C7E60200CFE60200199F0200F15A0300CC
S11302C0F15A0300E9660300F15A0300F15A0300EE
S11302D0F15A0300F15A0300F15A0300F15A0300E2
S11302E0F15A0300F15A0300F15A0300F15A0300D2
S11302F0F15A0300F15A0300F15A0300F15A0300C2
S1130300F15A0300F15A0300F15A03006F49704A8D
S113031001E021B1491E1369DB07FAD401B9B0E049
S1130320506001201060106910F0060F05D04107DD
S113033000D5A9E0800700D5A9E000207047F0B5FA
S113034013460022002936D0604C614D8BB98B4294
S113035031D250F8046BEE605B1C08262E602646F2
S113036001E036B3761E2F69FF07FAD4002EEED1D2
S11303701FE0EFF3108672B600230EE02F6907F03A
S11303801907102F08BF2F602F693F07F6D550F8C3
S1130390047BEF6010272F605B1C8B42F4D306B9FB
S11303A062B6264601E026B1761E2869C007FAD453
S11303B00EB96FF002021046F0BD2DE9F0478046F9
S11303C09A460020434B1C681B68434F3B6843F02C
S11303D001033B60950881460C4602E0B14404EBFE
S11303E08604A94517D208EB89063046FFF78EFF2D
S11303F0010014D1C6F30A00C0F500608608A5EB1D
S11304000900B04238BF0646524631462046FFF73F
S113041096FF0100E2D03968490849003960BDE817
S1130420F0872A4A2B490B6809682B490B6843F06B
S113043001030B608860012048604869400704D5C7
S113044008684008400008601EE04869800704D539
S1130450086840084000086019E00220486001E094
S113046022B1521E4869C007FAD422B9086840086C
S11304704000086005E0086840084000086000206B
S113048070476FF0020070474FF0FF3070476FF015
S113049001007047002390E70F48016841F0010113
S11304A0016046F21A31C1644FF4807141604169C0
S11304B0C907FCD44FF4007141604169C907FCD4F9
S11304C00021C1640020704700000000809698005D
S11304D00C000E4004300E4008000E4000000000E6
S11304E038B5054640F2FF712DED028B6868C0F304
S11304F00A50884243EC182B06D0012806DA284615
S113050000F0EEF8012801DB002406E06A6840F2FE
S1130510FE3161F31E526A60441AD5E9000153ECBE
S1130520182B00F0FFF8C5E90001BDEC028B21B2E5
S11305302846BDE8344000F0D3B90000F8B52DEDED
S1130540028B140003B482B01F4600F09180DDE9F1
S113055002230020002100F04DFA00F08980002CD5
S11305609FED468B40D564420FF22C1508260CE013
S1130570E00707D5D5E9000153EC182B00F0D2F8B9
S113058041EC180B64080835761E002C18BF002EA9
S1130590EED102A9684600F03DFADDE9020153EC10
S11305A0182B00F067FACDE90201BDF9001002A88A
S11305B000F096F905004CD5002C4AD002A96846F3
S11305C000F028FADDE902012E4A2F4B00F0AAF8C8
S11305D0CDE90201BDF9001002A800F081F905007F
S11305E037D5641EEAD134E0012C32DB0FF2A805C2
S11305F00826E00707D5D5E9000153EC182B00F0D5
S113060091F841EC180B64100835761E012C01DBBF
S1130610002EEED153EC182B02A8FFF761FF050062
S113062017D5012C15DB02A9684600F0F3F9DDE9C2
S11306300201164A164B00F075F8CDE90201BDF926
S1130640001002A800F04CF9050002D5641E012C2C
S1130650E9DA28B200281CBF2DB2012D08D100F020
S113066043FB222101601FB1386840F0010038606B
S1130670DDE9020104B0BDEC028BF4BD0000000012
S11306800000F03F436FAC642806C80A3CBF737F88
S1130690DD4F15750000000000000000000024403C
S11306A00000000000005940000000000088C34022
S11306B00000000084D797410080E03779C34143AC
S11306C0176E05B5B5B89346F5F93FE9034F384DB4
S11306D0321D30F94877825A3CBF737FDD4F157560
S11306E030B4436803F000420121C3F313034360B1
S11306F0002B04BF0368002B08D10DE00368DD0F55
S113070045EA440444605B000360491E4468E30214
S1130710F4D5C4F31303436043681A4342600846A4
S113072030BC7047B0B581EA030C0CF0004C40F2C9
S1130730FF7515EA11541DBF15EA1357AC42AF42B9
S113074039E0E41923EA455343F48013C90241F024
S1130750004141EA505EC7021100A7FB02020028D3
S11307604FF00000EEFB01204FF00001E3FB0721F6
S113077018BF42F00102401800214941E3FB0E0179
S1130780A4F580640F0302D252004041494154F160
S113079001046CDD470872F1004250F1000051EB96
S11307A00451A1F580115CBF41EA0C01B0BD4CEAD3
S11307B005510020B0BD05EA1357AC4214BFAF4247
S11307C041E050EA410E1CBF52EA430E02E061468A
S11307D00020B0BD24423C441BD15FEA070EF6D092
S11307E0090302BF01460020AEF1140EB1FA81F7ED
S11307F0AEEB070401FA07FE0C37C7F1200100FA3B
S113080007F7C8404EEA000E23EA455343F4801329
S1130810A2E733F00043B3FA83F704BFB2FA82FECF
S113082077440B3FE41BB7F1200E2FBF02FA0EF3FF
S1130830BB40C7F1200E22FA0EFE38BF43EA0E0376
S1130840BA40641C82E750EA410E14BF52EA430ED8
S11308506FF000014FF4001717EB430F8ABF1946DE
S113086017EB410FB5E74CEA05510020B0BDD4F1B8
S11308700104B4F120070FDAC4F12007520828BF9D
S113088042F0010210FA07F501FA07F7E1BF2A4323
S1130890E0403843E1400FE0352C98DCC7F12004F8
S11308A052EA400220FA07F218BF42F0010231FA7C
S11308B007F0A1400A43002172F1004250F1000008
S11308C051EB0C01B0BD8268521C8260426832B1A7
S11308D00268531C036011704168491E41607047EF
S11308E070B504460D466068C0F30A5040F2FF71CB
S11308F0884207D16068000304BF2068002817D02D
S1130900022070BD20B92046FFF7EAFE012866DA0E
S1130910012D0FDB40F2FF71091A8D420AD3606882
S113092000284CBF9FED2F0B9FED300B84ED000B87
S1130930012070BD4142A942616806DA6FF31E517D
S1130940401941EA0050606040E0401E6368451968
S1130950012205F1350062F31F53352801F00041EF
S1130960636003D361600020206070BD002015F136
S11309701F0F04DA206823600022203562606A4277
S113098012D0401E25688041C2F12003C0439D401F
S113099045EAD07025686668D54006FA03F32B4310
S11309A023606368D340636062680A43B0F1004F18
S11309B0626003D80DD12078C0070AD52068401C96
S11309C02060206828B96068401C60604FF0FF30E8
S11309D070BD6068884204BF20680028F6D10020FA
S11309E070BD00BF000000000000F0FF0000000028
S11309F00000F07F90420CD141EA030C50EA4C0C09
S1130A0007D0994205D14FF4001C1CEB410F38BFAD
S1130A108942704738B50C4605466068C0F30A50F1
S1130A2040F2FF7188420BD10020288060680003E7
S1130A3004BF2068002801D0022032BD012032BD4D
S1130A40012804DA2046FFF74BFE01280ADA62681F
S1130A5040F2FE3161F31E526260401A28804FF06A
S1130A60FF3032BD0020288032BD0268531C036071
S1130A70117070472DE9F04140F2FF7581EA030CD3
S1130A800CF0004C15EA11541DBF15EA1357AC4283
S1130A90AF42E9E0BC41C1F31301C3F31303801A6D
S1130AA0994143F4801304D2641E400049418018E4
S1130AB05941C90241EA5051B1FBF3F603FB161147
S1130AC0A2FB0675D7EBC020A94102D2761E80187E
S1130AD05941C90241EA5051B1FBF3FE03FB1E1117
S1130AE0A2FB0E75D7EBC020A94103D2AEF1010ED3
S1130AF080185941890241EA9051760546EA8E2EC2
S1130B00B1FBF3F603FB1611A2FB0675D7EB8020AD
S1130B10A94102D2761E80185941C90241EA5051B6
S1130B204EEA060EB1FBF3F603FB1611A2FB0675A3
S1130B30D7EBC020A94102D2761E80185941C902C0
S1130B4041EA5051B1FBF3F703FB1711A2FB073540
S1130B50D3EBC020A94167F100070CBF004247F066
S1130B60010766F3D5274FEA1E31B80814F58064EF
S1130B7014DDBD0775F1004250EB0E5051EB0451EA
S1130B8011F5801F5CBF41EA0C01BDE8F0814CF017
S1130B907F6141F0E0410020BDE8F081BD076D08B0
S1130BA040EA0E5041F48011D4F10104B4F120065E
S1130BB00ADAC4F120060200E04001FA06F3E1403B
S1130BC01843B24015430EE0342C14DCC6F1200463
S1130BD045EA40056D0820FA06F2154321FA06F0AD
S1130BE0A1400D43002175F1004250F1000051EB8A
S1130BF00C01BDE8F08100205FEA0C01BDE8F08142
S1130C00CFB992185B41B3FA83F704BFB2FA82F604
S1130C10BF190B3FB7F120062FBF02FA06F3BB4002
S1130C20C7F1200622FA06F638BF3343BA401CB196
S1130C30E419641E2FE77F4231F00041B1FA81F4D8
S1130C4004BFB0FA80F6A4190B3CB4F120062FBF00
S1130C5000FA06F1A140C4F1200620FA06F638BFD6
S1130C603143A0403C1B16E7AC421ABF05EA1357B8
S1130C70AF4214E050EA41061CBF52EA4306BFE704
S1130C8050EA4107304661461CBF41EA0551BDE8C0
S1130C90F08152EA430C08BFC143BDE8F081002053
S1130CA04FF4001616EB410F98BF16EB430F08BF25
S1130CB016EB410F24BFC14305E016EB430F0CBFF5
S1130CC061464CEA0551BDE8F08103681AB95A1E21
S1130CD0026008467047197811B94FF0FF30704729
S1130CE0591C016018787047014800F003B80000EF
S1130CF0F8DB032070470000072803D20FF2EC0151
S1130D00085C7047FF207047072803D20FF2E40104
S1130D10085C7047FF20704738B504462D4800EB47
S1130D208105A8780009FFF7E7FF2071A87800F093
S1130D300F00FFF7E9FF6071FF2814BF01200020B6
S1130D40E870E878A071287860706878A070224D07
S1130D502146284600F0DCF80120A86031BD10B51A
S1130D6084B068460FF278011CC91CC01948817B05
S1130D701A4AD36814682340DB072AD5032928DAE2
S1130D80126900EB410300EB8104E4781CB114B256
S1130D90002C48BF00229A820122C37B02FA01F18F
S1130DA01943C173417B91B10021437BCB40DB07E5
S1130DB008D58173437B8A405A4042736846FFF7E3
S1130DC0ABFF1FBD491CC9B20329EEDB1FBD0321C4
S1130DD081731FBD60DD03200020004038200040E7
S1130DE00000000000FF000000000000E07B7C65C4
S1130DF0466C6D00FF7B7C65466C6D00890001EBE1
S1130E00401000F184400260704700F18063196073
S1130E1000F1C0600260704730B5002A1ABF10228A
S1130E20DFF8EC31DFF8EC31446B23400024DFF8C9
S1130E30E851A84234D1DFF8E40151B101290ED0C0
S1130E4002291ED0032910D0062915D0812918D0D3
S1130E5020E00168046800F024F8006816E00168E6
S1130E60046800F024F8006804E04168446800F075
S1130E701EF84068000C09E0816801F00F018068E9
S1130E8004E04168446800F00CF8406800F0F000A9
S1130E9040EA010404FA02F01843DFF88411086000
S1130EA030BD01F4FE4104F00F0421437047090CE6
S1130EB001F4FE41C4F303442143704770B5044672
S1130EC00D46E878544E010004D10021554800F045
S1130ED077F800E031680A21A1602978AA78120421
S1130EE002F4FE0242EA0161000200F4FE400843FB
S1130EF069780843297909B140F0100020606A79C3
S1130F00C0213046BDE870407FE7A978204683E7DA
S1130F1038B504460D460220A0600022FFF7F5FF15
S1130F2028796978020242EA01626B7942EA034253
S1130F30EB7842EAC302EB790BB142F000522B7A10
S1130F400BB142F00402AB790BB142F002026B7AAE
S1130F500BB142F00102AB78F32806D1180004D19A
S1130F600429BCBF042060F31B6218064CBF42F086
S1130F70E00042EA43102061606900F01CF844BFBD
S1130F8021F080010843297840EA4140E97A09B117
S1130F9040F480406061AA7A02212046FFF72EFFC8
S1130FA02879F3280CBF01220022102104F130001B
S1130FB0BDE8384022E71C490840A9780A06704772
S1130FC010B50446084619498C4228BF154C04D272
S1130FD0B4F5FA4F38BF4FF4FA4410B9144800F08E
S1130FE039F92018401EB0FBF4F000B1401EC0B225
S1130FF010BD80B520B90E4800F02CF900B90120CD
S11310000C4908180C49B0FBF1F0401EC0B202BDF7
S1131010FFFF00800080FFFF002000401082E00FEF
S1131020342000400024F400F8BFE1FF0124F40060
S1131030404105003F420F0040420F00890001EB90
S1131040401000F1844002607047890001EB4010B9
S113105000F1844000687047401CB0FA80F0C0F191
S11310601F00704710B5DFF8EC4812212046FFF747
S1131070ECFF0028F9D12068000C00F0030010BD3B
S113108010B50122DFF89817884232BF0022DFF83A
S11310909417884201D2144600E002241021DFF89C
S11310A08807FFF7CBFFDFF8B008016821F08071F3
S11310B041EA0461016010BD70B5DFF8A028D36B6C
S11310C003B1012341F67134D463146800240FF290
S11310D0400505EBC40636798E4203D155F83460D9
S11310E0864202D2641C052CF3D3052C0EBF0320C8
S11310F005EBC4004079116821F0407141EA0060B9
S11311001060DBB20BB10020D06370BD00000000A2
S113111040787D0100000000005A620200010000D6
S1131120C0CF6A0002000000809FD50002010000C9
S1131130406F40010202000080B500F07CFD0021F8
S1131140BDE80440B8E7B7E7C01C0F2801D2000788
S113115070474FF07040704738B50446002500F0E2
S11311600DFADFF86817DFF8DC27944208D0DFF8BF
S1131170D827944206D0DFF8E827944204D006E04A
S1131180086802E0486800E0886800F00700401E34
S113119003281BD8DFE800F002050C0800F086FDE8
S11311A004E000F087FD01E000F081FD05460DE05C
S11311B000F034FDDFF8A01709680122090E01F0E0
S11311C00101491C02FA01F1B0FBF1F5284632BDD8
S11311D0DFF890174A68D20702D40A680242FCD1A9
S11311E0704780B500F0D8F8401C02BD491E1BE1D1
S11311F00000000070B50C460021DFF85C590212B3
S113120002F00F02521E092A14D8DFE802F0051476
S11312101313071619131C20DFF80C56C0F30436F9
S113122011B10846FFF7D4FF224631462846BDE8EF
S1131230704003E770BD1035F0E730350121EDE76C
S113124038351021EAE740354FF48031E6E7DFF81E
S11312507059E3E770B5DFF810170E68DFF8E4267D
S11312600125DFF8E416DFF8F04610F4781075D0A5
S1131270B0F5003F30D0B0F5802F27D0B0F5002F67
S11312806CD0B0F5202F2DD0B0F5402F5ED0B0F546
S1131290602F3FD0B0F5901F53D0B0F5A01F2AD0D7
S11312A0B0F5B01F39D0B0F5D01F22D0B0F5E01F93
S11312B031D0B0F5001F44D0B0F5281F22D0B0F5CE
S11312C0301F31D0B0F5381F4BD061E000F0B5FCD1
S11312D0E168C1F308210AE000F0AFFCA168C1F3A2
S11312E0082104E000F0A9FC6169C1F30421491C50
S11312F024E0104627E01046FFF72EFF216A01F094
S11313000F0119E01046FFF727FF0646206AC0F3D5
S11313100110C6403DE0084615E00846FFF71CFFF3
S1131320A16AC1F3011107E00846FFF715FFA16A9E
S1131330090A01F00301091D05FA01F1B0FBF1F6F8
S113134027E0DFF81C06FFF707FF1FE0DFF874084B
S113135000F014F907281CD0092819D100F06DFCFD
S113136014E0DFF8640800F009F904280CD0072819
S11313700FD008280CD100F060FC2168C1F30421CF
S1131380491C01FB00F604E000F06FFC064600E097
S11313900026304670BD0000DFF8BC250121031192
S11313A003F00F035B1E082B3BD8DFE803F00507AF
S11313B00B0F1115243A3A00106800E05069C0F38D
S11313C0042070471068C0F300607047D06800E0E4
S11313D09068C0F308207047DFF8F037984204D0D3
S11313E0DFF8EC37984204D01BE0106A00F00F00DD
S11313F013E0106A09E0DFF8DC37984204D0DFF824
S1131400D837984204D00CE0906AC0F3011004E08D
S1131410906A000A00F00300001D01FA00F0401E6B
S113142070470020704700002DE9F0420E46DFF8B7
S11314302855DFF8A847DFF8A877DFF8E49301110F
S113144001F00F01491E072917D8DFE801F0041045
S1131450171E243D6285FFF76FFE4846FFF710FE16
S1131460286820F4F85040EA062028601DE06869E6
S113147020F4F85040EA062068617AE0286820F0F9
S1131480807040EA0660286073E0E868384040EA0B
S11314900620E8606DE0FFF74FFE4846FFF7F0FDD9
S11314A0A868384040EA0620A86000F0B7FB05466B
S11314B0FFF7D8FD01462846FFF745FE2046FFF713
S11314C0C9FEBDE8F042DBE5DFF81817884247D0D3
S11314D0DFF8F816884204D0DFF8F41688420BD0FF
S11314E047E000F048F806460420FFF771FE286A3A
S11314F0000946EA00100AE000F03DF80646042020
S1131500FFF766FE286A20F0300040EA06102862E1
S11315102FE0DFF8C016884204D0DFF8BC168842FA
S11315200CD026E000F027F806464020FFF750FED6
S1131530A86A20F0300040EA06100BE000F01BF827
S113154004464020FFF744FEA86A20F44070211F9F
S113155040EA0120A8620CE0DFF88816884208D12E
S11315604FF48020FFF734FE286B800846EA8000A1
S11315702863BDE8F08230466EE500000146012094
S1131580DFF8642601F00F01491E072949D8DFE876
S113159001F0040F1348202E4836506A00F007006B
S11315A002283AD002D3042804D01CD30520704763
S11315B011690FE002207047516901F00701491ECB
S11315C003292FD8DFE801F00F020311F2E7062008
S11315D07047916901F00701012904D00229E9D07B
S11315E0042902D07047032070470A20704711680D
S11315F011F001010FD0012914D109207047DFF83F
S1131600EC15096801F03001102904D0202904D018
S1131610302904D070470720704704207047082001
S113162070470020704700002DE9F84380460F46BC
S11316300324A1460026B8F1110F12D1042F02D1C0
S113164000F013FB08E0052F0BD1DFF8A4050068B8
S1131650DFF8A015884204DB06001CBF002100F05F
S11316601BFCDFF8845508F00F00401E07280ED835
S1131670DFE800F00440468E43728E7C6848022FF7
S113168006D0032F2CD0042F2DD0052F30D07FE08F
S113169004244FF0000901220121484600F07AF9A0
S11316A0FFF74AFD36B11221DFF8A802FFF7CDFC9F
S11316B00028F8D16C6000F07DF8FFF7E1FC00F041
S11316C0ADFA0446FFF7CEFC01462046FFF73BFD8A
S11316D0002E5DD101210020BDE8F44300F0DCBB05
S11316E04FF00109D7E70224A146FFF7C9FCD2E76E
S11316F00124FAE705F1100404E005F1180401E0FF
S113170005F11404012F08D0022F09D0032F0ED0A5
S1131710062F13D00A2F1DD03AE00020206037E0B6
S113172001220121002000F035F90220F6E7012210
S11317300121012000F02EF90120EFE700F06EFAFC
S1131740FFF79EFC01220221DFF80C04FFF776FC70
S11317500320E3E70420E1E7072F02D0092F02D09A
S113176016E0002000E00120286011E0012F06D0DF
S1131770042F16D0072F0DD0082F19D008E0002011
S1131780DFF868140A6822F0300242EA00100860A8
S1131790BDE8F18301220121042000F0FBF80120BF
S11317A0EEE701220121022000F0F4F80220E7E72D
S11317B00320E5E7DFF824044CE5DFF844146B4A22
S11317C090421FBF6A4A90426A4A904215D06A4AC0
S11317D0904214D0694A904213D0694A904212D080
S11317E0684A904211D0684A904210D0674A9042A9
S11317F00FD0674A90420ED00FE008687047C8685F
S1131800704788697047C8697047086A7047886A72
S11318107047C86A7047086B704700207047000023
S11318200148E8010190D00300400E4070B5044621
S1131830FFF7C3FF0646DFF8B8030568046000F04D
S113184086F8052808BFFFF777FC18214548FFF7FD
S1131850FCFB0028F9D145498C4208D044498C420C
S113186007D044498C4208BF26F0C06604E0022039
S113187000E0012060F35A6600F069F8052804BF0F
S11318802046FFF7FDFBA54203D20121204600F0CC
S113189003FBDFF86403066000F059F8052808D15B
S11318A000F0BCF90646FFF7DDFB01463046FFF7C2
S11318B04AFCFFF77FFFFFF7E3FBA54205D30121B5
S11318C00020BDE8704000F0E7BA70BD80400E40D3
S11318D070B500F03BF801220021022000F05AF814
S11318E00020217C022908BF0120DFF81853296851
S11318F0490840EA41002860227808212846FFF779
S11319009DFBA088617A41EAC020A860EE68207A35
S1131910FFF71AFC06F07F61E28841EAC221A27A4D
S11319201143227A41EAC2110843E860607BA17B3B
S1131930090141EA0030E17B0843217B40EA014090
S1131940286170BD02001A0003001C000446112027
S113195014E6000004300E4000410E4004000E4026
S11319600500200040410E4050D8032040420F00A3
S113197080841E0000093D00C0CF6A00405DC6009F
S11319800024F400C0EA210180BA8C010048E80177
S113199080D543022DE9F84F82469046042872D838
S11319A0DFE800F04D483E034300012602200127F2
S11319B00024DFF80892934D00295FD04FF0000B0C
S11319C0BAF1020F04BF286810F0300F0CD18E4812
S11319D000684FF0010B2868C00705D5286820F07F
S11319E0300040F001002860EE6300F04EF800285B
S11319F0FBD0B8F1000F46D0394600F047F8002874
S1131A00FAD0BAF1020F3ED1BBF1000F3BD02868E7
S1131A10C0071BD501222021022000F0BFF819E0E5
S1131A200426082003270224C3E7102620200527C4
S1131A300424BEE74026802007270624B9E74FF494
S1131A4080764FF4007009270824B2E700210220B1
S1131A5000F084F8022000F01DF804460122002161
S1131A600220FFF797FF2146022000F02DF8EE63D5
S1131A70394600F00BF80028FAD004E0E86300F0DF
S1131A8004F80028FBD1BDE8F18F21464846FFF752
S1131A90DCBA00005849401E032812D8DFE800F0E1
S1131AA0020C06080869C0F308007047086800E0E3
S1131AB0886800F07F00704754480068C0F30A004B
S1131AC0704700207047000070B50D4605F07F0197
S1131AD0494C4A4E401E03283DD8DFE800F0022A54
S1131AE0101DC5F308051A213046FFF7AEFA002889
S1131AF0F9D12069400A45EA4020206170BD0D46B5
S1131B0018213046FFF7A1FA0028F9D12068C0094E
S1131B1045EAC010206070BD0D4619213046FFF71C
S1131B2094FA0028F9D1A068C00945EAC010A06061
S1131B3070BD22480068606920F0300040F0100059
S1131B406061C5F3C310FFF7FFFA216A304A114000
S1131B5029430843206270BDB0400E402948026802
S1131B6012F0300F18BF002907D0202902D03029E5
S1131B7003D005E04FF4000103E04FF4400100E01E
S1131B802449C26E0A408A42FBD1490204D5C06F7F
S1131B90800A00F0010070470120704710B5022848
S1131BA00AD10B0004D01C4B4FF480645C641960B0
S1131BB012B1BDE81040D1E7012010BD90400E40A5
S1131BC050410E4006000C0098002E0060061400E0
S1131BD060162A007017160070272C0000250800D4
S1131BE0FF00FEFF8009120070400E405C410E4071
S1131BF0F0D80320012D310110400E4040410E4029
S1131C003082E00F24400E403C300E409C400E4099
S1131C1000F8FF0FFF33E10764400E4080B500F089
S1131C200CF81C4909681C4AC1F30821491CB0FB83
S1131C30F1F0106002BD194870474FF40040184994
S1131C40184A136803F00703022B04D005D3042BAE
S1131C5004D003D301E0086800E04868D16EC1F302
S1131C600421491CB0FBF1F070470D48006870472F
S1131C700B4908600B48006800F00700022808BF01
S1131C80FFF7CCBF70470848016841F47001016058
S1131C907047000008410E40F4D8032000F04902C8
S1131CA0ECD8032094400E4088ED00E003E04FF4AC
S1131CB07A70704700BF4FF400407047890001EB11
S1131CC0401000F1844002607047890001EB40102D
S1131CD000F18440006870472DE9F041DFF80067A7
S1131CE0DFF80047DFF80057010011D1306B68605E
S1131CF01120FFF743FC287012212046FFF7E5FF6F
S1131D000028F9D12068000C00F0030068703AE064
S1131D10012838D110206978C1F102018840E060BF
S1131D20DFF8C876D7F8008045F60E00386000204A
S1131D306968CA0748BF0120CA0648BF40F01000BE
S1131D404A0648BF40F040004A0748BF40F004003C
S1131D50C90548BF40F48070306012212046FFF767
S1131D60B4FF0028F9D1297805291CBF1120FFF7F9
S1131D705BFC2879C0075CBF022030605FEAC87052
S1131D8044BF00203860BDE8F08138B5DFF8600654
S1131D900168090A01F003044068000C00F003051F
S1131DA01221DFF84006FFF790FF0028F8D1A54282
S1131DB017D2022C15D11120FFF713FA0446112073
S1131DC0FFF748FA6043DFF82C16884224BFDFF897
S1131DD02806FFF72BFD05211120BDE83440FFF74D
S1131DE023BC31BD10B504001CBF0020FFF774FFF5
S1131DF0FFF7CBFF00F01FF804B124E027E010B593
S1131E0004001CBF0020FFF767FFFFF7BEFFDFF8E9
S1131E10DC05016845F60E0202604FF42072DFF81B
S1131E20C0351A60C90744BF0021016000F003F8FF
S1131E3004B108E00BE0DFF8C405016841F00401D7
S1131E40016030BF70470120BDE8104044E7BDE8A1
S1131E501040FFF7E3BE70B5DFF8A445206920F415
S1131E60403040F40035206940F440364AF6E850EA
S1131E7020602069C00708D4A06B00F0030001288B
S1131E8012BF0228002000F0D4F804202561266146
S1131E90401EFBD1256170BD38B50C46DFF86415D2
S1131EA00D6828B9FFF7C9FEC5F30421491C48434E
S1131EB0DFF85415097831B1DFF85015884202D2A1
S1131EC02146022001E021460020BDE83440F8B557
S1131ED004460D46DFF82C050068FFF7AEFE064603
S1131EE0DFF8007500F01EF80028FBD13868000CFC
S1131EF000F003002146A04213D0022C04BF304658
S1131F00FFF721F91020C4F102018840F8601CB9E0
S1131F1000213046FFF717F91DB100F003F800283F
S1131F20FBD1F1BD12213846CFE670B5DFF8C014FD
S1131F308A699209037803B10423447804B1022422
S1131F40857805B10825C67806B1012643EA8212D0
S1131F5022432A43324303791A438A610A6822F4EA
S1131F604032407942EA0040086070BD0000000041
S1131F70DFF89C040068032920D8DFE801F002059B
S1131F80080B00F0FF0006E0C0F3072003E0C0F3F5
S1131F90074000E0000E11000AD1000330F4704144
S1131FA00CD1DFF870140B6823F4704303430B6007
S1131FB0012A0CD1000330F4704101D00020704795
S1131FC0DFF854140A6822F47042104308600120B8
S1131FD0704770B500250024DFF8406452EA0322FC
S1131FE016D0521E0CD0FF3A14D0521E0AD0FF3A1B
S1131FF012D0521E08D0FF3A14D0521E06D015E05B
S1132000B2680AE0B2680EE0F26806E0F2680AE03C
S1132010326802E0326806E07268C2F3072402F014
S1132020FF0503E07268140EC2F3074505600C60F7
S113203070BDF8B50446DFF8E853686AC007FCD4FD
S1132040DFF8E063F06910F0030704D001220D21EA
S11320502846FFF733FEA74202D12CBB00221EE024
S1132060032F18BF002F0FD1022C18BF012C0BD146
S11320704FF40020B06000F018F8800040F0010038
S1132080F06130680003FCD500F00FF844EA8000EA
S1132090F061686AC007FCD4220018BF01220D2138
S11320A02846BDE8F84009E6F1BD686AC007FCD4DB
S11320B0F06980087047F8B50446DFF870530220D1
S11320C02860286800F00F0002284CD1E0884B28D3
S11320D0B8BF00200DDBB0F5FA7FB8BF4FF08050D9
S11320E007DB40F6C4118842B4BF4FF000504FF0F4
S11320F04050DFF83C633169B4F90C20D243DFF877
S113210034331940084340EAD2703061DFF80803E1
S1132110016841F440710160DFF81C73386A40F0D3
S1132120807038620021FFF7FEFE00B1042000F049
S113213045F9DFF8F41220890880A0898880A088F6
S1132140488000F0D0F8A07B20B1012805D1DFF849
S1132150EC0201E0DFF8E802F86001220121608866
S113216000F013F808B90020F2BD686840F48060FC
S113217068606078FFF75DFFA27A02B10122052151
S11321803046FFF79BFD0120F2BD2DE9F04F89B0E9
S113219004468846934605A80021002200230EC069
S11321A002A80EC0A4F5E160B0F5966F00F2888035
S11321B0DFF890024FF4966A02AF05ADB4F5E16F13
S11321C00BD94FF001094FF4E16101910068A86057
S11321D0010EB960C0F307400BE08946CDF804A0B6
S11321E04FF4167A0068A860C0F30721B96000F0C4
S11321F0FF00A860DFF840623068000F00F00300C1
S11322008DF8010003464A4602A905A8FFF7E1FE3E
S1132210DFF804020068000A00F003008DF80000F3
S113222003464A4603A906A8FFF7D3FEA868B9687F
S1132230019AA31A0A1A5A43B2FBFAF28218029CB0
S1132240DDF814C0A4EB0C045C43B4FBFAF464445E
S11322506D68D7F804E0AEEB05077B43B3FBFAF3F4
S1132260EF18914228BF82422AD3BE4528BFAF420D
S113227026D30298A04224BF0598844220D3BBF100
S1132280000F0CD030694946B9F1000F18BF022184
S1132290DFF8B431184040EA022008433061B8F155
S11322A0000F1CD000229DF801104846FFF760FE85
S11322B030B101229DF800104846FFF759FE08B9D5
S11322C000200DE0A74228BF3C46E72C28BFE724A6
S11322D0B069400A49EA440141EA4020B061012062
S11322E009B0BDE8F08F10B54FF0FF32DFF84811A8
S11322F04B6A03F007030C68E40727D5022B25D3A8
S113230014282AD31438142834D30F22086820F44C
S11323107F4040EA022040EA023008600868C0F3C7
S11323200320414A138803F12804401C04EBD474AD
S113233003EB6403283300EB8004B3FBF4F35B1E6C
S1132340072B34BF1B064FF0E06315E00C68E4076D
S113235009D4022B07D20A2801D20322D6E70A386D
S11323600A2807D3D1E70C68E407CFD5022BCDD2D6
S11323702828CAD20722C9E70C6824F0EE64234354
S113238043F480130B60B2F90420002A15D492B2EE
S113239002F1280303EBD37302EB630228324308F0
S11323A003EB4000B2FBF0F0072834BF00017020BB
S11323B04A6822F070021043486010BD38B50446E4
S11323C01D4D00212846FFF780FC686AC00844EAD6
S11323D0C000686214484088BDE8324083E70000CA
S11323E060400E4004300E40E8E9032080410E4076
S11323F000300E40012D3101C0EA210110ED00E052
S113240008300E4000410E40E4E90320002D310164
S11324103083E00F6C300E40EC300E401C83E00F34
S113242054300E4024300E4026FC032038300E4039
S11324303C300E40FEFFFFCF4C300E40372110B72A
S1132440774020571883E00FFD80FFFF10B5044646
S1132450002A14BF0FF230020FF2380208A1012043
S113246000F043F8012000F01DF810B1204600F000
S113247097F804A10120BDE8104000F03CB800002A
S11324802570200000000000426F756E6420746F98
S113249000000000556E626F756E642066726F6D89
S11324A0000000004F4908804FF6FF71884205D0B4
S11324B0010A05D14A490978084002D00120704731
S11324C00020704770B50C4615461E46FFF7EAFF1C
S11324D050B132462946012000F0E6F924B101202A
S11324E0BDE8704000F0C4B970BD0CB480B502AB57
S11324F00A46002104E00CB480B502AB0A4601216F
S1132500FFF7E0FF01BC5DF80CFB2DE9F8438046C2
S11325100E4617469946FFF7C5FFD8B10025089C1B
S113252010E0325C49464046FFF7DFFFE81005EB58
S113253010700011A5EB0010062804BF404600F0FF
S113254053F86D1CBD4205DA20001ABF781B401EEB
S11325502846E6E7BDE8F18380B5002300931BA37A
S1132560FFF7D3FF01BD10B582B0002B14BF18A331
S113257018A300240094FFF7C8FF13BD38B500E08A
S113258038B50446174D14A12888FFF7AEFF012083
S1132590009010A3082221462888FFF7B6FF31BD1A
S11325A000B58BB02822694600F094FB05E000B525
S11325B08BB02C236A4600F093FB28B16A4607A12E
S11325C008480088FFF791FF0BB000BD25630000A9
S11325D025782000257800003E00000025730000C7
S11325E0E7DB032024FC032080B5FFF75BFF20B169
S11325F00120BDE8024000F0C4BC01BD70B5134623
S1132600104402E0A4192C705B1EDCB24CB101F042
S11326100F060909451E28460A2EB4BF3024372464
S1132620F0E7104470BDF0B5002341B1002806D591
S11326302D2111700123B0F1004F18BF4042002139
S113264000240FF27025002655F8247001E0C01B09
S1132650761CB842FBD2F7B20FB90F0005D006F1D1
S11326603001DBB2D1545B1C0121641C092CEADB70
S11326703030DBB2D054581CC0B2F0BD2DE9F24F5B
S113268096B0804615469B4603AE0027002413A847
S1132690019003A88DF800000BE001240546019881
S11326A0864205D300F0DCF800284FD100F0CEF8C4
S11326B06D1C9DF80000301A29780A000BD02529DA
S11326C003D014B906F8011BE9E7002C14BF002459
S11326D06D1C29780A0000F0AF80B1F1250216D0F4
S11326E00B3A092A40F28980283A7DD00A3A12D05E
S11326F0521E41D0521E5FD0083A5DD0121F3ED008
S1132700D21E3CD0921E57D0D21E6DD0C7E72520D2
S113271006F8010BC3E7DBF8000002900BF104009C
S1132720D0F8009000F1040B4FF0000ACA45B6D26D
S11327300222029810F80A103046FFF75FFF06469F
S11327400198864205D300F08BF800287AD100F076
S11327507DF8A9F1010082453CBF202006F8010B59
S11327600198864205D300F07BF800286AD100F076
S11327706DF80AF1010AD9E75BF8040BC8E75BF8C6
S1132780049B00F067F800285CD100F05FF84FF07C
S1132790000A01E00AF1010A5FFA8AFA19F80A004C
S11327A00028F7D1524649469DF85800C0470028F2
S11327B048D15744FFB272E76C290AD15BF8040B85
S11327C06A78752A0EBF00210121642A07D16D1C85
S11327D005E075295BF8040B0CBF0021012132468A
S11327E0FFF721FF36185AE75BF8041B0222C9B22F
S11327F03046FFF703FF064651E701246A78782A3A
S113280018BF582AF8D16D1C0024681E322904D13F
S11328105BF8040B042281B2EAE734297FF43DAF6C
S11328205BF8049B04224FEA19413046FFF7E6FEA9
S113283004221FFA89F1DCE700F00CF810B9F01952
S1132840C0B200E0002017B0BDE8F08FF719FFB266
S113285003AE70470646F2B203A99DF858004047FC
S11328609DF80000361AF2B203A99DF858004047BB
S113287001A111E0000000000D0A00000CB438B5FD
S1132880044604AA00F010F805462046FFF7F0FFBE
S1132890284632BC5DF80CFB0CB480B502AA00F0EB
S11328A003F802BC5DF80CFB80B500F0ECFEC0B28E
S11328B002BD000000CA9A3B00E1F505809698002D
S11328C040420F00A086010010270000E80300002A
S11328D0640000000A0000008A4938E080B501461F
S11328E006220FF20C601EE038B504460D4606229F
S11328F00FF2FC51284600F0BFFF2146A81DBDE899
S1132900344001F042B838B504460D46FFF7E6FFFF
S113291028B11DB1A01D01F02EF82880012032BD80
S113292080B50822774901F010F8401E8041C00F9D
S113293002BD00B583B0694600F011F8082272495F
S1132940684601F002F8401E8041C00F0EBD10B56C
S113295000F00DF8207880F00200207010BD10B552
S113296000F005F8E07980F00200E07110BD0C463B
S113297001460822204601F04EB838B5044601F05D
S1132980CCFB054669462046FFF7BDFF00281CBF67
S11329904FF6FE70854205D0BDF80000854201D196
S11329A0012032BD002032BD10B50C4604F10801EF
S11329B0FFF79AFF14E038B504460D4601F0F2FE25
S11329C028B1294604F10800BDE834409BE732BD34
S11329D010B5044608224B4904F1080000F04CFFEE
S11329E02046BDE8104001F0D1BE10B5044601F008
S11329F0D9FE17E038B504460D4608220FF2F84117
S1132A00284600F039FF05F108012046BDE83440AE
S1132A109DE780B508220FF2E04184E710B5044633
S1132A20FFF7F7FF38B104F10800FFF757FF00F094
S1132A30010080F0010010BD10B5044601F06DFBEB
S1132A404FF6FE71884205DA01F067FB2146BDE8C6
S1132A501040A9E72046BDE81040B9E710B5044688
S1132A6002F039F918B92046BDE8104023E20120EC
S1132A7010BD0178FF2904BF4178322907D181783C
S1132A8029B9C178402904BF001D01F08BBE002084
S1132A9070470178FF2904BF4178332907D1817831
S1132AA029B9C178402904BF001D01F07BBE002074
S1132AB070470178FF2906BF40780128002070473D
S1132AC00178FF2904BF4078022801D10120704712
S1132AD00020704738B504460C4D08222146281DB5
S1132AE000F0CAFE0822214605F1140000F0C4FEDD
S1132AF0214605F12400BDE83840082200F0BCBEA0
S1132B0000000000D0F20320E4F9032040D90320A0
S1132B1010B581280B4601DB002010BD802814DA93
S1132B20C408C0F10800012200EBC400195D02FAD8
S1132B3000F0401E21EA00001855C4F10F021819D4
S1132B4092B20021401C00F0F9FE012010BD2DE9D5
S1132B50F84708B40446180090B08846914613D04C
S1132B600FF26C300FC801AF87E80F0024B11022B8
S1132B70214601A800F080FE5FEA090006D001A901
S1132B804046FFF7C5FF002800F09880FF24002589
S1132B90FF2700940026AA4601A800EB4A0000F093
S1132BA0EAFE20B9FF2F08BF57466D1C05E0FF2F32
S1132BB003D000F086F8FF2700250AF1010ABAF1D4
S1132BC0080FE9DBFF2F01D000F07BF8012E08BFCE
S1132BD00094009805AC002735180098874201DB63
S1132BE0AF422CDB01A800EB470000F0C4FE17B194
S1132BF03A2104F8011B214600230022960000FA22
S1132C0006F6361306F00F0C002B08BFBCF1000FBC
S1132C1001D1032A0CD10B46591CBCF10A0FB4BFD5
S1132C204FF0300E4FF0570EF44483F800C00123E8
S1132C30521C042AE2DB081BC0B2044404E0B8427C
S1132C4004BF3A2004F8010B7F1C082FC5DB082DB4
S1132C5004BF3A2004F8010BB9F1000F1CD02F2057
S1132C6004F8010BB8F1640F404605DB31216438E8
S1132C7004F8011BC0B201E00A280ADB0A2190FB18
S1132C80F1F101F1300204F8012B0A2202FB1100D8
S1132C90C0B2303004F8010B002004F8010B05A980
S1132CA01A98611A884208D305A8221A109892B279
S1132CB005A900F0E1FD012000E0002012B0BDE80C
S1132CC0F0870098FF2802D0EDB2AE4201DA0097F7
S1132CD0EEB2704780B500920B460022002103E05B
S1132CE080B5009313460122FFF731FF02BD2DE9A1
S1132CF0FE4F0546080090B03FD0180001D01000E8
S1132D003BD065B910981022002100F017FE9DF801
S1132D104800002802D0119900200870BCE02C2142
S1132D20284602F06CF804462C2C26D205A82C2147
S1132D3002F070F8A2B2294605A800F09DFD9DF8A6
S1132D4048000024D0B12F2105A802F066F8050040
S1132D501FBF0470451C287800280ED0287868B15D
S1132D6015F8010B00F0C8FE0A2806DA0A2114FB44
S1132D7001F10C18A4B2812CF0DB84E00FF2601096
S1132D800FC801AD85E80F009DF8140000253A280E
S1132D90A946AB46A8460CBF01260026AA4619E060
S1132DA082F0010001EA0902384082F00102104277
S1132DB069D0012E08BF002965D029B10AF1010AA2
S1132DC04FF001098DF800504FF0000BD846002653
S1132DD00AF1010A05A810F80A00010031D03A28C6
S1132DE00CBF0127002700F087FE05A9514449784C
S1132DF04A1E9241D20F3A290CBF012100210FB97A
S1132E00102840DA102D3ED01EB1022EC8D0C7D3F0
S1132E10DEE7002F37D1B8F1040F34D000EB0B1BE1
S1132E2008F101005FFA80F851EA0200D0D001A84D
S1132E301FFA8BF1284400F0A8FDAD1CEDB2022668
S1132E40C6E7B9F1000F14D0C5F110095FFA89F68D
S1132E50CEB19DF8001001A847186A1AD2B23946BB
S1132E60B81900F009FD32460021384600F066FD2D
S1132E7001E0102D07D19DF8480040B101A9E0B24E
S1132E80FFF746FE08B9002007E0119804701022ED
S1132E90109801A900F0F0FC012013B0BDE8F08FF8
S1132EA00023002223E7012321E718B10022102187
S1132EB000F0A2BD704710B5040007D000220F2116
S1132EC000F09AFD10B1E07B012800D0002010BD75
S1132ED000000000000000000000000000000000EE
S1132EE000000000000000000000000000000000DE
S1132EF0000000FFFE000000FE8000000000000053
S1132F002DE9F04194B004460F4690461E46012533
S1132F10012C1CD10AA80FF29C01242201F09AFF73
S1132F2068460AA9242201F095FF1020ADF8240078
S1132F30ADF82600012C18BF022C00D014D1019743
S1132F40ADF80C80012E04D14FF4805005E001202F
S1132F500BE0022E03D14FF44050ADF80A0069464D
S1132F60012000F07FFA0546E8B214B0BDE8F08114
S1132F7000F01CBB80B500F024FBC0B202BD00F021
S1132F8072BB80B500F01CFCC0B202BD0CB480B5AD
S1132F9002AB0A4601460448FFF770FB002002BC5E
S1132FA05DF80CFB000000005B370000704700F088
S1132FB04FBC00000000014000C2010000000010EE
S1132FC000000000000000000000000000000000FD
S1132FD00000000000000000012100F01F029140E9
S1132FE0DFF8A82705E0012100F01F029140DFF877
S1132FF0A027400942F820107047012100F01F0269
S11330009140DFF89027F4E710B5DFF88C470128EA
S113301018BF202805D040F27D110FF6540001F0AE
S113302047FF204610BD426892884089401A824278
S113303001DA01207047002070473EB5012818BF0F
S1133040202836D1012818BF202832D1FFF7DCFF11
S1133050044602F023F8054601AB6A4602A9A069BA
S113306003F06DFA2289009989B2206800F022F8F1
S1133070284603F029FCA06903F0D5FA012818D1E9
S1133080208921688988401A218A884211DBA06935
S113309090F83110022903D103F04FFA022804DA20
S11330A0A06990F83100012803D10021A06903F040
S11330B094FA37BD70B504460D46164601F0EEFF8E
S11330C0E188A9420CD22288521A521992FBF6F3D3
S11330D006FB13222280A288AA18511AA180E58037
S11330E0BDE8704003F0F0BBF8B50C461546012866
S11330F018BF202816D1FFF787FF0646307B10B192
S113310001207073F1BD707B18B13046BDE8F24008
S1133110B1E00FF2C91700F006F818B100F003F897
S11331200028FBD1F1BD3B462A462146B06903F095
S11331305BBB70B505460E46FFF766FF0446012DDE
S113314018BF202D40D1A069016890F83200E8B979
S11331500420886400F04AF9002EA0690068C16C5C
S113316007D041F00401C1640C20FFF735FF0521AD
S113317006E021F00401C1640C20FFF734FF0021B4
S1133180A0690068BDE8704003F0DDBB042048631B
S113319000F02CF9002EA0690068816B07D041F083
S11331A0040181630C20FFF717FF052106E021F0DD
S11331B0040181630C20FFF716FF0021A069006859
S11331C0BDE8704003F06DBC70BD38B50446DFF84F
S11331D0CC0581422DD0DFF8C055A869A04228D182
S11331E02A8999B22868FFF765FF00202968C880FA
S11331F002E0284600F01EF8204603F09EF903285A
S113320017DAE889698A414389B22A689388002BCE
S1133210EFD04018538812888342B8BF914205DB2F
S11332209A42E6D28342A8BF9142E2DA01212046C3
S1133230B3E031BD38B50446E089DFF864350246B1
S11332402168658A6843084400F10801A06903F015
S113325086FAA06903F071F9022803DB0021A06952
S113326003F0BBF9608A401CA18A90FBF1F201FBD8
S11332701200608231BDFEB50446207B68BB6068E5
S11332804188084400F108056B4601AA02A9A06917
S113329003F073F960688188009A891A019A8E1A7A
S11332A041880FF23907008888420ED23B46608974
S11332B0421A2946A06903F097FA70B960686189D7
S11332C0711A4288561800F108053B46F2B22946A5
S11332D0A06903F089FA00B96073F7BD70B51C46A4
S11332E0DFF8B454A969814215D168688188A14284
S11332F038BF848801F0D2FE69684A88A4B2A21853
S11333006B8992FBF3F603FB16224A8069688A886C
S1133310121B8A80E4E670BD38B50D46FFF774FED3
S11333200446112D09D10021A06903F065F900209C
S113333020732046BDE832409DE7132D06D10121BC
S1133340A06903F059F90120207331BD2068018878
S11333500844057220680188491C228991FBF2F314
S113336002FB131101808188491C8180A06903F04C
S11333705AF9218922689288891A89B220B9E28986
S11333808A42A8BF012105DA012805D1208A814299
S113339002DB0021A06900E031BDBDE8344003F048
S11333A01CB980B5DFF8FC030169090606D503F0F2
S11333B05FFB01460120BDE80440ADE701BD80B5D7
S11333C0DFF8E403016829B10168DFF8E023116044
S11333D00021016000F00AF80C20FFF7FDFDDFF882
S11333E0D003016841F00401016001BD0C2004E632
S11333F080B5DFF8C00304210160416821F00401B5
S11334004160FFF7F3FF0C20FFF7EDFDDFF89C03AD
S1133410006810B1DFF89013086001BDF8B50C46E0
S11334201546FFF7F1FD0646306880883189EAB217
S1133430891A884201DB0120F2BD00270EE001F069
S11334402DFE316814F8012B0B8819440A72316877
S11334500A88521C338900F00CF97F1CAF42EED36A
S11334600020F2BDF8B504460D46012818BF2028F7
S11334703AD100F0EDF910B9204600F06DF820467D
S1133480FFF7C2FD06462046FFF7BEFD012C18BF1C
S1133490202C29D1DFF82013016001F18802426059
S11334A0802202814281012C18BF202C52D1012C90
S11334B013BF202C4FF4887008180020B061012C31
S11334C018BF202C10D1DFF8F402A8618030E86125
S11334D0A98CF181EA8C32828A4207D21C213046BF
S11334E001F098FC0220F2BD0120F2BDB06990F811
S11334F03130012B0CD0338993FBF1F701FB1733E7
S1133500002B02BF92FBF1F301FB13210029E5D14B
S1133510294602F02EFEF0B9B06901230222017F90
S1133520007E03F059FB287C012808D101212046A4
S1133530FFF7FFFD0021B06903F04FF80AE0002017
S113354070823089F18990FBF1F0B08200F07DF94E
S113355000F07BF90020F2BD58B50446012818BFDD
S1133560202812D100F074F9F0B9204600F04CF98B
S11335702046FFF749FD0646012C18BF202C0FD129
S1133580B06902F0DBFE10B152BD012052BDB0693A
S113359090F83100012803D100212046FFF7C9FD2E
S11335A01C21304601F036FC002052BD38B50446DB
S11335B0FFF72AFD05462046FFF73FFD286880886F
S11335C032BDF8B506460F463446012818BF2028F8
S11335D00AD1FFF719FD05463046FFF72EFD28688E
S11335E0808818B92620F2BD0120F2BD01F056FDF5
S11335F00646286841880844007A3870286841885B
S1133600491C2A8991FBF2F302FB13114180818842
S1133610491E8180012C18BF202C1FD1A86990F865
S11336203100012803D119E02846FFF703FEA869F9
S113363002F083FF022811DAE889698A414389B2DA
S113364040182A68538812888342B8BF914205DB28
S11336509A42E9D28342A8BF9142E5DA304603F0A8
S113366033F90020F2BD80B5FFF7CEFC40688088B6
S113367002BD92FBF3FC03FB1C220A808A88521CC5
S11336808A8003F021B910B5012818BF20280BD176
S1133690002413460A4601460FF21100FEF7EEFF1E
S11336A000B90124204610BD012010BD2DE9F84FBA
S11336B081468A46934601281CBF202801204AD10E
S11336C0FFF7A2FC074678680188084400F108085F
S11336D00024002627E001F0E1FC79681AF8012BA8
S11336E00B8819440A7279680A88521C7B8992FBF8
S11336F0F3FC03FB1C220A808A88521C8A800988F6
S11337004D1EAD41ED0F03F0DFF8761C5DB1351BA6
S1133710EDB22A4641464846FFF7E6FC2C19E4B2CE
S1133720786800F10808F0B258450AD200213846FA
S1133730FFF779FC0028CED1387B0028F6D0222070
S113374009E05C4506DAABEB040292B24146484616
S1133750FFF7CAFC0020BDE8F28FF8B50C46154609
S113376001260746012F18BF202F0DD1FFF74CFC6F
S1133770012F18BF202F05D12A462146806902F067
S113378054FF06463046F2BD0120F2BD00E100E0E0
S113379080E100E080E200E0E0DE0320097000F058
S11337A0CB310000000001406C200E40FCDE032001
S11337B04C000140480001409CDD032040D7032019
S11337C038B50446012C18BF202C1BD1FFF71CFC74
S11337D00546012C18BF202C12D168688088002867
S11337E0FBD1A86902F0C5FE0028F6D1A86902F051
S11337F07BFE8006F1D5A86902F076FE8004ECD544
S1133800002032BD012032BD70B50546FFF7FCFB38
S113381006463468012D18BF202D0DD1B06990F8EB
S11338203110012908D0022102F0CCFD0020708261
S113383000F00BF800F009F801F030FC0021A18041
S113384021806180E180FFF74BBC3046FFF7F2BC7A
S113385080B5012818BF202806D1FFF7D5FB002822
S11338601CBF0068002801D1012002BD002002BD58
S1133870636F6D2E63000000814233D21044401EFA
S11338801144491E10E0121F11F8013900F80139E2
S113389011F8013900F8013911F8013900F801393A
S11338A011F8013900F8013992B2042AEBDA93B223
S11338B0002B1EBF11F8013900F80139521EF6D150
S11338C07047121F11F8013B00F8013B11F8013B4E
S11338D000F8013B11F8013B00F8013B11F8013BF2
S11338E000F8013B92B2042AEBDA93B2002B1EBF1C
S11338F011F8013B00F8013B521EF6D1704710E06D
S1133900121F11F8013B00F8013B11F8013B00F8CC
S1133910013B11F8013B00F8013B11F8013B00F8B1
S1133920013B92B2042AEBDA93B2002B1EBF11F8CA
S1133930013B00F8013B521EF6D17047130003D03F
S11339400A46194603F090B9704710B500E0521EBC
S113395093B223B100F005F8F9D0181B10BD002074
S113396010BD10F8013B11F8014BA3427047000051
S11339704178007801E00178407800EB012080B2C2
S113398070470170090A417070470A0A0270417059
S1133990704710B50023040014BF1C46C3F1030490
S11339A0E4B25B1C0A55120A042BF4DB10BD30B5DB
S11339B00024050014BF2546C4F10505EDB2641CBE
S11339C04A55120A42EA03621B0A062CF1DB30BD97
S11339D030B54A788B78CC78097818B120461D46E2
S11339E00C4602E0154608461A4645EA002044EA19
S11339F0022141EA004030BD10B5002300E05B1C09
S1133A00DCB28C4205D210F8014B9442F7D000206E
S1133A1010BD012010BD10B5002304E0541EE41AAB
S1133A200C5DC4545B1C9342F8DB10BD10B500243C
S1133A3080B14FF6FF7202E0944206D0641CA4B237
S1133A40035D002BF8D1944204D179210FF2F400E4
S1133A5001F02EFA204610BD10F8012B11F8013B9D
S1133A600AB19A42F8D0D01A40B2704730B59942A0
S1133A7028BF1946002303E00833401C521C9BB2A4
S1133A8003F10804A14203DB04781578AC42F3D0B7
S1133A908B420CDA007812785040C0438024C0B2C4
S1133AA001E064085B1C8B4201DA0442F9D198B24C
S1133AB030BDF8B555052D0E02F0070704460E4635
S1133AC02A46FFF7D9FE47B1FF20615D725DF840D9
S1133AD0014022EA000008436055F1BD00210FF2C5
S1133AE07802002805E000F00F03D35C5918C9B22E
S1133AF00009F8D1084670476128A8BF572107DAA2
S1133B004128A8BF372103DA3A28B4BF3021002165
S1133B10401AC0B270474108400021F0AA3120F099
S1133B20553008438108800021F0CC3120F0333037
S1133B3008430109000121F0F03120F00F3008435F
S1133B4070470000627974652D7574696C697469D5
S1133B5065732E63000000000001010201020203EC
S1133B60010202030203030480B50FF2381003F0CC
S1133B7017F903F00BFF0FF2381003F011F904F0FA
S1133B80EDF80FF23C1003F00BF904F0A3FB0FF275
S1133B903C1003F005F904F0E1FCBBA003F000F9CC
S1133BA005F0F2F80FF2381003F0FAF8DFF8200904
S1133BB003F042F90FF2381003F0F2F805F09AFA24
S1133BC00FF2341003F0ECF805F02BFB0FF2341075
S1133BD003F0E6F8DFF8FC0803F02EF90FF23810D2
S1133BE003F0DEF8DFF8F00803F026F90FF23810DE
S1133BF003F0D6F8DFF8E40803F01EF90FF24010E2
S1133C0003F0CEF8DFF8D80803F016F90FF24810E5
S1133C1003F0C6F8DFF8CC0803F00EF90FF24C10ED
S1133C2003F0BEF8DFF8C00803F006F90FF25410F1
S1133C3003F0B6F805F03CFB0FF25C1003F0B0F8AB
S1133C40DFF8A80803F0F8F80FF2601003F0A8F802
S1133C50DFF89C0805F0F6FB0FF2641003F0A0F8FF
S1133C6006F09AF90FF2601003F09AF806F0DDFC02
S1133C700FF25C1003F094F8DFF8780803F0DCF836
S1133C800FF25C1003F08CF8DFF8A80903F0D4F805
S1133C900FF26C1003F084F806F084FDBDE80140D7
S1133CA003F082B84D414320617262697465720009
S1133CB04D414320696E64697265637400000000BD
S1133CC07265747279207461626C6500364C6F574A
S1133CD050414E20667261676D656E74730000001A
S1133CE06D756C746963617374207461626C6500D2
S1133CF077616B65757000006170706C69636174E5
S1133D00696F6E00666F726D2D656E657267792DD1
S1133D107363616E000000006E6574776F726B20D0
S1133D206461746100000000736C656570792062E1
S1133D30726F6164636173742068656164657200A5
S1133D40676C6F62616C2061646472657373207464
S1133D5061626C65000000006C6F63616C207365C8
S1133D60727665722064617461000000626F72642F
S1133D70657220726F75746572204E44206461749C
S1133D8061000000444843502061646472657373A9
S1133D90207461626C6500006368696C642061640E
S1133DA06472657373207461626C6500737461631B
S1133DB06B206576656E742071756575650000000D
S1133DC0436F4150000000004A50616B65000000E1
S1133DD0436F6D6D697373696F6E696E6700000080
S1133DE07363616E20726573756C747320666F7291
S1133DF020636F6D6D697373696F6E657200000087
S1133E0044544C53204A6F696E00000070B5DFF8CB
S1133E10BC460546E0882A0601D4062D04D140F0AC
S1133E20040005F07F0503E011B94FF6FB7108406B
S1133E302E46022E1CBF032E042EE08008D0052E31
S1133E400DD0062E18BF072E02D0EC2100F05AF92F
S1133E50A570A07804280CBF0120002001E00325F0
S1133E60F6E707F074F8E0884FF6F4710840062E80
S1133E7008BF40F0020004D0022E14BF032E40F00D
S1133E800800E08070BD00005544500010B5F2B049
S1133E9007F084F804F083FA07F013FD09F0D3FD6A
S1133EA00AF008F80AF030FA0AF06CFA0BF02DF870
S1133EB000F089FC00F090FC0BF0D6FA0CF0D0FA7C
S1133EC001200DF0E7FC0EF079F903F066FE0EF028
S1133ED090F9DFF814480020A0704FF6FE700DF042
S1133EE011FE0020E0800EF07FFA0EF0B6FC10F018
S1133EF08FFB11F00EFD06F087FA06F04BFCBC2395
S1133F007F22082142A812F037FB00F018F901A81B
S1133F1011F0A1FABDF854014FF6FF71884236D072
S1133F20BDF8040098BB082342AA0E210DF1060037
S1133F300EF05DFD102344AA03210EF058FD082362
S1133F4048AA02210EF053FD08234AAA07210EF0C5
S1133F504EFD10234CAA05210EF049FD10F0CCFBB8
S1133F60BDF8542101210EF023FDDFF88427002140
S1133F7010F0BCFB032357AA00210EF038FD0DF10D
S1133F800601401AADF8040001A811F0D9FABDF8F1
S1133F90040000281EBF9DF8020000280120002113
S1133FA000F0DCF872B010BD38B5DFF848170FF236
S1133FB078740020088002F08BFE12F01FFBDFF8FB
S1133FC038074168C90703D5006810F0300F10D1D5
S1133FD00FF2607529460020FEF7D8FF294601201C
S1133FE0FEF7D4FF2046BDE8344040F2AD1100F0A6
S1133FF05FBF12F09FFA20B14FF4D971204600F050
S113400057FF12F00EFC0FF27C70DFF8DC4612F062
S1134010DBFD607004F1080005F051F9DFF8DC16EF
S113402000200860DFF8D816086012F04EFE05F094
S1134030F7F8FFF72BFFBDE83240002005F0DCB8AD
S113404038B504460DF0A0FBDFF89C5620B1A888D3
S1134050002814BF01200220207003F068FD10B96D
S113406003F08AFD58B103F076FB40B100F009F883
S113407028B105F10800BDE8324005F0A9B90020D7
S113408032BDDFF8800612F03FBE10B500200EF0FE
S11340900CF8DFF87406007818B10FF2340002F05F
S11340A008FF12F0AFFB13F062F813F0DBF813F023
S11340B076FA03F0D0FFDFF8304604F1080005F08B
S11340C093F96078BDE8104012F0A6BD000000002E
S11340D0693B000000000000DFF80C06407812F095
S11340E09BBD80B503F023FD18B940F2332100F0E5
S11340F009F80DF095FA00200DF0B8FFBDE8014075
S113410003F02FBB0FF2206000F0D2BE80B50DF09B
S113411066FBBDE802400DF0BDBB0DF0E4BCDFF86A
S1134120C8158979890758BF0DF0CCBC70470DF0CC
S1134130E1BC0DF0E7BC0DF000B900680090042369
S11341407F220C21684612F017BA0DF0E3B8DFF8AD
S1134150BC057047DFF890050078704770B50446D9
S1134160DFF88405067804700D46C188032C05D158
S113417041F40041C1800CF031F902E0C1F30E01B9
S1134180C180200004BF012006F0E1FE2A4631462A
S11341902046BDE8704014F087B9F8B506465E22A3
S11341A00021FFF7CBFBDFF824532878012806F120
S11341B0280421D0DFF858751022B91C3046FFF7C7
S11341C05BFB06F1100000F0E1FA06F1180000F0C4
S11341D0F7FA082207F1120106F12000FFF74CFB61
S11341E00DF088FC20800DF095F8A070A878E070A0
S11341F00DF094F82071F1BD10F0D6F907461022A5
S113420007F114013046FFF737FB082207F12401B8
S113421006F12000FFF730FB082207F12C0106F11C
S11342201000FFF729FB07F15800042301882180BF
S11342307F22807AA0700C210FF214500068009045
S1134240FFF780FF9DF8030020719DF80200E070E5
S1134250A878032804D1A87900075CBF0520E07082
S1134260F1BD2DE9F041044620000D4604D1284655
S1134270BDE8F041FEF7ACBB012C04D1DFF8940497
S1134280FEF7B8FB21E0022C21DBDFF854620021A9
S1134290304612F04EFD022704E04146304612F04B
S11342A077FD7F1C80465FEA080010D003F058F8C1
S11342B000281CBF016A0029EFD0F9B2A142ECD159
S11342C0811C10222846FFF7D7FA012000E00020C5
S11342D0BDE8F0812DE9FF4104460F46DFF80052A6
S11342E00021284612F025FD1DE003F039F80600F0
S11342F015D03078800612D5002C18BF002F07D0B7
S11343003B4622463946B01CFFF7B0FBB84206D103
S11343103388326AF169DBB2B01C14F0F3FA414617
S1134320284612F035FD80465FEA0800DDD10FF221
S113433024400FC86C4684E80F00002300220021AB
S1134340684614F0DFFABDE8FF813EB5644C0021F5
S1134350204612F0EEFC15E003F002F870B101788B
S1134360C9070BD5016A0291821CC1690191002120
S113437000910121837C002015F059FC2946204638
S113438012F006FD05462800E6D1002002900190B7
S1134390009000230022002115F049FC37BDAA211A
S11343A00170BB214170CC218170DD21C170704747
S11343B010B5044615F063FE20B92046BDE8104050
S11343C00AF0C4BB10BD00B5F7B04FF481720021F0
S11343D035A8FFF7B3FA35A811F0B2F835A811F0F3
S11343E0B1F8BC22002106A8FFF7A8FA4FF6FF7027
S11343F0ADF86400BC2306AA7F21082012F0CCF893
S1134400042200216846FFF799FA00F02DF80822EB
S1134410002104A8FFF792FA082304AA7F210520AB
S113442012F0BAF80822002102A8FFF787FA08233D
S113443002AA7F21072012F0AFF809F059FB0AF015
S1134440E3FA00208DF80400042301AA7F2103204D
S113445012F0A2F8264804F03FFFFFF717FD0020F2
S113446014F085FE77B000BD04236A467F210C203A
S113447012F092B80021DFF8A00204F0F7BF38B5BB
S1134480DFF89452DFF89442284605F03FF8DFF84D
S1134490900200780C2810D02068142804D1012040
S11344A014F065FE002006E04FF4FA71284604F08B
S11344B0DDFF2068401C206031BD00202060032007
S11344C0BDE8324003F00FBB16F0BEBBECF2032094
S11344D0E0FC032000F403202CFA0320E6FC032074
S11344E00EF5032034FC032036FC032040FC03209B
S11344F0F4F2032024F3032070B57B4C20780328C6
S113450088B065D0012803BF854800780C28702046
S113451078D108237F22052105A812F02DF805A8DB
S1134520FEF7DAF908237F22072103A812F024F802
S1134530082203A96D48FFF79FF908237F2206216B
S113454001A812F019F801A80DF054FE10F085F836
S113455010F02AF8054605F15806B07A03F08CFAF3
S113456030880DF0CFFA05F11400FFF75FFAC1B2FD
S113457005F114000BF05AFF05F124000BF026FF9F
S113458005F12C0000F012FC0FF2D810FFF7D5FD56
S1134590BDF80000FFF7C3FD9DF903000CF0CDFE4C
S11345A09DF8020000F032F80AF0F8FC09F0AAFACB
S11345B00BF00FFBA07806280BD100210320FFF796
S11345C0CDFD0BF00BFB01220021002008F05BFD68
S11345D017E00DF088FA800502D10CF075FC10E0AC
S11345E0A078032818BF042804D0022805D1A07994
S11345F0C00702D40CF0B6FC03E040F21F51FFF7F1
S113460081FD002014F083F808B070BD0021FFF78D
S1134610FDBB80B511F02EFA0EF01FF90EF02EF945
S113462031488078062803D0BDE8014006F035BD46
S113463001BD00006CF3032000B59FB007A8602102
S113464000F0E8FB07A8FFF7A8FD0FF21C100068B4
S113465000909DF848008DF803000DF044FAADF881
S113466000006A4620488078062818BF9DF8470055
S11346708DF8020004237F210C2011F08DFF0FF22E
S1134680EC0005A9D0E90023CDE905232548FEF770
S113469066F9082305AA7F21052011F07DFF0FF29A
S11346A0D4001249D0E90023CDE9032303A808224A
S11346B0FFF7E2F8082303AA7F21072011F06CFF1B
S11346C00FF2B8001349D0E90023CDE9012301A872
S11346D00822FFF7D1F8082301AA7F21062011F050
S11346E05BFF1FB000BD0000ECF2032010F40320B8
S11346F000F8FF07A2F20320E881E00FF8F9032095
S113470010FA032052FC0320F0DB0320DCF9032021
S1134710B4FA0320E4F9032078D9032004F3032036
S1134720F0D90320D0F2032069702D737461636B98
S11347302E630000537461636B2F48617264776168
S11347407265204D69736D617463680D0A00000021
S11347500000000000000000000000000000000055
S11347600000000000000000000000000000000045
S11347700000000000000000000000000000000035
S113478000000000000000000000000080B5DFF819
S11347904C160A7A22B10822FFF76EF8012002BDF6
S11347A0002002BD80B5DFF834160A7A32B108223F
S11347B0FFF7CBF8401E8041C00F02BD002002BDB0
S11347C0704700207047DFF8140600210172418110
S11347D008220C30FFF7B2B8DFF800160020488139
S11347E070471FB5DFF8F8050078000710D4DFF82C
S11347F0F445207801280BD16946DFF8EC05FEF773
S1134800F9F80121684608F0ACFD08B100202070D9
S11348101FBDDFF8D015012008706421DFF8CC0536
S113482004F024BE2DE9F84B08B404468B46DFF8A7
S1134830AC851646002108F10A0012F07AFA012725
S113484009E028883040B04222D0494608F10A00E5
S113485012F09EFA7F1C81465FEA090019D002F02B
S11348607FFD05463000ECD11CB9B8B25845ECD1F7
S11348700EE05B46AA1C59462046FFF7F7F8584558
S1134880E3D19DF8000000281CBFA97C8B45DCD136
S11348902846BDE8F68BF8B504460D46DFF83C65BE
S11348A0002106F10A0012F044FA04E0394606F148
S11348B00A0012F06DFA0746380011D002F050FDDC
S11348C0821C2B4629462046FFF7D0F8A842EDD19A
S11348D0394606F10A00BDE8F840002212F082BA17
S11348E0F1BDF8B5DFF8F45404466889ADF800006A
S11348F00E460020688117E00021684612F052FA43
S1134900074602F02DFD0178C90707D5821C3346FE
S113491031462046FFF7AAF8B04205D000223946B6
S113492005F10A0012F00DFA684612F0EDF90028BC
S1134930E2D0F1BD1346002274E710B50C46002204
S11349404021FFF7F7FF28B100882040A04201D1A1
S1134950012010BD002010BD0121EEE738B504464A
S11349600D462846FEF755F8D0B92846FFF71AFF3A
S113497070B100212846FEF71EF828B1FFF7CDFBE1
S11349802146FEF711F82FE02046FEF721F82BE030
S11349902878FF2813D1687800F00F00032805DA7F
S11349A02146DFF84C04FEF725F81DE0062804DA5A
S11349B02046BDE83240FEF70BB8002032BD00228D
S11349C040212846FFF7B6FF10B10178890606D4C6
S11349D00023202200210020FFF724FF28B1811C9E
S11349E010222046FEF748FF012032BDF8B50C46E0
S11349F00546002201210BE03946301D00F0F4F891
S1134A0018B1018841F40061018032460121284631
S1134A1010F0CEFF060018D0F778022110F0B7FF8F
S1134A200028F2D0001DFEF7A6FFC10405D5200022
S1134A300CBF42F210021522DEE70005E5D5200086
S1134A4014BF0B2242F20802D6E7DFF890536889BC
S1134A50ADF802000020ADF80000688103E00022F8
S1134A60314612F06EF90DF1020012F04DF930BB2F
S1134A7000210DF1020012F095F9064602F070FCD7
S1134A804FF2FF730188CA0A02F0010219401300B1
S1134A900BD1230014BF4FF6F8734DF6FF73194082
S1134AA042F20103194218BF01220180002A14BFF7
S1134AB005F10A006846D2E7002216F059F9684663
S1134AC012F022F988B90021684612F06BF902F05D
S1134AD047FC0146881C0A88897CD306ECD412075B
S1134AE0EDD5002215F0A0F8E9E7F1BD2DE9F84372
S1134AF016461F4680460C4601230022FFF792FE0D
S1134B0005001DD1B54D05F10A0012F002F908287F
S1134B1005DA0021282002F02AFD814608B9002088
S1134B202BE00022494605F10A0012F00AF9484632
S1134B3002F016FC054628220021FEF7FFFEAC74A5
S1134B4010224146A81CFEF797FE0020A884099C69
S1134B502C80089921B1082205F11300FEF78CFE80
S1134B60A00609D5EE612F62E3B23A4631464046CB
S1134B70FDF76CFCFFF74DFE2846BDE8F283F0B567
S1134B800D4683B000F02CF8060003D12A462146D6
S1134B90012020E0802D44F2300705DA042106F1DB
S1134BA00A000CF052FA06E010222146B01CFEF76F
S1134BB063FE4CF23007002000904FF4E16301974C
S1134BC01A464021B01CFFF791FF002814BF0020B3
S1134BD001202A46214603B0BDE8F04016F0E5B8AE
S1134BE0044600224021A5E62DE9F043164687B08D
S1134BF0044688460122FFF79DFE07463006C00E94
S1134C0000F001050822214602A8FEF735FE002F18
S1134C102BD1F0060BD500F049F8070042D07007FD
S1134C2040D401224146204616F0A2F83AE0002D75
S1134C3038D001224146204611F0E8F881464FF66B
S1134C40FE70814506F0020503D0FFF766FA814540
S1134C5000D13DB300F02AF8070023D015BB012290
S1134C604146204614F0E0FF1CE0FFF7D2FD3878FF
S1134C7000F0300030280FD175B10020F86138629F
S1134C803880002300220021B81CFDF7DFFB00223E
S1134C904146204616F06CF8388841F2070131404D
S1134CA008433880384607B0BDE8F08304A80021E3
S1134CB00022C0E90012009101960023414602A897
S1134CC014E780B500F06EF820B100880006400FAC
S1134CD000F0010002BD10B586B00446FDF799FE50
S1134CE020B104F10800FDF724FE42E02046FFF75E
S1134CF059FD00283AD004F10800FDF711FE98BBD5
S1134D0004F10800FDF739FE70BB694604F10800A0
S1134D10FDF7F9FD68B33748007820B1BDF800000D
S1134D20B0F57C4F20D00FF05EF928B1BDF800003B
S1134D304FF63041884217D0BDF800004FF6F071AD
S1134D400840B0F57C4F0DD1BDF8000001A900F07A
S1134D500F0016F0C5F8402804DB032101A8FFF773
S1134D60ECFD06E0002004E0012002E02046FFF70D
S1134D70A8FF06B010BD70B5044600F013F878B172
S1134D800588A9060CD5867C31462046FFF783FDAD
S1134D9005F01F0231462046FFF726FF012070BDB3
S1134DA0002070BD0023002280213BE510B50B4C90
S1134DB038B9FD20207005220020E080601C0E49D7
S1134DC002E0014608222046FEF756FD012020722B
S1134DD02046BDE81040FDF77DBE000004F5032029
S1134DE0F2F20320FEFC032010F4032000DA032077
S1134DF0E4F9032029FA0320C6FA032070470022AD
S1134E0000E0521C8A4203D210F8013B002BF8D177
S1134E1010467047002216F097B8C9B200220378F2
S1134E208B4208BF024610F8013B002BF7D1104615
S1134E307047000062B38B0708D0521E11F8013B83
S1134E4000F8013B00F024808B07F6D1830740F083
S1134E50208000BF103A07D330B4B1E83810103ABC
S1134E60A0E83810F9D230BC530724BFB1E80810C9
S1134E70A0E8081044BF51F8043B40F8043BD207B3
S1134E8024BF31F8022B20F8022B44BF0B780370A7
S1134E907047083A07D3B1E80810083A40F8043BD1
S1134EA040F804CBF7D25307E4E7000042DE704732
S1134EB038B504460D460CF0B3FB16F082F816F034
S1134EC0ABF82946204611F09FFC2B4622460FF2F0
S1134ED0B8110120FEF75AF829462046BDE83440AF
S1134EE0E4E72DE9F0474FF420685F4D2E1D5F483D
S1134EF001687165016AB1655D490A68F2654968CE
S1134F003166416A7166816AB166C16AF166016B94
S1134F103167806B706796F8340040074CBFF46BC0
S1134F20B46B274616F01BF9014631650022F26482
S1134F3005F19003DFF83CC1DFF83CE14F4A8442BD
S1134F4024BFA2F1200AA24518D3A0693064E46901
S1134F507464746DC4F30804062C13D1704511D322
S1134F6060450FD200884DF64264A0420AD13068F1
S1134F7058607068986040F2017803E00027376455
S1134F80776407463E48814202D2014600E0091D8B
S1134F900846904203D20C68B4F1CD3FF7D03949AA
S1134FA0081AB0640020002105EB8004E167401C6E
S1134FB00628F9DB002003E0C0B205EB8004E167BA
S1134FC0974223D252F8041D7145F9D36145F7D2B3
S1134FD0CC07F5D5002405EB8409D9F87C908945E4
S1134FE002D0641C062CF6DB062CE9D1002814BF81
S1134FF0401E0520E0E7B16F002405EB8402D2F8DF
S11350008070D767641C052CF7DB19600146481EC5
S1135010C9B20029EFD1706DC0F30800032808D08D
S1135020042809D005280AD006280BD00C280FD054
S113503011E040F6012813E040F6022810E040F6A3
S113504003280DE0B8F5206F0AD140F6042807E0E4
S113505040F6052804E018B1312838BF40F6072887
S11350604046BDE8F08700000000002004ED00E0A9
S113507000E300E0CA6C0300E004000070D50320E4
S11350809C00002070D503200D0A5B415353455208
S1135090543A25703A25645D0D0A0000EFF311803F
S11350A0602181F311887047DFF868243023584366
S11350B010440C3000F1806007E0DFF858243023FE
S11350C0584310440C3000F1C060012202FA01F18F
S11350D0016070471CB5049C0194009313460A4672
S11350E001F03FFD13BD1930017E02290FD1DFF815
S11350F02414027830235A4311441C31007980006F
S113510000EB411000F184400068C0B270470020F9
S1135110704738B50022DFF8001401EB82014968BA
S11351204B7F834203D0521C042AF4D331BD21B3F4
S113513001F12E04E07802281FD10D1D0846FFF767
S1135140D2FF2874687C022804BF2078002814D178
S113515001F0DCF816F019F9297C09B1617829B15C
S113516000206070286816F0DFF831BD28B99DF87A
S1135170000010B1286816F0C9F831BD10B582B02E
S1135180044604F11400417F022910D141780A0039
S113519003D0012906D0017821B9817A8079FFF7FB
S11351A083FF18E0817A8079FFF787FF13E00129F4
S11351B011D1007800280CBF112013208DF80000B5
S11351C0204601F0B6FA01226946204601F02DFA84
S11351D0204601F0F0FA002016BD2DE9F041044606
S11351E088461646FFF75AFF0546A088E18888429C
S11351F006D300203060284601F066FBC7481CE057
S11352002088142714224146784320440830FFF7AD
S113521011FE208878432044083030602088401CE8
S1135220E18890FBF1F201FB12002080A088401C71
S1135230A080284601F048FB0020BDE8F08138B585
S113524004460D46FFF72AFFA18809B9296024E026
S11352506188142251432144083129606188491C22
S1135260E28891FBF2F302FB13116180A188491ECD
S1135270A1800EE038B505460C46FFF70FFFA9885C
S113528009B9216009E0698814225143294408318D
S1135290216001F019FB002032BD01F015FBA0488C
S11352A032BD90F832100A000BD101210268D1609E
S11352B000680169C907FCD5416F41F001014167EC
S11352C0704701290ED10168496C8907FBD401217B
S11352D00268516000688168C907FCD5416D41F0DE
S11352E001014165704790F832100A0008D1016845
S11352F04A6F520852004A6702210068C160704731
S113530001290CD10168496C8907FBD40168496DF6
S113531049084900026851650221006841607047EC
S113532010B586B000F12C020123137093791C0090
S113533013D1026802F11C0304900FF2710203926C
S1135340002202924A680192012200920A680169CD
S1135350806815F0C0FF06B010BD012BE9D0002015
S11353601070F8E710B586B000F12D020123137018
S113537053791C0012D10268343204900FF21113D5
S11353800393002302934B680193012300930B685A
S1135390C168406815F099FF06B010BD012B02D119
S11353A002682832E9E700201070F5E7F8B51446E2
S11353B06946606AFFF75EFF5949884260D004F18C
S11353C02C05A8795749020008D12268126C92056D
S11353D004D500F057F84FF4007014E00246012A97
S11353E007D12368DB6A1B0603D500F04BF8802045
S11353F015E04D4950B92068006CC00506D500F091
S113540041F84FF48070216888640DE0012A09D1C5
S11354102068C06A400605D500F034F840202168B1
S1135420486301E000F060F8FFF738FE0646009894
S1135430C768380009D00098406800998968431A01
S11354400098026801692046B8476946606AFFF718
S1135450F6FE606A818821B101F043F801F099F900
S11354600CE0012020752046FFF788FE00202870FC
S1135470687903281CBF2046FFF735FF01F0D9F9EE
S11354800120F2BD009801610020009988607047F6
S1135490F8B5144604F1280569462868FFF7EAFEC2
S11354A01F4988421ED000F01FF8FFF7F7FD06469B
S11354B00098C768380005D0009843680268002146
S11354C02046B84769462868FFF7B9FE28688188EE
S11354D021B101F006F801F0A7F901E0002068719C
S11354E001F0A7F90120F2BD00200099086100999C
S11354F08860704710B9DFF8E40A7047002918BFC4
S1135500002A02D0B2F5006F02D9DFF8D40A70473E
S11355100020704700A0004094F103200A7000F0BE
S11355200B7000F00D7000F00C7000F010B5036803
S1135530FF22DFF8B04AA34240F05E810B7A1C00E0
S113554018BF012B07D0022B18BF032B03D0042B49
S113555018BF052B01D100233AE0062B18BF072BF7
S113556004D0082B1CBF092B0A2B01D101232FE0E7
S11355700B2B18BF0C2B07D00D2B18BF0E2B03D0F1
S11355800F2B18BF102B01D1022321E0112B18BFC0
S1135590122B08D0132B18BF142B04D0152B1CBFAF
S11355A0162B172B01D1032312E0182B18BF192B2C
S11355B00BD01A2B18BF1B2B07D01C2B18BF1D2B6D
S11355C003D01E2B18BF1F2B01D1052300E0FF239E
S11355D000F012FD18BF012B40D0022B1CBF032B7F
S11355E0042B3BD0052B18BF062B04D0072B1CBF64
S11355F0082B092B01D1012333E00A2B18BF0B2BF5
S113560007D00C2B18BF0D2B03D00E2B18BF0F2B5C
S113561001D1022325E0102B18BF112B08D0122B27
S113562018BF132B04D0142B1CBF152B162B01D120
S1135630032316E0172B18BF182B0BD0192B18BFF8
S11356401A2B07D01B2B18BF1C2B03D01D2B18BFE4
S11356501E2B01D1052304E01F2B01D1002300E000
S1135660FF2300F0C5FC3ED0012B18BF022B59D0FC
S1135670032B1CBF042B052B54D0062B1FD0072B48
S113568021D0082B23D0092B25D00A2B27D00B2B74
S113569041D00C2B43D00D2B08BF082342D00E2B36
S11356A005D00F2B07D0102B09D0112B01D10923C2
S11356B038E0122B01D10A2334E0132B01D10B2340
S11356C030E0142B01D10C232CE0152B01D10D2338
S11356D028E0162B01D10E2324E0172B01D10F2330
S11356E020E0182B01D100231CE0192B08BF012353
S11356F018D01A2B08BF022314D01B2B08BF032376
S113570010D01C2B08BF04230CD01D2B08BF05236D
S113571008D01E2B01D1062304E01F2B01D107233F
S113572000E0FF2300F060FC3FD0012B41D0022BAE
S113573043D0032B45D0042B47D0052B1FD0062B79
S113574021D0072B23D0082B25D0092B27D00A2BB7
S11357503FD00B2B41D00C2B08BF082242D00D2B7D
S113576005D00E2B07D00F2B09D0102B01D1092205
S113577038E0112B01D10A2234E0122B01D10B2283
S113578030E0132B01D10C222CE0142B01D10D227B
S113579028E0152B01D10E2224E0162B01D10F2273
S11357A020E0172B1DD0182B01D101221AE0192B50
S11357B001D1022216E01A2B01D1032212E01B2B85
S11357C001D104220EE01C2B01D105220AE01D2B7D
S11357D001D1062206E01E2B01D1072202E01F2B75
S11357E000D1002202774A7C42768A7C4277CA7CC6
S11357F08276097D00F007BCDFF80049A34240F03F
S113580048810B7A1C0018BF012B07D0022B18BF4C
S1135810032B03D0042B18BF052B01D100233AE03E
S1135820062B18BF072B04D0082B1CBF092B0A2BEF
S113583001D101232FE00B2B18BF0C2B07D00D2B0C
S113584018BF0E2B03D00F2B18BF102B01D102232E
S113585021E0112B18BF122B08D0132B18BF142BC7
S113586004D0152B1CBF162B172B01D1032312E0D8
S1135870182B18BF192B0BD01A2B18BF1B2B07D0B2
S11358801C2B18BF1D2B03D01E2B18BF1F2B01D19F
S1135890052300E0FF2300F0AFFB18BF012B40D02D
S11358A0022B1CBF032B042B3BD0052B18BF062B4C
S11358B004D0072B1CBF082B092B01D1012333E093
S11358C00A2B18BF0B2B07D00C2B18BF0D2B03D0A2
S11358D00E2B18BF0F2B01D1022325E0102B18BF6C
S11358E0112B08D0122B18BF132B04D0142B1CBF60
S11358F0152B162B01D1032316E0172B18BF182BD9
S11359000BD0192B18BF1A2B07D01B2B18BF1C2B1D
S113591003D01D2B18BF1E2B01D1052304E01F2B20
S113592001D1002300E0FF2300F062FB3ED0012BF5
S113593018BF022B59D0032B1CBF042B052B54D0AA
S1135940062B1FD0072B21D0082B23D0092B25D0C1
S11359500A2B27D00B2B41D00C2B43D00D2B08BF87
S1135960082342D00E2B05D00F2B07D0102B09D0C3
S1135970112B01D1092338E0122B01D10A2334E081
S1135980132B01D10B2330E0142B01D10C232CE079
S1135990152B01D10D2328E0162B01D10E2324E071
S11359A0172B01D10F2320E0182B01D100231CE079
S11359B0192B08BF012318D01A2B08BF022314D0B7
S11359C01B2B08BF032310D01C2B08BF04230CD0AF
S11359D01D2B08BF052308D01E2B01D1062304E08C
S11359E01F2B01D1072300E0FF2300F0FDFA38D07C
S11359F0012B39D0022B3AD0032B3BD0042B3CD0C3
S1135A00052B1DD0062B1ED0072B1FD0082B20D012
S1135A10092B21D00A2B33D00B2B34D00C2B08BFED
S1135A2008223FF4DFAE0D2B04D00E2B05D00F2B34
S1135A3006D0102B3FF49BAE112B3FF49CAE122BDF
S1135A403FF49DAE132B3FF49EAE142B3FF49FAE58
S1135A50152B3FF4A0AE162B3FF4A1AE172B17D095
S1135A60182B3FF4A2AE192B3FF4A3AE1A2B3FF42C
S1135A70A4AE1B2B3FF4A5AE1C2B3FF4A6AE1D2BEE
S1135A803FF4A7AE1E2B3FF4A8AE1F2B7FF4AAAEA3
S1135A90A7E6DFF86448A34240F04A810B7A1C0071
S1135AA018BF012B04D0022B1CBF032B042B01D1E4
S1135AB000233AE0052B1CBF062B072B01D108233A
S1135AC033E0082B31D0092B18BF0A2B04D00B2B41
S1135AD01CBF0C2B0D2B01D1012326E00E2B18BF6C
S1135AE00F2B18D0102B18BF112B14D0122B18BF4A
S1135AF0132B10D0142B18BF152B0CD0162B18BF3A
S1135B00172B08D0182B18BF192B04D01A2B1CBF25
S1135B101B2B1C2B01D1052307E01D2B1CBF1E2BA7
S1135B201F2B01D10A2300E0FF2300F065FA18BF00
S1135B30012B40D0022B18BF032B3CD0042B18BFE1
S1135B40052B03D0062B18BF072B01D1082335E002
S1135B50082B18BF092B04D00A2B1CBF0B2B0C2BB2
S1135B6001D101232AE00D2B18BF0E2B18D00F2BC7
S1135B7018BF102B14D0112B18BF122B10D0132BBD
S1135B8018BF142B0CD0152B18BF162B08D0172BAD
S1135B9018BF182B04D0192B1CBF1A2B1B2B01D197
S1135BA005230BE01C2B1CBF1D2B1E2B01D10A232C
S1135BB004E01F2B01D1002300E0FF2300F018FABA
S1135BC027D0012B29D0022B2BD0032B2DD0042B33
S1135BD02FD0052B49D0062B4BD0072B4DD0082BAB
S1135BE00FD0092B19D00A2B1BD00B2B1DD00C2B3B
S1135BF01FD00D2B21D00E2B37D00F2B39D0102BCB
S1135C0001D103233CE0112B08BF042338D0122B0D
S1135C1001D1052334E0132B01D1062330E0142BEA
S1135C2001D107232CE0152B01D1082328E0162BE2
S1135C3001D1092324E0172B01D10A2320E0182BDA
S1135C4008BF0B231CD0192B08BF0C2318D01A2B08
S1135C5008BF0D2314D01B2B08BF0E2310D01C2B00
S1135C6008BF0F230CD01D2B01D1002308E01E2BED
S1135C7001D1012304E01F2B01D1022300E0FF2303
S1135C8000F0B2F925D0012B26D0022B28D0032B0B
S1135C9029D0042B41D0052B42D0062B43D0072B0F
S1135CA00ED0082B15D0092B16D00A2B18D00B2B8D
S1135CB019D00C2B1AD00D2B2FD00E2B30D00F2B2C
S1135CC03FF47BAD102B08BF04220AD0112B2ED039
S1135CD0122B3FF47EAD132B3FF47FAD142B01D177
S1135CE008227FE5152B3FF442AD162B3FF443AD5C
S1135CF0172B08BF0B22F4D0182B08BF0C22F0D0AE
S1135D00192B08BF0D22ECD01A2B08BF0E22E8D0A5
S1135D101B2B08BF0F22E4D01C2B3FF462AD1D2BBC
S1135D203FF443AD1E2B3FF444AD1F2BD9D14CE5BA
S1135D30DFF8A047A34240F04F810B7A1C001CBF40
S1135D40012B022B09D0032B43D0042B18BF052BA6
S1135D5003D0062B18BF072B01D1032339E0082BEE
S1135D6037D0092B08BF082333D00A2B18BF0B2BBD
S1135D7007D00C2B18BF0D2B03D00E2B18BF0F2BE5
S1135D8001D1012325E0102B14BF112B092320D0AE
S1135D90122B18BF132B07D0142B18BF152B03D0AD
S1135DA0162B18BF172B01D1022312E0182B18BF92
S1135DB0192B04D01A2B1CBF1B2B1C2B01D1052320
S1135DC007E01D2B1CBF1E2B1F2B01D10A2300E053
