S02A00006E63702D756172742D68772D65667233326D673132703433326631303234676C3132352E733337ED
S113000038DD0320A1210300112103001521030081
S1130010A70A02020002000004180FAC002300002B
S113002000000000000000000000000000000000CC
S1130030000000007C3E03000000000000000000FF
S11300400000000000000000FFFFFFFFFFFFFFFFB4
S1130050FFFFFFFFFFFFFFFFFFFFFFFFFFFFFFFFAC
S113006000E00F000000000000000000FFFFFFFFA1
S1130070FFFFFFFF1C000000000000000000000064
S113008000000000000000005FFF03205FFF03206A
S113009038DD0320205F03008E2D030060CE032093
S10F00A070170020000010000000000099
S113020038DD0320A121030011210300152103007F
S11302101D21030019210300212103009D21030056
S11302209D2103009D2103009D2103009D210300C6
S1130230252103009D2103009D210300811F00004F
S1130240AF4B0200195602008D4200009D210300AD
S11302502156020063560200415602003F56020036
S11302605B56020095CD0200BF770200FFB000008C
S11302705BA800009D2103009D21030043050000AD
S11302809D2103009D210300DD7702009D210300D1
S11302909D2103009D2103009D2103009D21030056
S11302A09D2103009D2103009D2103009D21030046
S11302B04B5602005356020013AE00009D2103006A
S11302C09D210300F92503009D2103009D210300C6
S11302D09D2103009D2103009D2103009D21030016
S11302E09D2103009D2103009D2103009D21030006
S11302F09D2103009D2103009D2103009D210300F6
S11303009D2103009D2103009D2103006F49704A34
S113031001E021B1491E1369DB07FAD401B9B0E049
S1130320506001201060106910F0060F05D04107DD
S113033000D5A9E0800700D5A9E000207047F0B5FA
S113034013460022002936D0604C614D8BB98B4294
S113035031D250F8046BEE605B1C08262E602646F2
S113036001E036B3761E2F69FF07FAD4002EEED1D2
S11303701FE0EFF3108672B600230EE02F6907F03A
S11303801907102F08BF2F602F693F07F6D550F8C3
S1130390047BEF6010272F605B1C8B42F4D306B9FB
S11303A062B6264601E026B1761E2869C007FAD453
S11303B00EB96FF002021046F0BD2DE9F0478046F9
S11303C09A460020434B1C681B68434F3B6843F02C
S11303D001033B60950881460C4602E0B14404EBFE
S11303E08604A94517D208EB89063046FFF78EFF2D
S11303F0010014D1C6F30A00C0F500608608A5EB1D
S11304000900B04238BF0646524631462046FFF73F
S113041096FF0100E2D03968490849003960BDE817
S1130420F0872A4A2B490B6809682B490B6843F06B
S113043001030B608860012048604869400704D5C7
S113044008684008400008601EE04869800704D539
S1130450086840084000086019E00220486001E094
S113046022B1521E4869C007FAD422B9086840086C
S11304704000086005E0086840084000086000206B
S113048070476FF0020070474FF0FF3070476FF015
S113049001007047002390E70F48016841F0010113
S11304A0016046F21A31C1644FF4807141604169C0
S11304B0C907FCD44FF4007141604169C907FCD4F9
S11304C00021C1640020704700000000809698005D
S11304D00C000E4004300E4008000E40072803D2E2
S11304E00FF2EC01085C7047FF207047072803D225
S11304F00FF2E401085C7047FF20704738B50446EA
S11305002D4800EB8105A8780009FFF7E7FF20716B
S1130510A87800F00F00FFF7E9FF6071FF2814BF0F
S113052001200020E870E878A0712878607068786D
S1130530A070224D2146284600F0AEF80120A860A4
S113054031BD10B584B068460FF278011CC91CC0D7
S11305501948817B1A4AD36814682340DB072AD5DB
S1130560032928DA126900EB410300EB8104E478E3
S11305701CB114B2002C48BF00229A820122C37B12
S113058002FA01F11943C173417B91B10021437B0C
S1130590CB40DB0708D58173437B8A405A404273C2
S11305A06846FFF7ABFF1FBD491CC9B20329EEDB48
S11305B01FBD032181731FBD60E50320002000409F
S11305C0382000400000000000FF00000000000090
S11305D0E07B7C65466C6D00FF7B7C65466C6D0042
S11305E0890001EB401000F184400260704730B58F
S11305F0002A1ABF1022DFF85031DFF85031446B63
S113060023400024DFF84851A84234D1DFF84401E4
S113061051B101290ED002291ED0032910D0062978
S113062015D0812918D020E00168046800F024F86E
S1130630006816E00168046800F024F8006804E02B
S11306404168446800F01EF84068000C09E08168C5
S113065001F00F01806804E04168446800F00CF880
S1130660406800F0F00040EA010404FA02F0184384
S1130670DFF8E410086030BD01F4FE4104F00F041B
S113068021437047090C01F4FE41C4F303442143A0
S11306907047A9782046AAE738B504460D460220DB
S11306A0A0600022FFF7F5FF28796978020242EA88
S11306B001626B7942EA0342EB7842EAC302EB79C6
S11306C00BB142F000522B7A0BB142F00402AB7929
S11306D00BB142F002026B7A0BB142F00102AB782B
S11306E0F32806D1180004D10429BCBF042060F308
S11306F01B6218064CBF42F0E00042EA431020613E
S1130700606900F01CF844BF21F080010843297897
S113071040EA4140E97A09B140F480406061AA7A34
S113072002212046FFF75CFF2879F3280CBF012241
S11307300022102104F13000BDE8384050E7074999
S11307400840A9780A067047FFFF00800080FFFF79
S1130750002000401082E00F34200040F8BFE1FF89
S1130760DFF8281ADFF8282A904201D1084670479A
S11307704832904202D101F10C00704700207047CA
S113078038B5044604F14005286870B12979032975
S11307900ADA211D884202D2C22100F0AFFA286889
S11307A0001B001FC0B232BDE07832BD827802F077
S11307B03F0242EA81118170704700BF8078C0F324
S11307C0C2007047827802F0F802114381707047CA
S11307D010B50446FFF7C4FF20B12046FFF7C0FF61
S11307E000F01AFE48220021204600F0F7FE201DEA
S11307F0206410BDFEB502A80FF6C0110A6802609D
S1130800DFF88C0900F1900421680091814208BF4F
S113081048300190002500265DF826703846FFF721
S1130820CCFF97F8441002AA525D914206D10028E9
S11308301CBF2179884201D12760F7BD761C022EA6
S1130840EAD36D1C032DE6D3F7BD01202DE9F04357
S113085083B00446DFF83809D0F890100091814243
S113086008BF48300190002600270FF644185DF8B1
S1130870279009F144052878032817D199F8020034
S1130880800902281CBF0328012803D14846FFF72A
S113089077FF80B126B14FF4B471404600F0BAFE40
S11308A0012604202870FFF7A5FF07E0697829B125
S11308B0052803D101264846FFF78AFF7F1C022F33
S11308C0D5D3DFF8D008017821B9012101700120C6
S11308D000F096FF2CB101F054F90221002000F041
S11308E02CFABDE8F7837E2818BF7D2804D0112890
S11308F01CBF1328F82801D101207047002070473D
S1130900DFF8941801EA0021C20448BF41F08001D5
S1130910C00648BF41F040010846704770B5044620
S11309200D460020002605E00146B6B2A05D01F0A8
S113093041FA761CB1B2A942F6D3BDE87040DFE7B4
S113094070B5054614461E467E2028700020687047
S11309502846FFF72BFFFF2C05D0A87800F0C7002E
S113096040EAC400A87031462846FFF72BFFA87858
S1130970FFF7B9FF38B1A87880F02000A870687834
S113098040F080006870049CE61DF6B2412E03DB43
S113099040F2DF1100F0B2F9EC702046FFF7A3FF3C
S11309A038B1E87880F02000E870687840F04000C2
S11309B06870211D89B22846FFF7B0FF2919020C7F
S11309C001F8042F020A4A708870286CC01C28643D
S11309D0304670BD082802DA4A1C904203D0012830
S11309E008BF072901D101207047002070478842C1
S11309F018BFFFF7EFBF0120704738B5044604F174
S1130A0044052878032823D00121242001F00FFA7B
S1130A100120687002202870DFF87407C0F8904045
S1130A20A878401CA870DFF86C170978022905D152
S1130A30C0B20A2802DBBDE8314054E32046FFF788
S1130A408FFE00F0E9FC04210120BDE8344074E18C
S1130A502046FFF785FE4FF4FA71BDE8344000F0FC
S1130A608BBCDFF82C07C8E7DFF83007C5E770B5A3
S1130A7004460D46164601F04AFA00281EBFDFF868
S1130A80100790F8441003291CBF10F88C1F032989
S1130A9018D00321406880F844103146284601F0FC
S1130AA031FA3146252001F0C2F9032C02D101218B
S1130AB0222003E0022C05D101212020BDE8704052
S1130AC001F0B5B970BD04202DE9F8430746DFF8FD
S1130AD0D00600F0A1FCDFF8CC46206890F8440072
S1130AE002284ED10120A0712668B0788009804682
S1130AF0FF2596F8451029B1042F18BF002810D0FF
S1130B00B8460EE0B8463046FFF73AFE10B95FEA41
S1130B10080005D120790728B4BF401C01202071AA
S1130B2025793046FFF72CFE814606F140073868E8
S1130B30B84203D340F2DD2100F0E0F8CDF8009094
S1130B4063792A4641463046FFF7FAFE2068FFF7EC
S1130B5007FE4FF4FA7100F00FFC3868821B002086
S1130B60F8710023D2B231464046FFF780FF38794E
S1130B7020B13868C01E386001207871BDE8F143A7
S1130B8038E6BDE8F1832DE9FC4180460FF230617F
S1130B9000F05FF8212001F04AF95FEA080030D044
S1130BA0002500265DF8264004F14407787868B1F2
S1130BB0387803280FD12046FFF7FFFD0146404651
S1130BC0FFF715FF10B10520387014E038780428B9
S1130BD001D0787878B12046FFF7EFFD0146404612
S1130BE0FFF705FF38B1E178282001F020F920460D
S1130BF0FFF7EEFD0125761C022ED3D30DB1FFF7CE
S1130C00F9FDBDE8F3817CB504460FF2BC5100F058
S1130C1020F8232001F00BF900255DF8256096F8F3
S1130C204400042811D1B07880090ED0200006D0E9
S1130C303046FFF7C2FD2146FFF7CCFE28B130460F
S1130C40FFF78EFD002100F097FB6D1C022DE4D30D
S1130C5073BDD1E90023CDE90023012170472DE9BB
S1130C60F84F8046894692461F4600240AF1400503
S1130C70287903283FDA697900293CD10228BCBFCE
S1130C800120287100260AF13D00009006E0411C75
S1130C9080F800B02960641CA4B2761CB0B2484548
S1130CA03EBF28680099884215D2B6B218F806B03B
S1130CB05846FFF718FE00282868E8D00099091A5A
S1130CC0022906DB7D210170811C8BF02002427019
S1130CD0E0E70220287128680AF13D01884200D02B
S1130CE00FB1022129710AF13E01814203D24FF46E
S1130CF05C7100F003F82046BDE8F28F0FF2B040BB
S1130D0000F088BCF8B504460D460026DFF88404DC
S1130D10007802280FD1DFF88C74787958B1FFF786
S1130D2069FD00233A6829462046FFF798FF0646E6
S1130D300220FFF7C9FE3046F2BD10B5DFF850249B
S1130D40D2F8902002F140031C7920B1032C15D075
S1130D50042C0DD110BD012C18BF022C0ED108009B
S1130D601CBF0129032903D01868801A052805DB54
S1130D70022018710846BDE81040A5E610BD022106
S1130D800020DAE7DFF8082492F8D5200A4203D0DD
S1130D90017881F020010170704700002DE9F84FBF
S1130DA081468B4616460027DFF8E4A30AF1D604F1
S1130DB00AF1D1050EE0B8F1000F0AD02079401CE9
S1130DC02071C0B2042804BFA978002901D10520EC
S1130DD020717F1CF8B258451ED2207908281CBF08
S1130DE03178032918D0FFB219F807108DF80010D4
S1130DF04FF0010888B9FF29EBD07E2915D00820CF
S1130E00207103203070FFB219F807007E2803D048
S1130E107F1CF8B25845F6D387E07E2907D1082015
S1130E20207103203070384680E000F06EF920799C
S1130E30052805DA21889DF8000000F0BBFF20801A
S1130E402079072867D8DFE800F06A0408101A4BF5
S1130E504F539DF80000287161E080216846FFF738
S1130E6091FF9DF80000E87059E040216846FFF7C3
S1130E7089FF9DF80000A8703A2850DB48E04FF045
S1130E80000828780AF19801627952B19DF800208F
S1130E9082F020020A542878401C287084F80580C7
S1130EA011E0AA786B7893420DD29DF800307D2B27
S1130EB005D101216171511E814204DA28E00B54ED
S1130EC02878401C2870307803282CD06878401C7F
S1130ED06870A978C0B2884221D34FF001081EE09F
S1130EE09DF80000A0701AE09DF80000E07016E084
S1130EF02088FFF705FDA178E278120242EA014159
S1130F009DF800201143814202D10220307055E740
S1130F100320307007E040F25641FFF7EFFE3078CF
S1130F2003287FF448AF082052E7F8B2BDE8F28FF7
S1130F302DE9F24F82B00546DFF8549209F1D10B46
S1130F409BF80300C0F3C2079BF80000C11D89B2DF
S1130F50272000F06CFF9BF8031088090026B04698
S1130F6009F19504032D6BD0DFF828A218B99BF87A
S1130F70020088B164E09AF80020012855D1277056
S1130F80012A26D102208AF800004FF0010801F05E
S1130F900700FFF7F8FD1CE0012F18BF032514D14B
S1130FA00FF22C21D1E90023CDE90023207850B1A0
S1130FB000255DF825008178890918BFFFF708FC32
S1130FC06D1C022DF5D327700125012000F07BFE56
S1130FD0012600206070022D12BF012D9AF8000036
S1130FE0022842D19BF800A0BAF1000F3DD0267828
S1130FF056B1072E29DA721C931002EB5373DB10DF
S1131000A2EBC302974222D12770082F03DB40F2E0
S1131010C741FFF773FE9BF8001009F19800029A8C
S11310209047504520D026701BE0022AD1D10228D7
S1131030ADD0032804D101F00700FFF7E4FDC8E7B1
S11310400325012684F801800FE0012FDCD03A004B
S113105018BFBE4207D0012E0EBF072F711E8F424C
S113106001D0032500E00225012600F08AFD607806
S113107000B1002629463046FFF75FFE002060706D
S1131080B8F1000F1CBF022000F0BAFBBDE8F78FD7
S1131090454AF8B504460D461646262000F0C7FE1C
S11310A002208DF800006A4629462046FFF776FEA6
S11310B0074611E031469DF80000FFF739FF00F0C4
S11310C024F802208DF800006A46E91BC9B2E01931
S11310D0FFF764FEC719FFB22D4890F8DA0008281C
S11310E0E8D03846F2BD80B500F00FF800F012F8F1
S11310F0002000F0E8FD00202649087000F080FB85
S113110000210120BDE8044017E6442200212748BD
S113111000F064BA10B51E4C98220021204600F05D
S11311205DFAC4F890402046FFF752FB04F14800F2
S1131130BDE81040FFF74CBB80B5FFF75BFB1548DB
S1131140007802280FD11248D0F8900000F1400135
S11311500A79032A07DA4A792AB909683D308142B3
S11311608041C00F02BD002002BD80B5084890F840
S11311704410002904BF90F88C00002804D00221F8
S11311800020FFF7DAFD012002BD000014DF032078
S11311907CE503203CFF0320FFEFEFFFC4E50320C1
S11311A008DF03200CE603207119000014E6032075
S11311B06173682D76332E63000000000201000085
S11311C07CE50320C4E503207CE50320C4E503207B
S11311D07CE50320C4E5032022210FF22C3000F02B
S11311E019BA00210160012141607047002202E028
S11311F04168426008460128FAD1704738B5044670
S113120002E02846FFF7F2FF00F084FE2168012582
S113121021B14D6801224A600021216000F080FE66
S1131220012DEED16068FFF7E1FF0120606031BD60
S1131230406800B10120704710B50446606810B9D9
S11312404FF0FF3010BD20688A498068884206D07C
S113125000F07BFEA168081AB0F1004F00D3002013
S113126010BD2DE9F84F0D460027044668686668EE
S11312700FF2942AA8429046A14610D184215046E8
S113128000F0C8F90BE05FEA080006D02FB9A8689F
S1131290B168401A584528BF4F46B1467668DFF812
S11312A0D8B1AE42EFD16868A1450CBF6060C9F8FF
S11312B00400B8F1000F1BD08FB96E68AE424F46E0
S11312C006D19E21504600F0A5F901E03746766824
S11312D0012E04D0A868B168401A5845F6D3A74235
S11312E003D160686860656002E0786868607D606A
S11312F0BDE8F18F70B5044600F027FE05460120D5
S1131300A560207303E0316849683046884700F0DF
S113131001FE2168012639B14E687268B24212BFDB
S11313204A60002121600AE06168012909D08A68C5
S1131330AA1AB2F1004F04D80E4671686160002108
S1131340716000F0EDFD012EDDD10020207370BD31
S113135038B5041D00E02C1D2568012D0BD028682C
S113136080680028F7D0204601F03AFC2968896893
S113137028468847EFE731BD2DE9F04104460E4683
S113138020683C4905688068884219D126B1F62155
S11313900FF2741000F03EF900F0BCFD616841B931
S11313A0296809B9646003E04968616029684C6090
S11313B02C6000F0B5FD2046BDE8F04101F046BDCB
S11313C000F0C3FD80466FF00040864208D2287BBF
S11313D006EB080730B1A868B84203D17F1C01E0CE
S11313E000EB08072046FFF723FF48B1A0688742B7
S11313F010D046B9A8EB0000B0F1004F03D809E0C3
S1131400686860606C60A76021462846BDE8F041CA
S1131410012226E7BDE8F08138B504461549206865
S113142005688068884218D100F074FD616881B154
S1131430A14203D1002129600AE011464A68A24270
S1131440FBD12A68A24208BF296062684A60002171
S11314506160BDE8324000F063BD2046FFF7E8FE5E
S113146038B12068006800222146FFF7FAFE002008
S1131470606031BDD9110000010000802DE9F24FF8
S11314800546DDF828806E6892469B46A9460024EE
S113149001E0B1463E46012E19D0306800997768C4
S11314A08842F6D15FEA0A0004D059463046D04754
S11314B00028EED0A9450CBF6F60C9F804705FEA3C
S11314C00800746001D1304602E03446E2E7204669
S11314D0BDE8F28F2DE9F04147680C461546984661
S11314E000E03746012F0CD038687E68A042F8D15E
S11314F0280004D041463846A8470028F1D0384691
S113150000E00020BDE8F0816576656E742D71758C
S11315106575652E63000000814233D21044401E7D
S11315201144491E10E0121F11F8013900F8013965
S113153011F8013900F8013911F8013900F80139BD
S113154011F8013900F8013992B2042AEBDA93B2A6
S1131550002B1EBF11F8013900F80139521EF6D1D3
S11315607047121F11F8013B00F8013B11F8013BD1
S113157000F8013B11F8013B00F8013B11F8013B75
S113158000F8013B92B2042AEBDA93B2002B1EBF9F
S113159011F8013B00F8013B521EF6D1704710E0F0
S11315A0121F11F8013B00F8013B11F8013B00F850
S11315B0013B11F8013B00F8013B11F8013B00F835
S11315C0013B92B2042AEBDA93B2002B1EBF11F84E
S11315D0013B00F8013B521EF6D17047130003D0C3
S11315E00A46194601F024BD704710B500E0521EAA
S11315F093B223B100F005F8F9D0181B10BD0020F8
S113160010BD10F8013B11F8014BA34270470000D4
S113161042DE704738B504460D4602F033F802F056
S11316203FFE02F04DFE2946204602F04FFE2B46B7
S113163022460FF2B811012002F0B7FF29462046D6
S1131640BDE83440E4E72DE9F0474FF420685F4DEE
S11316502E1D5F4801687165016AB1655D490A68BC
S1131660F26549683166416A7166816AB166C16A28
S1131670F166016B3167806B706796F83400400740
S11316804CBFF46BB46B274603F05FF80146316539
S11316900022F26405F19003DFF83CC1DFF83CE17D
S11316A04F4A844224BFA2F1200AA24518D3A0695C
S11316B03064E4697464746DC4F30804062C13D1B3
S11316C0704511D360450FD200884DF64264A042A4
S11316D00AD1306858607068986040F2017803E07D
S11316E000273764776407463E48814202D20146A8
S11316F000E0091D0846904203D20C68B4F1CD3FC6
S1131700F7D03949081AB0640020002105EB8004A1
S1131710E167401C0628F9DB002003E0C0B205EBBA
S11317208004E167974223D252F8041D7145F9D32E
S11317306145F7D2CC07F5D5002405EB8409D9F827
S11317407C90894502D0641C062CF6DB062CE9D17A
S1131750002814BF401E0520E0E7B16F002405EB0C
S11317608402D2F88070D767641C052CF7DB1960FB
S11317700146481EC9B20029EFD1706DC0F30800BC
S1131780032808D0042809D005280AD006280BD03D
S11317900C280FD011E040F6012813E040F602288F
S11317A010E040F603280DE0B8F5206F0AD140F6AA
S11317B0042807E040F6052804E018B1312838BFB2
S11317C040F607284046BDE8F087000000000020EE
S11317D004ED00E000E300E08E2D0300DC040000D3
S11317E038DD03209C00002038DD03200D0A5B4116
S11317F053534552543A25703A25645D0D0A00004E
S1131800704770477047704770B504460FF2AC05D7
S1131810433808D0401E012809D9801E01280ED95A
S1131820C01F31D02AE0BDE8704003F0FEBC03F0D5
S1131830D4FC20B103F0F9FC0028FBD170BD134E99
S1131840307808BB01203070002003F067FD442C81
S113185011D00CD3462C05D00DD3472C07D140F61C
S1131860010001E040F6020002F0D8FE03E0C521C9
S11318702846FFF7CFFE0020307070BDD7212846E0
S1131880BDE87040FFF7C6BE70BD000040FF0320F6
S11318907047704770477047704701F0E2BC70476B
S11318A00EB403B07047704770471CB5059C019493
S11318B0049C0094FFF7F8FF13BD00007468726580
S11318C061642D63616C6C6261636B2D737475620A
S11318D0732E630010B5DFF8244404F1160000F001
S11318E00FFC04F11000BDE8104000F009BC38B54D
S11318F00546A81C03F0AFFD29786C785B2902D15A
S1131900062C00DA60B9034622460FF2044002F0C6
S11319101BFDBDE8344064210FF20C40FFF77ABE92
S11319202146BDE8384002460FF20C4002F00CBDDF
S1131930F8B5044616460D46F01C00F01EF90700E3
S113194001D10020F2BD00F06FFE012100F8011F5B
S1131950447032462946801CFFF7DEFD00223946DA
S1131960DFF89C0303F08DFE00F00BF90120F2BDBB
S11319702DE9F84F5FEA010980462DD0DFF87C633A
S1131980B08A002879D0308A00F04EFE0746B08A2B
S113199004284DDAC0F104014945BABFC0F1040777
S11319A0FFB25FFA89F730183A4641460C30FFF728
S11319B0B3FDB08A3818B08280B2042857DB06F130
S11319C00E0003F048FD0446601C00F0D6F80546FE
S11319D020B9B08AC01BB082002049E000F024FE88
S11319E08246707B0AF80400294606F1100003F0D1
S11319F065FEA9EB0700A042BABFA9EB0705ADB28B
S1131A0025462DB12A4608EB07015046FFF784FD11
S1131A10B08A2818E919B082718280B2211D8842E7
S1131A2025D10020B08206F10C00FFF760FF24E00E
S1131A3006F10C00FFF75BFF06F10E0003F00BFD4F
S1131A40B18A0B46041DE21A4A45BABF001D451A65
S1131A504D46F818AAB24146001FFFF75DFDB08A53
S1131A602818B08280B2A04204DA0020708248466E
S1131A70BDE8F28F0020B0827582778A32E0A01C24
S1131A8003F0E9FC82460AF1010000F076F883468F
S1131A9008B97782ECE70022594606F1100003F0FA
S1131AA0F0FD584600F0C0FD8346A9EB0700001F77
S1131AB08245B4BF55462D1F042200F059F8AAB23E
S1131AC0211D5846FFF728FDADB25545BCBF281D62
S1131AD0B082707B0BF80A000AEB0700C71CBFB288
S1131AE07F1CBFB24F450EDA18F807005B28F7D108
S1131AF0381D8145A9EB070508EB0704BFDAAAB234
S1131B0000F036F8B5820020708204E0BA1ED2B22A
S1131B10611C03F0A9FFB08A0028A8D1308A0028EC
S1131B20A5D0002106F1100003F0DCFD804600F092
S1131B3092FD0746404600F077FD0446E019A7F100
S1131B40010A10F8015C1FFA8AF1404600F09BFD7F
S1131B5028460128DAD0052806D11FFA8AF2214640
S1131B60404605F03DFFD6E7414603F0F1FED2E7DB
S1131B70214606F10C00FFF7CFBC002180B200F033
S1131B805ABE70B55D4CE08A00287AD0002104F179
S1131B90160003F06EFD054600F046FD064621885A
S1131BA07078C9B9012818BF0528E07205D10FF271
S1131BB0A81002F0C9FB022007E00FF2B41002F0F3
S1131BC0C3FB284605F0BAFF801DA080284600F01C
S1131BD042FDA188401A6080FFF7AEFA002850D079
S1131BE0A07A042813DA5B20A071E07A6188E0719E
S1131BF004F1080003F039FCA07AC0F10401204488
S1131C0089B2801DFFF77EF8A17A4018A072A07AED
S1131C10042836DB20886188A288091A324489B2F4
S1131C201044FFF76FF821880FF2FC064018E17AA0
S1131C302080012918BF052906D1618880B281421C
S1131C400DD24FF4DE7107E0284600F004FD218830
S1131C50884204D240F2BF113046FFF7DBFC2088F3
S1131C60618888420DD1FFF78AF8002104F116003B
S1131C7003F038FD2046BDE870400C220021FFF738
S1131C80ADBC70BD80B5FFF77CFFFFF778F81B484B
S1131C90C18A002904BF008A002803D1BDE801409D
S1131CA0FFF763BA012002BD38B504460D46284645
S1131CB000F0BAFC002244702946114803F0E1FC0C
S1131CC0BDE831405DE738B50C4CE58A1821204663
S1131CD006F0F8F8E58231BD80B50FF2AC0002F0F1
S1131CE033FB00F0EBF8FFF7FEF9BDE804401821E0
S1131CF0024806F0E7B800F0E2B80000D8F103208B
S1131D00EEF103200FF2880002F01EBB0000000079
S1131D106672616D65206572726F72202825782065
S1131D20257520257529000073657269616C2D6C19
S1131D30696E6B2E63000000727820737461727494
S1131D402028747970652025752C206C656E677465
S1131D50682025752900000073657269616C207321
S1131D6074617274206D676D742054580000000013
S1131D7073657269616C2073746172742064617438
S1131D806120545800000000696E6974000000006E
S1131D904661696C656420746F2073656E64206DA0
S1131DA0616E6167656D656E7420726573706F6EC8
S1131DB0736500000A46090241EA12214840C0F353
S1131DC00311484080EA00304101C9B20206D20E34
S1131DD041EA0221484080B27047000080B52E4994
S1131DE0C86020B10120087000F008F801E0087014
S1131DF008710020BDE8024006F021BD10B5264C54
S1131E00207838B107F0A0FEE168201DBDE810403D
S1131E1007F0E8BF10BD10B504460FF2840100209E
S1131E2008F0F8F92046BDE8104008F04FBA2F2812
S1131E300ADA1A4A32F81030C918B1F5803F28BFBF
S1131E404FF6FF7122F81010704710B504462F2C7E
S1131E5004DBF5210FF25400FFF7DCFB0F4830F8E8
S1131E60140010BD38B50146FF290C4C09D10025DA
S1131E7034F81510E8B206F0F2FB6D1C2F2DF7DBD9
S1131E8031BD34F81110BDE8344006F0E8BB5E22E1
S1131E9000210248FFF7A2BB28F3032038F30320F4
S1131EA049434D502052583A200000006E63702D73
S1131EB06576656E74732E6300000000704710B57C
S1131EC09AB001A8642105F0FDFF002404E09DF808
S1131ED0001001AA1155641C6946202008F0CBFDAE
S1131EE010B9E4B2642CF2DB202008F0F4FC08B151
S1131EF0FEF7ABFCE0B218B1E1B201A8FFF7C8F8F5
S1131F001AB010BDCAB20146202008F00FBE20202E
S1131F1008F0E1BCEFF31180602181F31188704770
S1131F2080F311887047000080B508F053FF08F073
S1131F305EFF80B202BD80B508F04CFF08F057FF89
S1131F40FA21B0FBF1F080B202BD80B508F042FF87
S1131F50BDE8044008F04BBF80B509F04EF80748CF
S1131F6000214160001D08F0CBFE20B139210FF2A1
S1131F701400FFF74FFB002002BD000080F4032093
S1131F8000F008B873797374656D2D74696D6572AA
S1131F902E6300007047000010B5DFF8984A02F085
S1131FA0DBFB606102F0D4FBA0616069E06118B101
S1131FB000F007F8652803DABDE810409D219BE096
S1131FC010BD10B5DFF86C4AA069E169884202D2FD
S1131FD0AF2100F0DBFBA069E169401A4FF6FE7106
S1131FE0084010BDDFF84C1A4A69904203D3C9690E
S1131FF0884200F017BD00207047002818BFFFF783
S1132000F1BF0120704730B1DFF8281A4969401A3E
S11320104010401C80B27047010001D1002070477D
S1132020DFF8101A496901EB4000801E70474088B0
S1132030C0F30C00C01C0004800C4000001D80B2E2
S1132040704710B50446FFF7F2FF04EB4000DFF8D9
S1132050E4194FF6FF7300E0801CCA69904202D273
S113206002889A42F8D010BDDFF8CC190860704796
S1132070DFF8C4190FF6BC30086070472DE9F84347
S1132080DFF8B05980462889A0B3B8F802000004EC
S113209030D4DFF8A4490FF69C3120680FF6A0393C
S11320A009F06CF820B94FF4BA714846FFF7B2FA58
S11320B0002701E07F1CBFB22889874204DB4FF46C
S11320C0BB714846FFF7A6FA286A216800EBC706E9
S11320D0306808B9316003E009F050F80028E9D10C
S11320E0B088401CB0804046FFF7A1FFF18801EBA7
S11320F04000F080BDE8F1830FF64430FFF78ABA60
S113210070B50446DFF82C09807801281AD120889C
S1132110FFF782FF04002FD0022526463046FFF742
S1132120ADFF708840F40040708036F81500FFF76A
S113213073FF060002D070880004EFD56D1C042DD7
S11321401ADAEAE7022817D1FFF7E4FE05462088E9
S1132150FFF762FF06000AD07088800403D540F2BE
S1132160392100F013FB3088C0F30E00208028468C
S1132170BDE87040FFF7D4BE70BD00B5ADF5806D0D
S1132180ADB04FF49662694600F073F80DF5806DBA
S11321902DB000BD2DE9F84307468846FFF747FFF9
S11321A045007888C0F30D007880800422D5FFF7BD
S11321B0B1FE04463846FFF726FF81464046FFF746
S11321C022FF0646AAB239464046FFF7A5F9002089
S11321D0DFF8601806E001EB400293894B4508BF25
S11321E09681401C0A789042F5DB2046BDE8F24314
S11321F0FFF796BEAAB239464046BDE8F843FFF75A
S11322008BB910B50C4601E0FFF71BFFA04202D2C8
S113221041880904F8D510BD70B5DFF81858044694
S1132220A878012804BF686A00281DD1204603F05D
S113223010FA022818DB0021204603F01AFA0DE0F8
S1132240012100F093FA78B93046FFF7E5FE0088E3
S1132250000409D43146204603F03AFA0646300019
S1132260EED16C62012070BD2046FFF749FF0020CB
S113227070BD2DE9F74FDFF8BC470020E0806062B5
S113228092B0FFF747FE0121A1704FF0000AA18828
S1132290ADF802100021A180E1690191FFF740FE31
S11322A02089C200206A92B20021FFF797F90DF14C
S11322B00200FFF725FFFFF72DFE217862785518FD
S11322C0FFF72EFEEDB206E004EB46000C30FFF7FC
S11322D017FF06F1010A5FFA8AF6AE42F4DB1298A0
S11322E048B1002501E080476D1C1298EDB250F80A
S11322F025000100F7D1D4F814904FF0000B01250C
S11323000DF1080A0198814502D3BBF1000F37D0C3
S1132310BBF1000F06D0ABF101005FFA80FB5AF865
S11323202B8004E04846FFF78CFEC8468146B8F887
S1132330020000F44041B1F5004FE3D140F4804085
S1132340A8F80200022638F81600FFF765FE070019
S113235012D0788801040FD440F4004078803846C5
S1132360FFF78CFEBBF1100FBDBF4AF82B700BF1C9
S113237001005FFA80FB0025761C042EE3DBC1E735
S1132380002DB8D0656A55B12888FFF745FE40880E
S1132390000447BF002060622846FFF7B1FE00201A
S11323A0ADF800008246606A002590B300880021E1
S11323B000F0DCF9ADF80000002100F0D7F9064682
S11323C0BDF8000000F047F90546304600F043F937
S11323D08246BDF85000504518DB304600F03BF90A
S11323E00746304600F020F9014613983A46FFF7B5
S11323F093F83046FFF710FE00224188C1F30D0127
S113240041803146606A03F08DF902E00020ADF8A6
S113241000006669B346B0460BE03088000404D57A
S1132420D6F80E0008B100F012FD3046FFF709FEA1
S113243006460198864223D23046FFF7F8FD8146CE
S11324403046FFF7E0FDBDF80010884206D10AEBE4
S11324500500C01C8010400000F1040970880004CD
S1132460DBD55846FFF7CFFD318801F4004108431E
S113247030801FFA89F00BEB400B06EB4008D4E7E1
S11324800220A0700DF10200FFF73AFE6846FFF744
S113249037FE129860B14FF0000902E0804709F15D
S11324A0010912985FFA89F950F829000100F5D161
S11324B06769B94611E0022639F81600FFF7ACFD4A
S11324C020B10088C0F30E0029F81600761C042EF3
S11324D0F2DB4846FFF7B5FD8146C145EBD30BE07F
S11324E00746FFF7AEFD4146FFF78BFE4845F7D39D
S11324F00198814529D13746474545D23846FFF7EB
S1132500A0FD064678880004F5D500F083F8B842AB
S113251004D17888C0F30D007880ECE704D201463A
S11325203846FFF737FEE6E7019707E03046FFF746
S113253088FD4146FFF765FE37460646464504D208
S1132540308800F068F88642F0D300F063F8014662
S11325503846FFF71FFE0198B946C7E73846FFF72C
S113256066FD06465846FFF74EFD8146720092B25C
S113257039465846FEF7D0FF002249460DF10200C5
S113258003F07FF80BEB460BFFF7C4FC064616E09E
S113259021784018401EC0B204EB40000021878916
S11325A081813846FFF738FD00F025FA00223946CC
S11325B00DF1020003F065F86078401E60706078E9
S11325C00100E5D10021201D03F08CF8FFF724FD64
S11325D0070006D1BDF80200A080C4F81CB000209A
S11325E0A0703046FFF79CFC002FB7D1BDF8000067
S11325F068B10446FFF710FD0AEB0501418020464F
S113260000F012F8139952462844FEF785FF15B0DE
S1132610BDE8F08F3888C0F30E00FDE480B5FFF705
S1132620FBFCBDE80240E8E410B5040001D1002041
S113263010BDFFF7F3FF18B940F2224100F0A6F8ED
S11326402046FFF7E9FC0188090402D5D0F80A0006
S113265010BD083010BD10B5010001D1002010BD1F
S1132660FFF7DAFC0446FFF7C8FC18B94FF487619A
S113267000F08CF82088000401D5208910BD608802
S1132680C0F30C0010BD2DE9F04104460D46FFF7E0
S1132690C3FC0646FFF7B1FC0FF2A45718B940F289
S11326A0464100F094F82046FFF7D5FF80463046B7
S11326B0FFF7C7FC454504462DD003DB40F24E41ED
S11326C000F085F83088000448BF358123D4758034
S11326D03046FFF7ACFC06EB4005FFF71BFCDFF8C8
S11326E05413CA69661B944204BFCD610026FFF7E8
S11326F017FCB6B2082E06DA32462846BDE8F04189
S1132700FF21FEF76BBF082200212846FEF766FF73
S1132710A6F108006880BDE8F081F8B507460C46CC
S1132720FFF77AFC06463846FFF795FF051B8442FF
S1132730ADB21AD003DB40F2774100F027F83088BD
S1132740000406D5D6F80A0034812844C6F80A00E5
S1132750F1BD3846FFF768FF22464119FEF7DCFE5B
S113276021463846BDE8F4408DE7F1BD38B50C4646
S1132770FFF752FC0546FFF740FC18B940F28741C9
S113278000F004F805EB4400808832BD0FF2B0403D
S1132790FEF740BFF8B50C461546FFF73DFC06466C
S11327A0FFF72BFC0FF2984718B940F28E4100F066
S11327B00EF82846FFF730FCFFF71FFC18B940F26B
S11327C08F4100F004F806EB44008580F1BD3846E3
S11327D0FEF720BF70B504460D46002608E0FFF75B
S11327E03AFF294686192046FFF7C0FFB6B20446D1
S11327F02000F4D1304670BD38B5C01C8D4C80101B
S11328004500A06AADB218B140F2A441FFF7BEFF83
S1132810A069E169411AC903B5EB114F05DA6900F2
S113282049420844A062012032BD002032BD8149E2
S11328300020886270472DE9F84F0446E01C8010A0
S11328407C4D40000027001DAE690FF2F43AB4F548
S1132850005F88461FFA80F904DB40F2BB41504612
S1132860FEF7D8FEFFF756FB8346E869A96A09B963
S1132870301A03E05FEA080202D0081A461008E0A2
S1132880701A4610B0B220B940F2E1415046FEF74A
S1132890C1FEB6B24E4515DBEF6907EB4900E861AE
S11328A0A86A28B1B8F1000F04BF00EB4900A86280
S11328B000207C80B880F880388004F108016889A1
S11328C0081868815846FFF72BFB1FB901211F2008
S11328D0FFF7ADFA3846BDE8F24FFFF794BBF8B501
S11328E004460D46164600210A20FFF7A4FF0746BA
S11328F0FFF792FB0681C0F80A40018841F40041C9
S11329000180C0F80E503846F2BD70B504460D463D
S113291011462846FFF78FFF06463CB1300005D02C
S1132920FFF782FE2A462146FEF7F6FD304670BDCB
S1132930F8B504460D46164615E02846FFF78BFE0B
S1132940B7B2874288BF07462846FFF76DFE0146A7
S11329503A462046FEF7E0FD01212846FFF706FF30
S11329603C440546F61BB0B20028E6D1F1BD2DE982
S1132970F84381460E461446FFF7CCFA2D4D8046A7
S1132980287801002BD0401E2870C0B205EB40000F
S1132990A9788789F9B981813846FFF73DFB00F0B2
S11329A02AF83846FFF740FE32464946FEF7B4FDA2
S11329B03846FFF739FE224600213044FEF70EFE6A
S11329C000223946281D02F05CFE4046FFF7A8FAB3
S11329D00120BDE8F2836878401C6870E1E7A01923
S11329E0012180B2FFF727FF0700DAD14046FFF745
S11329F097FA0020EDE74DF6FF72418811404180BF
S1132A00704738B5FFF786FA044600210B4802F0F8
S1132A1069FE05462046FFF783FA284632BD05487D
S1132A208188481E8041C00F704702490020888079
S1132A3070470000ECF6032010E20320F0F60320B8
S1132A402DE9F0410446884617461E464046FFF7E6
S1132A50EBFDC5194046FFF7FEFDB919884203DABC
S1132A6040F27B51FFF792FE300013D0069801002C
S1132A7003D132462946204604E001283246214645
S1132A80284603D1BDE8F041FEF746BDBDE8F0415C
S1132A90FEF785BDBDE8F08110B50C46FFF7C4FD17
S1132AA0005D10BD38B50C461546FFF7BDFD055554
S1132AB031BD38B50446FFF7CEFD05462046FFF785
S1132AC0B3FD2946BDE8384000221EE770B50D4627
S1132AD0691C0446C9B2FFF7DFFF060229462046F7
S1132AE0FFF7DAFF301880B270BD00B583B002235F
S1132AF08DF80420120A8DF80520012200920A465E
S1132B00014601A8FFF79CFF07BD10B50446FFF777
S1132B1069FA10B1A4F1080008E010BD10B5FFF780
S1132B207BFA0446FFF783FA04EB4000BDE810404B
S1132B30FFF769BAF8B504460D46FFF76DFA064685
S1132B407088C0F30C072846FFF766FA07F0010106
S1132B50CF19FFF76CFA07EB40072046FFF7DEFFBB
S1132B60A84203D040F22B61FFF710FE7780F1BD3D
S1132B702DE9F0410C46FFF74FFA054604F0010138
S1132B806888C0F30C0606F001008019001B471A80
S1132B90E01C20F00300284400F108082846FFF751
S1132BA02CFABFB208B1A64203D240F24561FFF746
S1132BB0EDFDB44201D0092F01DA00200EE06C8053
S1132BC0082200214046FEF709FDA7F10800A8F8F5
S1132BD002004046BDE8F041FFF715BABDE8F081B8
S1132BE070B5044682B02068FFF78FFFADF800008F
S1132BF0F0B1FFF711FA0FF248050088000404D57C
S1132C0040F25E612846FEF705FD6846FFF778FA54
S1132C10BDF80000FFF700FA0646FFF7EEF920B909
S1132C2040F264612846FEF7F5FC06F108002060D6
S1132C3073BD0000756E636C61696D6564000000AE
S1132C406275666665722D6D616E6167656D656E30
S1132C50742E630038B506F0CAFB044606F0D1FBB7
S1132C60054606F0FBFB024600942B460FF2782142
S1132C70002007F0C1FABDE8314006F0E1BB0020B6
S1132C8009F008BA80B5FFF79CF9BDE80840024690
S1132C900FF28021002007F0AFBA012009F0D9BB60
S1132CA030B5044699B0206802F030FCC5B26846DD
S1132CB0642105F007F92168642D31BF2A46632297
S1132CC04819A0F163016846FEF726FC616868466E
S1132CD005F086FD19B030BD1FB5044669466A4843
S1132CE009F058FC684609F02AFD204605F02AFD43
S1132CF01FBD38B50546654C04F1A40009F081FEFA
S1132D002046FEF76EFAFEF7E7FF06F0BBFA6048CE
S1132D1006F039FB0AF004F85E480AF065FF5E48E5
S1132D201DB169780170A87802E0012101700020CA
S1132D305A49087009F093FE04F1100009F059FE95
S1132D400BF042FD016809B1FFF7AAFF01F0A8FAF0
S1132D50534D2878FF2807D0FEF794FF20B9287830
S1132D600BF04CFDFF202870FEF7C5FF06F00FFBAB
S1132D7009F0DDFF4B4807F07CF80FF22C2007F038
S1132D8078F82046FEF7B6FA002000900023464A61
S1132D900FF2242104F1100009F018FE0028D5D008
S1132DA00FF2381200F04DF8D0E7F0B583B009F017
S1132DB0B5FF0BF039FD0BF0DBFD012300224FF4CE
S1132DC0E131002001F0D8FB0BF0F7FC40F2A174D4
S1132DD0C440E00708D500200BF0CEFD00200BF026
S1132DE06AFE00200BF034FF2B490FF2F00401209F
S1132DF008700020294908702C4809F0FAFD224681
S1132E000FF23C11002007F0F7F906F0FAFA054634
S1132E1006F0EDFA064606F021FB074606F01EFB17
S1132E200246019500963B460FF22411002007F05C
S1132E30E3F9224600F005F80020FFF75AFF0020CE
S1132E40FEBD0FF2F401002007F0E4B970477047AB
S1132E500020704780B50FF22810FFF705F9FEF740
S1132E6039FD0FF22810FFF7FFF80848FEF770FA53
S1132E700FF22810FFF7F8F80D48FFF741F9BDE805
S1132E800140FFF7F5B8000044F70320F0F10320F8
S1132E90C55A0000D92C000018F703204BFF03206B
S1132EA0F2E30320C8450300591F030000F2032086
S1132EB074FE032010B50B46144638B1014618467B
S1132EC00CF08CFA20460CF043FF0120BDE81040C2
S1132ED00AF026BD704770477047000069702D6D79
S1132EE06F64656D000000006368616E6E656C2040
S1132EF025752C2070616E20696420307825327825
S1132F002C2073686F7274206964203078253278BD
S1132F100000000025752062797465732072656D68
S1132F2061696E696E6720617420746F70206F66CA
S1132F3020686561702E000025733E2000000000AB
S1132F4025732D6170702072656164790000000042
S1132F506368616E6E656C2025752028307825784D
S1132F60292C206E6F6465206964203078253278BE
S1132F702C2070616E20696420307825327800003E
S1132F8055415254206C696E6B00000061707020D2
S1132F906576656E74207175657565007365744E2C
S1132FA064446174610000002CF30320FD1D0000E3
S1132FB00000000000000000CC4D0300211F0300AE
S1132FC0D44D0300D84D030003240300DC4D03005B
S1132FD0E04D030003240300DC4D0300E84D03002F
S1132FE003240300F44D0300F84D0300852C000076
S1132FF0D44D03000C4E0300552C0000D44D0300A7
S1133000144E03007F2C0000D44D0300204E030017
S1133010ED980000D44D0300284E03009B2C0000C3
S1133020D44D030000000000000000000000000078
S113303062F30F2262F31F42401810F0030308D01A
S1133040C91A1FD3DB0748BF00F8012D28BF20F899
S1133050022D130030B414461546103928BF20E958
S11330603C00FAD8490728BF20E90C0048BF40F8C3
S1133070042D890028BF20F8022D48BF00F8012D37
S113308030BC7047C91818BF00F8012DCB0728BF02
S113309000F8012D70470000890001EB401000F199
S11330A084400260704710B54C0021460CF018FFB4
S11330B0A04201D0002010BD012010BD80B50CF04D
S11330C043FF00B10120C0B202BDDFF8200A00783E
S11330D000B101207047DFF8841A097C01B97047F8
S11330E080B50CF0A9FE20B1BDE804404FF49771FF
S11330F0C0E201BD10B5DFF8F4291378010018BF50
S1133100012103B101239942107017D058B16FF017
S11331107F00FFF7E0FF0CF04FFFC0050ED5BDE8C0
S113312010400DF06CB8DFF86C4A94F9050000F01B
S11331308FFD2079BDE8104000F0B7BC10BDDFF86A
S1133140AC19097801F0FE010843D3E7DFF8700AEF
S11331500068000E00F00F00032801D10120704721
S11331600020704780B5B0F5004F07D100F09EFDF8
S1133170DFF8F40900F06AFCBDF80000DFF8141A67
S11331804883002002BD410904D1DFF8E019097821
S113319061F34710A0F10B01102904D2DFF8F419F0
S11331A0084410F8030C70472DE9F04F440900F06F
S11331B01F050027DFF80C8A00E07F1C98F80660E2
S11331C0F8B2B04245D2D8F80800FFB250F8270050
S11331D04FF0000C01E00CF1010CC67E5FFA8CFE8E
S11331E0B645EAD2D0F81CE05FFA8CFC182616FB30
S11331F00CF6B6449EF8086006F00706A642EAD12B
S11332009EF80960B542E6DB9EF801B09EF8009096
S113321006EB0B0AAAEB090AAA45DCDBDFF8FC493A
S1133220247854B1DFF83449E47C34B9DEF80C4036
S11332301CB12468EC40E4070BD511B1AC1B4C4421
S11332400C7012B19EF8081011701BB1C3F800E0A5
S113325000E00020BDE8F08F400918BF40F01800DE
S1133260704780B50CF070FEBDE8084001460022AE
S113327000200CF076BE0B38102834BFDFF8280A83
S1133280DFF8A40A0068704710B5DFF8A00AC17916
S11332900A0018BF022913D1007800F0B3F80446DD
S11332A00CF0C2FF60B1012100200CF0EDFF2046BC
S11332B00CF0BAFF20B1BDE8104040F29221D9E1F0
S11332C010BD2DE9FF41FFF75EFF044604F01F0027
S11332D01B2824D2002000906B4601AA002120461E
S11332E0FFF762FF07001AD02046FFF7C4FF5FEA2A
S11332F0000814D0DFF86468DFF89858706B8045D4
S11333000FD002A8414608220DF038F8288BADF8FA
S11333100A00C6F8348002A80DF06CF808B98A20B7
S113332020E000983062F761009800B10069706293
S11333309DF80400707400202918097AA14214D061
S1133340401CC0B21028F7D32978E0B288421CBFD1
S11333502C70FFF799FF96F91200DFF8D81AC00114
S11333600860002004B0BDE8F08100F10B04EBE735
S1133370DFF8B80900787047DFF8B009B0F9180031
S1133380002854BF05216FF0040108180A2190FB9E
S1133390F1F040B270470A2110FB01F0FFE7F8B5E5
S11333A000F5D77240F277239A4201D38B20F2BD05
S11333B0DFF8A827DFF87449136A0A25002B1EBF1B
S11333C0A67E06F0C006802E12D0D67C86B993F96C
S11333D0026016FB05F7B842B8BF16FB05F007DB21
S11333E093F9033013FB05F68642B8BF13FB05F0CF
S11333F0117C11B10DF002FC01E010FB05F02083FB
S11334000020F2BD38B5FFF7BEFE0446FFF733FFD8
S113341090B10023002200212046FFF7C5FE58B1D9
S113342004F01F051B2D07D22046FFF715FF18B91E
S11334300B2D01DB284632BDFF2032BD7047C0B2E0
S1133440704710F1590F01DA0020704710F1240F72
S113345001DBFF2070475A300002362190FBF1F067
S1133460C0B2704738B5DFF8F446DFF8C45A00201C
S1133470A063687828B10DF0C3FB012818BF0328A6
S113348001D1002032BD616ADFF8642A00291FBF20
S1133490236A5B69002B022813D1207EA26318B132
S11334A000200021642203E0E87829794FF4A07217
S11334B02070A2806170A878A0708020E080002035
S11334C028E0DFF8705A207EAB420FD1DFF8202BC2
S11334D0A26368B90879207001228B7808799A4030
S11334E0101891F903201018401E08E0A26318B1C7
S11334F000202080642005E048782070887860707F
S113350008780001A0804879A07008890001E08053
S1133510C8880001A06000F0CFFBE07094F90200BD
S1133520010048BF4042C0B232BD7CB50446DFF85A
S11335302C66257896F9190008B18C2076BDFFF722
S113354091FFF076DFF8E809817981F00102727366
S113355001B1AD1EF17C61B9007850B1607880068C
S113356007D5012030736FF001007076E078B076F3
S113357004E0002030734FF0FF307076EDB203208A
S113358000F0D8F8681CADF80400009468460DF00B
S113359045FB18B140F2344100F07FFA002076BDBB
S11335A0F8B5DFF8B85595F919100024091D042958
S11335B00CD8DFE801F0080B0D0D0300FFF7B5FF91
S11335C0040005D0F2BD6C768D20F2BD8C20F2BDD6
S11335D00CF0D0FDE8B1A86BDFF81419884218D1BB
S11335E0E87EB0B1DFF8D8050068002811D5DFF80F
S11335F0040AC168C1600122006800F00F0002FAE9
S113360000F0401E014204D100F092FB64200DF052
S113361009FBFEF77FFC064695F9190010F1010F2E
S11336201CBF95F9190010F1020F1BD195F919006F
S1133630DFF8F876404268763878FFF7E3FEAA6B45
S11336402B4605F10C010DF09BFA18B9FEF76CFC42
S113365038620AE040F2894100F01FFA00206876DF
S11336608C2402E0002068768D243046FEF758FC56
S11336702046F2BDDFF8DC0AFDF7CCBFDFF8AC066C
S1133680408B704770B5FEF745FCDFF808550446DB
S1133690E879012801D120461FE2DFF8BC1ADFF8DF
S11336A0B46A4020086000F09EFADFF85C1B4FF417
S11336B0001008600022002102200CF043FE18B123
S11336C040F2D14100F015F9002101200CF026FE52
S11336D018B140F2D34100F00CF90EF01AF80021B1
S11336E000200CF0C0FC00F00EFB0120E87100F09B
S11336F01CF8091D07290DD8DFE801F0100C04049B
S1133700100808086FF00301417607E0892000F0F3
S113371093FB03E040F2F34100F0EBF82046FEF7A0
S1133720FFFBBDE870400BF0BFB8DFF8F80590F977
S1133730191070472DE9F843DFF858540446E87926
S1133740A04251D00328DFF8C47ADFF8088ADFF8F2
S1133750B89A4FF4001640D8DFE800F03802301F62
S11337600BF0ABF8687880F00102012102200CF024
S1133770E9FD20B14FF4A2614046FDF74BFF012162
S113378001200CF0CBFD20B140F212514046FDF770
S113379041FF0320032CE87116D0C9F80060022011
S11337A0E8712878FFF72EFE0CF03EFD20B14FF4AF
S11337B0A4614046FDF72EFF022C15D0002C18BF43
S11337C0032C11D10020E8713E600DE0022C0BD1D6
S11337D0C9F800600220E87106E04046BDE8F44301
S11337E040F23651FDF716BFBDE8F183DFF8440A15
S11337F0C079704710B5032804460ED8DFE800F0FE
S113380009020909FFF73EFFBDE81040002000F05F
S113381095BC012000F092FCCDE1BDE8104040F2DF
S1133820545127E7CD4890F91910002944BF0021CD
S11338304176DFF860038079012808BFFFF722BFD3
S11338407047DFF8F0098079704780B5032801DB01
S1133850012002BDDFF83C138871C979884218BF82
S1133860FFF7C8FF002002BD38B5DFF8CC49226855
S113387022EA0003084040EA0305954209D00121E9
S113388028460CF0C2FC18B140F27D5100F005F955
S1133890256031BD70B5B1490446087C40B340F69B
S11338A07440220018BF014602D1C97D01B1042130
S11338B0FFF7DAFFDFF884590FF6A4164CB1DE20C7
S11338C00DF05CF918B140F2B65100F012F8002284
S11338D008E01E200DF052F918B140F2BE5100F07C
S11338E008F801222846BDE870400321FFF7D4BB45
S11338F070BD3046FDF78EBEF8B50446022C0FF6B7
S1133900601703DB40F2EF5100F09DF8934D287CE3
S1133910002840F094809F4EF079012803D040F2B3
S1133920F55100F090F80FF64C100CF089FC18B12A
S113393040F2F75100F087F805200CF097FC18B11D
S11339404FF4BF6100F07FF806F12C000EF018F977
S113395018B140F2F95100F076F80EF059F918B1A7
S113396040F2FA5100F06FF81E200DF007F918B17B
S113397040F2016100F067F80FF604100CF00DFB43
S113398018B140F2026100F05EF800224FF4803179
S113399000200CF0E6FA01200CF044FC18B140F2CF
S11339A0056100F050F801220321DFF89008FFF7C9
S11339B073FB012028740223DFF8840800F046F822
S11339C0BDF80000C0054CBF0020BDF80000A8747D
S11339D00CF0D0FBFFF75EFF708BFFF7C3FB0EF01C
S11339E06FF900F085F83078FFF76BFC18B140F2FE
S11339F01E6100F028F8F07800F039F8307900F012
S1133A0054F8687D00F084F8707800F0C5F800F090
S1133A1053F900F01DF9E87D00F0FAFBB6F918003F
S1133A20FFF7BDFCB08B00F083F8F08B00F0A0F83A
S1133A30B07800F001F9601E8041C00FF07120469B
S1133A40FFF7D8FEF1BD3846FDF7E4BD01887F22BB
S1133A5068460EF067B980B50CF0F0F910F5007FF8
S1133A6002D16FF07F0002BD8005001602BD10B5C3
S1133A7004463A48007C48B1601E8041C00F0EF0F5
S1133A80F6F818B14FF4CB6100F007F82000DFF826
S1133A90A41718BF0120C87010BD0FF2C470FDF741
S1133AA0B9BDDFF89007C078704770B50446FEF7DB
S1133AB031FA0546374804712848067CFFF705FBB0
S1133AC000F0010080F00100064205D014B10CF0B2
S1133AD098FB01E00CF093FB2846BDE87040FEF72C
S1133AE01FBADFF8500700797047000044FF032035
S1133AF01A48007C00B9704780B5DFF848070EF01B
S1133B00A8F820B9BDE8044040F28561B2E501BDE2
S1133B10DFF834174875097C01B9704780B50EF099
S1133B209AF820B1BDE8044040F28F61A2E501BDDE
S1133B3018498883DFF81017097C01B9704780B5EC
S1133B400EF085F820B9BDE8044040F29E6191E58D
S1133B5001BDDFF8E006808B7047000098F3032076
S1133B60DFF8D006C08B7047125A030043FF0320CE
S1133B700849C883DFF8D016097C01B9704780B5BD
S1133B800EF063F820B9BDE8044040F2B26171E57B
S1133B9001BD0000E4E00320DFF898164A78824271
S1133BA000D1704710B5CC794870012C02D0FFF7D2
S1133BB069FD00E010BD2046BDE81040BAE50000F4
S1133BC0044008404851030080B500F00CF800F0B0
S1133BD020F801210CF0FCFF20B1BDE8044040F2C4
S1133BE0D36147E501BD012101200CF04DBB80B537
S1133BF00CF0FFFF1CE080B5FFF7F5FF00F009F8BB
S1133C000CF0D7FF20B1BDE8044040F2E16131E59A
S1133C1001BDDFF820060078FFF7F4BBF4E30320CE
S1133C2080B50CF0D3FF18B140F2E661FFF735FF21
S1133C30BDE80140FFF728BB10B5040002D00EF028
S1133C4075F901E00EF08EF9DFF8E805847010BD17
S1133C5038B504467F2C0CD100F028F8DFF8EC05C9
S1133C60FFF7F4FEBDF80000C00554BFBDF80040E6
S1133C707E24FEF74FF90546FFF727FA58B960B2DC
S1133C807E2804D12749096A09B191F904007E28E4
S1133C90B8BFFFF720FADFF89C0544712846FEF709
S1133CA03FF931BD0000000070E003204FF6FF70C3
S1133CB0ADF80000022370471C4890F905007E28E7
S1133CC007D1DFF88405006A08B97F20704790F9AE
S1133CD00400704710B50CF06FF9800411D5DFF8BB
S1133CE054454FF0FF3060620CF066F9C0044CBFDD
S1133CF00320012000210CF0D5F9FEF715F9A0628C
S1133D0010BDBDE8104080B5DFF828054FF0FF3145
S1133D1041628162FFF71AFA10B9BDE8044033E149
S1133D2001BD000098F30320C0F00320E4E0032069
S1133D3080B50CF041F94005BDE804404CBF0320B8
S1133D40012000210CF08FB910B5DFF8FC440020ED
S1133D50607604200CF05BFFDFF8D8144FF0FF30DE
S1133D600862E07C10B10120207510BDBDE8104050
S1133D70002200218D200EF050B9DFF8CC0490F918
S1133D80191003290BD1002141764FF0FF31DFF8E0
S1133D90A42411620022816A40200EF03EB97047CB
S1133DA038B5DFF8A444054694F91900012835DB39
S1133DB094F91900032831DADFF89404006868B331
S1133DC000200EF0E4FB48BB2868A062FEF7BDF8B3
S1133DD0E062E07E08B1E06A206394F919000128EA
S1133DE004D0022814D10320607631BD002060760F
S1133DF04FF0FF30DFF83C140862E07C10B1012082
S1133E00207531BDA16ABDE8384000220EF005B925
S1133E10BDE834404FF4FF61FFF72CBCFFF773FF9C
S1133E20FEF793F8E0620EF054F9BDE831400CF06F
S1133E30ECBE000040300840F8B50446FFF763FFCD
S1133E40DFF8F063DFF800544FF0FF373762FEF716
S1133E507CF8E86295F91900012812DBE87E08B1C4
S1133E60E86A2863002068763762E87C10B1012094
S1133E702875F1BD2046BDE8F840002200210EF06F
S1133E80CCB8F1BD10B5DFF8C04394F9191001297D
S1133E9006DAC0062BD5FFF736FF0020A07510BD4B
S1133EA0810748BF882002D4010703D58920BDE8D3
S1133EB01040C1E71421084202D0BDE8104043E796
S1133EC0410609D54C480068400410D4BDE81040B0
S1133ED0002100200CF0C7B8000602D5BDE8104050
S1133EE026E7BDE8104040F67E01FFF7C3BB10BDD6
S1133EF0C112010010B50CF03DF978B1FFF726F9B5
S1133F0060B1DFF830434FF0FF30A062FEF70CF8E9
S1133F1060620CF0F0F800210CF0C4F8DFF828031C
S1133F20C07D18B1BDE8104000F0AFB910BD00006D
S1133F30A4E103208842000010B50446600748BF8E
S1133F40002002D4200702D50120FFF7D3FFE006AA
S1133F5048BFFFF7BFFE14F48C6F18BFFFF7D3FE02
S1133F60200510D50CF006F968B1FFF7EFF850B151
S1133F700CF0CDF804460CF0BEF8844203D0204681
S1133F80BDE8104000E010BD00210CF08BB838B53E
S1133F900178DFF8B442DFF8BC52022909D1408825
S1133FA00EF0A8FBFF280ED000F015F80BD100206E
S1133FB00FE00329FBD1801C0EF0BBFBFF2802D0CD
S1133FC000F009F8F3D00020A0750DF068FE08B9E0
S1133FD00120A07531BD296831F810004FF45671E5
S1133FE008427047952801D3002070479A487047CB
S1133FF0EF1301004C500840044008407047084447
S1134000704770472DE9F0418A4E7278044682F079
S11340100102207994F8088000F00101114379D05D
S1134020B8F1060F76DBA17A090673D4E17A0FF2B0
S11340303025854F01F00701022926D1FFF763FEE1
S113404097F9190003281CD12079B8F1060F14D16F
S1134050410716D5B97E627B91420ED10020787655
S113406000214FF0FF303062E07ABDE8F0410009F2
S113407000F001028F200DF0D0BF400748BFFFF7CA
S11340807CFEF078002848D115E0400748BFFFF7D0
S113409074FEF07878B12079400706D540F65E11B9
S11340A02846FDF7B7FAF07828B1E07A800602D501
S11340B00CF0A9F818B1FFF726FE0020B875A07A15
S11340C0401C404504D040F678112846FDF7A2FA7A
S11340D004EB08053078A8720020E8726079287330
S11340E095F90C00FFF7ADF9687308F10801FF209A
S11340F0A873C9B22068000CE8732068000A287409
S11341002068687404F10A00BA7D0EF049FB0020AF
S1134110B87502E0BDE8F041DCE5BDE8F0810020BF
S11341200EF06EBCFDF7B9BB70477047704770471F
S1134130704701460FF23010FDF76CBA3D49C9795A
S1134140012906D145490B7898421CBF08700AF032
S1134150B6BB7047604200000840084038B50446CA
S1134160002C0D4607D4FDF7DFFE011B89B28D42FA
S11341708041C00F32BD002032BD2DE9F041040062
S113418004D10CF043FDFDF7C5FE0546294F0FF29F
S1134190D006386A4FF47A71FFF7E0FFB8B1DFF860
S11341A0A88098F91900012803DA40F60621FFF7E0
S11341B0A0FB40F60721FFF79CFB98F919000328A0
S11341C002D1FFF7DAFD02E08920FFF735FE786AB5
S11341D00A21FFF7C3FF28B14FF42161FFF789FBE0
S11341E0FFF791FD0BF0E8FE00F0FF01B86AFFF75E
S11341F0B5FF08B1FFF787FD24B92846BDE8F041B3
S1134200FDF78EBEBDE8F0811860084618600844CA
S113421038B50D4D0446287C50B1200002D10BF076
S1134220A9FF08B1042100E000210420FFF71CFBD2
S1134230EC7531BDE4E00320D4F3032044000840CE
S1134240145A030044F7032098F30320165A03007A
S11342500810084040E00320D8F3032045FF032062
S11342607068792E630000006C69627261696C2E5B
S1134270610000007F00000000F04902010001001D
S1134280010001003C4E030000007047064800682E
S1134290800704D52E210FF21800FDF7BBB9704733
S11342A002480EF033BC00001C20054000200540ED
S11342B06D6963726F2D636F6D6D6F6E2E63000099
S11342C0602080F3118870470EF0F7BC03460A465D
S11342D09DA10420FFE70CB480B502AA00F05CF8AD
S11342E001BC5DF80CFB0A0003D0034697A1112022
S11342F0F1E7704700B589B00AF0F2FA002107919E
S1134300069105910491039102910191024690490D
S1134310009100230FF24C210120FFF7DCFF8D48B0
S1134320C178437802780391816802918188019170
S11343308178009143200FF23821FFF7CCFF09B0B8
S113434000BD8549087070470EB410B50446824814
S11343500078A1B080B10EF03AFC68B180226946C1
S1134360022000F0B5F823AB224600210FF27910A9
S113437005F01EFE00F0DCF821B010BC5DF810FB67
S11343800C2200217548FDF729B9744931F8102031
S1134390521C21F8102070472DE9F04107466E4861
S11343A00078A2B00C469046002690B9380018BF99
S11343B0012F0ED0042F18BF052F0AD0312F18BF9C
S11343C0332F06D0372F1EBF3B2F4FF6FF718F427E
S11343D075D10EF0FCFB002871D0802202A938466A
S11343E000F076F8002C68D007E08DF80400012274
S11343F001A9002000F078F8641C207801005CD04A
S1134400A0F130020A2A05D20A2101FB0600A0F11C
S11344103006F1E7422818BF44280CD0462827D09C
S1134420572808D0622836D0662821D06C281CD0A2
S113443070281DD0D9E7422807D158F8042B6946C3
S1134440012001F016F801220DE0572858F8042B3A
S1134450694604D1012001F00CF8022203E0012096
S113446001F007F804226946C3E758F8046BC3E770
S113447058F8041B462807D10026885D00281EBF73
S1134480761CF6B2FF2EF8D1F2B2002000F02CF820
S113449098B90026B0E758F8047BB8B20028ABD02E
S11344A0FEF7D9F80546B8B2FEF7BEF80146EAB2FF
S11344B0002000F019F800289ED000F039F822B04E
S11344C0BDE8F081122804BF002006F0D6B9704779
S11344D010B5234C61600146227060680EF07DFBCC
S11344E0607010BD00000000F8B515000C461C4EAD
S11344F01CD07078317873680F1AFFB2EDB2BD42E8
S1134500B8BF2F463A4621461844FDF705F870789F
S113451038187070ED1B3C44E8B238B17068711CF7
S11345200EF0BEFB0028E4D00120F2BD0020F2BD55
S113453010B50B4C6068611C0EF0B2FB08B1012091
S113454010BD607010BD0000574600006C70000084
S113455044F703209045030046FF03206CF4032036
S113456078F40320424238704242424257424200A9
S1134570424242574442000080B50146002009B936
S113458006F0B9F9C0B202BD80B50246262012B9C0
S1134590002006F070FAC0B202BD80B501460020CA
S11345A009B906F037FBC0B202BD0CB438B50446F5
S11345B004AA00F00FF805462046FFF7EEFF284650
S11345C032BC5DF80CFB80B508461146FFF78BFE44
S11345D0002002BD80B513460A460146034805F093
S11345E0E7FC401E8041C00F02BD0000C74500002B
S11345F038B504460D46284600F088FFC2B2294665
S11346002046FFF7E0FF002032BD0000890001EBE7
S1134610401000F1844002607047000010B5044669
S1134620FFF74EFE4E484AF6E8510160C162016B45
S113463001F00F01022913D14A4A01211160806B54
S113464000F00300012818BF022809D100221C2110
S11346504548FFF7DBFF002200214448FFF7D6FF5F
S1134660200A0028424808BF24024FF20F010480A8
S11346704180BFF35F8FBFF34F8F3E483E4A0168CE
S113468001F4E06111430160BFF34F8F00BFFDE708
S113469080B5002000F009F830B9BDE80440DD2100
S11346A00FF2EC00FCF7B6BF01BD2DE9F042334C2C
S11346B0216842428D1815F01F0108D0002802D449
S11346C04842054403E04842284400F120052C48B0
S11346D0A5F12006A84224BF2A48864203D3EFF35B
S11346E00880854201D300202DE0FDF713FC8146AC
S11346F02548006810F0010718BF0EF044FB20683D
S113470001468D4206D2A84224BFCD2100F80119EA
S1134710F9D206E02038002201E000F8012B88429B
S1134720FBD3256030460EF035FBE22001E006F8AD
S1134730010BAE42FBD30FB10EF002FB4846FDF76E
S1134740EFFB20682038BDE8F0820C480068704711
S11347500A480068203870470C4870470000000081
S113476008300E404040084060300E4074300E4027
S1134770000000200CED00E00400FA0520E1032015
S113478060CE03207017002094ED00E000000020AC
S11347906D6963726F2D696E7465726E616C2E63E0
S11347A00000000010B5DFF8004BDFF8003B248860
S11347B0001B06E010B5DFF8F84ADFF8F03A246889
S11347C01B1B03EB4000002304E030F8134021F8E6
S11347D013405B1C9342F8DB002010BD2DE9F0412F
S11347E082B004460D4616460027DFF8C08A01E071
S11347F0BF1CFFB2B74217DAE819E95D4078DFF869
S1134800A83A1B8801EB0020ADF80000012207EB59
S1134810D77004EB6000C01A00F09DFB0100E7D0E4
S1134820FCF7F2FF002000E00120BDE8F681F8B5B6
S113483004460F46154600260DE000F019F8BDF8B1
S1134840000004EB4601000A48707F1CBDF800001C
S113485004F81600761CB6EB550FEEDBE80706D518
S113486000F006F8BDF80000611901F8010CF1BD73
S113487001226946B8B295E7DFF82C2ADFF82C1A32
S11348801288801A01EB400102200EF0A1BADFF871
S1134890241ADFF8242A095C125CDFF8203A185C39
S11348A010B102F5997292B241EAC21080B2704717
S11348B0DFF8003ADFF8082A1B5C012B1CBF32F832
S11348C01000081802EB4000704738B50C46DFF8BA
S11348D0F4190D782A462146FFF764FF2088010069
S11348E01CBF4FF6FF7188420BD0012000E0401C32
S11348F0C1B2A94207D2C0B234F810102288914242
S1134900F5D0002032BD012032BDF0B5DFF8A0198A
S113491087B008600C2269460020FFF74BFFBDF802
S11349201600BDF80C200346040A012000254FF6AA
S1134930FF763DF81570BDF80010B94203D1B742B7
S113494018BF002F00D100206D1C062DF1DBB21A18
S1134950914218BF0020DBB2C4F1FF018B4218BFA3
S1134960002007B0F0BD2DE9F24F0446DFF8586986
S11349700020307070809CB0DFF850090088ADF8DA
S1134980020007A9FFF7A1FF83460120707009A95F
S1134990DFF83C090588DFF83C09B0F80080DFF84F
S11349A008090788BDF802A03846FFF78EFFB8B1A2
S11349B0BBF1000F3DD0BDF81C10BDF824004FF62C
S11349C0FE72914202D1012804D10CE0012908BFF2
S11349D090422ED00846BDF82410884229D202E025
S11349E0BBF1000F24D0002070700297504606954A
S11349F0CDF810800122DFF8CC1891F800804044F3
S1134A00ADF806006946BDF80600FFF7CBFEDFF8F7
S1134A10C808008805904FF6FF79BDF80000000B28
S1134A20404518BF0F2801D1200021D0002516E0F1
S1134A30012470780028D8D03846CDF808A0CDF8E5
S1134A4018800495D6E7059805FB00F4E01900F0FA
S1134A5051FCBDF80200201800F04CFC6D1C4545CB
S1134A60F1DB012030704D20FCF7CEFE0025F7E08D
S1134A70BDF80650012201A92846FFF793FEBDF8B0
S1134A800400C04300F0FF00ADF804006F1CDFF821
S1134A904C080588BDF80400A84218BF01244FF053
S1134AA0000A20E0401CC1B2A94218D2C0B2DFF80B
S1134AB03018BDF80E20834631F81B109142F1D115
S1134AC0FFF7E5FE4FF680710840BDF80C104FF675
S1134AD080721140884204BF1C9800F80BA00AF1B0
S1134AE001001FFA80FABDF80400824507DA0222A9
S1134AF003A9B8B2FFF756FEBF1C0020D3E700207D
S1134B0001E0401C80B2A84217DA1C99095C81427A
S1134B10F7D0012411E02AF81070BDF8060000EB6C
S1134B204300401C00F0DAFABDF80200C0F3C710DD
S1134B30401C00EBD07007EB60070498DFF880A7F7
S1134B40BFB287420EDA00F099F8BDF8000048457C
S1134B5008D0030A00F07F01BDF804007F1C8342E3
S1134B6002DB012400252DE0002000E0401CA842C7
S1134B70D3DA1C9A125C9A42F8D1C0B2FF28CCD086
S1134B80DFF83027125C7F290CBF4FF0000C8C46F5
S1134B9094450BDABDF800C0DFF820E71EF800E00A
S1134BA04FEA0C6C4FEADC7CF44501D00124B4E7F5
S1134BB0012AB0D07F293AF8100008BF0021081854
S1134BC0A9E76D1CDFF81C070088854204DA3AF86F
S1134BD015004845F5D1012477800498BFB2874277
S1134BE007DA00F04BF8BDF800007F1C4845F4D00C
S1134BF039E7002CFCD1029801220BA980B2FFF7FF
S1134C00D1FDBDF82C0048450DD105E0401C80B213
S1134C10202813DB2034A4B20699029A891A8C4204
S1134C2005DB0120307000201DB0BDE8F08FA51811
S1134C3020220BA9A8B2FFF7B5FD00200BA931F87B
S1134C4010104945E2D0A8B2FFF716FE203CA4B2EA
S1134C50E0E70298059905FB010000F04BFB6D1C91
S1134C604545F6DB01203070494600F046F818B19E
S1134C7000F035F90028D6D10120D5E70122694694
S1134C8038468FE52DE9F0420F46DFF85016DFF87D
S1134C90285609888F420446164699460CD2DFF8F6
S1134CA01416C95D30467F2808BF0020884203DA05
S1134CB0E95D894500D11CB940F2D54100F00AFAFA
S1134CC031463846FFF7F4FD0188DFF8F005C05D92
S1134CD060B1384600F02BFAE95D012908BF207065
S1134CE009D0022914BF2060208004E04A462046EF
S1134CF0BDE8F0429BE5BDE8F0822DE9F34FDFF813
S1134D00A805DFF8C0150488DFF8BC0509784078E9
S1134D1083B000281ABFDFF8B405008820460D18B8
S1134D20DFF8B8050088ADF80800ADB2C04300F064
S1134D30FF0000EB013000F55060ADF802002B1BC2
S1134D40DFF8680501220DF1020100F0D7FA6E1CAC
S1134D500100B6B23AD10025DFF8847513E0E8B259
S1134D60FFF795FDADF80400331B37F81500ADF8D7
S1134D7006000222DFF8340500F0BFFA010025D155
S1134D80B61CB6B26D1CBDF808008542E7DB0025F1
S1134D9000E06D1CBDF80800854280F29B80DFF8BE
S1134DA01C05405D8DF80A004FF0000A1BE001224B
S1134DB00DF102011FFA89F0FFF7F4FCBB19DFF8CB
S1134DC0EC0400F091F9010009F101097AD17F1C8A
S1134DD0FFB2B7EB1B6FEADBDFF80C05405D36185A
S1134DE0B6B20AF1010ADFF8CC04475D5FFA8AF033
S1134DF0B842CED25FFA8AF1E8B2FFF759FD804695
S1134E009DF80A00B8F80090C00140EA0520ADF80A
S1134E100000012FBDF800000EBF40F07F005FFAD4
S1134E208AFA4AEA0000ADF80000311BDFF87C047E
S1134E3000EB41004FF6FF71771C89451EBFBDF89A
S1134E400010BDF810209142BFB219D19DF80C108A
S1134E500029C6D0012269460DF0F6FF01003E4646
S1134E6030D1DFF85404A8F80060425DDFF87C0418
S1134E7050F825103046FFF7B1FC0028ACD124E0EF
S1134E80DFF83414495D491C01EBD1714FEAC15B71
S1134E90012269460DF0D8FF01003E4612D1A8F860
S1134EA000609DF80A0098B14946E8B200F03FF965
S1134EB00190331BDFF8F4034FEA1B6200F01DFA84
S1134EC0010089D0FCF7A0FC002005B0BDE8F08FFC
S1134ED000277DE7DFF8F00346800120F5E7DFF8DF
S1134EE0EC032DE9F0410688DFF8BC03DFF8D85362
S1134EF004886878DFF8B483002882B012BF2046A3
S1134F003046264601226946FFF74CFCBDF80000F6
S1134F1001280CBF4FF6FE70401EADF80000DFF80C
S1134F20A40307783846471E80B258B116FA87F0B2
S1134F30001B012200F00FF80100F3D0FCF764FC21
S1134F40002006E0687880F0010068700020287076
S1134F500120BDE8F681694608EB40000DF074BFFE
S1134F602DE9FE4F0D46DFF8741309888842044684
S1134F7017461E464FF000094FF001080CD2CD49E8
S1134F80095D38467F2808BF0020884204DACA49F0
S1134F90095D8E4200D11DB94FF4BF6100F09AF84B
S1134FA039462046FFF784FC0190C74F787820B13A
S1134FB0C748B0F800A0BC4803E0C648B0F800A059
S1134FC0C2483978008849B97988081AC8490988D3
S1134FD08842B4BF43204420FCF716FC01980188A2
S1134FE0B648005DF8B1204600F0A1F8012E08BFD4
S1134FF0297803D0022E0CBF29882968814267D002
S113500001980088401E00F069F8B748065D78886A
S1135010AAF10101891B814201DB002837D13878CC
S113502068BB452046E00291CB4622E002980BEB98
S1135030DB7300EB630000F0F3F805EB0B0015F8ED
S11350400B10407801EB0020711E8B4580B207D114
S1135050BDF8001001F0FF0100F0FF00ADF80010F2
S1135060BDF8001088420BF1020018BFC8465FFA71
S113507080FBB345DADBB8F1000FC1D028E0BDF8FE
S113508002100020FFF739FE10B34FF001097888B1
S11350908949401C788080B20A5D2946FFF79EFB4F
S11350A0B0B1814C7B88248880485B1E00F01CF8DA
S11350B0010002D0FCF7A8FB0AE0B9F1000F02D00E
S11350C0FFF70DFF20B10199788808808019788056
S11350D0BDE8F78F0FF22C20FCF79CBA01220DF1EA
S11350E0020180B2FFF75EBB1B1B01220DF102011E
S11350F000EB43000DF0A8BE70B582B00446002555
S1135100192601226946A0B2FFF74CFBBDF8000046
S1135110641C20B14FF6FF71884203D004E06D1C7B
S1135120761EEED168B276BDE84340B276BD38B59E
S11351300C460021009160490D5C2A4621466846D0
S1135140FFF775FB681C00EBD07004EB600080B2C5
S1135150FFF7D2FF0028009948BFC04341FA80F00E
S113516032BDF0B55D4909880446554883B02646EA
S113517030F816508C4202D25048805D18B940F283
S11351803A71FFF7A7FF4C48865D701C00EBD070A6
S113519005EB6007B8B2FFF7AFFF19280FD210FA7A
S11351A087F0414F414B3F880021ADF80410C01BEC
S11351B0012201A903EB40000DF046FE60B129462F
S11351C02046FFF7B4FF00903346401C00907F2236
S11351D069462046FFF7C4FEF7BD70B53A4801782A
S11351E082B00024D1B94078002814BF37482E4833
S11351F00588344806780CE0284650FA86F000F01A
S11352000FF8BDF8000000281EBF4FF6FF7188425A
S1135210641C3046461EC0B20028EDD1E0B276BD13
S11352200122694680B2FFF7BDBAF8B5264C207852
S11352300027002835D11C480588607800281ABF4B
S1135240224806882E461F4807783846471EC0B2B3
S113525002281FDB304650FA87F0FFF7E1FFBDF864
S113526000000028F1D01C480088FFB207FB006052
S113527000F040F80020ADF80000BB190B485B1BA0
S11352800122694600F03AF8010018BFFCF7BCFAA5
S11352903846F2BD3046FFF7EFFAF8B208B90120FC
S11352A02070F8B2F2BD0000A845030000E00F0032
S11352B098F40320804A0300704A0300604A030004
S11352C0F8F00320A445030070FE0320AC4503005E
S11352D0AA450300AE450300A6450300B2450300FA
S11352E0444A0300B4450300B8450300944D030049
S11352F0B045030080B2FFF7BFBA01A900EB430039
S11353000DF0A2BD73696D2D656570726F6D2D69A9
S11353106E7465726E616C2E630000002DE9F04FAF
S113532085B080460E250E22FF216846FCF756F90B
S1135330DFF8ACA04222FF215046FCF74FF90027CA
S1135340284CDFF8A490294EF05D401C00EBD0708F
S1135350401019F807B0E15D01B11930401C00FBA1
S11353600BF292B2224830F817100FF29800FEF7B1
S1135370EBFFBBF1010F1CBF2AF817505D447F1CE3
S11353800E2FE1DB0E2340F21C4240F28B210FF280
S11353909000FEF7D9FF0FF25C054FF4E040FFF7F1
S11353A0B4FA18B19D212846FCF734F94FF4804033
S11353B0FFF7ABFA18B19F212846FCF72BF94FF4FD
S11353C08050FFF7A2FA18B1A1212846FCF722F970
S11353D069464046FFF7C7FA05B0BDE8F08F000004
S11353E0F8F00320604A0300804A0300704A030077
S11353F0444A030073696D2D656570726F6D2E6389
S11354000000000043726561746F723A20307825A1
S113541032582C20576F7264733A2025640A0000B6
S113542053696D454520646174613A202564207791
S11354306F726473206F66202564206D61782C2060
S1135440746F6B656E436F756E743A2025640A0041
S11354504178007801E00178407800EB012080B2C7
S113546070470170090A417070470A0A027041705E
S1135470704710B50023040014BF1C46C3F1030495
S1135480E4B25B1C0A55120A042BF4DB10BD30B5E0
S11354900024050014BF2546C4F10505EDB2641CC3
S11354A04A55120A42EA03621B0A062CF1DB30BD9C
S11354B030B54A788B78CC78097818B120461D46E7
S11354C00C4602E0154608461A4645EA002044EA1E
S11354D0022141EA004030BD10B5002300E05B1C0E
S11354E0DCB28C4205D210F8014B9442F7D0002074
S11354F010BD012010BD10B5002304E0541EE41AB1
S11355000C5DC4545B1C9342F8DB10BD10B5002441
S113551080B14FF6FF7202E0944206D0641CA4B23C
S1135520035D002BF8D1944204D179210FF2F400E9
S1135530FCF770F8204610BD10F8012B11F8013B60
S11355400AB19A42F8D0D01A40B2704730B59942A5
S113555028BF1946002303E00833401C521C9BB2A9
S113556003F10804A14203DB04781578AC42F3D0BC
S11355708B420CDA007812785040C0438024C0B2C9
S113558001E064085B1C8B4201DA0442F9D198B251
S113559030BDF8B555052D0E02F0070704460E463A
S11355A02A46FBF7B9FF47B1FF20615D725DF84001
S11355B0014022EA000008436055F1BD00210FF2CA
S11355C07802002805E000F00F03D35C5918C9B233
S11355D00009F8D1084670476128A8BF572107DAA7
S11355E04128A8BF372103DA3A28B4BF302100216B
S11355F0401AC0B270474108400021F0AA3120F09F
S1135600553008438108800021F0CC3120F033303C
S113561008430109000121F0F03120F00F30084364
S113562070470000627974652D7574696C697469DA
S113563065732E63000000000001010201020203F1
S113564001020203020303040188481E8041C00FC3
S1135650704738B50446002554B1002100F009F81C
S113566003E0204600F034F86D1C0100F9D1A8B223
S113567032BD008802001CBFC9B2FDF777B8002014
S113568070472DE9F04104460D4627883800164638
S113569008BFA84608D0F1B2FDF768F880462A464C
S11356A0F1B23846FDF776F8424600F003F825805B
S11356B0BDE8F081F1B22846FDF76CB838B5044670
S11356C000222588FFF7DDFF280018BF258031BDA3
S11356D0008881420A4601D100207047002110460B
S11356E0FDF744B8F8B504460D462688300001D1CC
S11356F00020F2BDC9B2FDF739F8B042074602D125
S11357000020208007E0E9B2FDF730F80246E9B254
S11357103046FDF73FF82A4600213846FDF73AF8AF
S11357203846F2BD2DE9F8430446884627881646D4
S11357300FB9002026E03D462846FCF78CFF814641
S113574005E00546FCF787FF48441FFA80F9F1B2EB
S11357502846FDF70BF8404511D1F1B2FDF706F8E4
S11357600246FFF7A7FF474503D1BD4208BF002506
S113577025800022F1B24046FDF70CF801E0B84262
S1135780DFD14846BDE8F2832DE9F8430D460446CF
S113579090462F4605E041462046FFF7A3FFBF1B76
S11357A0BFB28FB1208878B141462046FFF761FF30
S11357B08146FCF750FF0646B742ECDAF11B89B28A
S11357C04846FCF7AAFF0027E81B80B2BDE8F28335
S11357D02DE9F0470C460788200092461E46B8463D
S11357E023D00FF25C193FB9C92102E0B84503D1B7
S11357F0D6214846FBF70EFFF1B24046FCF7B6FF50
S11358008046FCF728FF0546A1B28D4288BF0D46AD
S11358104046FCF709FF01462A465046FBF77CFE4A
S1135820641BA0B20028AA44E0D1BDE8F08770B59B
S113583004462588280008D00121FCF797FF064676
S113584000220121FFF737FF268070BD2DE9F84FB4
S11358500D46044690461F4600F045F88146002652
S113586003E0494600F03CF881465FEA090019D09C
S1135870FCF7DAFE83464846FCF7EDFE0BEB000A24
S113588002E060888344761CD3453EBFA188B0B251
S11358908842E6D241465846A8470028F1D007B1CD
S11358A03E805846BDE8F28F70B50D4600F01AF8F8
S11358B00646608815FB00F504E02D1A314600F019
S11358C00FF80646300009D0FCF7C5FEADB285429C
S11358D0F3DA3046FCF7A8FE284470BD002070BD02
S11358E02046F5E604460021C3E670B504460D469D
S11358F0E088010009D0401EE0802046A188491CB0
S1135900A180491EBDE87040CEE7608810FB05F019
S1135910002180B2FCF78FFF060001D1002070BD8A
S1135920002231462046FFF7ACFEA088401CA08030
S1135930681EE0803046BDE87040FCF775BE00008C
S11359406275666665722D71756575652E630000F6
S11359502DE9F0410746884694B000F082F802A988
S11359600DF09AFA9DF811008DF83800062807D03A
S1135970112803D03A2872D1042402E0082400E05C
S113598014244046FCF767FE2838051B00F069F82C
S11359900EAE2830706034810020F06035820DF145
S11359A0230006F02BFE002859D1A8B20190042F41
S11359B09DF8120000900CBF202200220DF1230359
S11359C0002102A80DF0A2FC060008BF002039D077
S11359D00DF1230006F0EDFD48B90DF1230006F0AA
S11359E03FFE20B90DF1230006F013FE00E0012074
S11359F0032F2AD198B305213046FDF767F84EF6F8
S1135A00F77101EA000205213046FDF76EF800F057
S1135A1028F8071900F025F8AAB207F12801FBF7C6
S1135A207BFDA9B24046FCF72EFE424601213046DA
S1135A30FCF7B0FE00200090FF23002202A93046AC
S1135A400EF027FA14B0BDE8F081042F08BF002837
S1135A50DDD10DF1230009F062FE0028D7D1012029
S1135A60F0E74046FCF7E0BD38B501280C46154682
S1135A7004D07B210FF2C400FBF7CCFD00F01AF830
S1135A8029462046BDE834400EF0B0BD38B54D1F60
S1135A90441DADB200F00EF8EAB221460120FBF736
S1135AA047FF30B9E9B22046BDE838400022FCF790
S1135AB029B931BD23462A4601A14820FEF70BBC73
S1135AC06C700000F0B5052893B00C4631D06946DF
S1135AD020460FF027FC9DF809009DF830100FF2C6
S1135AE05C05884203D0AF212846FBF793FD20468E
S1135AF002F036F80646301DFFF7ADFC074606F106
S1135B000A00FFF7A8FC2830874203D0B5212846B5
S1135B10FBF780FD05212046FCF7D8FF000758BF9E
S1135B20032006D5204602F025F8C00654BF022003
S1135B3004202146FCF7B8F813B0F0BD69702D6D50
S1135B406F64656D2D6C696E6B2E630030B5014614
S1135B5000220FF2340304E0091B6918921CC9B235
S1135B60D2B29D5C2C0006D0854204D29C18647885
S1135B708442F1D306E00FF2180000EBC100C178B3
S1135B80062900D1002030BD151F2034398081FF43
S1135B9048001304030000004C001402000000003D
S1135BA02C000F0408000000300010050000100055
S1135BB03C0007050000100024000D041000000044
S1135BC028000E0300000000340011040800000047
S1135BD0440012050000FF0008000202000000005B
S1135BE0100005050000400006000102000000004E
S1135BF03800060403000000140009050100320007
S1135C00400008040800000064001C0200000000BA
S1135C10040000010000000018000A05010000054E
S1135C200C000402000000001C000B04080000002B
S1135C300A0003020000000020000C041000000011
S1135C405000150500004000540016040600000032
S1135C5058001701000000005A001802000000005C
S1135C605C0019020000000060001A050100A00099
S1135C7066001B0100000000F0B50E4683B0044628
S1135C8011461D4608226846FFF735FC30003AD01D
S1135C90F000C0B200210FF2740232F81130002675
S1135CA00027BFB21DF807C086EA0C264FF0080C87
S1135CB04FEA460E360446BF83EA0E06B6B21FFA12
S1135CC08EF6BCF1010CF3D17F1C1FFA87FCBCF1EA
S1135CD0080FE6D3831B96FBF0F616FB00335B1E1E
S1135CE09BB204EBD306802703F00703DF4033782D
S1135CF03DB13B433370491CC9B20229CDDB0120BD
S1135D00FEBD3B42F7D10020FEBD000021100580FE
S1135D1030B585B004460D460822DFF87C1C02A885
S1135D20FBF7FAFB694602A807F0C1FA00236A46AA
S1135D3029462046FFF7A0FF05B030BD80B541B12C
S1135D40DFF8C41C0122C8708A70BDE8014001F06C
S1135D506DBC01F0C7FCBDE8014033E1704710B5EC
S1135D60DFF8A40CDFF8342C417812783AB1F1B999
S1135D70808BE0B101F0B6FCBDE8104022E1B1B186
S1135D8001F010FB03D1012001F009FE02E0012023
S1135D9001F016FDDFF8C04C2046FBF749FA30B994
S1135DA02046BDE8104049F64041FBF7E5BA10BD76
S1135DB0DFF8541C00200871704710B5DFF8484C18
S1135DC04FF6FE70E08300206070A083DFF8880C3B
S1135DD0FBF722FB00202070207110BDDFF8BC0B04
S1135DE0007800B9704700B589B00FF05CFD28B9A0
S1135DF0684600F0B9F868460FF0A7FD09B000BD89
S1135E0001464878FF2804BF881CFFF724BB70476D
S1135E104178FF290CBF042102210844704738B59A
S1135E2004460D4600E00C35296831B1204605F0E2
