S022000073656E736F722D6163747561746F722D6E6F64652D656D333538382E733337FE
S3150800400040E300202DFA02084DF0020851F002089C
S31508004010A70A0A0100410008040803AC00230000AF
S315080040200000000000000000000000000000000082
S315080040300000000000000000000000000000000072
S315080040400000000000000000FFFFFFFFFFFFFFFF6A
S31508004050FFFFFFFF00E00708000000000000000067
S31508004060FFFFFFFFFFFFFFFFFF000000000000004B
S315080040700000000000000000000000000000000032
S31508004080F0FF002000000000EEFF0020EEFF0020F9
S3150800409040E30020F4210308FC03030868D4002049
S311080040A07017002000000808000001202E
S3150800410040E300202DFA02084DF0020851F002089B
S3150800411059F0020855F002085DF00208B8F20208E4
S31508004120B8F20208B8F20208B8F20208B8F20208B1
S3150800413061F00208B8F20208B8F202086F5A0008DD
S31508004140C1320208B8F20208F77C0008B8F2020881
S315080041500B04010857A30008B8F20208B8F20208CF
S31508004160258E0008776700080B620008B549000825
S31508004170B8F20208579B00089F9B0008DDEE02086C
S315080041800D9E0008B8F20208B8F202082DED0208E2
S31508004190F8B5064640F2FF717068C0F30A508842C7
S315080041A014461D4606D0012806DA304600F0F0F817
S315080041B0012801DB002706E0726840F2FE3161F350
S315080041C01E527260471AD6E9000122462B4600F0B5
S315080041D001F9C6E9000139B23046BDE8F44000F0FD
S315080041E0D7B92DE9FB45160082B09A4600F09B80A8
S315080041F0DDE902230020002100F050FA00F0938048
S315080042000024002E4A4D43D576420FF23C174FF054
S3150800421008080DE0F00707D5D7E900232046294608
S3150800422000F0D8F804460D4676080837A8F10108C4
S31508004230002E18BFB8F1000FECD102A9684600F0AD
S315080042403DFADDE9020122462B4600F067FACDE980
S315080042500201BDF9001002A800F09AF907004FD52F
S31508004260002E4DD002A9684600F028FADDE90201C1
S31508004270304A314B00F0AEF8CDE90201BDF9001025
S3150800428002A800F085F907003AD5761EEAD137E08C
S31508004290012E35DB0FF2B0074FF00808F00707D5F7
S315080042A0D7E900232046294600F094F804460D462F
S315080042B076100837012EA8F1010802DBB8F1000FC5
S315080042C0ECD122462B4602A8FFF762FF070017D556
S315080042D0012E15DB02A9684600F0F0F9DDE90201B6
S315080042E0164A174B00F076F8CDE90201BDF9001021
S315080042F002A800F04DF9070002D5761E012EE9DA6C
S3150800430038B200281CBF3FB2012F0CD100F040FB89
S315080043102221BAF1000F016005D0DAF8000040F05A
S315080043200100CAF80000DDE9020105B0BDE8F08524
S315080043300000F03F436FAC642806C80A3CBF737F91
S31508004340DD4F157500000000000000000000244045
S315080043500000000000005940000000000088C3402B
S315080043600000000084D797410080E03779C34143B5
S31508004370176E05B5B5B89346F5F93FE9034F384DBD
S31508004380321D30F94877825A3CBF737FDD4F157569
S3150800439030B4436803F000420121C3F313034360BA
S315080043A0002B04BF0368002B08D10DE00368DD0F5E
S315080043B045EA440444605B000360491E4468E3021E
S315080043C0F4D5C4F31303436043681A4342600846AE
S315080043D030BC7047B0B581EA030C0CF0004C40F2D3
S315080043E0FF7515EA11541DBF15EA1357AC42AF42C3
S315080043F039E0E41923EA455343F48013C90241F02E
S31508004400004141EA505EC7021100A7FB02020028DC
S315080044104FF00000EEFB01204FF00001E3FB0721FF
S3150800442018BF42F00102401800214941E3FB0E0182
S31508004430A4F580640F0302D252004041494154F169
S3150800444001046CDD470872F1004250F1000051EB9F
S315080044500451A1F580115CBF41EA0C01B0BD4CEADC
S3150800446005510020B0BD05EA1357AC4214BFAF4250
S3150800447041E050EA410E1CBF52EA430E02E0614693
S315080044800020B0BD24423C441BD15FEA070EF6D09B
S31508004490090302BF01460020AEF1140EB1FA81F7F6
S315080044A0AEEB070401FA07FE0C37C7F1200100FA44
S315080044B007F7C8404EEA000E23EA455343F4801333
S315080044C0A2E733F00043B3FA83F704BFB2FA82FED9
S315080044D077440B3FE41BB7F1200E2FBF02FA0EF309
S315080044E0BB40C7F1200E22FA0EFE38BF43EA0E0380
S315080044F0BA40641C82E750EA410E14BF52EA430EE2
S315080045006FF000014FF4001717EB430F8ABF1946E7
S3150800451017EB410FB5E74CEA05510020B0BDD4F1C1
S315080045200104B4F120070FDAC4F12007520828BFA6
S3150800453042F0010210FA07F501FA07F7E1BF2A432C
S31508004540E0403843E1400FE0352C98DCC7F1200401
S3150800455052EA400220FA07F218BF42F0010231FA85
S3150800456007F0A1400A43002172F1004250F1000011
S3150800457051EB0C01B0BD8268521C8260426832B1B0
S315080045800268531C036011704168491E41607047F8
S3150800459070B504460D466068C0F30A5040F2FF71D4
S315080045A0884207D16068000304BF2068002817D036
S315080045B0022070BD20B92046FFF7EAFE012866DA18
S315080045C0012D0FDB40F2FF71091A8D420AD360688C
S315080045D0002847BF00202F4900202F49C4E90001C1
S315080045E0012070BD4142A942616806DA6FF31E5187
S315080045F0401941EA0050606040E0401E6368451972
S31508004600012205F1350062F31F53352801F00041F8
S31508004610636003D361600020206070BD002015F13F
S315080046201F0F04DA206823600022203562606A4280
S3150800463012D0401E25688041C2F12003C0439D4028
S3150800464045EAD07025686668D54006FA03F32B4319
S3150800465023606368D340636062680A43B0F1004F21
S31508004660626003D80DD12078C0070AD52068401C9F
S315080046702060206828B96068401C60604FF0FF30F1
S3150800468070BD6068884204BF20680028F6D1002003
S3150800469070BD00BF0000F0FF0000F07F90420CD113
S315080046A041EA030C50EA4C0C07D0994205D14FF465
S315080046B0001C1CEB410F38BF8942704738B50C46C1
S315080046C005466068C0F30A5040F2FF7188420BD174
S315080046D0002028806068000304BF2068002801D0F5
S315080046E0022032BD012032BD012804DA2046FFF738
S315080046F04FFE01280ADA626840F2FE3161F31E5263
S315080047006260401A28804FF0FF3032BD00202880B2
S3150800471032BD0268531C0360117070472DE9F041E1
S3150800472040F2FF7581EA030C0CF0004C15EA1154AF
S315080047301DBF15EA1357AC42AF42E9E0BC41C1F3CD
S315080047401301C3F31303801A994143F4801304D267
S31508004750641E4000494180185941C90241EA505136
S31508004760B1FBF3F603FB1611A2FB0675D7EBC020C7
S31508004770A94102D2761E80185941C90241EA505110
S31508004780B1FBF3FE03FB1E11A2FB0E75D7EBC0208F
S31508004790A94103D2AEF1010E80185941890241EAB6
S315080047A09051760546EA8E2EB1FBF3F603FB1611F9
S315080047B0A2FB0675D7EB8020A94102D2761E801887
S315080047C05941C90241EA50514EEA060EB1FBF3F6C9
S315080047D003FB1611A2FB0675D7EBC020A94102D22E
S315080047E0761E80185941C90241EA5051B1FBF3F7C8
S315080047F003FB1711A2FB0735D3EBC020A94167F1CC
S3150800480000070CBF004247F0010766F3D5274FEAB9
S315080048101E31B80814F5806414DDBD0775F1004231
S3150800482050EB0E5051EB045111F5801F5CBF41EA65
S315080048300C01BDE8F0814CF07F6141F0E0410020B9
S31508004840BDE8F081BD076D0840EA0E5041F48011BD
S31508004850D4F10104B4F120060ADAC4F120060200F4
S31508004860E04001FA06F3E1401843B24015430EE072
S31508004870342C14DCC6F1200445EA40056D0820FAFC
S3150800488006F2154321FA06F0A1400D43002175F101
S31508004890004250F1000051EB0C01BDE8F081002008
S315080048A05FEA0C01BDE8F081CFB992185B41B3FA13
S315080048B083F704BFB2FA82F6BF190B3FB7F1200699
S315080048C02FBF02FA06F3BB40C7F1200622FA06F606
S315080048D038BF3343BA401CB1E419641E2FE77F4240
S315080048E031F00041B1FA81F404BFB0FA80F6A41998
S315080048F00B3CB4F120062FBF00FA06F1A140C4F123
S31508004900200620FA06F638BF3143A0403C1B16E7BE
S31508004910AC421ABF05EA1357AF4214E050EA410603
S315080049201CBF52EA4306BFE750EA410730466146D4
S315080049301CBF41EA0551BDE8F08152EA430C08BFA5
S31508004940C143BDE8F08100204FF4001616EB410F75
S3150800495098BF16EB430F08BF16EB410F24BFC143A0
S3150800496005E016EB430F0CBF61464CEA0551BDE85E
S31508004970F08103681AB95A1E02600846704719780A
S3150800498011B94FF0FF307047591C0160187870470D
S31508004990014800F003B80000E4E600207047000074
S315080049A0012100F01F029140AA4A400942F820104E
S315080049B07047000070B5A84CA84D6078296849076B
S315080049C027D5032825DAA18804EB40029181012125
S315080049D0A27801FA00F01043A070A14A20780028B6
S315080049E012D0002320FA03F6F60708D5994063701B
S315080049F04840207004EB4300808A106009E05B1C85
S31508004A00DBB2032BEEDB04E0106000F08DF9032027
S31508004A1060704FF6FF702860BFF35F8F70BD38B5C2
S31508004A2000F084F9044600F080F98B4801780A0002
S31508004A301ED08B4A1368DB071AD4002521FA05F322
S31508004A40DB0710D50123AB4045705940017000EBD8
S31508004A5045008249808A10604FF6FF7008600B2077
S31508004A60FFF79EFF05E06D1CEDB2032DE6DB00E0C7
S31508004A700325204600F060F9284632BD80B5764801
S31508004A80002101700022032141700021C170052117
S31508004A90018100218170001D71490A604A604FF446
S31508004AA000428A601022CA6048610120886103209A
S31508004AB0C8600421694801644FF6FF7101600B2044
S31508004AC0FFF76EFFBDE8014000F076B970B52A29F8
S31508004AD0044601D0012070BD5803D1005E4D00F494
S31508004AE0005001F0880108432989084305EB440171
S31508004AF08882012000FA04F6287830420FD100F0A7
S31508004B0015F9297831432970A978B143A97000F0BD
S31508004B1013F9FFF784FFA04201D1812070BD8220DE
S31508004B2070BD2DE9F8430446884600F0F9FB4D4F61
S31508004B30484D48B92868000506D53868800800F049
S31508004B40010080F0010600E0012600F0EFF881463A
S31508004B503EB12868000504D53868400748BFFFF706
S31508004B6029FF3D498A780120A04022FA04F3DB0791
S31508004B7008D501EB440350409B89A8F8003088709B
S31508004B80802409E00A78024218BF822404D14878B2
S31508004B90A0420CBF81248424484600F0CDF8204664
S31508004BA0BDE8F28338B504460D4629462046FFF788
S31508004BB0B8FF842818BF8028F7D132BD38B5044617
S31508004BC0072389222A21FFF781FF234D05F11C01BE
S31508004BD02046FFF7E7FF802809D10723B9222A21B3
S31508004BE02046FFF773FFA91D2046FFF7DBFF802845
S31508004BF005D1E988AA8B891AE980012101E00021FB
S31508004C000120E97032BD38B5134D0446E87808B975
S31508004C10FFF7D4FFE878D0B1B5F9060020B9FF212F
S31508004C200FF2480000F086FBB5F90600B5F91C102E
S31508004C3000EBD072611A521002EB014191FBF0F4BD
S31508004C4000F0B3FC604300EB8000001432BD064858
S31508004C5032BD000000E100E058EC002010A800403A
S31508004C6004E0004050A800400080FFFF6164632D07
S31508004C70656D3378782E630000F0DDBD224801218A
S31508004C8081604EF6BE2141600121016070471F49CF
S31508004C90012008607047A52805D11B484DF6AD616F
S31508004CA041600221016070471748006810F0010052
S31508004CB018BF0120704780B51549164A10200860AC
S31508004CC015491648007803000BD003280CBF0020AE
S31508004CD00120106040F651000860002000F0B4FC86
S31508004CE006E0022010604FF40060086000F069FDDD
S31508004CF00B4807210160002101641020094908605A
S31508004D00002002BD0000000000600040086000406E
S31508004D1080E100E0080000400C600040B9FF002078
S31508004D2014A0004000E100E070477047EFF31180DF
S31508004D30602181F31188704780F31188704700005D
S31508004D40DFF8F43433F810001040C840704730B527
S31508004D500FF2A454DFF8E43434F810409C60114094
S31508004D60DFF8D44434F8105095432943D960022219
S31508004D701A6000221A6024F8101058680028FCD11E
S31508004D8030BDDFF8BC24DFF8BC041278DFF8B814AD
S31508004D900AB149780EE0895611F1090FB8BF3021DA
S31508004DA008DBC16D39B1C26D40F24A31B1FBF2F18F
S31508004DB089B2C91E01607047E0B5DFF89004018822
S31508004DC00A2300F065F8BDF806104FF6FF720D20AD
S31508004DD0FFF7BDFF07BDF8B50546B5F5004FDFF887
S31508004DE068441AD1DFF868040188022300F050F8F5
S31508004DF0BDF80000000AFF2801D0010000D11820E4
S31508004E006070BDF800000006C00E10281CBF001D0B
S31508004E1000F09FF9BDF80000C543DFF824647078F8
S31508004E2008B1002005E0A089ADB26840C00701D5E9
S31508004E3001207070DFF81C04A58105F001040168E3
S31508004E4041F4004101604FF440520FF2D04000EBAC
S31508004E504400C5F340074078010389B20220FFF7F2
S31508004E6076FF204600F0D8FE4022B90100F00EFA7F
S31508004E702D06A80E00F0010038433070FFF781FFB9
S31508004E80707818B1FFF798FF002070700020F2BD07
S31508004E907F22684600F036BF2DE9F04FDFF8BC43A5
S31508004EA0DFF8B473207887B0042304900D210B38FB
S31508004EB0C0B203906846039A00F09EFF9DF8000072
S31508004EC08DF80A009DF801008DF809009DF802008A
S31508004ED08DF808009DF803008DF80500DFF88003BB
S31508004EE00078012806BF607880F00105012501F0E9
S31508004EF08DFA82469DF9020003990AF10A06AAF17B
S31508004F000A09B042B6BF81454FF001084FF00008C4
S31508004F1001208840ADF806009DF80100000604D47B
S31508004F207888BDF80610084201D04FF0010801F054
S31508004F3005FB9DF8030000060AD4B888BDF80610DC
S31508004F40084205D19DF90000B042B8BF814502DB91
S31508004F504FF0010901E04FF0000948EA050059EA57
S31508004F60000000F0A680DFF8FCB2BF49DBF80000BD
S31508004F70BE4E400800F001008DF80400BC480068E9
S31508004F8000F4E06005904FF4E0600860002001F04E
S31508004F908DFE00F0D5FDADB1607858B1DBF80000A4
S31508004FA0AF4940084000CBF800000120087000F027
S31508004FB03CFB07E0306840F400503060306820F46D
S31508004FC080503060A6480078012812D161780D42D9
S31508004FD003D101F0A3FE02F000F8DBF80000A049B7
S31508004FE040F00100CBF8000000200870642000F0B3
S31508004FF01CFB607880F00100054203D00498C0B21B
S3150800500002F0ADF8607838B1306820F4805030602E
S31508005010306840F400503060BDF80600C543B8F16A
S31508005020000F08D002F086F98DF801008DF802A06D
S31508005030788828407880B9F1000F08D002F02BFA5A
S315080050408DF803008DF800A0B8882840B8809DF92F
S3150800505000009DF90A10884202BF9DF801009DF8DC
S31508005060091088420BD19DF902009DF90810884263
S3150800507002BF9DF803009DF80510884206D00399E3
S3150800508004236A46C9B20D2000F0C6FE0598784981
S31508005090086000F0F7FE9DF8040001F007FE02F034
S315080050A01AFB607828B148F260703060642000F01E
S315080050B0BCFA9DF8010002F0A9F89DF8030002F079
S315080050C0E5F907B0BDE8F08F80B501F092F9BDE8C3
S315080050D00140E1E601F08DB970B5064601F048FDDC
S315080050E00546A6F10B001028A6F10B0401D38A2069
S315080050F070BD60488168090702D40068C00701D5F9
S315080051008C2070BD554806705B4801680C290FD085
S315080051100FF27C11594A92F90020A4B231F82410F2
S315080051205118C161FFF7B8FE012D08BF01F0C0FC98
S31508005130002070BD10B5044601F05BF92046BDE8B5
S315080051401040C9E74548007870473F4890F9000085
S3150800515070472DE9F041044614F12B0F86B048DB61
S31508005160474801881423FFF793FEBDF810004FF651
S31508005170FF71884203D0400448BF012606D43F2267
S3150800518000211020FFF7DCFD0546002604F12B025E
S315080051902F2A2D483B491AD213220FF2341300E066
S315080051A0521ED2B213F91270BC42F9DB03EB420469
S315080051B0032764780C60002413F81210017000218C
S315080051C08846C6B1BDF810104FF6BF722AE0092C02
S315080051D00FDA025D0A60047014232B480188FFF772
S315080051E057FE4FF4C0514FF480744FF080082827BB
S315080051F0E7E78B201BE04FF4605200F047F84FF4C6
S31508005200E062214600F042F88022414600F03EF86E
S3150800521085F020003D18ADB2402DA8BF3F253F229E
S3150800522085F0200100F032F8FFF7ABFD002006B04C
S31508005230BDE8F081000000004CF90020E8100040AD
S31508005240BFFF00206410004058E40020301E030809
S315080052503A1E03081C100040D8FD0020D9E600209D
S31508005260C0E600208020004080E100E0D010004029
S3150800527000E100E060200040AC100040BEFF0020C6
S315080052802C1E0308C01000402E1E03080B205EE5E6
S31508005290AA2129005523290000252800AA26270027
S315080052A055282700002A2600AA2B2600552D25005A
S315080052B0002F2400AA30240055322300003422008F
S315080052C0AA3522005537210000392000AA3A2000C5
S315080052D0D500E601EC02EF03F204F405F506F7073C
S315080052E0F808F909FA0AFB0BFC0DFD0FFE11FF136E
S315080052F000160119021C031F1000110020003000BF
S315080053004000410050006000700080009000A0003E
S31508005310B000C000D000E000F0000000000001036B
S31508005320EFF3118060288041C043C00F704700002A
S3150800533042DE704738B504460D46FFF7A8FCFFF76E
S31508005340F5FC2946204602F003FA2B4622460FF2C0
S31508005350D411012002F06DFC29462046BDE83440F0
S31508005360E6E767482DE9F047664D01682E1D4FF4BC
S3150800537020687165016AB16563490968F165416A22
S315080053803166816A7166C16AB166016BF166806BC6
S31508005390306796F8340040074CBFF46BB46B02F0E4
S315080053A01CFD0022F2648442584A014624BFA2F139
S315080053B0200AA2452746316505F18C03DFF850C15E
S315080053C0DFF850E118D3A0693064E4697464746D39
S315080053D0C4F30804062C13D1704511D360450FD2C7
S315080053E000884DF64264A0420AD13068586040F2FF
S315080053F001787068986003E0002737647764074689
S315080054004548814202D2014600E0091D08469042FD
S3150800541003D20C68B4F1CD3FF7D04049081AB064FE
S315080054200021002005EB8004401C0628A167F9DB53
S31508005430002003E0C0B205EB8004A167974222D2A0
S3150800544052F8041D7145F9D36145F7D2CC07F5D555
S31508005450002405EB8409D9F87890894502D0641CA4
S31508005460062CF6DB062CE9D1002814BF401E0520C1
S31508005470E0E7716F002405EB8402641CD76F976719
S31508005480052CF8DB19600146481EC9B20029F0D17F
S31508005490706DC0F3080002280AD0032815D0042826
S315080054A016D0052817D0062818D00C281CD01EE0C0
S315080054B01B480168890748BF40F602181CD40068D3
S315080054C0C00719D540F2025816E040F6012813E045
S315080054D040F6022810E040F603280DE0B8F5206FE4
S315080054E00AD140F6042807E040F6052804E018B17A
S315080054F0242838BF40F607284046BDE8F087000054
S3150800550004ED00E00000002000E300E040E3002096
S31508005510FC030308904100089800002040E300209F
S315080055201CA000400D0A5B4153534552543A25705E
S315080055303A25645D0D0A000010B5002002F0D1F886
S31508005540594C40F68C2188422068B4BF40F00800C8
S3150800555020F00800206010BD10B5044653480188A5
S3150800556082B000F05DF89DF800109DF80100FF2953
S3150800557002BFFF280420002122004D4A136818BFE5
S31508005580801C23F46073C0B20828A8BF072043EA2A
S31508005590C010106008291068A8BF0721C00841EA92
S315080055A0C00010604348047013BD434800B5018825
S315080055B083B000F035F8BDF800004FF6FF71884259
S315080055C00EBF4FF4E1600A2190FBF1F0ADF8000040
S315080055D03848007808B33548018802237F2201A895
S315080055E000F090FB9DF80500BDF80030FF2808BFC5
S315080055F00420811CC9B20829A8BF0721C1F12F02BE
S3150800560002EBD272C0F12F00521000FB0320C1F149
S315080056102F01B0FBF1F0ADF80000BDF800000EBD9B
S3150800562002237F22684600F06DBB24490A680328D6
S3150800563009D34B6D43F001034B650B689B1AC3F303
S3150800564013038342F9D3704710B5040004D110BD83
S315080056504FF47A70FFF7E9FF2046441E80B200280F
S31508005660F6D110BD20B1012807D0032818D019E0BB
S31508005670134801B11721016012E049B1480800F149
S31508005680B77000F55850B0FBF1F0B0F1011F01D327
S31508005690202070470B4900F001024A604008086064
S315080056A0002070472120704700BC0040321E0308C6
S315080056B018000040C1FF0020341E030838200040AF
S315080056C0100004E068C80040DFF8DC1451200860C8
S315080056D070472DE9F041DFF8D4640546F0780428D0
S315080056E0B4BF302760274FF4F070B0FBF7F41E2DD7
S315080056F024B201DB281B04D5A8B2BDE8F041FFF7A8
S3150800570094BFFFF713FB00F028F870700721DFF845
S31508005710A004DFF8A02400F047F8291B09B2794352
S31508005720C91C8908491EDFF89054DFF87C7441606B
S315080057302E6800F0AEF83C68386820F04000386003
S3150800574002F07CFB3C602E6002F07CFB00F0F4F972
S315080057504046BDE8F041FFF7EFBA8046012080F3E6
S315080057601088704738B5DFF84414C9780429B4BFDF
S31508005770302460244FF4F071B1FBF4F1451A1E2D64
S3150800578004DA9E210FF28440FFF7D4FDDFF82004E7
S31508005790DFF82024072100F007F805FB04F1C91CEF
S315080057A08908491E416031BD016000214160816060
S315080057B04FF0007111607047DFF8F0230121517036
S315080057C0D0E72DE9F041DFF8F453DFF8F46300245D
S315080057D02C6034604FF4A040706041F29A0840464D
S315080057E0FFF777FF686844F69041081A00B24FF44D
S315080057F0487190FBF1F000B20828A8BF072004DA28
S3150800580010F1080FB8BF6FF0070030600827404650
S31508005810FFF75FFF4046FFF75CFF686804197F1EC5
S31508005820F8D1211DDFF89C03C908B0FBF1F080B25E
S315080058307060BDE8F08138B5DFF88C5301206FF051
S315080058400F04A8602C608020FFF743FFE868FF2854
S3150800585002D8641C102CF5DB31BD70B5DFF86C037B
S31508005860DFF85453016841F00101016001214160EC
S31508005870FFF75CFA2E68044600F00BF8CA49512077
S3150800588008602E6002F0DEFA2046BDE87040FFF799
S3150800589053BA286840084000286002F0D3BA10B509
S315080058A0C24C0120207000202071C948816901F08E
S315080058B00301032907D10020A070042000F060F836
S315080058C00120207110BD0F21016002218161012094
S315080058D0E0706420BDE810406EE72DE9F041BD4C4C
S315080058E0BB4EA088B14F4FF6FF78404540F2DC55D5
S315080058F01CD1B948018802237F22201D00F002FA34
S31508005900A088404504BF0220A080B069800703D460
S31508005910B06940F00200B0610120B870A08830601C
S315080059202846FFF749FF2846BDE8F081B269920785
S31508005930EED5BA78002AF6D1B268B36812F0010239
S3150800594003D10F2809D2401C06E09B0705D523780A
S315080059501BB1032801DB4044A080A08822700228DE
S31508005960BCBF0220A0803068A1888842D4D1B06923
S3150800597000F00300032818BFFFF76FFF0020D3E7E6
S315080059802DE9F047804695480178002569B9C07821
S31508005990072818BF09280DD0032818BF112809D0D1
S315080059A013281CBF15280B2804D08D48016841F41C
S315080059B080710160FFF7BAF98146FFF7CFFE4046CE
S315080059C0FFF78BFF08B9012515E07B4F764E3C683B
S315080059D0386840084000386002F034FAD6F800A06B
S315080059E0306820F04000306002F028FAC6F800A0BF
S315080059F03C6002F027FA00F09FF84846FFF79CF94A
S31508005A002800D7D0BDE8F0870220B9E76848694A78
S31508005A10002141608160016821F0020101600021D6
S31508005A20624841704FF000711160817809B1002118
S31508005A308170C178012914D16A4901220A606A4A2B
S31508005A401268D20748BF03210FD40222C270086C1D
S31508005A5040F001000864042064490860644908604D
S31508005A607047C178042901D10521C17070474F4894
S31508005A704078002818BFFFF7C9BF00F054BE2DE9CB
S31508005A80F8434A4C207908B354E0FFF74FF9054626
S31508005A90FFF764FEE078032813D0474EDFF8088145
S31508005AA000F0ACF8D8F80090D8F8000020F04000D4
S31508005AB0C8F8000002F0C2F9C8F80090376002F092
S31508005AC0C1F900F039F82846FFF736F9E0780328D7
S31508005AD0DBD1404E3E4DB08828604FF6FF77708880
S31508005AE0B8420CD14348018802237F22B01C00F03B
S31508005AF009F97088B84202D16420708001E0708884
S31508005B0078B170883C494A6D42F001024A650A68D4
S31508005B10AB68DB07FBD50B689B1AC3F313038342F9
S31508005B20F6D3FFF79AFE0420E0704FF4C870BDE87C
S31508005B30F24341E6BDE8F183002080F31088704700
S31508005B402DE9F843194C2179207881F001010842A2
S31508005B501DD124E0FFF7EAF8FFF7FFFDE0780528F6
S31508005B6010D0154E104D00F049F8D5F80090286869
S31508005B7020F04000286002F061F9C5F8009037600F
S31508005B8002F060F9FFF7D8FF4046FFF7D5F8E0784E
S31508005B900528DFD10020A0700520FFF7F1FE0020C0
S31508005BA02070BDE8F183000000800040CEFF002091
S31508005BB010E000E004ED00E094ED00E01040004045
S31508005BC00C0000400060E316084000401C400040FE
S31508005BD004400040A4E600203C1E03089607080877
S31508005BE03840004018A000400C40004080E200E029
S31508005BF000E100E0401E030838200040376830689E
S31508005C0040084000306002F01DB90000636C6F6305
S31508005C106B732E6300000000F0B5044689B00020BF
S31508005C20FFF79AFC294801880A237F22684600F074
S31508005C3069F8BDF802004FF6FF75A84205D14FF482
S31508005C4080710FF29400FFF775FB00260FF2A0078C
S31508005C5001E02A4616B94FF47C4203E0022E08BF3B
S31508005C604EF23F023DF81610B85DFFF770F8761C45
S31508005C70052EEED3012C03D114237F22144802E00B
S31508005C8014237F22134801880FF26C0703A800F03B
S31508005C9039F800262A4608E02A46012E08BF4FF69C
S31508005CA0C07202D0082E08BF002203A830F81610CA
S31508005CB0B85DFFF74CF8761C0A2EEDD3012C04BF0D
S31508005CC00120FFF749FC09B0F0BD0000301E0308AB
S31508005CD02E1E03082C1E0308616E616C6F677565BE
S31508005CE02D63656C6C2D626961732E63000000007C
S31508005CF000100C0D0E000000010203040708090A33
S31508005D000B0F000030B5044610467F2808BF002058
S31508005D104BF23462914283B01AD108237F2240F6AF
S31508005D2012016846FFF7EEFF08220FF23C016846AB
S31508005D3002F0F8F830B908237F2240F2A2716846CB
S31508005D40FFF7E0FF08226946204602F082F837BDD1
S31508005D50044D294300FB03111A46204602F079F840
S31508005D6037BD000000000808FFFFFFFFFFFFFFFF29
S31508005D7030B50FF20411DFF8F8500A6883B001A8AD
S31508005D800024026001202870002002F0DDF830B1FE
S31508005D90002002F0D9F810B12C7049203EBDDFF87A
S31508005DA0D400018802237F220DF1020000F024F8B6
S31508005DB002237F220021684600F01EF8002001A970
S31508005DC0BDF8022031F81010914208BF0124401C8A
S31508005DD00228F4D3BDF8000024B1B0F57F7F07D1BF
S31508005DE000203EBDB0F57F7F14BF0420062000E0EA
S31508005DF00720002129703EBD10B5FF2907DC1C4C81
S31508005E00247844B1BDE81040C9B202F0A7BBBDE88A
S31508005E101040FFF777BF10BD2DE9F0410546FF2D6D
S31508005E200E46174698460FF2540012DC104C21789D
S31508005E30A1B1617811B1BD21FFF77CFA012060702C
S31508005E40434632463946E8B202F0F5FC0020607057
S31508005E5004E0BDE8F041C821FFF76CBABDE8F0815F
S31508005E6003490978002918BF02F0F1BD7047000000
S31508005E70BBFF0020381E0308FE01FD02746F6B6528
S31508005E806E2E630010B5DFF8504610202063FEF72B
S31508005E904DFFDFF848160A6842F001020A60FEF76D
S31508005EA04BFFDFF83C06606020608A306168893104
S31508005EB0616001212163E060A060DFF82816E068D0
S31508005EC08930E060022020634FF6FF70086010BD3D
S31508005ED0DFF8140645F26401C1601E2141625021B3
S31508005EE00162C821C1618165F021C16545F690014D
S31508005EF04166882181660621C16644F20661016011
S31508005F004FF6FF714160DFF8E405007838B1DFF835
S31508005F10E00548F2607101604FF4C1514160DFF855
S31508005F20D405016841F0040101600020DFF8C815B6
S31508005F3048707047DFF8AC050068C00700D408E071
S31508005F407047DFF8A005006810F0190F00D100E0CF
S31508005F5070470021002002F0ABBE2DE9F84F8046BD
S31508005F60DFF89815012002F036FF8A21DFF8700560
S31508005F7001FB08F14518681C4178007800EB0126FA
S31508005F80DFF87C15DFF87C050978017000EB080955
S31508005F90002089F80200B6B2B00603D5DFF86845D6
S31508005FA0606E000640F18F80002106F00700032886
S31508005FB061D106F4406006F44042B0F5806F1CBF1C
S31508005FC0B2F5804F002A56D00423B0F5006F08BFFB
S31508005FD0082303D0B0F5406F08BF0E2370065CBFD8
S31508005FE09B1CDBB2B2F5004F0CBF9F1C03F10807E0
S31508005FF0FFB2781C00EBD070C0054FEA106A5FEA62
S31508006000080014BF60682068504534D3E818B2F514
S31508006010404FDFF8F8B402D102F05FFF06E040789F
S31508006020E95C01EB002080B202F038FF0021FF286E
S3150800603007D0DBF8002032F810004FF456721042F1
S3150800604000D00121080016D0300714D45FEA0800F2
S3150800605014BF606820680AF10102904207D2E0681E
S315080060605FEA080214BF022201221042EED1E85D5F
S31508006070042818BF0021E06D000900F001008142E4
S3150800608089F802001FD00029A16C4FF400604FF474
S3150800609080620BD0B8F1000F08BF1046014212D03B
S315080060A0606C40F00100606401200AE0B8F1000F5E
S315080060B008BF1046014206D0606C40084000606484
S315080060C0002089F80200BDE8F18F2DE9F84F044653
S315080060D0DFF83454DFF82C6420000CBF28686868A1
S315080060E0C1B2052905DAFFF725FF7068401C706004
S315080060F089E040008DF800008A2000FB04FBDFF8E9
S31508006100E0839DF8000008EB0B09484410F8081DC9
S31508006110427802EB01211FFA81FA81786631817093
S31508006120317819B9DFF8D813097831703178DFF882
S31508006130B4730170002131704170386C20F48050BE
S3150800614038642000686E02D17868400504D4012CB2
S3150800615023D17868000520D5FFF7ECFEDFF8B003F9
S31508006160017891B1002101701AF4E45FDFF8A40305
S31508006170016802D00022402005E099F801000009D4
S3150800618000F001028F2002F014FF20000CBF4FF42C
S3150800619080604FF40060786030E01AF4E45F2BD139
S315080061A000F081FD10B15FEA4A4025D518F80B00CA
S315080061B0802821DA386C99F80110890626440ED50C
S315080061C0696E09060FD4A96CC9060CD43968220071
S315080061D00CBF80224FF480720840104203D1FFF7AB
S315080061E0A9FE0020B070B2789DF80010484602F06B
S315080061F08DFF0020B07001E0FFF79CFE002C0CBF5D
S31508006200012002202861BDE8F18F2DE9F84FB54C31
S31508006210BD4E2068216CDFF800B3DFF8F482DFF8A2
S31508006220FC92DFF8D8A201EA000538E061B18A22BB
S31508006230AB49504308444078C00605D4B5480168C0
S3150800624000228F2002F0B5FE280608D50FB9FFF701
S3150800625071FE02F00AFF802025F080052060E8051F
S3150800626009D50FB9FFF766FE02F0FFFE4FF48070FE
S3150800627025F480752060680407D50FB9FFF75AFE24
S315080062804FF4804025F480452060280407D50FB9CF
S31508006290FFF750FE4FF4004025F400452060002D1E
S315080062A073D00027280706D50020FFF756FE0820DA
S315080062B025F008052060E80606D50120FFF74DFE03
S315080062C0102025F01005206005F06000602803D135
S315080062D0B06CC0050AD401E0A80605D520202060C8
S315080062E025F02005002006E0680606D54020206037
S315080062F025F040050120FFF7E8FEE80404D54FF431
S31508006300805025F480552060E8079DD5012020603F
S315080063106D0802F0F4FC6D0078B14FF448725146EE
S31508006320012002F0FBFC02F071FC40054CBF032083
S315080063300120002102F0BCFC012799F8010008B1F0
S3150800634000F0FAF899F80000002806D000F01AFCC8
S31508006350012807D198F8000000283FF475AF9BF88C
S31508006360000004287FF470AFF068400800F00100D0
S31508006370002814BF7168316811B92168C904F7D5B6
S31508006380002814BF7168316850E700202060BDE816
S31508006390F18F634800687047F0B506460D4689B028
S315080063A00021032001F040F904AC08E034F811207C
S315080063B05040491C08293080F8DB6D1EB61CE8B22F
S315080063C090B1002701F04BF924F8170001F047F9BE
S315080063D0694621F817007F1C082FF3DB04A803F091
S315080063E031F800200021E5E701F075F9012009B030
S315080063F0F0BD0321022001F017B94FF6FF71081A04
S31508006400292190FBF1F03A3040B2704738B501F0D7
S3150800641026F9FFF7F2FF434D04462878B0B9032161
S31508006420032001F001F94048018802237F226846CB
S31508006430FFF768FC01F013F9BDF80010401880B2A8
S31508006440FFF7DBFF153868700120287001F043F963
S315080064506878201A40B232BD80B50321022001F0C7
S31508006460E3F8BDE80140D1E770B53048007800246C
S3150800647090B9FFF7F1FF204E0546707848B130789D
S31508006480401B40B202F0E4FF0B2805DB35700124FF
S3150800649002E0012035707070204670BD24480078EF
S315080064A0704723490B78984200D1704780B5087029
S315080064B040B12049002008600848016821F08001A1
S315080064C0016001BD00F026FC00F0FCFB00F0AEFB0D
S315080064D0BDE8024000F092BB002000408420004046
S315080064E0E0FD002000A000404C100040DAE6002045
S315080064F0D010004080200040C9FF0020435F0008FC
S31508006500D9E60020B0F9002020200040A8E30020AA
S3150800651010FC002018FC0020BFE60020C5FF002064
S3150800652038200040C7FF0020361E0308C0E60020BA
S31508006530CBFF0020541000407047000010B50D48EE
S31508006540018884B00A237F226846FFF7DBFBBDF883
S3150800655000004FF6FF74A04204D14D210FF2180037
S31508006560FEF7E8FEBDF8001022460020FEF7EFFB16
S315080065701FBD0000301E0308616E616C6F6775658C
S315080065802D66696C7465722E63000000DFF8A40737
S31508006590007848B1DFF8A0070179012904BF4079DE
S315080065A0042801D10120704700207047010644BF26
S315080065B04FF6F83101EAC0007047491C800189B2DC
S315080065C0B0FBF1F080B2FF288CBF0020C0F1FF00BD
S315080065D0C0B2704738B5DFF86807C17809B100203E
S315080065E032BDDFF86847617871B1E17800794518FE
S315080065F02079ADB28542A8BF054602F042FF0121C7
S31508006600A940491E084000E0002061790818C0B278
S3150800661032BD2DE9F0470446C00705D54FF4CE71C3
S315080066200FF2A870FEF786FEDFF82457286DC0071C
S3150800663048BF8C2075D4DFF80807DFF810770021EB
S315080066400170417829B9397819B1A96F41F001016A
S3150800665002E0A96F49084900A967DFF8DC867A785D
S3150800666098F80610DFF8EC96DFF8EC6692B100228F
S3150800667002710129286D40F00400286506D14FF6FD
S31508006680FF7030604FF40070C9F80000FFF7A2FFF2
S3150800669082460CE0286D20F00400012928654FF099
S315080066A0000A04D100F031FA6420FEF7BEFFA86F95
S315080066B020F00800A8671420E864C5F848A0787890
S315080066C038B198F80600002801BFA86C00280120F8
S315080066D0A864B8790028286D14BF40F0080020F097
S315080066E008002865FFF752FF18B1306C40F0080023
S315080066F03064202028626C602C606868DFF85C16BD
S315080067007F306860042028624FF4E0600860DFF894
S3150800671050160968C9F80000286D40F00100286580
S315080067200020BDE8F087DFF83C0600214160816063
S31508006730016821F0020101604FF00070DFF82816A9
S3150800674008600120DFF8241608707047332800D245
S31508006750704710B5B0F5002F0CD2DFF810460021AF
S315080067602170FEF7FFFF02E0012002F0A5FE207867
S315080067700028F9D010BD2DE9F84FDFF8DC85DFF8E1
S31508006780C055D8F80000D8F84010DFF8C47501EAFB
S315080067900004A4B2C8F800406878002840F0D38006
S315080067A0E007DFF8CC65DFF8A4954CD5D7F800A04C
S315080067B0386C796C41EA0041A96099F80000002814
S315080067C03DD09AF80100800639D501202870FFF7D8
S315080067D0DDFEC0B31920FEF728FFDFF898B54FF4A1
S315080067E04040CBF82800DBF800000090F06E40F43B
S315080067F00050F066F06E40F48050F0669AF800108B
S31508006800A8684901B83101EB000AFFF7C2FDAAEBF7
S315080068100000C0F31300FFF799FFF06E4008400030
S31508006820F066F06EBDF800100843F0660020CBF85D
S31508006830280048F26070F066E888306003E00022BD
S31508006840002002F0B6FB20060ED5287830B10020CD
S3150800685028700022A968402002F0ABFBD8F83C005B
S3150800686020F48050C8F83C00600608D5687830B92E
S31508006870FFF78FFD01460022892002F09AFBE00609
S3150800688052D5DFF8B4A4DFF8CCB49AF8040001288E
S3150800689004BF9AF8061001291FD100F09EFB386F35
S315080068A040F001003867002400208AF80600FFF748
S315080068B0E9FA0A20FEF7B9FE4FF6FF70C8F800009D
S315080068C04FF4E060CBF800000920B8660120B864F0
S315080068D0B86F40F00800B86718E02979491C297193
S315080068E0C9B299F80220914215D2012808BF00F0D2
S315080068F0DFF8B86F20F00800B8671420B866FFF70D
S3150800690069FEB8644FF40070CBF80000386D40F0AB
S315080069100100386508E0687830B9FFF73AFD0146A6
S3150800692000228D2002F045FB20070CD5FFF72EFE2E
S3150800693048B13068E88001203060D8F8400020F07F
S315080069400800C8F84000A0060AD5202038626878F2
S3150800695030B9FFF71EFD01460022882002F029FB08
S31508006960687820B114F4407F04BF0120A870BDE800
S31508006970F18FDFF8C8130028086814BF40F44040B8
S3150800698020F440400860704770B582B00546FEF7AF
S31508006990A1FBDFF8EC03DFF8AC43DFF89C630021CA
S315080069A001601521E160092101651F21416001216E
S315080069B00166DFF8C8030088FEF70DFAFFF788FAC4
S315080069C003F05EF800F035F9308900F05FF9708958
S315080069D000F064F9FEF7AAF9616841F040016160C8
S315080069E0FEF7AAF9707800F0F5F8B07800F006F925
S315080069F0DFF89003007800F033F9DFF88C0390F99C
S31508006A000000FEF7A6FB307800F050F996F903006F
S31508006A1000F058F9DFF8740300F076F9BDF80000C5
S31508006A20DFF86C13C0054CBF0020BDF800000870E5
S31508006A30DFF860030078FEF74FFB28B140F2F33128
S31508006A400FF28830FEF776FC012D07D12068C007C3
S31508006A5004D500F02DF8002000F060F985B920680B
S31508006A60C0070DD4012000F059F900F0B6FA2068E5
S31508006A7040F001002060C820FEF7D7FD0020B07165
S31508006A80F120DFF8D452286440F2F910E86302F0E6
S31508006A9036F9FFF76EFFFFF7F5F92068C00704D54A
S31508006AA04FF6FF70286000F05EF8FFF749F873BDEF
S31508006AB070B5DFF8E452DFF880422E68A079012825
S31508006AC022D0FEF733F9B6B2DFF890222E604FF4E3
S31508006AD0E0611160DFF8A0120A6A520852000A62E1
S31508006AE00A68520852000A600A6842F002020A60FE
S31508006AF04A6A42F001024A620121A171FEF71CF9B5
S31508006B00BDE8704000F049BA70BD70B5DFF828429C
S31508006B10A07938B300F061FAFEF708F90546DFF800
S31508006B207C12894E01200860306D40F00100306506
S31508006B300020A071FFF7A6F920203060306B40F0E6
S31508006B4002003063F06D40F00800F0652846FEF755
S31508006B50F3F80A20FEF769FD7F494FF6FF700860D3
S31508006B6000F001F870BD4FF4E0607A49086070479C
S31508006B7071488079704770480079012808BFFFF787
S31508006B8097BF70476C480079704780B5022801DBCB
S31508006B90012002BD68490871897988420BD028B955
S31508006BA0012000F0BBF8FFF7B0FF04E0FFF780FF15
S31508006BB0002000F0B3F8002002BD79480068800282
S31508006BC000149A3801B211F1800FB8BF6FF07F0038
S31508006BD040B2704710B50446FEF7A8F871490A682E
S31508006BE0002C04D042F012020A60012103E022F0D0
S31508006BF012020A600021504A517040E038B5054635
S31508006C00FEF794F80446FFF749FC40B965482900A1
S31508006C10016814BF41F0800121F0800101604648F7
S31508006C2085702046BDE83240FEF786B8424880782F
S31508006C3070475D494A780B785C4803EB022202608C
S31508006C408B78CA7803EB022242600B794A7903EB08
S31508006C5002228260CA79897901EB0221C1607047F4
S31508006C6010B50446FEF762F84E4922000A6814BFBA
S31508006C7042F0200222F020020A6042490C70BDE868
S31508006C801040FEF759B82C48008970472A490881F0
S31508006C90474908607047284840897047264948810F
S31508006CA044490860704744480078704725490200FF
S31508006CB00A6814BF42F0020222F002020A601E4964
S31508006CC00870704738B504467F2C0AD13B4800F057
S31508006CD01BF8BDF80000C00554BFBDF800406FF0B2
S31508006CE04A04FEF723F80546FFF7D8FB30B964B225
S31508006CF004F19A0080053249000C08600E48C470F9
S31508006D002846FEF719F831BD018802237F22684616
S31508006D10FEF7F8BF084890F90300704706498979D5
S31508006D20012906D127490B7898421CBF087000F044
S31508006D3097B97047D7FF0020BAE6002040A0004068
S31508006D4010FC00208020004030200040A0E40020F5
S31508006D501020004000E100E004A0004080E100E0CF
S31508006D60A820004010E000E004ED00E0D8FF002075
S31508006D7064100040E41000406020004064E40020F5
S31508006D805C100040D6FF002058E400203E1E030891
S31508006D90BEFF0020D9E600201C1000402810004045
S31508006DA00C1000408420004028FC00209820004059
S31508006DB09420004090200040DCE60020421E030894
S31508006DC054100040D9FF0020704700007068792DE4
S31508006DD0636F6D6D6F6E2E630000000038B501207D
S31508006DE0FEF77BFD0020FEF7B7FB8A4C206840F0D3
S31508006DF008002060FDF742FFFEF79EFB864987489C
S31508006E000A78C2604B78864AD360864B8D78DD60F7
S31508006E108D880560CD88456008891060488950606E
S31508006E2088891860C889586000F0B7F8206820F08B
S31508006E3010002060FDF722FE02F048FEFEF7E4FD92
S31508006E40FDF71AFFBDE83140FDF735BF40F2016096
S31508006E5000F030BF10B502F0F1FE03F05FFA724998
S31508006E6000F001F810BD6D480A78C2604B786C4A8C
S31508006E70D3606C4B8C78DC608C880460CC8844606A
S31508006E80088910604889506088891860C8895860E0
S31508006E90704710B5FEF703FDFEF74EFB5E49FFF798
S31508006EA0E2FF00F07AF800F034F8FEF7E8FD03F0A8
S31508006EB03FFABDE8104002F0EBBE8A68037802F09C
S31508006EC00F0203F0F0031A438A604378544AD360EA
S31508006ED0544B8478DC60C4880C6001891160418950
S31508006EE0516081891960C0895860704710B5FEF7EE
S31508006EF0D6FCFEF721FB4D494748FFF7DEFF00F0B9
S31508006F004CF800F006F8FEF7BAFDBDE8104003F0AD
S31508006F100FBA4048016821F010010160FDF7AEBDC7
S31508006F20F0B50F249D0004FA05F51668284215D019
S31508006F30002505EB830720FA07F7FF070BD5AF00F7
S31508006F4004FA07FC26EA0C0631F813C004FA07F718
S31508006F5007EA0C073E436D1C042DEADB1660F0BDFC
S31508006F60F0B5FF24DD00AC401668204213D000249B
S31508006F70012504EBC30720FA07F7FF0708D505FA2A
S31508006F8004F7BE43CF5C05FA04FC0CEA07073E4348
S31508006F90641C082CEDDB1660F0BD2DE9F8430021D2
S31508006FA0002001F085FE01F0ADFE214C206890B16D
S31508006FB000271D4DDFF8648000F03CF87F1C032F86
S31508006FC0FADB0027002600F03DF800F042F87F1CA7
S31508006FD0761C032EF7DBBDE8F1832DE9F84301F0B3
S31508006FE092FE134C206890B100270B4DDFF82C80D9
S31508006FF000F020F87F1C032FFADB0027002600F09C
S3150800700021F800F026F87F1C761C032EF7DBBDE876
S31508007010F183000000BC0040D8E3002000B0004027
S3150800702000B2004000B40040E8E3002004B000408D
S31508007030D0F4002008EB472000F10C0220683B46FC
S3150800704029468DE708EB46292068FBB24A46291DE2
S3150800705066E77F1C2068FBB209F10402291D5FE779
S31508007060002818BF03F0EAB903F0E9B980B503F0C0
S31508007070AAFA01460FF26C000B2938BF00EB810013
S3150800708002BD80B503F0A3FA0FF284010204120EC2
S3150800709051F8221000F0FF0001EB800002BD00004D
S315080070A010B503F090FA044603F091FAC0B208B995
S315080070B0012C07D1072C11D8DFE804F004100608C4
S315080070C0080A0C0E002010BD092010BD022010BDB4
S315080070D0032010BD0B2010BD062010BD44F0800013
S315080070E010BD0000554E4B004649420042544C0024
S315080070F045585400505752005744470020535700EC
S31508007100435253004653480042414400464C5400FB
S31508007110940A0308980A0308F00A0308100B0308E0
S31508007120180B0308240B0308300B03083C0B030851
S31508007130440B0308500B0308600B03082A490A6826
S31508007140520852000A600A68104308604FF400416A
S3150800715026480160002101606420FEF766BA2DE921
S31508007160F047234D204FD5F80090224C80462868DA
S3150800717040F400402860386820F480503860207851
S3150800718068B162781C48A17800EB820200EB88009F
S3150800719012F82A2C10F82A0C891A461802E001203F
S315080071A020262070B0B2FFF7C9FF0FF2500A02E09E
S315080071B0B0B2FFF7C3FF386B042805D0386B400719
S315080071C054BF761E761CF3E7F86A38B184F8018056
S315080071D0A6701FFA89F02860BDE8F0874FF48F7112
S315080071E05046FEF7A7F8E6E7D01000401810004012
S315080071F01C1000403DFD002090520008616E616C35
S315080072006F6775652D76636F2E63000081014FF4F5
S31508007210FE5289B20C20FDF79ABD2DE9F84F8F4C26
S31508007220DFF83CB2A56820681FFA80FA00F053FA26
S315080072300127B020ADB200264FF00A08B9462063F0
S3150800724008E016F1190FB8BF4FF00A08464436B2DF
S315080072507019A060DBF80000000702D559EA07009C
S3150800726028D00120FEF7E1F9B9F1000F11D0AAF1F3
S315080072700300874202DAFF1CBFB213E00AF500409A
S3150800728020600621092000F0CFF957464FF0000983
S315080072900BE0DBF80000000707D5042FA6BFFF1E8A
S315080072A0BFB2002707F5004020601A2EC9DB6FF031
S315080072B00908CBE7A560C4F800A00820CBF80000B1
S315080072C06848006880B2BDE8F28F80B5624B6649AF
S315080072D01B784FF0FF326BB1002819BF4A6063482C
S315080072E0486041F211100860614841880088BDE88D
S315080072F0044092E7002819BF4A600A60486008609F
S3150800730000F0E9F9BDE804400621092000F0DDB9DE
S3150800731038B50120FFF7D9FF04460020FFF7D5FF4F
S3150800732005460120FFF7D1FF4042001B00EB450050
S3150800733000B232BD2DE9FE4F4E4CDFF83C81A06A03
S31508007340454EADF802002568D8F800B0307860B12F
S315080073504FF6FF7200210820FDF7F2FCADF8000099
S31508007360C022C0210820FDF7F2FC4448DFF810913E
S31508007370007818B148F26070C9F8000070883C4F70
S3150800738040F4404040F04C00C9F83C000220A0629E
S315080073900120206040F24C40FEF747F90120C8F86A
S315080073A00C00C8F80000002038804020788030782B
S315080073B000B12020FFF72AFFFFF7AAFF82464020E8
S315080073C038807F207880FFF721FFFFF7A1FF029022
S315080073D0504602F03DF8FE2101FB00F70298AAEBA1
S315080073E000000190307860B1029802F031F88246C8
S315080073F0019802F02DF880B207EB8A11B1FBF0F084
S3150800740005E0019802F024F880B2B7FBF0F080B2EC
S31508007410401CC7031FFA8BF0C8F80000ADB2002065
S31508007420C8F80C00022020602560BDF80200A062A2
S315080074300020C9F83C00307830B1BDF800104FF68E
S31508007440FF720820FDF783FC40F24C40FEF7EDF88A
S31508007450380CBDE8FE8F0000B6E60020C0100040DC
S3150800746018A000400070004038100040EEEEFFFF04
S3150800747000FF00206020004028100040DAE60020C7
S31508007480D010004041003F2289B201E001463F2268
S315080074900220FDF75CBC2DE9F04F564C564D95B0D1
S315080074A0E06CADF810004FF6FF782068ADF80E00D6
S315080074B04246E86AADF80C0000210120FDF740FCC1
S315080074C0ADF80A00424600210B20FDF739FCADF85D
S315080074D0080000264FF4004020600DF1140B002030
S315080074E02861686148F2020000F088F84CF68C3092
S315080074F0E0644FF4805248F2F000E8621146012039
S31508007500FDF725FC424600210B20FDF720FC06214D
S31508007510062000F0DAF8019000F082F800904CF6A8
S315080075209C30E0640020FFF7ADFF0621062000F03E
S315080075307BF8B0B2FFF7A6FF0621062000F074F824
S3150800754000F08DF82BF81600761C202EF1DB00F0E3
S3150800755086F81020FFF796FF00F062F80099019A66
S31508007560401ABBF820108E1A404306FB06094FF056
S31508007570100A112700F04EF800F052F800F043F810
S3150800758005DB1FFA87FA7F1C202F8146F2DBBAF14A
S31508007590100F0ED10F2700F03DF800F041F800F06B
S315080075A032F806DB1FFA87FA7F1E3FB2002F8146A4
S315080075B0F1D5BDF81000E0644246BDF80E00206023
S315080075C0BDF80C00E8620120BDF80A10FDF7BFFB04
S315080075D0BDF8081042460B20FDF7B9FB01202861CB
S315080075E0002000F00BF84FEA4A00C0B215B0BDE81B
S315080075F0F08F0000C010004018100040286040F2CC
S315080076004C40FEF712B80099401A404306FB0600A4
S31508007610484570473BF817000199461AB8B231E752
S315080076200621072000F051B870B505460E4602F04F
S31508007630E1FF3F4C206C20F00800206402F0DCFFDC
S31508007640FDF774FBE90141F001013A4A41EA0631C6
S31508007650116008212160BDE87040FDF76DBB2DE97A
S31508007660F041354C354D324E25E002F0C3FF344922
S3150800767004200860306C40F0080030642F682868E1
S3150800768040084000286000F0DDFBD4F80080206840
S3150800769020F04000206000F0D1FBC4F800802F6085
S315080076A000F0D0FB306C274920F008003064042035
S315080076B0086002F0A1FF30680007D6D508203060C0
S315080076C02148006880B2BDE8F08180B5FFF7ACFFBD
S315080076D0BDE80140C3E71748016849084900016049
S315080076E07047F8B50746FDF760FF0446394603209C
S315080076F0FFF7EBFF054639460120FFF7E6FF06468A
S31508007700FDF713FB39460020FFF7DFFF0746FDF7B5
S315080077100BFB08480168490849000160781B00040A
S31508007720711BB0FBF1F060434000000CF2BD000095
S3150800773018A00040047000400080004094ED00E06E
S3150800774000E100E080E200E00070004002F0CABB01
S3150800775003460A469EA10420FFE70CB480B502AA98
S3150800776000F05CF801BC5DF80CFB0A0003D0034688
S3150800777098A11120F1E7704700B589B0FFF790FC92
S3150800778000210791069105910491039102910191B7
S3150800779002469149009100230FF250210120FFF77C
S315080077A0DCFF8E48C178437802780391816802919C
S315080077B0818801918178009143200FF23C21FFF7DF
S315080077C0CCFF09B000BD8649087070470EB410B5E5
S315080077D0044683480078A1B080B102F08AFA68B1FD
S315080077E080226946022000F0B7F823AB2246002122
S315080077F00FF27D1002F042FF00F0DEF821B010BC57
S315080078005DF810FB0C220021764800F084BB754910
S3150800781031F81020521C21F8102070472DE9F0414C
S3150800782007466F480078A2B00C469046002690B9E5
S31508007830380018BF012F0ED0042F18BF052F0AD005
S31508007840312F18BF332F06D0372F1EBF3B2F4FF6C9
S31508007850FF718F4275D102F04CFA002871D0802250
S3150800786002A9384600F078F8002C68D007E08DF8B1
S315080078700400012201A9002000F07AF8641C20788F
S3150800788001005CD0A0F130020A2A05D20A2101FBC8
S315080078900600A0F13006F1E7422818BF44280CD0AC
S315080078A0462827D0572808D0622836D0662821D0FF
S315080078B06C281CD070281DD0D9E7422807D158F863
S315080078C0042B6946012003F024F801220DE057280D
S315080078D058F8042B694604D1012003F01AF802224D
S315080078E003E0012003F015F804226946C3E758F8B7
S315080078F0046BC3E758F8041B462807D10026885DA1
S3150800790000281EBF761CF6B2FF2EF8D1F2B2002070
S3150800791000F02EF898B90026B0E758F8047BB8B2FC
S315080079200028ABD003F03FFC0546B8B203F024FCB0
S315080079300146EAB2002000F01BF800289ED000F0AD
S315080079403BF822B0BDE8F0810B461146122804BF69
S31508007950184602F013BC704710B5234C6160014607
S315080079602270606802F0D4F9607010BD0000000053
S31508007970F8B515000C461C4E1CD070783178736823
S315080079800F1AFFB2EDB2BD42B8BF2F463A4621469E
S31508007990184400F05EFA707838187070ED1B3C4495
S315080079A0E8B238B17068711C02F023FA0028E4D0F6
S315080079B00120F2BD0020F2BD10B50B4C6068611CB9
S315080079C002F017FA08B1012010BD607010BD000062
S315080079D0574600006C70000028FC0020880A03083F
S315080079E0C2FF002070F900207CF90020424238705E
S315080079F042424242574242004242425744420000F3
S31508007A002DE9F0470446884691469A4600F037F92C
S31508007A10002801BF25460FF28420405D012821D1A8
S31508007A20DFF84C6256F82570FDF780F90021B98019
S31508007A3039807980FDF780F906EB85000669FDF740
S31508007A4075F90021B18031807180DFF828225155FF
S31508007A50FDF772F953464A4641462046BDE8F047C7
S31508007A6002F093BA2120BDE8F08710B5044602F06B
S31508007A701BFCDFF8FC0100EB84000069808810BD60
S31508007A802DE9F84381464C46DFF8E40100EB840013
S31508007A9088460569484600F0F2F808B101203EE03C
S31508007AA0DFF8D061305D06EB440760B1B8886988B5
S31508007AB0884208D1FDF73AF9355D00213155FDF7C1
S31508007AC03BF928462BE0484602F0EEFBA88800283A
S31508007AD01EBF0FF2D41030F81490B9F1000F1DD064
S31508007AE0FDF724F969882944897988F800104FF642
S31508007AF0FF786988491C91FBF9F209FB1211698024
S31508007B00A9884144A980FDF717F9305D20B1B888E6
S31508007B10404504BF2888B880002000E02620BDE83C
S31508007B20F2830FF27811095C01290AD10FF2641168
S31508007B304F4A31F8101052F820008088081A80B28F
S31508007B4070470020704710B50446FFF7EAFF0FF2AA
S31508007B50441131F81410081A80B210BD80880FF24B
S31508007B60341333F81110891A884201DA0120704754
S31508007B70002070472DE9F84F8046C1460FF21C10C9
S31508007B8010F8090001280D4616463ED138480FF26E
S31508007B90201B50F829400FF2081030F819A00027CA
S31508007BA018E0FDF7C3F8A18801B90127BAF1000F5B
S31508007BB00DD022882978A21891712188491C91FB39
S31508007BC0FAF20AFB12112180A188491CA180FDF74F
S31508007BD0B3F86D1C3046461EC0B288B10022414635
S31508007BE02046FFF7BBFF0028DBD11FB1404602F055
S31508007BF053FA00271BF809000028EFD1222005E0D8
S31508007C00404602F049FA002000E00120BDE8F28F64
S31508007C1080B501460FF28402525C012A05D1144A46
S31508007C2052F821108A88002AFCD102F09CFA00201A
S31508007C3002BD0CB438B504460D4602F063FA04AB2F
S31508007C402A4621460C4802F019FD20460FF24C013F
S31508007C50095C012907D1064951F82000808810B12E
S31508007C60204602F019FA32BC00205DF80CFB000031
S31508007C7038E40020BCF8002017A100087047042843
S31508007C8006DA0FF21801095C481E8041C00F7047DA
S31508007C90012070478000800000008000010100017B
S31508007CA080008000000080008000800000008000C6
S31508007CB00101000110B50446FDF738F84B4930209C
S31508007CC008604B4908604B49086010204A4908601B
S31508007CD0200A0028494808BF24024FF20F010480F1
S31508007CE04180BFF35F8F46480021016041604548E7
S31508007CF04549086010BD45480168C90708D5444A82
S31508007D0003211170016C49084900016401210160D1
S31508007D100168090703D5016C21F008010164704761
S31508007D2080B5002000F009F830B9BDE80440FA2112
S31508007D300FF2F400FDF7FEBA01BD2DE9F042354C0D
S31508007D40216842428D1815F01F0108D0002802D478
S31508007D504842054403E04842284400F120052E48DD
S31508007D60A5F12006A84224BF2C48864203D3EFF388
S31508007D700880854201D300202DE0FCF7D7FF814615
S31508007D802748006810F0010718BF03F024FD206893
S31508007D9001468D4206D2A84224BFCD2100F801191A
S31508007DA0F9D206E02038002201E000F8012B8842CB
S31508007DB0FBD32560304603F013FDE22001E006F808
S31508007DC0010BAE42FBD30FB103F0EEFC4846FCF7BD
S31508007DD0B3FF20682038BDE8F0820E480068704777
S31508007DE00C480068203870470E487047302000401D
S31508007DF030C8004030C0004010E0004000000020BD
S31508007E001C4000400400FA050CED00E018A00040F4
S31508007E10D1FF002068E4002068D4002070170020F5
S31508007E2094ED00E0000000206D6963726F2D696EA5
S31508007E307465726E616C2E630000000000BF30BF6F
S31508007E4000BF7047BFF35F8FBFF34F8FBFF36F8FCE
S31508007E507047814233D210441144401E491E10E037
S31508007E6011F8013900F80139121F11F8013900F823
S31508007E70013911F8013900F8013911F8013900F80A
S31508007E80013992B2042AEBDA93B2002B1EBF11F81D
S31508007E90013900F80139521EF6D1704711F8013B35
S31508007EA000F8013B121F11F8013B00F8013B11F8DD
S31508007EB0013B00F8013B11F8013B00F8013B92B287
S31508007EC0042AEBDA93B2002B1EBF11F8013B00F827
S31508007ED0013B521EF6D1704710E011F8013B00F83D
S31508007EE0013B121F11F8013B00F8013B11F8013B59
S31508007EF000F8013B11F8013B00F8013B92B2042A55
S31508007F00EBDA93B2002B1EBF11F8013B00F8013BD8
S31508007F10521EF6D17047130003D00A46194603F0DD
S31508007F207DBC704710B500E0521E93B223B100F035
S31508007F3005F8F9D0181B10BD002010BD10F8013B3C
S31508007F4011F8014BA34270472DE9F04F85B08046E2
S31508007F500F22FF216846FFF7DEFFDFF8B0A0642294
S31508007F60FF215046FFF7D7FF0F250027284CDFF8DB
S31508007F70A490294EF05D19F807B0E15D401C00EBAE
S31508007F80D070401001B11930401C00FB0BF2234899
S31508007F9030F817100FF2980092B2FFF717FCBBF1F2
S31508007FA0010F1CBF2AF817505D447F1C0F2FE1DB19
S31508007FB00FF298000F2340F21C4240F2BD21FFF752
S31508007FC005FC4FF4E04000F00CF90FF2540518B127
S31508007FD09D212846FDF7AEF94FF4804000F001F9DF
S31508007FE018B19F212846FDF7A5F94FF4805000F0F7
S31508007FF0F8F818B1A1212846FDF79CF969464046CC
S3150800800000F01DF905B0BDE8F08F0000C8F80020A3
S31508008010A8110308C8110308B81103088811030832
S3150800802073696D2D656570726F6D2E6300000000B3
S3150800803043726561746F723A2030782532582C2065
S31508008040576F7264733A2025640A000053696D45B8
S315080080504520646174613A20256420776F726473E1
S31508008060206F66202564206D61782C20746F6B65FF
S315080080706E436F756E743A2025640A0010B5DFF8F2
S31508008080944ADFF8143B2488001B06E010B5DFF895
S315080080900C4BDFF8043B24681B1B03EB4000002352
S315080080A004E030F8134021F813405B1C9342F8DBD8
S315080080B0002010BD2DE9F04182B004460D46164653
S315080080C00027DFF8D48A01E0BF1CFFB2B74217DAEF
S315080080D0E819E95D4078DFF8C83A1B8801EB00200B
S315080080E0ADF80000012207EBD77004EB6000C01A58
S315080080F000F09CFB0100E7D002F0A9F9002000E09F
S315080081000120BDE8F681F8B504460F461546002657
S315080081100DE000F019F8BDF8000004EB4601000A6E
S3150800812048707F1CBDF8000004F81600761CB6EBF4
S31508008130550FEEDBE80706D500F006F8BDF8000097
S31508008140611901F8010CF1BD01226946B8B295E73B
S31508008150DFF8C029DFF8401A1288801A01EB4001BF
S31508008160022003F0A0BBDFF83C1ADFF83C2A095CC2
S31508008170125CDFF8383A185C10B102F5997292B2BF
S3150800818041EAC21080B27047DFF8183ADFF8202AB1
S315080081901B5C012B1CBF32F81000081802EB4000CC
S315080081A0704738B50C46DFF80C1A0D782A46214672
S315080081B0FFF764FF208801001CBF4FF6FF71884255
S315080081C00BD0012000E0401CC1B2A94207D2C0B2C0
S315080081D034F8101022889142F5D0002032BD0120D3
S315080081E032BDF0B5DFF8B41987B008600C226946CD
S315080081F00020FFF74BFFBDF81600BDF80C2003461C
S31508008200040A012000254FF6FF763DF81570BDF8E3
S315080082100010B94203D1B74218BF002F00D1002081
S315080082206D1C062DF1DBB21A914218BF0020DBB295
S31508008230C4F1FF018B4218BF002007B0F0BD2DE93D
S31508008240F24F0446DFF870690020307070809CB0E9
S31508008250DFF868090088ADF8020007A9FFF7A1FF53
S3150800826083460120707009A9DFF854090588DFF8EC
S315080082705409B0F80080DFF89C080788BDF802A00A
S315080082803846FFF78EFFB8B1BBF1000F3DD0BDF8F9
S315080082901C10BDF824004FF6FE72914202D1012847
S315080082A004D10CE0012908BF90422ED00846BDF83B
S315080082B02410884229D202E0BBF1000F24D0002006
S315080082C07070029750460695CDF810800122DFF8A7
S315080082D0E41891F800804044ADF806006946BDF8F8
S315080082E00600FFF7CBFEDFF8E008008805904FF69A
S315080082F0FF79BDF80000000B404518BF0F2801D1D3
S31508008300200021D0002516E0012470780028D8D056
S315080083103846CDF808A0CDF818800495D6E7059814
S3150800832005FB00F4E01900F05DFCBDF8020020181A
S3150800833000F058FC6D1C4545F1DB012030704D20DE
S3150800834002F085F80025F7E0BDF80650012201A9DC
S315080083502846FFF793FEBDF80400C04300F0FF006F
S31508008360ADF804006F1CDFF864080588BDF8040042
S31508008370A84218BF01244FF0000A20E0401CC1B2F1
S31508008380A94218D2C0B2DFF84818BDF80E208346B5
S3150800839031F81B109142F1D1FFF7E5FE4FF68071D7
S315080083A00840BDF80C104FF680721140884204BF91
S315080083B01C9800F80BA00AF101001FFA80FABDF814
S315080083C00400824507DA022203A9B8B2FFF756FE6F
S315080083D0BF1C0020D3E7002001E0401C80B2A84261
S315080083E017DA1C99095C8142F7D0012411E02AF8B2
S315080083F01070BDF8060000EB4300401C00F0DBFAE5
S31508008400BDF80200C0F3C710401C00EBD07007EBA4
S3150800841060070498DFF898A7BFB287420EDA00F023
S3150800842099F8BDF80000484508D0030A00F07F0116
S31508008430BDF804007F1C834202DB012400252DE0E1
S31508008440002000E0401CA842D3DA1C9A125C9A422B
S31508008450F8D1C0B2FF28CCD0DFF84827125C7F29B4
S315080084600CBF4FF0000C8C4694450BDABDF800C0E3
S31508008470DFF838E71EF800E04FEA0C6C4FEADC7CC0
S31508008480F44501D00124B4E7012AB0D07F293AF88F
S31508008490100008BF00210818A9E76D1CDFF834078B
S315080084A00088854204DA3AF815004845F5D10124D2
S315080084B077800498BFB2874207DA00F04BF8BDF818
S315080084C000007F1C4845F4D039E7002CFCD10298FF
S315080084D001220BA980B2FFF7D1FDBDF82C00484553
S315080084E00DD105E0401C80B2202813DB2034A4B24D
S315080084F00699029A891A8C4205DB01203070002001
S315080085001DB0BDE8F08FA51820220BA9A8B2FFF769
S31508008510B5FD00200BA931F810104945E2D0A8B2E4
S31508008520FFF716FE203CA4B2E0E70298059905FB82
S31508008530010000F057FB6D1C4545F6DB0120307045
S31508008540494600F046F818B100F035F90028D6D1AA
S315080085500120D5E70122694638468FE52DE9F04224
S315080085600F46DFF86816DFF8405609888F4204463A
S31508008570164699460CD2DFF82C16C95D30467F2878
S3150800858008BF0020884203DAE95D894500D11CB995
S3150800859040F2D54100F00BFA31463846FFF7F4FDB4
S315080085A00188DFF80806C05D60B1384600F035FA84
S315080085B0E95D012908BF207009D0022914BF20608F
S315080085C0208004E04A462046BDE8F0429BE5BDE827
S315080085D0F0822DE9F34FDFF83C05DFF8D81504885B
S315080085E0DFF8D4050978407883B000281ABFDFF889
S315080085F0CC05008820460D18DFF8D0050088ADF8B0
S315080086000800ADB2C04300F0FF0000EB013000F5F2
S315080086105060ADF802002B1BDFF87C0501220DF136
S31508008620020100F0E3FA6E1C0100B6B23AD1002549
S31508008630DFF89C7513E0E8B2FFF795FDADF8040086
S31508008640331B37F81500ADF806000222DFF8480597
S3150800865000F0CBFA010025D1B61CB6B26D1CBDF8E8
S3150800866008008542E7DB002500E06D1CBDF8080020
S31508008670854280F29B80DFF83405405D8DF80A005C
S315080086804FF0000A1BE001220DF102011FFA89F0E2
S31508008690FFF7F4FCBB19DFF8000500F092F90100BA
S315080086A009F101097AD17F1CFFB2B7EB1B6FEADB30
S315080086B0DFF82405405D8619B6B20AF1010ADFF82B
S315080086C0E404475D5FFA8AF0B842CED25FFA8AF1CF
S315080086D0E8B2FFF759FD80469DF80A00B8F8009001
S315080086E0C00140EA0520ADF80000012FBDF80000E2
S315080086F00EBF40F07F005FFA8AFA4AEA0000ADF83A
S315080087000000311BDFF8900400EB41004FF6FF71C3
S31508008710771C89451EBFBDF80010BDF81020914290
S31508008720BFB219D19DF80C100029C6D0012269469E
S3150800873003F0F3F801003E4630D1DFF86C04A8F8E0
S315080087400060425DDFF8940450F825103046FFF7C4
S31508008750B1FC0028ACD124E0DFF84C14495D491C73
S3150800876001EBD1714FEAC15B0122694603F0D5F8E6
S3150800877001003E4612D1A8F800609DF80A0098B19B
S315080087804946E8B200F049F90190331BDFF80804BE
S315080087904FEA1B6200F029FA010089D001F057FE62
S315080087A0002005B0BDE8F08F00277DE7DFF8080454
S315080087B046800120F5E7DFF804042DE9F041068834
S315080087C0DFF85003DFF8F05304886878DFF8C883C9
S315080087D0002882B012BF2046304626460122694646
S315080087E0FFF74CFCBDF8000001280CBF4FF6FE70E1
S315080087F0401EADF80000DFF8BC0307783846471E70
S3150800880058B1BFB2B819001B012200F00FF80100D9
S31508008810F4D001F01CFE002006E0687880F0010024
S315080088206870002028700120BDE8F681694608EBCB
S31508008830400003F072B82DE9FE4F0D46DFF88C13A1
S3150800884009888842044617461E464FF000094FF02D
S3150800885001080ED2DFF84C13095D38467F2808BF99
S315080088600020884205DADFF84013095D8E4200D100
S315080088701DB94FF4BF6100F09AF839462046FFF754
S3150800888083FC0190CC4F787820B1CD48B0F800A091
S31508008890A04803E0CB48B0F800A0C848397800885B
S315080088A049B97988081ACE4909888842B4BF43204D
S315080088B0442001F0CCFD01980188BC48005DF8B160
S315080088C0204600F0AAF8012E08BF297803D0022E08
S315080088D00CBF29882968814267D001980088401E04
S315080088E000F069F8BC48065D7888AAF10101891B81
S315080088F0814201DB002837D1387868BB452046E03D
S315080089000291CB4622E002980BEBDB7300EB630087
S3150800891000F002F905EB0B0015F80B10407801EB97
S315080089200020711E8B4580B207D1BDF8001001F0FA
S31508008930FF0100F0FF00ADF80010BDF800108842F6
S315080089400BF1020018BFC8465FFA80FBB345DADBB5
S31508008950B8F1000FC1D028E0BDF802100020FFF7DB
S3150800896038FE10B34FF0010978888F49401C78808B
S3150800897080B20A5D2946FFF79DFBB0B1654C7B883E
S31508008980248885485B1E00F01CF8010002D001F01F
S315080089905EFD0AE0B9F1000F02D0FFF70CFF20B127
S315080089A001997888088030187880BDE8F78F0FF22B
S315080089B04420FCF7BFBC01220DF1020180B2FFF78B
S315080089C05DBB1B1B01220DF1020100EB430002F007
S315080089D0A4BF70B582B0044600251926012269464F
S315080089E0A0B2FFF74BFBBDF80000641C48B14FF47A
S315080089F07F41401A02D0FF3806D007E0681C40B213
S31508008A0076BDAD1C761EE9D168B276BDBDF800000C
S31508008A10C0B200B96D1CE843F1E738B50C46002131
S31508008A20009161490D5C2A4621466846FFF76BFBB3
S31508008A30681C00EBD07004EB600080B2FFF7C9FF3A
S31508008A40002848BFC043009940B2401832BDF0B56F
S31508008A505E4909880446564883B0254630F81560AD
S31508008A608C4202D25148405D18B940F23A71FFF77C
S31508008A709EFF4D48455D681C00EBD07006EB60070D
S31508008A80B8B2FFF7A6FF322814D2BFB2C10707EB68
S31508008A906000204F404B3F884CBF00214FF47F4178
S31508008AA0ADF80410C01B012201A903EB400002F037
S31508008AB034FF60B131462046FFF7AFFF00902B46E2
S31508008AC0401C00907F2269462046FFF7B4FEF7BD9A
S31508008AD070B53948017882B00024C1B940780028B9
S31508008AE014BF36480B480588324806780BE0F6B2BC
S31508008AF0701900F011F8BDF8000000281EBF4FF6E7
S31508008B00FF718842641C3046461E0028EFD1E0B249
S31508008B1076BD00008C0B03080122694680B2FFF778
S31508008B20ADBAF8B5244C20780027002832D11C4865
S31508008B300588607800281ABF204806882E461D48F2
S31508008B4007783846471E02281DDBFFB2B819FFF71B
S31508008B50E3FFBDF800000028F3D01B48008807FB98
S31508008B60006000F03FF80020ADF80000BB190A4885
S31508008B705B1B0122694600F039F8010018BF01F0B5
S31508008B8066FC3846F2BD3046FFF7E2FAF8B208B995
S31508008B9001202070F8B2F2BD00E00708E0FB0020D3
S31508008BA08C0B0308C8110308B8110308A811030899
S31508008BB0C8F80020880B0308FCFE0020900B030869
S31508008BC08E0B0308920B03088A0B0308960B0308FF
S31508008BD088110308980B03089C0B0308E014030884
S31508008BE0940B030880B2FFF7B3BA01A900EB430060
S31508008BF002F093BE73696D2D656570726F6D2D6990
S31508008C006E7465726E616C2E63000000424840689F
S31508008C10704710B5404CA078E17800F0010001F0EB
S31508008C20010108436168C90319D4C0B1E06848B1B5
S31508008C30E078000706D5E16808208847E07800F064
S31508008C40F700E070A06870B1A07800070BD5A1689E
S31508008C5008208847A07800F0F700A07003E0607845
S31508008C6008B100206070BDE810404DE02DE9F041E4
S31508008C7004460D46FCF75AF8274F804638780126F1
S31508008C80A8B120000BD1B87800281CBFB868002806
S31508008C9005D0B878400602D5B96840208847BD6037
S31508008CA0B878A0421CBFBC70FFF7B3FF002620E0CF
S31508008CB02DE9F04104460D46FCF738F8164F804674
S31508008CC038780126A8B120000BD1F87800281CBFF7
S31508008CD0F868002805D0F878400602D5F9684020DB
S31508008CE08847FD60F878A0421CBFFC70FFF791FF2B
S31508008CF000264046FCF720F83046BDE8F0810648D5
S31508008D0000787047704700BF03480178002141701A
S31508008D100020FDF7C6BB000090EC00202DE9F843C3
S31508008D2005460E463000144605D1FDF732FB2018DD
S31508008D30C0F313004DE02F46022F0FF2501803DB45
S31508008D4040214046FCF7F6FA102C05D22846B047D3
S31508008D50BDE8F143FDF71DBBDFF8209159F8270060
S31508008D6018B148214046FCF7E5FAB4F5002F03D3BD
S31508008D7049214046FCF7DEFA49F82760404F414E44
S31508008D8095B9FBF7D3FF0546FDF703FB2418A0B2F8
S31508008D907860200C3860022030602846FBF7CCFF4C
S31508008DA0306C40F0020011E0FBF7C0FF0546FDF706
S31508008DB0F0FA2418A0B2F860200CB86004203060DD
S31508008DC02846FBF7B9FF306C40F004003064C4F362
S31508008DD01300BDE8F28370B504462646022E0D46FA
S31508008DE004DB66210FF2A400FCF7A4FAFBF79EFF4A
S31508008DF0224951F82620AA4210D1002241F82620FD
S31508008E00002C20490A6C04D122F002020A640222CC
S31508008E1003E022F004020A6404220A60BDE87040F6
S31508008E20FBF78ABF70B5174C144E2068216C01EA0F
S31508008E300005ADB2A80709D5206C20F00200206411
S31508008E403168080002D000203060884768070AD5D4
S31508008E50206C20F0040020647168080003D000200C
S31508008E60706001208847256070BD02F029BE0100A8
S31508008E7008BF01200201044900204FE76CFC0020CE
S31508008E804020004008A000406B8E000873796D6290
S31508008E906F6C2D74696D65722E630000F8B5274DE9
S31508008EA02E68040001D1FF20F2BDFBF73FFF244FD7
S31508008EB029683A7821F8124036F8021BA142FBD1FC
S31508008EC0FBF73AFF29683A78B01E401A4010C1B23B
S31508008ED0914208BFFF20C0B2F2BD2DE9F843194CF4
S31508008EE0174D26688146287806EBC007FBF71EFF54
S31508008EF08046082249463846FEF7ABFFF88800E068
S31508008F000836F188814202BF31883A889142F7D102
S31508008F1071887A88914202BFB188BA889142EFD1A6
S31508008F204046FBF709FF20682A78301AC010C1B2FC
S31508008F30914208BFFF20C0B2BDE8F283ACE300202F
S31508008F40D3E60020B0E3002038B504466048614DFA
S31508008F50002912BF00210178491C01700120012156
S31508008F6001F0C1FA2878411C89B2032001F0BBFA46
S31508008F70200003D0FFF74AFE002808D5FFF746FE73
S31508008F8040054CBF032001200021FFF76FFE524821
S31508008F9044702846BDE8384001224FF4806102F04B
S31508008FA009BE80B5FDF7E7FDBDE80240312002F0B5
S31508008FB02FBF38B50446402C154606D1FFF726FEC6
S31508008FC000F08020B0F1004F03D000210020FFF709
S31508008FD04DFE002C3AD0402C24D0882C18BF892C62
S31508008FE038D08C2C38D08D2C2DD08F2C39D13B48AD
S31508008FF0007804280FD155B13949022008704CF27F
S315080090005032BDE8384037490020FFF787BEFDF7E4
S31508009010B2FD312021E0FDF7AEFD002D0CBF312059
S3150800902000201AE0FDF7A7FD02F0B0FF28482E49F8
S3150800903000780978884204D2BDE83440002101202E
S3150800904082E7402009E002F0B7FD03E0FDF793FD53
S31508009050002002E0FDF78FFD8D20BDE8324002F0CA
S31508009060D7BEBDE83440B42145E01D480078022843
S3150800907000D0704780B51D480078012807D003281E
S3150800908010D11B480078022818BF7C280AD1154938
S315080090900020FFF7A0FEFDF76EFDBDE802400020A8
S315080090A002F0B6BE01BD38B5FBF740FE05460C48D2
S315080090B00078002410B9FDF7D7F904462846FBF7CF
S315080090C03BFE1CB1BDE8314001F021BA31BD0000BC
S315080090D0DBFF00201AFF0020A0E40020BFE60020E6
S315080090E0E1FF0020A38F0008DDE60020DFFF002057
S315080090F0E0FF0020E9210FF20800FCF71BB9000089
S315080091006D61632D7068792E6300000070B50446A2
S315080091108F480D460178164619B14188491C418089
S3150800912070BD204602F039FF80B1FDF77FFD38B1EA
S31508009130A078002E14BF40F0010000F0FE00A070D9
S3150800914029462046BDE870402E2200E070BD70B565
S3150800915004460D461646601C01F0CAFB10F0070FC0
S315080091601ABF41F64901884200260121002001F074
S31508009170BAF92078411C89B2022001F0B4F93246C6
S315080091802946204602F09BF918B1BDE8704003F065
S31508009190DFB96F488188491C818070BD2DE9F04789
S315080091A0A4B002F0D6F96A4D8046688808B1002056
S315080091B06880A988080004D00D2001F094F90020E1
S315080091C0A8805FEA080038D001F0D6FF0646701C72
S315080091D0377801F08DFB10F0070F1BBF41F64901E8
S315080091E0884200242E24404601F0DDFF30446142C7
S315080091F00844A0F10801082201A8FEF72AFE01ACDE
S31508009200E078FDF7D3F93946FDF7D7F98146514895
S3150800921094F902A0007888B1A86800280DD000202B
S3150800922000907B1CDBB20022414603A802F0B0F98D
S31508009230AB685246494603A8984786E0404603F07D
S31508009240C8FD0028F9D00521404602F0E7F907468F
S315080092500320FEF7DCFA404C404907F0070020706F
S31508009260FF20087086F8019086F802A09DF8040091
S31508009270F070404604F061F90328404602D105F033
S31508009280D0FA62E004F04AF900F00500042807D095
S315080092902078032804D1404602F0FAFD002854D16C
S315080092A003F08CF918B103F089F9012802D1207866
S315080092B000284AD1EA68100004D0002140469047A9
S315080092C0002842D1264D2878032818BF042805D03F
S315080092D0022821D123480078C0071DD403F06EF96F
S315080092E0032819D1404604F0E0F9B0F5004F13D130
S315080092F0404604F0FDF91C49098881420CD04046D5
S3150800930004F00CF9000707D4404604F007F94006B4
S315080093101BD52078012818D12878042803D1F80607
S3150800932048BF02F085FC207820B101280AD003281E
S3150800933004D00AE0404604F041FE06E0404605F047
S3150800934059FF02E0404605F0A3FF24B0BDE8F087C8
S3150800935054FC002011FC0020DFFF0020E0FF002065
S31508009360C2F90020C6F90020DEE400202F49486033
S3150800937000200870704710B52C4C2278616800F000
S3150800938003F80120207010BD2DE9F0410446284855
S315080093900068C0050D46904604D071210FF2A8005A
S315080093A0FBF7C8FF234F244E3868002818BFB8F1CA
S315080093B0000F02D03068854203D0284600F028F80E
S315080093C035608020386006211C4801600721396015
S315080093D001688907FCD5216809BAB962616809BAC2
S315080093E0B962A16809BAB962E16809BAB9620168DD
S315080093F04907FCD5386B00BA2060386B00BA606044
S31508009400386B00BAA060386B00BAE060BDE8F0813E
S3150800941002680B4912BACA60426812BA8A60826840
S3150800942012BA4A60C06800BA0860704744FC002057
S3150800943004ED00E0003000404CFC002010A0004085
S315080094403830004000229FE76165732E63000000F4
S31508009450002848BF4042704701468AB20AB94BF60F
S31508009460EF610F4A000C08BF4FF6CE2011805080DE
S3150800947070470288130448BF4A40510001801046CD
S31508009480704738B5064C62212046FFF7F2FF0546BD
S3150800949041F20B01A01CFFF7ECFF684032BD00004B
S315080094A09AE60020012100F01F029140DFF8782596
S315080094B0400942F8201070472DE9F04FDFF8704553
S315080094C091B061681091072808BF032006D00828C4
S315080094D008BF022002D0052808BF0420DFF854552B
S315080094E029686A6841EA0221AA6841EA02410091AC
S315080094F06968490703D5E16941F00201E161296814
S31508009500490703D5E16941F00401E1610099EA6977
S31508009510D140C90703D5E16941F00801E161401E60
S31508009520DFF80865DFF8107500210328316000F2BE
S315080095304682DFE810F01C0206001B00040061608A
S3150800954014E0386CC00703D5E06940F04000E061DC
