S030000073656E736F722D6163747561746F722D6E6F64652D65667233326D67317031333266323536676D34382E733337AA
S113000060550020194C0300094203000D4203000F
S1130010A70B0000000000000000FFFF54000000D8
S113002004180F00000000000000000000000000A1
S113003000000000000000000000000000000000BC
S113004000000000000000000000000000000000AC
S11300500000000060550020194C03000942030011
S11300600D420300A70A0A010002000004180FACA5
S11300700023000000000000000000000000000059
S1130080000000000000000000000000000000006C
S1130090000000000000000000000000FFFFFFFF60
S11300A0FFFFFFFFFFFFFFFF00E003000000000071
S11300B000000000FFFFFFFFFFFFFFFF1000000034
S11300C0000000000000000000000000000000002C
S11300D0000000000000000000000000417D00203E
S11300E0417D002060550020808F03005656030098
S11300F08846002070170020000004000000000063
S113020060550020194C0300094203000D4203000D
S1130210154203001142030019420300794403000C
S113022079440300794403007944030079440300CA
S11302301D42030079440300794403006DB20100B8
S11302409585020093D20200F59F01009BD2020023
S1130250DDD20200BBD20200B9D20200D5D2020024
S113026071A40100E7A6010087930200872900001A
S11302707944030079440300370D000079440300F6
S11302807944030005A7010079440300794403007D
S1130290794403007944030079440300794403005A
S11302A0794403007944030079440300C5D2020071
S11302B0CDD20200A18302007944030079440300F3
S11302C07550030079440300794403007944030022
S11302D0794403007944030079440300794403001A
S11302E07149724A01E021B1491E1369DB07FAD44E
S11302F001B9BAE0506001201060106910F0060FD7
S113030005D0410700D5B3E0800700D5B3E0002055
S11303107047F0B513460022002936D0624C634D75
S11303208BB98B4231D250F8046BEE605B1C08260B
S11303302E60264601E036B3761E2F69FF07FAD4F5
S1130340002EEED11FE0EFF3108672B600230EE00C
S11303502F6907F01907102F08BF2F602F693F0777
S1130360F6D550F8047BEF6010272F605B1C8B429E
S1130370F4D306B962B6264601E026B1761E286992
S1130380C007FAD40EB96FF002021046F0BD2DE991
S1130390F84F04460D469B460020454F396841F00E
S11303A0010139604FEA92088146AA4602E0B1444D
S11303B00AEB860AC14517D204EB89063046FFF7DB
S11303C08FFF010022D1C6F30A00C0F50060860841
S11303D0A8EB0900B04238BF06465A46314650469B
S11303E0FFF797FF0100E2D021682A68914209D003
S11303F02046FFF775FF010004D15A460121284623
S1130400FFF787FF3968490849003960BDE8F28F72
S1130410254A27490B6843F001030B6088600120DB
S113042048604869400704D50868400840000860EF
S11304301EE04869800704D5086840084000086049
S113044019E00220486001E022B1521E4869C00749
S1130450FAD422B9086840084000086005E008683A
S1130460400840000860002070476FF002007047A9
S11304704FF0FF3070476FF001007047002386E7AC
S11304800B48016841F00101016046F21A31C16470
S11304904FF4807141604169C907FCD40021C164F3
S11304A00020704700000000809698000C000E4069
S11304B008000E400000000038B5054640F2FF7108
S11304C02DED028B6868C0F30A50884243EC182B68
S11304D006D0012806DA284600F0EEF8012801DBF0
S11304E0002406E06A6840F2FE3161F31E526A603D
S11304F0441AD5E9000153EC182B00F0FFF8C5E9C4
S11305000001BDEC028B21B22846BDE8344000F066
S1130510D3B90000F8B52DED028B140003B482B0FA
S11305201F4600F09180DDE902230020002100F045
S11305304DFA00F08980002C9FED468B40D5644233
S11305400FF22C1508260CE0E00707D5D5E90001C9
S113055053EC182B00F0D2F841EC180B6408083562
S1130560761E002C18BF002EEED102A9684600F0BA
S11305703DFADDE9020153EC182B00F067FACDE9EE
S11305800201BDF9001002A800F096F905004CD54F
S1130590002C4AD002A9684600F028FADDE90201DD
S11305A02E4A2F4B00F0AAF8CDE90201BDF9001044
S11305B002A800F081F9050037D5641EEAD134E0C1
S11305C0012C32DB0FF2A8050826E00707D5D5E990
S11305D0000153EC182B00F091F841EC180B641057
S11305E00835761E012C01DB002EEED153EC182BBE
S11305F002A8FFF761FF050017D5012C15DB02A93E
S1130600684600F0F3F9DDE90201164A164B00F0E2
S113061075F8CDE90201BDF9001002A800F04CF90B
S1130620050002D5641E012CE9DA28B200281CBF9B
S11306302DB2012D08D100F043FB222101601FB12E
S1130640386840F001003860DDE9020104B0BDEC17
S1130650028BF4BD000000000000F03F436FAC6467
S11306602806C80A3CBF737FDD4F157500000000E3
S11306700000000000002440000000000000594079
S1130680000000000088C3400000000084D79741A8
S11306900080E03779C34143176E05B5B5B893467A
S11306A0F5F93FE9034F384D321D30F94877825A46
S11306B03CBF737FDD4F157530B4436803F00042CF
S11306C00121C3F313034360002B04BF0368002B11
S11306D008D10DE00368DD0F45EA440444605B0083
S11306E00360491E4468E302F4D5C4F31303436072
S11306F043681A434260084630BC7047B0B581EA8B
S1130700030C0CF0004C40F2FF7515EA11541DBFA8
S113071015EA1357AC42AF4239E0E41923EA4553D2
S113072043F48013C90241F0004141EA505EC7021C
S11307301100A7FB020200284FF00000EEFB01208D
S11307404FF00001E3FB072118BF42F001024018FB
S113075000214941E3FB0E01A4F580640F0302D29A
S113076052004041494154F101046CDD470872F1E3
S1130770004250F1000051EB0451A1F580115CBF1F
S113078041EA0C01B0BD4CEA05510020B0BD05EAB8
S11307901357AC4214BFAF4241E050EA410E1CBFB4
S11307A052EA430E02E061460020B0BD24423C44BC
S11307B01BD15FEA070EF6D0090302BF01460020F1
S11307C0AEF1140EB1FA81F7AEEB070401FA07FE9D
S11307D00C37C7F1200100FA07F7C8404EEA000EB3
S11307E023EA455343F48013A2E733F00043B3FAFA
S11307F083F704BFB2FA82FE77440B3FE41BB7F1E0
S1130800200E2FBF02FA0EF3BB40C7F1200E22FACE
S11308100EFE38BF43EA0E03BA40641C82E750EA76
S1130820410E14BF52EA430E6FF000014FF400175B
S113083017EB430F8ABF194617EB410FB5E74CEA94
S113084005510020B0BDD4F10104B4F120070FDA42
S1130850C4F12007520828BF42F0010210FA07F53C
S113086001FA07F7E1BF2A43E0403843E1400FE0D3
S1130870352C98DCC7F1200452EA400220FA07F232
S113088018BF42F0010231FA07F0A1400A430021E7
S113089072F1004250F1000051EB0C01B0BD8268CE
S11308A0521C8260426832B10268531C03601170AA
S11308B04168491E4160704770B504460D46606842
S11308C0C0F30A5040F2FF71884207D16068000308
S11308D004BF2068002817D0022070BD20B920462C
S11308E0FFF7EAFE012866DA012D0FDB40F2FF7103
S11308F0091A8D420AD3606800284CBF9FED2F0B64
S11309009FED300B84ED000B012070BD4142A942E4
S1130910616806DA6FF31E51401941EA00506060C5
S113092040E0401E63684519012205F1350062F379
S11309301F53352801F00041636003D36160002038
S1130940206070BD002015F11F0F04DA20682360B9
S11309500022203562606A4212D0401E2568804120
S1130960C2F12003C0439D4045EAD0702568666803
S1130970D54006FA03F32B4323606368D3406360D6
S113098062680A43B0F1004F626003D80DD1207849
S1130990C0070AD52068401C2060206828B9606818
S11309A0401C60604FF0FF3070BD6068884204BF37
S11309B020680028F6D1002070BD00BF00000000B0
S11309C00000F0FF000000000000F07F90420CD116
S11309D041EA030C50EA4C0C07D0994205D14FF47C
S11309E0001C1CEB410F38BF8942704738B50C46D8
S11309F005466068C0F30A5040F2FF7188420BD18B
S1130A00002028806068000304BF2068002801D00B
S1130A10022032BD012032BD012804DA2046FFF74E
S1130A204BFE01280ADA626840F2FE3161F31E527D
S1130A306260401A28804FF0FF3032BD00202880C9
S1130A4032BD0268531C0360117070472DE9F041F8
S1130A5040F2FF7581EA030C0CF0004C15EA1154C6
S1130A601DBF15EA1357AC42AF42E9E0BC41C1F3E4
S1130A701301C3F31303801A994143F4801304D27E
S1130A80641E4000494180185941C90241EA50514D
S1130A90B1FBF3F603FB1611A2FB0675D7EBC020DE
S1130AA0A94102D2761E80185941C90241EA505127
S1130AB0B1FBF3FE03FB1E11A2FB0E75D7EBC020A6
S1130AC0A94103D2AEF1010E80185941890241EACD
S1130AD09051760546EA8E2EB1FBF3F603FB161110
S1130AE0A2FB0675D7EB8020A94102D2761E80189E
S1130AF05941C90241EA50514EEA060EB1FBF3F6E0
S1130B0003FB1611A2FB0675D7EBC020A94102D244
S1130B10761E80185941C90241EA5051B1FBF3F7DE
S1130B2003FB1711A2FB0735D3EBC020A94167F1E2
S1130B3000070CBF004247F0010766F3D5274FEAD0
S1130B401E31B80814F5806414DDBD0775F1004248
S1130B5050EB0E5051EB045111F5801F5CBF41EA7C
S1130B600C01BDE8F0814CF07F6141F0E0410020D0
S1130B70BDE8F081BD076D0840EA0E5041F48011D4
S1130B80D4F10104B4F120060ADAC4F1200602000B
S1130B90E04001FA06F3E1401843B24015430EE089
S1130BA0342C14DCC6F1200445EA40056D0820FA13
S1130BB006F2154321FA06F0A1400D43002175F118
S1130BC0004250F1000051EB0C01BDE8F08100201F
S1130BD05FEA0C01BDE8F081CFB992185B41B3FA2A
S1130BE083F704BFB2FA82F6BF190B3FB7F12006B0
S1130BF02FBF02FA06F3BB40C7F1200622FA06F61D
S1130C0038BF3343BA401CB1E419641E2FE77F4256
S1130C1031F00041B1FA81F404BFB0FA80F6A419AE
S1130C200B3CB4F120062FBF00FA06F1A140C4F139
S1130C30200620FA06F638BF3143A0403C1B16E7D5
S1130C40AC421ABF05EA1357AF4214E050EA41061A
S1130C501CBF52EA4306BFE750EA410730466146EB
S1130C601CBF41EA0551BDE8F08152EA430C08BFBC
S1130C70C143BDE8F08100204FF4001616EB410F8C
S1130C8098BF16EB430F08BF16EB410F24BFC143B7
S1130C9005E016EB430F0CBF61464CEA0551BDE875
S1130CA0F08103681AB95A1E026008467047197821
S1130CB011B94FF0FF307047591C01601878704724
S1130CC0014800F003B80000F85B00207047000002
S1130CD0072803D20FF2EC01085C7047FF2070472D
S1130CE0072803D20FF2E401085C7047FF20704725
S1130CF038B504462D4800EB8105A8780009FFF7B4
S1130D00E7FF2071A87800F00F00FFF7E9FF60719A
S1130D10FF2814BF01200020E870E878A07128782B
S1130D2060706878A070224D2146284600F0DFF8F4
S1130D300120A86031BD10B584B068460FF2780177
S1130D401CC91CC01948817B1A4AD3681468234003
S1130D50DB072AD5032928DA126900EB410300EBEB
S1130D608104E4781CB114B2002C48BF00229A829A
S1130D700122C37B02FA01F11943C173417B91B192
S1130D800021437BCB40DB0708D58173437B8A403A
S1130D905A4042736846FFF7ABFF1FBD491CC9B2F6
S1130DA00329EEDB1FBD032181731FBD485D0020B5
S1130DB000200040382000400000000000FF000038
S1130DC000000000E07B7C65466C6D00FF7B7C6569
S1130DD0466C6D00890001EB401000F18440026014
S1130DE0704700F18063196000F1C06002607047D1
S1130DF030B5002A1ABF1022DFF8F431DFF8F431DD
S1130E00446B23400024DFF8F051A84234D1DFF8CA
S1130E10EC0151B101290ED002291ED0032910D0B2
S1130E20062915D0812918D020E00168046800F053
S1130E3024F8006816E00168046800F024F80068EB
S1130E4004E04168446800F01EF84068000C09E0C2
S1130E50816801F00F01806804E04168446800F093
S1130E600CF8406800F0F00040EA010404FA02F0D3
S1130E701843DFF88C11086030BD01F4FE4104F022
S1130E800F0421437047090C01F4FE41C4F30344E9
S1130E902143704770B504460D46E878564E01006C
S1130EA004D10021574800F07AF800E031680A21A3
S1130EB0A1602978AA78120402F4FE0242EA0161D0
S1130EC0000200F4FE40084369780843297909B117
S1130ED040F0100020606A79C0213046FFF781FF9E
S1130EE04FF40060206470BDA978204680E738B5CF
S1130EF004460D460220A0600022FFF7F5FF287982
S1130F006978020242EA01626B7942EA0342EB78B1
S1130F1042EAC302EB790BB142F000522B7A0BB1D7
S1130F2042F00402AB790BB142F002026B7A0BB1CE
S1130F3042F00102AB78F32806D1180004D1042949
S1130F40BCBF042060F31B6218064CBF42F0E000F3
S1130F5042EA43102061606900F01CF844BF21F0AC
S1130F6080010843297840EA4140E97A09B140F414
S1130F7080406061AA7A02212046FFF72BFF28797E
S1130F80F3280CBF01220022102104F13000BDE837
S1130F9038401FE71C490840A9780A06704710B575
S1130FA00446084619498C4228BF164C04D2B4F5AD
S1130FB0FA4F38BF4FF4FA4410B9154800F010F94D
S1130FC02018401EB0FBF4F000B1401EC0B210BDAA
S1130FD080B520B90E4800F003F900B901200D498D
S1130FE008180D49B0FBF1F0401EC0B202BD00006C
S1130FF0FFFF00800080FFFF002000401082E00F10
S1131000342000400024F400F8BFE1FF0124F40080
S1131010404105003F420F0040420F00890001EBB0
S1131020401000F1844002607047890001EB4010D9
S113103000F1844000687047401CB0FA80F0C0F1B1
S11310401F00704710B50122DFF8AC17884232BF89
S11310500022DFF8A817884201D2144600E00224D7
S11310601021DFF89C07FFF7D9FFDFF8A00801681B
S113107021F0807141EA0461016010BD10B5DFF810
S11310808417CA6B02B1012241F67133CB630B683A
S113109003F04073DFF87047A04238BF002304D345
S11310A0DFF86C48A04238BF0123086820F0407084
S11310B040EA03600860D2B20AB10020C86310BDE0
S11310C080B500F05CFC0021BDE80440D6E7D5E71C
S11310D0C01C0F2801D2000770474FF070407047C2
S11310E00000000038B50446002500F0BBF9DFF825
S11310F0AC17DFF80C28944208D0DFF80828944293
S113110006D0DFF80428944204D006E0086802E020
S1131110486800E0886800F00700401E03281BD8D8
S1131120DFE800F002050C0800F06BFC04E000F0BE
S11311306EFC01E000F068FC05460DE000F012FCD6
S1131140DFF8C81709680122090E01F00101491CE2
S113115002FA01F1B0FBF1F5284632BDDFF8B4170D
S11311604A68D20702D40A680242FCD1704780B5AB
S113117000F0C0F8401C02BD491EF1E00000000070
S113118070B50C460021DFF89857021202F00F02E6
S1131190521E092A14D8DFE802F0051413130716A7
S11311A019131C20DFF85856C0F3043611B1084651
S11311B0FFF7D4FF224631462846BDE870402DE7AC
S11311C070BD1035F0E730350121EDE738351021D9
S11311D0EAE740354FF48031E6E7DFF84857E3E7C4
S11311E070B5DFF834170E68DFF814270125DFF82F
S11311F01417DFF8184710F478105DD0B0F5003FED
S11312002AD0B0F5802F21D0B0F5002F54D0B0F5FE
S1131210202F27D0B0F5402F46D0B0F5602F66D0F0
S1131220B0F5901F3BD0B0F5A01F24D0B0F5B01F8F
S11312302AD0B0F5D01F1CD0B0F5E01F22D0B0F5F5
S1131240001F2CD0B0F5381F39D04FE000F099FBC7
S1131250E168C1F308210AE000F093FBA168C1F33F
S1131260082104E000F08DFB6169C1F30421491CED
S113127012E0104615E01046FFF734FF216A01F032
S11312800F0107E008460CE00846FFF72BFFA16AB0
S113129001F0030105FA01F1B0FBF1F627E0DFF8F4
S11312A06806FFF71FFF1FE0DFF87C0600F0DAF89E
S11312B007281CD0092819D100F063FB14E0DFF8DB
S11312C06C0600F0CFF804280CD007280FD00828AB
S11312D00CD100F056FB2168C1F30421491C01FB29
S11312E000F604E000F068FB064600E00026304605
S11312F070BD0000DFF814160122031103F00F0380
S11313005B1E082B29D8DFE803F005070B0F111526
S11313101D282800086800E04869C0F304207047CD
S11313200868C0F300607047C86800E08868C0F3CC
S113133008207047DFF8F83598420ED1086A00F0AB
S11313400F0006E0DFF8EC35984206D1886A00F019
S1131350030002FA00F0401E7047002070470000AE
S11313602DE9F0420D46DFF8A475DFF8CC45DFF82F
S1131370CC65DFF88494011101F00F01491E07299F
S11313806DD8DFE801F00410171E24394E5FFFF713
S113139097FE4846FFF756FE386820F4F85040EAB6
S11313A0052038601DE0786920F4F85040EA0520F3
S11313B0786154E0386820F0807040EA0560386055
S11313C04DE0F868304040EA0520F86047E0FFF758
S11313D077FE4846FFF736FEB868304040EA0520FD
S11313E0B86000F0BFFA0021FFF771FE2046FFF756
S11313F0F7FEBDE8F04225E6DFF84415884225D023
S1131400DFF82C1588422AD12846FFF715FE054639
S11314100420FFF7A3FE386A000945EA0010386289
S11314201DE0DFF81015884219D12846FFF704FEA5
S113143005464020FFF792FEB86A800845EA80001E
S1131440B8620CE0DFF8F814884208D14FF4802029
S1131450FFF784FE386B000945EA00103863BDE8E5
S1131460F082000001460120DFF8D82401F00F01CA
S1131470491E072949D8DFE801F0040F1348202E3C
S11314804836506A00F0070002283AD002D30428F4
S113149004D01CD30520704711690FE00220704767
S11314A0516901F00701491E03292FD8DFE801F033
S11314B00F020311F2E706207047916901F007015A
S11314C0012904D00229E9D0042902D0704703205D
S11314D070470A207047116811F001010FD00129EB
S11314E014D109207047DFF86014096801F0300155
S11314F0102904D0202904D0302904D070470720B3
S1131500704704207047082070470020704700008F
S113151070B503240325DFF82C6400F00F00401E8F
S113152007280FD8DFE800F0042E347C31607C6A91
S1131530DFF8C402022906D003291AD004291AD0DC
S113154005291DD070BD042400250122012128464F
S113155000F0BAF8FFF7B4FD7460DFF8DC03FFF7BE
S11315603FFEFFF76FFD00F0FDF90021BDE870407C
S1131570ADE50125E9E702240225FFF763FDE4E771
S11315800124FAE706F1100404E006F1180401E06E
S113159006F11404012908D0022909D003290ED028
S11315A0062913D00A291DD070BD0020206070BD0B
S11315B001220121002000F087F80220F6E7012231
S11315C00121012000F080F80120EFE700F0CAF9C2
S11315D0FFF738FD01220021DFF84403FFF71EFD69
S11315E00320E3E70420E1E7072902D0092902D018
S11315F070BD002000E00120306070BD012906D0DC
S1131600042915D007290CD0082918D070BD002052
S1131610DFF834130A6822F0300242EA001008604E
S113162070BD01220121042000F04EF80120EFE7F3
S113163001220121022000F047F80220E8E70320FC
S1131640E6E770B500F03DF801220021022000F029
S11316503BF80020217C022908BF0120DFF8F0526A
S11316602968490840EA4100286022780821284670
S1131670FFF7D4FC6868C008E17A41EAC0006860FA
S1131680A088617A41EAC020A860EE68207AFFF75A
S11316901FFD06F07F61E28841EAC221A27A11436C
S11316A0227A41EAC2110843E860607BA17B090108
S11316B041EA0030E17B0843217B40EA0140286194
S11316C070BD04461120CDE62DE9F84F82469046C0
S11316D0042870D8DFE800F04B463C0341000126A3
S11316E0022001270024DFF83492994D00295DD0AF
S11316F04FF0000BBAF1020F04BF286810F0300F4E
S11317000AD14FF0010B2868C00705D5286820F0DE
S1131710300040F001002860EE6300F04EF800282D
S1131720FBD0B8F1000F46D0394600F047F8002846
S1131730FAD0BAF1020F3ED1BBF1000F3BD02868BA
S1131740C0071BD501222021022000F0C9F819E0AE
S11317500426082003270224C5E710262020052795
S11317600424C0E74026802007270624BBE74FF463
S113177080764FF4007009270824B4E70021022082
S113178000F08EF8022000F01DF80446012200212A
S11317900220FFF799FF2146022000F037F8EE639C
S11317A0394600F00BF80028FAD004E0E86300F0B2
S11317B004F80028FBD1BDE8F18F21464846FFF725
S11317C034BC00006149401E032812D8DFE800F051
S11317D0020C06080869C0F308007047086800E0B6
S11317E0886800F07F0070475A480068C0F30A0018
S11317F070470020704700000148E8010190D003C1
S113180000400E4004000E4081BA8C0170B50D46B4
S113181005F07F014D4C3F4E401E03283DD8DFE8C4
S113182000F0022A101DC5F308051A213046FFF7FF
S1131830FCFB0028F9D12069400A45EA40202061D8
S113184070BD0D4618213046FFF7EFFB0028F9D193
S11318502068C00945EAC010206070BD0D461921FA
S11318603046FFF7E2FB0028F9D1A068C00945EA39
S1131870C010A06070BD29480068606920F0300085
S113188040F010006061C5F3C310FFF721FC216A2A
S1131890314A114029430843206270BD80400E4004
S11318A02B48026812F0300F18BF002907D02029F6
S11318B002D0302903D005E04FF4000103E04FF4D7
S11318C0400100E02549C26E0A408A42FBD1490228
S11318D004D5C06F800A00F00100704701207047F2
S11318E010B502280AD10B0004D01D4B4FF48064BC
S11318F05C64196012B1BDE81040D1E7012010BD4D
S113190002001A0003001C000500200000410E40E4
S1131910015A620240410E404458002090400E405B
S1131920B0400E4050410E4006000C0098002E00BE
S1131930600614007007160000050800FF00FEFF93
S11319408009120070400E405C410E4010400E4071
S113195024400E409C400E4000F8FF0FFF03E107B7
S113196064400E4080B500F00CF82A4909682A4A00
S1131970C1F30821491CB0FBF1F0106002BD2748F7
S11319807047274827490A6802F00702022A09D04B
S11319900AD3042A01D002D306E0406805E04FF4DC
S11319A0004002E0006800E08068C96EC1F30421D1
S11319B0491CB0FBF1F0704719480068704718499A
S11319C008601848006800F00700022808BFFFF705
S11319D0C9BF70471448016841F47001016013489D
S11319E0416941F40051416101688908890001603D
S11319F0416B490849004163016A21F08051016249
S1131A0070474FF4004070474FF47A7070470448B1
S1131A104068704708410E40EC58002000F049022D
S1131A20E058002094400E4088ED00E040300E4025
S1131A3010B50446002A14BF0FF230020FF2380228
S1131A4008A1012000F043F8012000F01DF810B1B6
S1131A50204600F097F804A10120BDE8104000F0F2
S1131A603CB800002570200000000000426F756E35
S1131A706420746F00000000556E626F756E642000
S1131A8066726F6D000000004F4908804FF6FF71C9
S1131A90884205D0010A05D14A490978084002D094
S1131AA0012070470020704770B50C4615461E464D
S1131AB0FFF7EAFF50B132462946012000F0E6F96B
S1131AC024B10120BDE8704000F0C4B970BD0CB46D
S1131AD080B502AB0A46002104E00CB480B502AB29
S1131AE00A460121FFF7E0FF01BC5DF80CFB2DE97C
S1131AF0F84380460E4617469946FFF7C5FFD8B10E
S1131B000025089C10E0325C49464046FFF7DFFFA1
S1131B10E81005EB10700011A5EB0010062804BFB7
S1131B20404600F053F86D1CBD4205DA20001ABF90
S1131B30781B401E2846E6E7BDE8F18380B5002304
S1131B4000931BA3FFF7D3FF01BD10B582B0002B98
S1131B5014BF18A318A300240094FFF7C8FF13BDF3
S1131B6038B500E038B50446174D14A12888FFF7AE
S1131B70AEFF0120009010A3082221462888FFF719
S1131B80B6FF31BD00B58BB02822694600F094FB46
S1131B9005E000B58BB02C236A4600F093FB28B116
S1131BA06A4607A108480088FFF791FF0BB000BD03
S1131BB02563000025782000257800003E00000001
S1131BC025730000E75B0020587C002080B5FFF7F8
S1131BD05BFF20B10120BDE8024000F0C4BC01BDA0
S1131BE070B51346104402E0A4192C705B1EDCB2DD
S1131BF04CB101F00F060909451E28460A2EB4BF50
S1131C0030243724F0E7104470BDF0B5002341B10F
S1131C10002806D52D2111700123B0F1004F18BF03
S1131C204042002100240FF27025002655F824704C
S1131C3001E0C01B761CB842FBD2F7B20FB90F000B
S1131C4005D006F13001DBB2D1545B1C0121641CC8
S1131C50092CEADB3030DBB2D054581CC0B2F0BDE2
S1131C602DE9F24F96B0804615469B4603AE0027F9
S1131C70002413A8019003A88DF800000BE00124B0
S1131C8005460198864205D300F0DCF800284FD1C0
S1131C9000F0CEF86D1C9DF80000301A29780A0077
S1131CA00BD0252903D014B906F8011BE9E7002C51
S1131CB014BF00246D1C29780A0000F0AF80B1F134
S1131CC0250216D00B3A092A40F28980283A7DD0A1
S1131CD00A3A12D0521E41D0521E5FD0083A5DD04B
S1131CE0121F3ED0D21E3CD0921E57D0D21E6DD0B1
S1131CF0C7E7252006F8010BC3E7DBF800000290D4
S1131D000BF10400D0F8009000F1040B4FF0000A2E
S1131D10CA45B6D20222029810F80A103046FFF7DC
S1131D205FFF06460198864205D300F08BF8002831
S1131D307AD100F07DF8A9F1010082453CBF202052
S1131D4006F8010B0198864205D300F07BF80028C1
S1131D506AD100F06DF80AF1010AD9E75BF8040BC7
S1131D60C8E75BF8049B00F067F800285CD100F03A
S1131D705FF84FF0000A01E00AF1010A5FFA8AFAFB
S1131D8019F80A000028F7D1524649469DF8580030
S1131D90C047002848D15744FFB272E76C290AD1E2
S1131DA05BF8040B6A78752A0EBF00210121642AAE
S1131DB007D16D1C05E075295BF8040B0CBF0021ED
S1131DC001213246FFF721FF36185AE75BF8041B5E
S1131DD00222C9B23046FFF703FF064651E7012449
S1131DE06A78782A18BF582AF8D16D1C0024681E16
S1131DF0322904D15BF8040B042281B2EAE73429C6
S1131E007FF43DAF5BF8049B04224FEA194130464E
S1131E10FFF7E6FE04221FFA89F1DCE700F00CF874
S1131E2010B9F019C0B200E0002017B0BDE8F08F7F
S1131E30F719FFB203AE70470646F2B203A99DF844
S1131E40580040479DF80000361AF2B203A99DF8E5
S1131E505800404701A111E0000000000D0A0000F5
S1131E600CB438B5044604AA00F010F80546204620
S1131E70FFF7F0FF284632BC5DF80CFB0CB480B5CC
S1131E8002AA00F003F802BC5DF80CFB80B500F078
S1131E90ECFEC0B202BD000000CA9A3B00E1F505A9
S1131EA08096980040420F00A08601001027000091
S1131EB0E8030000640000000A0000008A4938E0DA
S1131EC080B5014606220FF20C601EE038B50446C8
S1131ED00D4606220FF2FC51284600F0BFFF2146B2
S1131EE0A81DBDE8344001F042B838B504460D469B
S1131EF0FFF7E6FF28B11DB1A01D01F02EF82880E0
S1131F00012032BD80B50822774901F010F8401E47
S1131F108041C00F02BD00B583B0694600F011F8DE
S1131F2008227249684601F002F8401E8041C00F41
S1131F300EBD10B500F00DF8207880F0020020707E
S1131F4010BD10B500F005F8E07980F00200E071F2
S1131F5010BD0C4601460822204601F04EB838B5A3
S1131F60044601F0CCFB054669462046FFF7BDFF59
S1131F7000281CBF4FF6FE70854205D0BDF8000056
S1131F80854201D1012032BD002032BD10B50C467E
S1131F9004F10801FFF79AFF14E038B504460D4632
S1131FA001F0F2FE28B1294604F10800BDE83440EE
S1131FB09BE732BD10B5044608224B4904F10800E2
S1131FC000F04CFF2046BDE8104001F0D1BE10B532
S1131FD0044601F0D9FE17E038B504460D46082240
S1131FE00FF2F841284600F039FF05F108012046B8
S1131FF0BDE834409DE780B508220FF2E04184E754
S113200010B50446FFF7F7FF38B104F10800FFF7F5
S113201057FF00F0010080F0010010BD10B5044628
S113202001F06DFB4FF6FE71884205DA01F067FBA3
S11320302146BDE81040A9E72046BDE81040B9E7B5
S113204010B5044602F039F918B92046BDE810402D
S113205023E2012010BD0178FF2904BF4178322911
S113206007D1817829B9C178402904BF001D01F046
S11320708BBE002070470178FF2904BF41783329C3
S113208007D1817829B9C178402904BF001D01F026
S11320907BBE002070470178FF2906BF40780128E5
S11320A0002070470178FF2904BF4078022801D13D
S11320B0012070470020704738B504460C4D0822B3
S11320C02146281D00F0CAFE0822214605F114000D
S11320D000F0C4FE214605F12400BDE83840082282
S11320E000F0BCBE00000000FC720020107A00204A
S11320F03859002010B581280B4601DB002010BDA3
S1132100802814DAC408C0F10800012200EBC400DE
S1132110195D02FA00F0401E21EA00001855C4F1CE
S11321200F02181992B20021401C00F0F9FE0120A0
S113213010BD2DE9F84708B40446180090B088464D
S1132140914613D00FF26C300FC801AF87E80F002F
S113215024B11022214601A800F080FE5FEA0900A4
S113216006D001A94046FFF7C5FF002800F098807B
S1132170FF240025FF2700940026AA4601A800EBAF
S11321804A0000F0EAFE20B9FF2F08BF57466D1C35
S113219005E0FF2F03D000F086F8FF2700250AF1A1
S11321A0010ABAF1080FE9DBFF2F01D000F07BF838
S11321B0012E08BF0094009805AC0027351800983C
S11321C0874201DBAF422CDB01A800EB470000F0A3
S11321D0C4FE17B13A2104F8011B21460023002252
S11321E0960000FA06F6361306F00F0C002B08BF13
S11321F0BCF1000F01D1032A0CD10B46591CBCF1D0
S11322000A0FB4BF4FF0300E4FF0570EF44483F86A
S113221000C00123521C042AE2DB081BC0B20444A0
S113222004E0B84204BF3A2004F8010B7F1C082FD5
S1132230C5DB082D04BF3A2004F8010BB9F1000FE7
S11322401CD02F2004F8010BB8F1640F404605DBC5
S11322503121643804F8011BC0B201E00A280ADB0A
S11322600A2190FBF1F101F1300204F8012B0A225A
S113227002FB1100C0B2303004F8010B002004F856
S1132280010B05A91A98611A884208D305A8221AD5
S1132290109892B205A900F0E1FD012000E00020B1
S11322A012B0BDE8F0870098FF2802D0EDB2AE422C
S11322B001DA0097EEB2704780B500920B46002217
S11322C0002103E080B5009313460122FFF731FF9C
S11322D002BD2DE9FE4F0546080090B03FD018001E
S11322E001D010003BD065B910981022002100F0F5
S11322F017FE9DF84800002802D0119900200870AC
S1132300BCE02C21284602F06CF804462C2C26D282
S113231005A82C2102F070F8A2B2294605A800F005
S11323209DFD9DF848000024D0B12F2105A802F09E
S113233066F805001FBF0470451C287800280ED0DD
S1132340287868B115F8010B00F0C8FE0A2806DAEF
S11323500A2114FB01F10C18A4B2812CF0DB84E0F7
S11323600FF260100FC801AD85E80F009DF814004E
S113237000253A28A946AB46A8460CBF01260026EC
S1132380AA4619E082F0010001EA0902384082F00D
S11323900102104269D0012E08BF002965D029B17D
S11323A00AF1010A4FF001098DF800504FF0000BBB
S11323B0D84600260AF1010A05A810F80A0001000F
S11323C031D03A280CBF0127002700F087FE05A969
S11323D0514449784A1E9241D20F3A290CBF012137
S11323E000210FB9102840DA102D3ED01EB1022E64
S11323F0C8D0C7D3DEE7002F37D1B8F1040F34D0EB
S113240000EB0B1B08F101005FFA80F851EA0200AF
S1132410D0D001A81FFA8BF1284400F0A8FDAD1C10
S1132420EDB20226C6E7B9F1000F14D0C5F11009C8
S11324305FFA89F6CEB19DF8001001A847186A1A10
S1132440D2B23946B81900F009FD324600213846A7
S113245000F066FD01E0102D07D19DF8480040B161
S113246001A9E0B2FFF746FE08B9002007E0119881
S113247004701022109801A900F0F0FC012013B0A0
S1132480BDE8F08F0023002223E7012321E718B1E0
S11324900022102100F0A2BD704710B5040007D03F
S11324A000220F2100F09AFD10B1E07B012800D03A
S11324B0002010BD0000000000000000000000002B
S11324C00000000000000000000000000000000008
S11324D000000000000000FFFE000000FE8000007D
S11324E0000000002DE9F04194B004460F469046E8
S11324F01E460125012C1CD10AA80FF29C0124229E
S113250001F09AFF68460AA9242201F095FF1020E1
S1132510ADF82400ADF82600012C18BF022C00D021
S113252014D10197ADF80C80012E04D14FF48050E2
S113253005E001200BE0022E03D14FF44050ADF82A
S11325400A006946012000F07FFA0546E8B214B09B
S1132550BDE8F08100F01CBB80B500F024FBC0B2E4
S113256002BD00F072BB80B500F01CFCC0B202BD1D
S11325700CB480B502AB0A4601460448FFF770FB71
S1132580002002BC5DF80CFB000000003F2D0000A1
S1132590704700F04FBC00000000014000C2010081
S11325A00000001000000000000000000000000017
S11325B0000000000000000000000000012100F005
S11325C01F029140DFF8A82705E0012100F01F0257
S11325D09140DFF8A027400942F8201070470121FC
S11325E000F01F029140DFF89027F4E710B5DFF800
S11325F08C47012818BF202805D040F27D110FF622
S1132600540001F047FF204610BD4268928840897B
S1132610401A824201DA01207047002070473EB51B
S1132620012818BF202836D1012818BF202832D10C
S1132630FFF7DCFF044602F023F8054601AB6A46C7
S113264002A9A06902F0A9FF2289009989B2206831
S113265000F022F8284603F059F9A06903F013F8B2
S1132660012818D1208921688988401A218A884242
S113267011DBA06990F83110022903D102F08BFF1D
S1132680022804DAA06990F83100012803D100215E
S1132690A06902F0D0FF37BD70B504460D4616465A
S11326A001F0EEFFE188A9420CD22288521A521995
S11326B092FBF6F306FB13222280A288AA18511A71
S11326C0A180E580BDE8704003F020B9F8B50C4660
S11326D01546012818BF202816D1FFF787FF0646A4
S11326E0307B10B101207073F1BD707B18B130469E
S11326F0BDE8F240B1E00FF2C91700F006F818B1D6
S113270000F003F80028FBD1F1BD3B462A462146E0
S1132710B06903F099B870B505460E46FFF766FF39
S11327200446012D18BF202D40D1A069016890F8FE
S11327303200E8B90420886400F04AF9002EA06948
S11327400068C16C07D041F00401C1640B20FFF79D
S113275035FF052106E021F00401C1640B20FFF7D9
S113276034FF0021A0690068BDE8704003F00DB992
S11327700420486300F02CF9002EA0690068816BE6
S113278007D041F0040181630B20FFF717FF0521F7
S113279006E021F0040181630B20FFF716FF0021FE
S11327A0A0690068BDE8704003F09DB970BD38B5FC
S11327B00446DFF8CC0581422DD0DFF8C055A86966
S11327C0A04228D12A8999B22868FFF765FF002022
S11327D02968C88002E0284600F01EF8204602F06E
S11327E0DAFE032817DAE889698A414389B22A683C
S11327F09388002BEFD04018538812888342B8BFC7
S1132800914205DB9A42E6D28342A8BF9142E2DAC2
S113281001212046B3E031BD38B50446E089DFF834
S1132820643502462168658A6843084400F108015A
S1132830A06902F0C4FFA06902F0ADFE022803DB28
S11328400021A06902F0F7FE608A401CA18A90FB77
S1132850F1F201FB1200608231BDFEB50446207B1B
S113286068BB60684188084400F108056B4601AA0A
S113287002A9A06902F0AFFE60688188009A891AF3
S1132880019A8E1A41880FF23907008888420ED2C5
S11328903B466089421A2946A06902F0D5FF70B907
S11328A060686189711A4288561800F108053B4630
S11328B0F2B22946A06902F0C7FF00B96073F7BD00
S11328C070B51C46DFF8B454A969814215D1686813
S11328D08188A14238BF848801F0D2FE69684A88A1
S11328E0A4B2A2186B8992FBF3F603FB16224A806A
S11328F069688A88121B8A80E4E670BD38B50D4683
S1132900FFF774FE0446112D09D10021A06902F0DD
S1132910A3FE002020732046BDE832409DE7132D1E
S113292006D10121A06902F097FE0120207331BD78
S1132930206801880844057220680188491C22899E
S113294091FBF2F302FB131101808188491C818001
S1132950A06902F098FE218922689288891A89B2B6
S113296020B9E2898A42A8BF012105DA012805D1EC
S1132970208A814202DB0021A06900E031BDBDE86C
S1132980344002F058BE80B5DFF8FC030169090643
S113299006D503F08FF801460120BDE80440ADE7F9
S11329A001BD80B5DFF8E403016829B10168DFF8EF
S11329B0E02311600021016000F00AF80B20FFF70A
S11329C0FDFDDFF8D003016841F00401016001BDA1
S11329D00B2004E680B5DFF8C003042101604168E0
S11329E021F004014160FFF7F3FF0B20FFF7EDFD39
S11329F0DFF89C03006810B1DFF89013086001BD94
S1132A00F8B50C461546FFF7F1FD06463068808898
S1132A103189EAB2891A884201DB0120F2BD00271C
S1132A200EE001F02DFE316814F8012B0B881944D7
S1132A300A7231680A88521C338900F00CF97F1C31
S1132A40AF42EED30020F2BDF8B504460D4601288E
S1132A5018BF20283AD100F0EDF910B9204600F053
S1132A606DF82046FFF7C2FD06462046FFF7BEFD7F
S1132A70012C18BF202C29D1DFF82013016001F1AB
S1132A8088024260802202814281012C18BF202CDE
S1132A9052D1012C13BF202C4FF488700818002049
S1132AA0B061012C18BF202C10D1DFF8F402A8610A
S1132AB08030E861A98CF181EA8C32828A4207D2A3
S1132AC01C21304601F098FC0220F2BD0120F2BD29
S1132AD0B06990F83130012B0CD0338993FBF1F7B6
S1132AE001FB1733002B02BF92FBF1F301FB13210F
S1132AF00029E5D1294602F085FBF0B9B06901232C
S1132B000222017F007E03F089F8287C012808D185
S1132B1001212046FFF7FFFD0021B06902F08BFD83
S1132B200AE0002070823089F18990FBF1F0B082D4
S1132B3000F07DF900F07BF90020F2BD58B50446A1
S1132B40012818BF202812D100F074F9F0B92046EA
S1132B5000F04CF92046FFF749FD0646012C18BF4A
S1132B60202C0FD1B06902F019FC10B152BD012024
S1132B7052BDB06990F83100012803D100212046EC
S1132B80FFF7C9FD1C21304601F036FC002052BD80
S1132B9038B50446FFF72AFD05462046FFF73FFDFA
S1132BA02868808832BDF8B506460F4634460128A9
S1132BB018BF20280AD1FFF719FD05463046FFF754
S1132BC02EFD2868808818B92620F2BD0120F2BDA8
S1132BD001F056FD0646286841880844007A38709A
S1132BE028684188491C2A8991FBF2F302FB1311DE
S1132BF041808188491E8180012C18BF202C1FD15F
S1132C00A86990F83100012803D119E02846FFF79C
S1132C1003FEA86902F0BFFC022811DAE889698A78
S1132C20414389B240182A68538812888342B8BF46
S1132C30914205DB9A42E9D28342A8BF9142E5DA88
S1132C40304602F063FE0020F2BD80B5FFF7CEFCF3
S1132C504068808802BD92FBF3FC03FB1C220A80BF
S1132C608A88521C8A8002F051BE10B5012818BF10
S1132C7020280BD1002413460A4601460FF2110006
S1132C80FEF7EEFF00B90124204610BD012010BD5F
S1132C902DE9F84F81468A46934601281CBF202817
S1132CA001204AD1FFF7A2FC07467868018808444E
S1132CB000F108080024002627E001F0E1FC79680F
S1132CC01AF8012B0B8819440A7279680A88521C75
S1132CD07B8992FBF3FC03FB1C220A808A88521C2A
S1132CE08A8009884D1EAD41ED0F02F00FFE761C5F
S1132CF05DB1351BEDB22A4641464846FFF7E6FC76
S1132D002C19E4B2786800F10808F0B258450AD2E8
S1132D1000213846FFF779FC0028CED1387B002803
S1132D20F6D0222009E05C4506DAABEB040292B24D
S1132D3041464846FFF7CAFC0020BDE8F28FF8B5CB
S1132D400C46154601260746012F18BF202F0DD12A
S1132D50FFF74CFC012F18BF202F05D12A4621462E
S1132D60806902F092FC06463046F2BD0120F2BDB5
S1132D7000E100E080E100E080E200E0C85E0020C5
S1132D80097000F0AF270000000001406C200E40E5
S1132D90E45E00204C00014048000140845D0020B6
S1132DA03457002038B50446012C18BF202C1BD101
S1132DB0FFF71CFC0546012C18BF202C12D16868B3
S1132DC080880028FBD1A86902F001FC0028F6D114
S1132DD0A86902F0B7FB8006F1D5A86902F0B2FB3E
S1132DE08004ECD5002032BD012032BD70B505460B
S1132DF0FFF7FCFB06463468012D18BF202D0DD1CA
S1132E00B06990F83110012908D0022102F00AFBC0
S1132E100020708200F00BF800F009F801F030FC9B
S1132E200021A18021806180E180FFF74BBC304606
S1132E30FFF7F2BC80B5012818BF202806D1FFF7A0
S1132E40D5FB00281CBF0068002801D1012002BD69
S1132E50002002BD636F6D2E63000000814233D2F7
S1132E601044401E1144491E10E0121F11F801398C
S1132E7000F8013911F8013900F8013911F8013964
S1132E8000F8013911F8013900F8013992B2042A25
S1132E90EBDA93B2002B1EBF11F8013900F80139A7
S1132EA0521EF6D17047121F11F8013B00F8013B86
S1132EB011F8013B00F8013B11F8013B00F8013B1C
S1132EC011F8013B00F8013B92B2042AEBDA93B209
S1132ED0002B1EBF11F8013B00F8013B521EF6D136
S1132EE0704710E0121F11F8013B00F8013B11F884
S1132EF0013B00F8013B11F8013B00F8013B11F8DC
S1132F00013B00F8013B92B2042AEBDA93B2002BA6
S1132F101EBF11F8013B00F8013B521EF6D1704769
S1132F20130003D00A46194602F0C0BE704710B51C
S1132F3000E0521E93B223B100F005F8F9D0181B3B
S1132F4010BD002010BD10F8013B11F8014BA34245
S1132F50704700004178007801E00178407800EB88
S1132F60012080B270470170090A417070470A0A53
S1132F7002704170704710B50023040014BF1C4652
S1132F80C3F10304E4B25B1C0A55120A042BF4DBFC
S1132F9010BD30B50024050014BF2546C4F1050555
S1132FA0EDB2641C4A55120A42EA03621B0A062C5B
S1132FB0F1DB30BD30B54A788B78CC78097818B11C
S1132FC020461D460C4602E0154608461A4645EAC8
S1132FD0002044EA022141EA004030BD10B500233C
S1132FE000E05B1CDCB28C4205D210F8014B944229
S1132FF0F7D0002010BD012010BD10B5002304E05F
S1133000541EE41A0C5DC4545B1C9342F8DB10BDDF
S113301010B5002480B14FF6FF7202E0944206D04E
S1133020641CA4B2035D002BF8D1944204D179212D
S11330300FF2F40001F02EFA204610BD10F8012B17
S113304011F8013B0AB19A42F8D0D01A40B2704745
S113305030B5994228BF1946002303E00833401CC9
S1133060521C9BB203F10804A14203DB04781578D7
S1133070AC42F3D08B420CDA007812785040C04353
S11330808024C0B201E064085B1C8B4201DA044274
S1133090F9D198B230BDF8B555052D0E02F00707E9
S11330A004460E462A46FFF7D9FE47B1FF20615D6C
S11330B0725DF840014022EA000008436055F1BD0A
S11330C000210FF27802002805E000F00F03D35C22
S11330D05918C9B20009F8D1084670476128A8BF39
S11330E0572107DA4128A8BF372103DA3A28B4BFA9
S11330F030210021401AC0B270474108400021F03D
S1133100AA3120F0553008438108800021F0CC31E9
S113311020F0333008430109000121F0F03120F0A0
S11331200F30084370470000627974652D75746927
S11331306C69746965732E6300000000000101026C
S113314001020203010202030203030480B50FF229
S1133150381002F047FE03F03BFC0FF2381002F087
S113316041FE03F01DFE0FF23C1002F03BFE04F0A2
S1133170D3F80FF23C1002F035FE04F011FABBA0B4
S113318002F030FE04F022FE0FF2381002F02AFEA4
S1133190DFF8200902F072FE0FF2381002F022FE6E
S11331A004F0CAFF0FF2341002F01CFE05F05BF8C5
S11331B00FF2341002F016FEDFF8FC0802F05EFE97
S11331C00FF2381002F00EFEDFF8F00802F056FE9F
S11331D00FF2381002F006FEDFF8E40802F04EFEAB
S11331E00FF2401002F0FEFDDFF8D80802F046FEB0
S11331F00FF2481002F0F6FDDFF8CC0802F03EFEB4
S11332000FF24C1002F0EEFDDFF8C00802F036FEBB
S11332100FF2541002F0E6FD05F06CF80FF25C10AA
S113322002F0E0FDDFF8A80802F028FE0FF26010BB
S113323002F0D8FDDFF89C0805F026F90FF26410BF
S113324002F0D0FD05F0CAFE0FF2601002F0CAFDD4
S113325006F00DFA0FF25C1002F0C4FDDFF87808F6
S113326002F00CFE0FF25C1002F0BCFDDFF8A809BE
S113327002F004FE0FF26C1002F0B4FD06F0B4FA92
S1133280BDE8014002F0B2BD4D4143206172626964
S1133290746572004D414320696E6469726563749C
S11332A0000000007265747279207461626C6500BC
S11332B0364C6F5750414E20667261676D656E746F
S11332C0730000006D756C746963617374207461BC
S11332D0626C650077616B65757000006170706C7D
S11332E069636174696F6E00666F726D2D656E65DA
S11332F07267792D7363616E000000006E657477E8
S11333006F726B206461746100000000736C65650A
S113331070792062726F616463617374206865619F
S113332064657200676C6F62616C206164647265CD
S11333307373207461626C65000000006C6F6361DC
S11333406C2073657276657220646174610000009C
S1133350626F7264657220726F75746572204E4478
S11333602064617461000000444843502061646437
S113337072657373207461626C6500006368696CC4
S1133380642061646472657373207461626C6500A7
S1133390737461636B206576656E742071756575F1
S11333A065000000436F4150000000004A50616B0B
S11333B065000000436F6D6D697373696F6E696EAC
S11333C0670000007363616E20726573756C7473BB
S11333D020666F7220636F6D6D697373696F6E65BC
S11333E07200000044544C53204A6F696E00000080
S11333F070B5DFF8BC460546E0882A0601D4062DE0
S113340004D140F0040005F07F0503E011B94FF644
S1133410FB7108402E46022E1CBF032E042EE080B2
S113342008D0052E0DD0062E18BF072E02D0EC2191
S113343000F05AF9A570A07804280CBF01200020E0
S113344001E00325F6E706F0A4FDE0884FF6F471E9
S11334500840062E08BF40F0020004D0022E14BF1C
S1133460032E40F00800E08070BD00005544500079
S113347010B5F2B006F0B4FD03F0B3FF07F043FA61
S113348009F003FB09F038FD09F060FF09F09CFF27
S11334900AF05DFD00F089FC00F090FC0BF006F8EA
S11334A00CF000F801200DF017FA0DF0A9FE03F05E
S11334B096FB0DF0C0FEDFF814480020A0704FF614
S11334C0FE700DF041FB0020E0800DF0AFFF0EF028
S11334D0E6F910F0BFF811F03EFA05F0B7FF06F078
S11334E07BF9BC237F22082142A812F067F800F080
S11334F018F901A810F0D1FFBDF854014FF6FF717F
S1133500884236D0BDF8040098BB082342AA0E2195
S11335100DF106000EF08DFA102344AA03210EF0DB
S113352088FA082348AA02210EF083FA08234AAA3B
S113353007210EF07EFA10234CAA05210EF079FA29
S113354010F0FCF8BDF8542101210EF053FADFF815
S11335508427002110F0ECF8032357AA00210EF071
S113356068FA0DF10601401AADF8040001A811F043
S113357009F8BDF8040000281EBF9DF802000028C9
S11335800120002100F0DCF872B010BD38B5DFF87E
S113359048170FF278740020088002F0BBFB12F089
S11335A04FF8DFF838074168C90703D5006810F001
S11335B0300F10D10FF2607529460020FEF7D8FFB6
S11335C029460120FEF7D4FF2046BDE8344040F2EE
S11335D0AD1100F05FBF11F0CFFF20B14FF4D971EE
S11335E0204600F057FF12F03EF90FF27C70DFF82E
S11335F0DC4612F00BFB607004F1080004F081FE5D
S1133600DFF8DC1600200860DFF8D816086012F036
S11336107EFB04F027FEFFF72BFFBDE832400020BD
S113362004F00CBE38B504460DF0D0F8DFF89C5613
S113363020B1A888002814BF01200220207003F0C4
S113364098FA10B903F0BAFA58B103F0A6F840B1E9
S113365000F009F828B105F10800BDE8324004F093
S1133660D9BE002032BDDFF8800612F06FBB10B562
S113367000200DF03CFDDFF87406007818B10FF25D
S1133680340002F038FC12F0DFF812F092FD12F070
S11336900BFE12F0A6FF03F000FDDFF8304604F144
S11336A0080004F0C3FE6078BDE8104012F0D6BAFA
S11336B0000000004D31000000000000DFF80C069F
S11336C0407812F0CBBA80B503F053FA18B940F23F
S11336D0332100F009F80CF0C5FF00200DF0E8FCE0
S11336E0BDE8014003F05FB80FF2206000F0D2BEE5
S11336F080B50DF096F8BDE802400DF0EDB80DF080
S113370014BADFF8C8158979890758BF0DF0FCB9D8
S113371070470DF011BA0DF017BA0CF030BE006806
S1133720009004237F220C21684611F047BF0CF05F
S113373013BEDFF8BC057047DFF8900500787047CA
S113374070B50446DFF88405067804700D46C18818
S1133750032C05D141F40041C1800BF061FE02E06D
S1133760C1F30E01C180200004BF012006F011FC4A
S11337702A4631462046BDE8704013F0B7BEF8B57E
S113378006465E220021FFF7CBFBDFF8245328789E
S1133790012806F1280421D0DFF858751022B91C3D
S11337A03046FFF75BFB06F1100000F0E1FA06F18A
S11337B0180000F0F7FA082207F1120106F12000C0
S11337C0FFF74CFB0DF0B8F920800CF0C5FDA0709C
S11337D0A878E0700CF0C4FD2071F1BD0FF006FF75
S11337E00746102207F114013046FFF737FB082281
S11337F007F1240106F12000FFF730FB082207F14E
S11338002C0106F11000FFF729FB07F158000423EF
S1133810018821807F22807AA0700C210FF214503D
S113382000680090FFF780FF9DF8030020719DF869
S11338300200E070A878032804D1A87900075CBFCF
S11338400520E070F1BD2DE9F041044620000D464D
S113385004D12846BDE8F041FEF7ACBB012C04D1ED
S1133860DFF89404FEF7B8FB21E0022C21DBDFF83B
S113387054620021304612F07EFA022704E04146E9
S1133880304612F0A7FA7F1C80465FEA080010D089
S113389002F088FD00281CBF016A0029EFD0F9B2AC
S11338A0A142ECD1811C10222846FFF7D7FA01204F
S11338B000E00020BDE8F0812DE9FF4104460F46F9
S11338C0DFF800520021284612F055FA1DE002F0FC
S11338D069FD060015D03078800612D5002C18BF7B
S11338E0002F07D03B4622463946B01CFFF7B0FBF9
S11338F0B84206D13388326AF169DBB2B01C14F0E5
S113390023F84146284612F065FA80465FEA08002B
S1133910DDD10FF224400FC86C4684E80F00002369
S113392000220021684614F00FF8BDE8FF813EB57F
S1133930644C0021204612F01EFA15E002F032FD1C
S113394070B10178C9070BD5016A0291821CC16963
S11339500191002100910121837C002015F089F957
S11339602946204612F036FA05462800E6D1002002
S113397002900190009000230022002115F079F9B3
S113398037BDAA210170BB214170CC218170DD219A
S1133990C170704710B5044615F093FB20B920465A
S11339A0BDE810400AF0F4B810BD00B5F7B04FF40C
S11339B08172002135A8FFF7B3FA35A810F0E2FDB3
S11339C035A810F0E1FDBC22002106A8FFF7A8FAF3
S11339D04FF6FF70ADF86400BC2306AA7F210820CF
S11339E011F0FCFD042200216846FFF799FA00F06B
S11339F02DF80822002104A8FFF792FA082304AA4C
S1133A007F21052011F0EAFD0822002102A8FFF71A
S1133A1087FA082302AA7F21072011F0DFFD09F0AD
S1133A2089F80AF013F800208DF80400042301AA91
S1133A307F21032011F0D2FD264804F06FFCFFF72C
S1133A4017FD002014F0B5FB77B000BD04236A46CF
S1133A507F210C2011F0C2BD0021DFF8A00204F088
S1133A6027BD38B5DFF89452DFF89442284604F0B5
S1133A706FFDDFF8900200780C2810D0206814281D
S1133A8004D1012014F095FB002006E04FF4FA71F4
S1133A90284604F00DFD2068401C206031BD002044
S1133AA020600320BDE8324003F03FB816F004B9AB
S1133AB018730020167D00202C740020587A0020F2
S1133AC01C7D00203A7500206A7C00206C7C00205C
S1133AD0767C0020207300205073002070B57B4C4E
S1133AE02078032888B065D0012803BF8548007872
S1133AF00C28702078D108237F22052105A811F015
S1133B005DFD05A8FEF7DAF908237F22072103A843
S1133B1011F054FD082203A96D48FFF79FF908230B
S1133B207F22062101A811F049FD01A80DF084FBB4
S1133B300FF0B5FD0FF05AFD054605F15806B07AB1
S1133B4002F0BCFF30880CF0FFFF05F11400FFF712
S1133B505FFAC1B205F114000BF08AFC05F12400F0
S1133B600BF056FC05F12C0000F012FC0FF2D810FB
S1133B70FFF7D5FDBDF80000FFF7C3FD9DF9030075
S1133B800CF0FDFB9DF8020000F032F80AF028FA70
S1133B9008F0DAFF0BF03FF8A07806280BD10021DB
S1133BA00320FFF7CDFD0BF03BF80122002100209C
S1133BB008F08BFA17E00CF0B8FF800502D10CF086
S1133BC0A5F910E0A078032818BF042804D002281F
S1133BD005D1A079C00702D40CF0E6F903E040F265
S1133BE01F51FFF781FD002013F0B3FD08B070BD35
S1133BF00021FFF7FDBB80B510F05EFF0DF04FFE16
S1133C000DF05EFE31488078062803D0BDE80140FF
S1133C1006F065BA01BD00009873002000B59FB09E
S1133C2007A8602100F0E8FB07A8FFF7A8FD0FF242
S1133C301C10006800909DF848008DF803000CF0FB
S1133C4074FFADF800006A4620488078062818BF43
S1133C509DF847008DF8020004237F210C2011F009
S1133C60BDFC0FF2EC0005A9D0E90023CDE9052342
S1133C702548FEF766F9082305AA7F21052011F0DF
S1133C80ADFC0FF2D4001249D0E90023CDE903239F
S1133C9003A80822FFF7E2F8082303AA7F210720DC
S1133CA011F09CFC0FF2B8001349D0E90023CDE9D0
S1133CB0012301A80822FFF7D1F8082301AA7F21D4
S1133CC0062011F08BFC1FB000BD0000187300200B
S1133CD03C74002000F8FF07CE720020E881E00F5A
S1133CE0247A00203C7A0020887C0020F05B0020AD
S1133CF0087A0020E07A0020107A00207059002011
S1133D0030730020E8590020FC72002069702D7384
S1133D107461636B2E630000537461636B2F48619D
S1133D20726477617265204D69736D617463680DA7
S1133D300A00000000000000000000000000000075
S1133D40000000000000000000000000000000006F
S1133D50000000000000000000000000000000005F
S1133D60000000000000000000000000000000004F
S1133D7080B5DFF84C160A7A22B10822FFF76EF8F4
S1133D80012002BD002002BD80B5DFF834160A7A96
S1133D9032B10822FFF7CBF8401E8041C00F02BDAC
S1133DA0002002BD704700207047DFF81406002190
S1133DB00172418108220C30FFF7B2B8DFF8001617
S1133DC00020488170471FB5DFF8F8050078000728
S1133DD010D4DFF8F445207801280BD16946DFF8C8
S1133DE0EC05FEF7F9F80121684608F0DCFA08B1A1
S1133DF0002020701FBDDFF8D01501200870642159
S1133E00DFF8CC0504F054BB2DE9F84B08B40446A4
S1133E108B46DFF8AC851646002108F10A0011F044
S1133E20AAFF012709E028883040B04222D0494641
S1133E3008F10A0011F0CEFF7F1C81465FEA0900F9
S1133E4019D002F0AFFA05463000ECD11CB9B8B273
S1133E505845ECD10EE05B46AA1C59462046FFF7B4
S1133E60F7F85845E3D19DF8000000281CBFA97C51
S1133E708B45DCD12846BDE8F68BF8B504460D46E3
S1133E80DFF83C65002106F10A0011F074FF04E03C
S1133E90394606F10A0011F09DFF0746380011D09B
S1133EA002F080FA821C2B4629462046FFF7D0F800
S1133EB0A842EDD1394606F10A00BDE8F8400022D7
S1133EC011F0B2BFF1BDF8B5DFF8F45404466889C7
S1133ED0ADF800000E460020688117E00021684616
S1133EE011F082FF074602F05DFA0178C90707D591
S1133EF0821C334631462046FFF7AAF8B04205D06B
S1133F000022394605F10A0011F03DFF684611F020
S1133F101DFF0028E2D0F1BD1346002274E710B55E
S1133F200C4600224021FFF7F7FF28B1008820400B
S1133F30A04201D1012010BD002010BD0121EEE7F7
S1133F4038B504460D462846FEF755F8D0B928463C
S1133F50FFF71AFF70B100212846FEF71EF828B1BA
S1133F60FFF7CDFB2146FEF711F82FE02046FEF7C0
S1133F7021F82BE02878FF2813D1687800F00F008F
S1133F80032805DA2146DFF84C04FEF725F81DE086
S1133F90062804DA2046BDE83240FEF70BB80020BC
S1133FA032BD002240212846FFF7B6FF10B1017848
S1133FB0890606D40023202200210020FFF724FFD5
S1133FC028B1811C10222046FEF748FF012032BD93
S1133FD0F8B50C460546002201210BE03946301D98
S1133FE000F0F4F818B1018841F400610180324610
S1133FF00121284610F0FEFC060018D0F7780221B3
S113400010F0E7FC0028F2D0001DFEF7A6FFC10463
S113401005D520000CBF42F210021522DEE7000590
S1134020E5D5200014BF0B2242F20802D6E7DFF8E0
S113403090536889ADF802000020ADF80000688153
S113404003E00022314611F09EFE0DF1020011F052
S11340507DFE30BB00210DF1020011F0C5FE0646C5
S113406002F0A0F94FF2FF730188CA0A02F00102BC
S1134070194013000BD1230014BF4FF6F8734DF60B
S1134080FF73194042F20103194218BF0122018053
S1134090002A14BF05F10A006846D2E7002215F091
S11340A0A3FE684611F052FE88B90021684611F05B
S11340B09BFE02F077F90146881C0A88897CD306A6
S11340C0ECD41207EDD5002214F0D0FDE9E7F1BDE0
S11340D02DE9F84316461F4680460C46012300226C
S11340E0FFF792FE05001DD1B54D05F10A0011F050
S11340F032FE082805DA0021282002F05AFA814607
S113410008B900202BE00022494605F10A0011F00D
S11341103AFE484602F046F9054628220021FEF7F9
S1134120FFFEAC7410224146A81CFEF797FE002047
S1134130A884099C2C80089921B1082205F1130058
S1134140FEF78CFEA00609D5EE612F62E3B23A4673
S113415031464046FDF76CFCFFF74DFE2846BDE8AE
S1134160F283F0B50D4683B000F02CF8060003D1BD
S11341702A462146012020E0802D44F2300705DA4A
S1134180042106F10A000BF082FF06E0102221460A
S1134190B01CFEF763FE4CF23007002000904FF491
S11341A0E16301971A464021B01CFFF791FF0028F4
S11341B014BF002001202A46214603B0BDE8F04088
S11341C015F02FBE044600224021A5E62DE9F04358
S11341D0164687B0044688460122FFF79DFE07462F
S11341E03006C00E00F001050822214602A8FEF7A1
S11341F035FE002F2BD1F0060BD500F049F807004F
S113420042D0700740D401224146204615F0ECFD0F
S11342103AE0002D38D001224146204610F018FE25
S113422081464FF6FE70814506F0020503D0FFF784
S113423066FA814500D13DB300F02AF8070023D087
S113424015BB01224146204614F010FD1CE0FFF787
S1134250D2FD387800F0300030280FD175B100203D
S1134260F86138623880002300220021B81CFDF771
S1134270DFFB00224146204615F0B6FD388841F2A6
S11342800701314008433880384607B0BDE8F08361
S113429004A800210022C0E9001200910196002325
S11342A0414602A814E780B500F06EF820B10088FA
S11342B00006400F00F0010002BD10B586B00446B0
S11342C0FDF799FE20B104F10800FDF724FE42E059
S11342D02046FFF759FD00283AD004F10800FDF705
S11342E011FE98BB04F10800FDF739FE70BB694666
S11342F004F10800FDF7F9FD68B33748007820B1F0
S1134300BDF80000B0F57C4F20D00EF08EFE28B131
S1134310BDF800004FF63041884217D0BDF80000C8
S11343204FF6F0710840B0F57C4F0DD1BDF8000098
S113433001A900F00F0015F00FFE402804DB032153
S113434001A8FFF7ECFD06E0002004E0012002E0F4
S11343502046FFF7A8FF06B010BD70B5044600F074
S113436013F878B10588A9060CD5867C3146204619
S1134370FFF783FD05F01F0231462046FFF726FFB5
S1134380012070BD002070BD0023002280213BE588
S113439010B50B4C38B9FD20207005220020E080B8
S11343A0601C0E4902E0014608222046FEF756FD35
S11343B0012020722046BDE81040FDF77DBE0000BC
S11343C0307500201E730020307D00203C740020D6
S11343D0F8590020107A0020557A0020F27A002043
S11343E07047002200E0521C8A4203D210F8013BBD
S11343F0002BF8D110467047002215F0E1BDC9B278
S1134400002203788B4208BF024610F8013B002BC0
S1134410F7D110467047000062B38B0708D0521ED4
S113442011F8013B00F8013B00F024808B07F6D122
S1134430830740F0208000BF103A07D330B4B1E8BE
S11344403810103AA0E83810F9D230BC530724BF12
S1134450B1E80810A0E8081044BF51F8043B40F844
S1134460043BD20724BF31F8022B20F8022B44BFAF
S11344700B7803707047083A07D3B1E80810083A7C
S113448040F8043B40F804CBF7D25307E4E70000BC
S113449042DE704738B504460D460CF0E3F815F0DB
S11344A0CCFD15F0F5FD2946204611F0CFF92B4639
S11344B022460FF2B8110120FEF75AF82946204689
S11344C0BDE83440E4E72DE9F0474FF420685F4D40
S11344D02E1D5F4801687165016AB1655D490A680E
S11344E0F26549683166416A7166816AB166C16A7A
S11344F0F166016B3167806B706796F83400400792
S11345004CBFF46BB46B274615F065FE014631656C
S11345100022F26405F19003DFF83CC1DFF83CE1CE
S11345204F4A844224BFA2F1200AA24518D3A069AD
S11345303064E4697464746DC4F30804062C13D104
S1134540704511D360450FD200884DF64264A042F5
S11345500AD1306858607068986040F2017803E0CE
S113456000273764776407463E48814202D20146F9
S113457000E0091D0846904203D20C68B4F1CD3F17
S1134580F7D03949081AB0640020002105EB8004F3
S1134590E167401C0628F9DB002003E0C0B205EB0C
S11345A08004E167974223D252F8041D7145F9D380
S11345B06145F7D2CC07F5D5002405EB8409D9F879
S11345C07C90894502D0641C062CF6DB062CE9D1CC
S11345D0002814BF401E0520E0E7B16F002405EB5E
S11345E08402D2F88070D767641C052CF7DB19604D
S11345F00146481EC9B20029EFD1706DC0F308000E
S1134600032808D0042809D005280AD006280BD08E
S11346100C280FD011E040F6012813E040F60228E0
S113462010E040F603280DE0B8F5206F0AD140F6FB
S1134630042807E040F6052804E018B1312838BF03
S113464040F607284046BDE8F0870000000000203F
S113465004ED00E000E300E056560300B804000057
S1134660605500209C000020605500200D0A5B412D
S113467053534552543A25703A25645D0D0A00009F
S1134680EFF31180602181F311887047DFF8E82986
S11346903023584310440C3000F1806007E0DFF809
S11346A0D8293023584310440C3000F1C060012253
S11346B002FA01F1016070471CB5049C0194009357
S11346C013460A4601F06FFA13BD1930017E022920
S11346D00FD1DFF8A419027830235A4311441C3156
S11346E00079800000EB411000F184400068C0B202
S11346F070470020704738B50022DFF8801901EBBD
S1134700820149684B7F834203D0521C042AF4D3AC
S113471031BD21B301F12E04E07802281FD10D1D13
S11347200846FFF7D2FF2874687C022804BF20786B
S1134730002814D100F01AFE15F063FE297C09B19B
S1134740617829B100206070286815F029FE31BD18
S113475028B99DF8000010B1286815F013FE31BD8A
S113476010B582B0044604F11400417F022910D12F
S113477041780A0003D0012906D0017821B9817A51
S11347808079FFF783FF18E0817A8079FFF787FF4C
S113479013E0012911D1007800280CBF1120132047
S11347A08DF80000204600F0F4FF012269462046FF
S11347B000F06BFF204601F02EF8002016BD2DE915
S11347C0F041044688461646FFF75AFF0546A0887E
S11347D0E188884207D300203060284601F096F82B
S11347E0DFF8A0081CE020881427142241467843EF
S11347F020440830FFF710FE208878432044083016
S113480030602088401CE18890FBF1F201FB12002B
S11348102080A088401CA080284601F077F8002062
S1134820BDE8F08138B504460D46FFF729FFA1889D
S113483009B9296024E061881422514321440831D4
S113484029606188491CE28891FBF2F302FB131191
S11348506180A188491EA1800EE038B505460C464A
S1134860FFF70EFFA98809B9216009E069881422BD
S1134870514329440831216001F048F8002032BD39
S113488001F044F8DFF8440932BD90F832100A0010
S11348900BD101210268D16000680169C907FCD508
S11348A0416F41F001014167704701290ED1016850
S11348B0496C8907FBD40121026851600068816852
S11348C0C907FCD5416D41F001014165704790F87D
S11348D032100A0008D101684A6F520852004A6730
S11348E002210068C160704701290CD10168496C3C
S11348F08907FBD40168496D49084900026851657C
S1134900022100684160704710B586B000F12C02A6
S11349100123137093791C0013D1026802F11C0364
S113492004900FF271020392002202924A680192EB
S1134930012200920A680169806815F008FD06B03A
S113494010BD012BE9D000201070F8E710B586B037
S113495000F12D020123137053791C0012D1026857
S1134960343204900FF219130393002302934B681B
S11349700193012300930B68C168406815F0E1FCC2
S113498006B010BD012B02D102682832E9E70020ED
S11349901070F5E7F8B514466946606AFFF75DFFE5
S11349A0DFF82818884262D004F12C05A879DFF8D2
S11349B04818020008D12268126C920504D500F050
S11349C058F84FF4007015E00246012A07D1236815
S11349D0DB6A1B0603D500F04CF8802016E0DFF8F4
S11349E01C1850B92068006CC00506D500F041F8C9
S11349F04FF48070216888640DE0012A09D1206891
S1134A00C06A400605D500F034F8402021684863A8
S1134A1001E000F062F8FFF733FE06460098C7682D
S1134A20380009D00098406800998968431A0098B2
S1134A30026801692046B8476946606AFFF7F2FEDA
S1134A40606A818821B100F07AFD00F0D2FE0CE0AA
S1134A50012020752046FFF783FE00202870687926
S1134A6003281CBF2046FFF732FF00F012FF01208D
S1134A70F2BD009801610020009988607047000031
S1134A80F8B5144604F1280569462868FFF7E5FEE1
S1134A90DFF86C1788421ED000F01FF8FFF7F0FD16
S1134AA006460098C768380005D000984368026835
S1134AB000212046B84769462868FFF7B3FE2868F6
S1134AC0818821B100F03BFD00F0DEFE01E0002012
S1134AD0687100F0DEFE0120F2BD0020009908613B
S1134AE000998860704710B9DFF86408704700299E
S1134AF018BF002A02D0B2F5006F02D9DFF85408BB
S1134B0070470020704710B50368FF22DFF848485B
S1134B10A34240F060810B7A1C0018BF012B07D020
S1134B20022B18BF032B03D0042B18BF052B01D174
S1134B3000233AE0062B18BF072B04D0082B1CBF18
S1134B40092B0A2B01D101232FE00B2B18BF0C2BAF
S1134B5007D00D2B18BF0E2B03D00F2B18BF102B13
S1134B6001D1022321E0112B18BF122B08D0132BE3
S1134B7018BF142B04D0152B1CBF162B172B01D1D7
S1134B80032312E0182B18BF192B0BD01A2B18BFB4
S1134B901B2B07D01C2B18BF1D2B03D01E2B18BF9B
S1134BA01F2B01D1052300E0FF23C3754B7A1C00A2
S1134BB018BF012B40D0022B1CBF032B042B3BD06E
S1134BC0052B18BF062B04D0072B1CBF082B092B61
S1134BD001D1012333E00A2B18BF0B2B07D00C2B78
S1134BE018BF0D2B03D00E2B18BF0F2B01D102239E
S1134BF025E0102B18BF112B08D0122B18BF132B34
S1134C0004D0142B1CBF152B162B01D1032316E043
S1134C10172B18BF182B0BD0192B18BF1A2B07D022
S1134C201B2B18BF1C2B03D01D2B18BF1E2B01D10F
S1134C30052304E01F2B01D1002300E0FF230376AA
S1134C400B7A1C003ED0012B18BF022B59D0032B2A
S1134C501CBF042B052B54D0062B1FD0072B21D0AF
S1134C60082B23D0092B25D00A2B27D00B2B41D07E
S1134C700C2B43D00D2B08BF082342D00E2B05D09C
S1134C800F2B07D0102B09D0112B01D1092338E0A9
S1134C90122B01D10A2334E0132B01D10B2330E072
S1134CA0142B01D10C232CE0152B01D10D2328E06A
S1134CB0162B01D10E2324E0172B01D10F2320E062
S1134CC0182B01D100231CE0192B08BF012318D095
S1134CD01A2B08BF022314D01B2B08BF032310D0A8
S1134CE01C2B08BF04230CD01D2B08BF052308D0A0
S1134CF01E2B01D1062304E01F2B01D1072300E062
S1134D00FF23C3764B7A1C003FD0012B41D0022BEA
S1134D1043D0032B45D0042B47D0052B1FD0062BA3
S1134D2021D0072B23D0082B25D0092B27D00A2BE1
S1134D303FD00B2B41D00C2B08BF082242D00D2BA7
S1134D4005D00E2B07D00F2B09D0102B01D109222F
S1134D5038E0112B01D10A2234E0122B01D10B22AD
S1134D6030E0132B01D10C222CE0142B01D10D22A5
S1134D7028E0152B01D10E2224E0162B01D10F229D
S1134D8020E0172B1DD0182B01D101221AE0192B7A
S1134D9001D1022216E01A2B01D1032212E01B2BAF
S1134DA001D104220EE01C2B01D105220AE01D2BA7
S1134DB001D1062206E01E2B01D1072202E01F2B9F
S1134DC000D1002202774A7C42768A7C4277CA7CF0
S1134DD08276097D58E1DFF87C48A34240F04B819C
S1134DE00B7A1C0018BF012B07D0022B18BF032B12
S1134DF003D0042B18BF052B01D100233AE0062B66
S1134E0018BF072B04D0082B1CBF092B0A2B01D178
S1134E1001232FE00B2B18BF0C2B07D00D2B18BF31
S1134E200E2B03D00F2B18BF102B01D1022321E02E
S1134E30112B18BF122B08D0132B18BF142B04D01E
S1134E40152B1CBF162B172B01D1032312E0182B93
S1134E5018BF192B0BD01A2B18BF1B2B07D01C2BD8
S1134E6018BF1D2B03D01E2B18BF1F2B01D10523E8
S1134E7000E0FF23C3754B7A1C0018BF012B40D000
S1134E80022B1CBF032B042B3BD0052B18BF062B76
S1134E9004D0072B1CBF082B092B01D1012333E0BD
S1134EA00A2B18BF0B2B07D00C2B18BF0D2B03D0CC
S1134EB00E2B18BF0F2B01D1022325E0102B18BF96
S1134EC0112B08D0122B18BF132B04D0142B1CBF8A
S1134ED0152B162B01D1032316E0172B18BF182B03
S1134EE00BD0192B18BF1A2B07D01B2B18BF1C2B48
S1134EF003D01D2B18BF1E2B01D1052304E01F2B4B
S1134F0001D1002300E0FF2303760B7A1C003ED07E
S1134F10012B18BF022B59D0032B1CBF042B052BCC
S1134F2054D0062B1FD0072B21D0082B23D0092BBC
S1134F3025D00A2B27D00B2B41D00C2B43D00D2B83
S1134F4008BF082342D00E2B05D00F2B07D0102BFF
S1134F5009D0112B01D1092338E0122B01D10A23E6
S1134F6034E0132B01D10B2330E0142B01D10C239B
S1134F702CE0152B01D10D2328E0162B01D10E2393
S1134F8024E0172B01D10F2320E0182B01D100239B
S1134F901CE0192B08BF012318D01A2B08BF0223C9
S1134FA014D01B2B08BF032310D01C2B08BF0423D1
S1134FB00CD01D2B08BF052308D01E2B01D10623BE
S1134FC004E01F2B01D1072300E0FF23C3764B7AB3
S1134FD01C0038D0012B39D0022B3AD0032B3BD004
S1134FE0042B3CD0052B1DD0062B1ED0072B1FD025
S1134FF0082B20D0092B21D00A2B33D00B2B34D0F3
S11350000C2B08BF08223FF4DDAE0D2B04D00E2B71
S113501005D00F2B06D0102B3FF499AE112B3FF483
S11350209AAE122B3FF49BAE132B3FF49CAE142B81
S11350303FF49DAE152B3FF49EAE162B3FF49FAE6E
S1135040172B17D0182B3FF4A0AE192B3FF4A1AEA9
S11350501A2B3FF4A2AE1B2B3FF4A3AE1C2B3FF440
S1135060A4AE1D2B3FF4A5AE1E2B3FF4A6AE1F2B02
S11350707FF4A8AEA5E603E000A00040C0710020C4
S1135080B44810BD0A7000F08177002010BD10B53F
S113509082B00A0000F11704217920781BD0012383
S11350A0042200F0BBFD012302226179607800F044
S11350B0B5FDA07E022807D100F036F800230422B3
S11350C000F02EF8012019E0032827D100F02CF875
S11350D00023042220E0002300F0A0FD002300228E
S11350E06179607800F09AFDA07E02280ED100F06C
S11350F021F80023002200F013F80020009001237F
S11351000122A179A078FFF7D7FA07E0032805D197
S113511000F010F80023002200F002F8002016BD71
S1135120E179E07800F07ABD00230122A179A0782A
S113513000F074BD00230022A179A07800F06EBDB8
S113514010B5DFF874170A7842B9002301EB820422
S11351506360521C042AF9D301220A70002201EB75
S113516082035C68002C18BF844202D1586000207E
S113517010BD521C042AF2D3DFF8400710BD40F8DA
S1135180241F0021036819800368598003689980EB
S1135190017242601180426851804268918041727C
S11351A0C172704710B5044615F06FFADFF8101796
S11351B0607F15F078FA0020A075207502206075D4
S11351C02046BDE81040FFF7CBBA00000B7000F09A
S11351D038B5044615F08CF8DFF8E8560021201D98
S11351E015F026F828B9002104F1080015F020F87C
S11351F000B1284632BD00000D7000F00C7000F0C4
S11352000B7000F0F0B587B004000D4668460FF24D
S1135210E46191EC060B80EC060B08BF4C484BD0C4
S1135220002D57D034212046FFF7E6F82046FFF73B
S113523087FF070040D104F13100297C01702968FF
S113524021600021417028684349884235D1DFF844
S113525078062062DFF87406E0604FF44020206195
S1135260EA69A9692046FFF78AFF6868029068899D
S1135270ADF81000A889ADF80E00A87B8DF80C00DD
S1135280E87B8DF8120005208DF80D0000F081F800
S113529000F07AF800F065F800F067F800F07CFBA5
S11352A0286803214167816F00F065F8816729460A
S11352B02046FFF728FC78B148E0DFF898138842CD
S11352C008D1DFF80C062062DFF80806E0604FF42E
S11352D05020C4E71F4839E000F040F8002835D1D9
S11352E0FFF7CEF90646287C032810D12868416FC1
S11352F041F030014167416E41F00401416695F887
S1135300201095F8212041EA0221C16704E0022817
S113531004BF2046FFF746FF28684FF0FF31816441
S1135320297C03290CBF0521042100F02EFB4FF436
S113533040602968C86014F0DBFF2046FFF748FF8F
S113534000F0A6FA002F14BF3846002007B0F0BDC5
S1135350027000F0037000F00000014001212046BB
S113536095E60121206AFBF70BBF00208DF80000B1
S1135370694628687047DFF8602511402A7A41EAB7
S113538002216A7A114370470121DFF85005FBF7C7
S1135390F7BE0121DFF84805FBF7F2BE38B504007B
S11353A002D1DFF8180532BD032100F03BF80021DB
S11353B0204600F040F90021FFF7D1FF04F1310548
S11353C06878010006D102202168C860082021689D
S11353D0C8600AE0012808D1206800F099FB206821
S11353E0416C8907FCD40A2141600021FFF7BAFF10
S11353F02878032803D00021607F15F054F96068F1
S113540014F05CFFA06814F059FF14F038FF606AD0
S11354100021018041808180A06A018041808180D7
S1135420002032BD2DE9F04383B05FEA00080D4649
S113543008BFDFF888047BD0FFF722F9814608F122
S11354402C0608F10407DFF89C44012D15D1786A75
S1135450808810B3386814F0BBFF00207070786A3D
S1135460818879B300F06BF8009800F1080138687E
S113547014F0EAFF0098046120E0022D03D1386A99
S1135480808840BB09E0032D23D1786A80880028F6
S113549002BF386A80880028DCD1484600F036FA1A
S11354A0DFF8440444E06946FFF7BCF90098D0F8FB
S11354B00CC0BCF1000F01D000F03CF8786A818880
S11354C00029F0D1404600F03DF88004FAD5022DC1
S11354D001D0032D28D1786814F07AFF00203070B1
S11354E0386A8188D1B101A9FFF7B7F9019800F1B1
S11354F00801786814F0A8FF019804610AE001A982
S1135500FFF790F90198D0F80CC0BCF1000F01D05E
S113551000F010F8386A81880029F0D170790328E6
S11355201CBF4046FFF7D3F9484600F0EFF90020CE
S1135530BDE8FE83836800222146404660476946F1
S1135540FFF78BB9002190F83220130002D10068D4
S113555001691EE0012A1CD100688068820748BFE7
S11355600221C20748BF41F00101420748BF41F090
S11355700801020748BF41F02001C20648BF41F0BC
S11355804001820648BF41F08001400648BF41F413
S1135590005108467047406A1AE02DE9FC4100F0CA
S11355A042F8606A818871B1FFF7C9FF804601A99A
S11355B0A06814F049FF009828B1B8F1000F02D197
S11355C000F028F802E00020386030601CE0806AB7
S11355D08088C0B270472DE9FC4100F024F8A06A2D
S11355E0818871B1FFF7ABFF804601A9606814F0B0
S11355F02BFF009828B1B8F1000F02D100F00AF88F
S113560002E000203860306028602046FFF79AFFEF
S1135610BDE8F68140680199401A3060019838600D
S113562000980068704704460D4616461F46002041
S113563000900190704700F11402537F032B02D1B4
S1135640DFF8A80270475170022918BF1170FFF7E4
S113565087B800000004014010B500F11602D37EA3
S1135660012B01D1022900D1ECE014788C4208D03E
S1135670117011B900F0CFF803E0012908BF00F060
S113568088F8002010BD007D70472DE9F0410446E4
S113569088461646FFF727FA002878D1082015F027
S11356A03DF8054604F12E0702E00DB114F0E0FECA
S11356B0A06A808810B138780028F6D038790100C3
S11356C002D12168096905E0012818BF002522D10B
S11356D02168896811F002051DD101000BD1042055
S11356E02168C860206801698907FCD5416F41F0D1
S11356F0020141670FE001280DD12068416C890740
S1135700FBD404214160206881688907FCD5416D80
S113571041F0020141650120B8703879010006D0DA
S1135720012819D110E018F8011B00F0CAF931461C
S11357304E1E20680029F6D101698906FCD50BE0CC
S113574018F8011B00F0FDF931464E1E20680029AF
S1135750F6D181680907FCD5C5B93879010008D1AB
S11357602068416F21F00201416708202168C86068
S11357700CE001280AD12068416C8907FBD4416DF3
S113578021F0020141650820216848600020BDE83D
S1135790F08110B5040001D1FFF7EEBC94F82E009F
S11357A030B92046FEF791FF10B9606814F0EAFDA5
S11357B094F82E00401C84F82E00002010BDF0B593
S11357C087B000F069F890B900F05AF8049700F037
S11357D014F860B9287E48B92046FFF756F800F05F
S11357E008F8687F032801D000F010F8002007B003
S11357F0F0BD00992046FFF787B83D48059004F1B5
S113580014056A4601A92869FEF7D9BF002028704B
S11358102046FEF7A5BF10B5040001D1FFF7ACBCCC
S113582094F82E0070B194F82E00012806D1204679
S1135830FEF74BFF10B9606814F0B2FD94F82E0027
S1135840401EB8E7294810BDF0B587B000F024F831
S1135850A0B900F015F8049700F024F870B968793D
S113586058B9FEF70DFF06462868808818B100F085
S11358700BF80120287200F00CF8002007B0F0BDEE
S1135880019502960396704700992046FFF75EB88B
S11358900746304600F03AB804460D4616461F4601
S11358A0FFF721B91248059004F128056A4601A9B9
S11358B02868FEF784BF0000C0710020027000F069
S11358C0F74600000E7000F00022040001000C00F6
S11358D00032040001000D00E0E0FFFF0025080095
S11358E040410500097000F0087000F0057000F0F8
S11358F0017000F0050000000000000000C201007B
S113590000050000001000000000000080F3118872
S11359107047000070B50446080015461E4604BFD3
S11359205D48FBF75DFC310006D0202E18D0402ED8
S113593018D0602E18D070BD1021226822F06002A9
S1135940226022683243226069434A0802EB401015
S1135950B0FBF1F02038514901EAC000606170BD2C
S11359600821EAE70621E8E70421E6E738B504461A
S11359700800154604BF4848FBF732FC401E690086
S1135980B0FBF1F00002606131BDCA43520002F085
S11359900A02C260C160704738B504460D4600F083
S11359A059F8A87C18B1206840F080402060E87C59
S11359B018B1287D40F08000A065687BB5F910100F
S11359C00843B5F90E10084360602B7BAA68696828
S11359D02046FFF79FFF2AE038B504460D4600F045
S11359E039F8A87B08B14FF480602168B5F910201C
S11359F0104340F0010008432060287D08B14FF0B7
S1135A000050216808432060A87C18B1E87C40F06D
S1135A108000A065287B40F480506060AA686968B3
S1135A202046FFF7A3FF687B08B11020E060A87D43
S1135A30000700F0E040E97D090501F4E0010843B6
S1135A402066687D18B1206840F480302060287892
S1135A50E06031BD40F6AA61C1600021016041F2FD
S1135A6005014160002181604161C1640C49816488
S1135A70002141678167C1670A49884202D1002138
S1135A80094A1160002181650849884202D1002039
S1135A90074908607047000040410500F8FF7F0097
S1135AA0F9FF0100000001405000014000040140E2
S1135AB05C04014001690906FCD5FFE7C069C0B276
S1135AC0704702695206FCD5416370470269520669
S1135AD0FCD5C16370470000026CD20702D4426C4B
S1135AE00A42FCD1704738B500F00EF8E843400094
S1135AF000F00A002843606031BD19B1416C0029EF
S1135B00FCD101210164704704460D460221E3E7FC
S1135B1010B504460121FFF7F0FFEA206060002081
S1135B202060E06020616061A06340F2F97060630E
S1135B300020E0636065A06500212046BDE81040B8
S1135B40DBE738B500F006F840212046FFF7C4FF34
S1135B50A56231BD04460D46A068C006FCD5704759
S1135B60890001EB401000F184400260704700F1AD
S1135B708063196000F1C06002607047434A3023BB
S1135B80584310440C3000F1806006E03F4A302353
S1135B90584310440C3000F1C060012202FA01F1B4
S1135BA00160704770472DE9F04114461D4601F02D
S1135BB0030803270F21082C0CD2A60000FA06F2D2
S1135BC0B1403348FFF7D3FF08FA06F207FA06F1AB
S1135BD030480DE0A4F10802960000FA06F2B14044
S1135BE02D48FFF7C4FF08FA06F207FA06F12B481E
S1135BF0FFF7BDFF2A4621462948FFF7B1FF294D8B
S1135C00069A21462846FFF7ABFF0120A0402861F1
S1135C10079A21462448BDE8F041A1E7F8B50446B7
S1135C200D4616461F46300007D0002F204602D0EE
S1135C30FFF7ACFF01E0FFF7A1FF1448302111FB8F
S1135C4004F108440F22082D05D2AB00416800F08E
S1135C5015F8416006E0A5F108039B00816800F097
S1135C600DF881604EB9002F2946204602D0BDE8C8
S1135C70F4408BE7BDE8F44080E7F1BD9A4021EAA7
S1135C80020206FA03F111437047000000A000402D
S1135C9000A4004008A4004004A400400CA4004058
S1135CA010A4004014A4004028A4004062F30F2272
S1135CB062F31F42401810F0030308D0C91A1FD31F
S1135CC0DB0748BF00F8012D28BF20F8022D130080
S1135CD030B414461546103928BF20E93C00FAD8E0
S1135CE0490728BF20E90C0048BF40F8042D89006B
S1135CF028BF20F8022D48BF00F8012D30BC7047A2
S1135D00C91818BF00F8012DCB0728BF00F8012DD2
S1135D107047000010B5DFF8984A14F063FA606128
S1135D2014F05CFAA0616069E06118B100F007F852
S1135D30652803DABDE810409D219BE010BD10B535
S1135D40DFF86C4AA069E169884202D2AF2100F011
S1135D50DBFBA069E169401A4FF6FE71084010BDF3
S1135D60DFF84C1A4A69904203D3C969884200F0AB
S1135D7017BD00207047002818BFFFF7F1BF0120AE
S1135D80704730B1DFF8281A4969401A4010401CA6
S1135D9080B27047010001D100207047DFF8101A6B
S1135DA0496901EB4000801E70474088C0F30C0035
S1135DB0C01C0004800C4000001D80B2704710B568
S1135DC00446FFF7F2FF04EB4000DFF8E4194FF656
S1135DD0FF7300E0801CCA69904202D202889A4292
