S01900006E63702D756172742D68772D656D333538382E733337CE
S3150800400098EA002035D80208ADD70208B1D70208C9
S31508004010A70A0A0100410008040803AC00230000AF
S315080040200000000000000000000000000000000082
S315080040300000000000000000000000000000000072
S315080040400000000000000000FFFFFFFFFFFFFFFF6A
S31508004050FFFFFFFF00E00708000000000000000067
S31508004060FFFFFFFFFFFFFFFFFF000000000000004B
S315080040700000000000000000000000000000000032
S31508004080F0FF002000000000EBFF0020EBFF0020FF
S3150800409098EA002050FE0208B8E30208C0DB0020B8
S311080040A07017002000000808000001202E
S3150800410098EA002035D80208ADD70208B1D70208C8
S31508004110B9D70208B5D70208BDD7020834D80208AD
S3150800412034D8020834D8020834D8020834D8020829
S31508004130C1D7020834D8020834D80208D34C00087C
S3150800414034D8020834D80208F78C000834D8020894
S31508004150E93702089346020834D8020834D8020818
S315080041604D800008475B0008DB550008A54100089C
S3150800417034D8020834D8020834D80208677D000803
S31508004180C542010834D8020834D8020834D80208CF
S31508004190012100F01F029140314A400942F82010DF
S315080041A07047000070B52F4C2F4D60782968490775
S315080041B027D5032825DAA18804EB4002918101213D
S315080041C0A27801FA00F01043A070284A2078002847
S315080041D012D0002320FA03F6F60708D59940637033
S315080041E04840207004EB4300808A106009E05B1C9D
S315080041F0DBB2032BEEDB04E0106000F0A7F8032027
S3150800420060704FF6FF702860BFF35F8F70BD80B592
S315080042101448002101700022032141700021C17059
S315080042200521018100218170001D10490A604A603C
S315080042304FF400428A601022CA60486101208861F2
S315080042400320C8600421084801644FF6FF71016025
S315080042500B20FFF79DFFBDE8014000F0B5B8000050
S3150800426000E100E008EE002010A8004004E000404D
S3150800427000F031BC2C48012181604EF6BE21416018
S315080042800121016070472949012008607047A52867
S3150800429005D125484DF6AD614160022101607047A0
S315080042A02148006810F0010018BF0120704700F08F
S315080042B007011F4AC00802EB40200122806807E078
S315080042C000F007011A4AC00802EB40200122C06824
S315080042D08A401040C840704780B51649164A1020D3
S315080042E0086016491648007803000BD003280CBF4F
S315080042F000200120106040F651000860002000F000
S31508004300E5FD06E0022010604FF40060086000F04A
S31508004310A8FB0C48072101600021016410200A4906
S315080043200860002002BD00000060004008600040F0
S3150800433000B0004080E100E0080000400C6000404A
S31508004340B5FF002014A0004000E100E07047704768
S31508004350DFF8283533F810001040C840704730B5EC
S315080043600FF2DC54DFF8183534F810409C60114021
S31508004370DFF8084534F8105095432943D9600222DE
S315080043801A6000221A6024F8101058680028FCD118
S3150800439030BDDFF8F024DFF8F0041278DFF8EC140B
S315080043A00AB149780EE0895611F1090FB8BF3021D4
S315080043B008DBC16D39B1C26D40F24A31B1FBF2F189
S315080043C089B2C91E01607047E0B5DFF8C4040188E8
S315080043D00A2300F065F8BDF806104FF6FF720D20A7
S315080043E0FFF7BDFF07BDF8B50546B5F5004FDFF881
S315080043F09C441AD1DFF89C040188022300F050F887
S31508004400BDF80000000AFF2801D0010000D11820DD
S315080044106070BDF800000006C00E10281CBF001D05
S3150800442000F0BAF9BDF80000C543DFF858647078A3
S3150800443008B1002005E0A089ADB26840C00701D5E3
S3150800444001207070DFF85004A58105F001040168A9
S3150800445041F4004101604FF440520FF2085000EB5E
S315080044604400C5F340074078010389B20220FFF7EC
S3150800447076FF204600F06AFD4022B90100F02AFACC
S315080044802D06A80E00F0010038433070FFF781FFB3
S31508004490707818B1FFF798FF002070700020F2BD01
S315080044A07F22684600F0C8BDA0F10B02A0F10B01FF
S315080044B0102A89B201D38A207047012202FA01F133
S315080044C0DFF8D82353880B4353800123137093884E
S315080044D0194391800021DFF8C82311704DE12DE9B9
S315080044E0F04FDFF8C043DFF8B473207887B00423B1
S315080044F004900D210B38C0B203906846039A00F069
S3150800450064FE9DF800008DF80A009DF801008DF8FC
S3150800451009009DF802008DF808009DF803008DF843
S315080045200500DFF884030078012806BF607880F06C
S315080045300105012501F052F982469DF90200039909
S315080045400AF10A06AAF10A09B042B6BF81454FF038
S3150800455001084FF0000801208840ADF806009DF8D4
S315080045600100000604D47888BDF80610084201D078
S315080045704FF0010801F0CAF99DF8030000060AD4B5
S31508004580B888BDF80610084205D19DF90000B0426A
S31508004590B8BF814502DB4FF0010901E04FF0000981
S315080045A048EA050059EA000000F0A680DFF8FCB2E8
S315080045B0BF49DBF80000BF4E400800F001008DF847
S315080045C00400BD48006800F4E06005904FF4E06020
S315080045D00860002001F0A2FD00F087FBADB160780D
S315080045E058B1DBF80000B04940084000CBF800009D
S315080045F00120087000F05BFC07E0306840F40050CA
S315080046003060306820F480503060A7480078012870
S3150800461012D161780D4203D101F0B8FD01F0C3FE55
S31508004620DBF80000A04940F00100CBF800000020AC
S315080046300870642000F03BFC607880F001000542B9
S3150800464003D00498C0B201F048FF607838B13068EA
S3150800465020F480503060306840F400503060BDF877
S315080046600600C543B8F1000F08D002F021F88DF80E
S3150800467001008DF802A0788828407880B9F1000FEB
S3150800468008D002F0C6F88DF803008DF800A0B888A7
S315080046902840B8809DF900009DF90A10884202BF9B
S315080046A09DF801009DF8091088420BD19DF902007A
S315080046B09DF90810884202BF9DF803009DF8051071
S315080046C0884206D0039904236A46C9B20D2000F031
S315080046D08CFD05987849086000F0BCFD9DF804003B
S315080046E001F01CFD02F0B5F9607828B148F2607057
S315080046F03060642000F0DBFB9DF8010001F044FF08
S315080047009DF8030002F080F807B0BDE8F08F80B589
S3150800471001F057F8BDE80140E1E601F052B870B57E
S31508004720064601F011FC0546A6F10B001028A6F175
S315080047300B0401D38A2070BD60488168090702D43A
S315080047400068C00701D58C2070BD564806705C48C5
S3150800475001680C290FD00FF280115A4A92F90020ED
S31508004760A4B231F824105118C161FFF7B8FE012D23
S3150800477008BF01F089FB002070BD10B5044601F0A2
S3150800478020F82046BDE81040C9E74648007870473B
S315080047903E4890F9000070472DE9F041044614F1AF
S315080047A02B0F86B048DB484801881423FFF778FEAC
S315080047B0BDF810004FF6FF71884203D0400448BF89
S315080047C0012606D43F2200211020FFF7C1FD054629
S315080047D0002604F12B022F2A2C483C491AD2132210
S315080047E00FF2341300E0521ED2B213F91270BC4213
S315080047F0F9DB03EB4204032764780C60002413F802
S315080048001210017000218846C6B1BDF810104FF687
S31508004810BF722AE0092C0FDA025D0A6004701423BD
S315080048202B480188FFF73CFE4FF4C0514FF48074C3
S315080048304FF080082827E7E78B201BE04FF46052EB
S3150800484000F048F84FF4E062214600F043F8802271
S31508004850414600F03FF885F020003D18ADB2402DE6
S31508004860A8BF3F253F2285F0200100F033F8FFF767
S3150800487090FD002006B0BDE8F081000068F7002032
S31508004880E8100040BAFF0020641000405CEB0020EE
S31508004890C0FA0208CCFA02081C100040B6EF002045
S315080048A099FD0020F9ED0020DEED00208020004073
S315080048B080E100E0D010004000E100E06020004008
S315080048C0AC100040B9FF0020BCFA0208C010004036
S315080048D0BEFA02080B2042E5AA2129005523290021
S315080048E000252800AA26270055282700002A260082
S315080048F0AA2B2600552D2500002F2400AA302400B7
S315080049005532230000342200AA35220055372100EB
S3150800491000392000AA3A2000D500E601EC02EF0390
S31508004920F204F405F506F707F808F909FA0AFB0B85
S31508004930FC0DFD0FFE11FF1300160119021C031FC3
S3150800494010001100200030004000410050006000B7
S31508004950700080009000A000B000C000D000E00009
S31508004960F000000000000103DFF8E813512008609A
S3150800497070472DE9F041DFF8E0630546F078042832
S31508004980B4BF302760274FF4F070B0FBF7F41E2D44
S3150800499024B201DB281B04D5A8B2BDE8F04100F01B
S315080049A086BA02F091F800F028F870700721DFF84F
S315080049B0AC03DFF8AC2300F047F8291B09B27943AA
S315080049C0C91C8908491EDFF89C53DFF888734160C3
S315080049D02E6800F0AEF83C68386820F04000386071
S315080049E002F078F83C602E6002F078F800F079F969
S315080049F04046BDE8F04102F079B88046012080F3D0
S31508004A001088704738B5DFF85013C9780429B4BF41
S31508004A10302460244FF4F071B1FBF4F1451A1E2DD1
S31508004A2004DA9E210FF2883002F066F8DFF82C03CC
S31508004A30DFF82C23072100F007F805FB04F1C91C51
S31508004A408908491E416031BD0160002141608160CD
S31508004A504FF0007111607047DFF8FC220121517098
S31508004A60D0E72DE9F041DFF80053DFF800630024B2
S31508004A702C6034604FF4A040706041F29A084046BA
S31508004A80FFF777FF686844F69041081A00B24FF4BA
S31508004A90487190FBF1F000B20828A8BF072004DA95
S31508004AA010F1080FB8BF6FF00700306008274046BE
S31508004AB0FFF75FFF4046FFF75CFF686804197F1E33
S31508004AC0F8D1211DDFF8A802C908B0FBF1F080B2C1
S31508004AD07060BDE8F08138B5DFF8985201206FF0B4
S31508004AE00F04A8602C608020FFF743FFE868FF28C2
S31508004AF002D8641C102CF5DB31BD70B5DFF87802DE
S31508004B00DFF86052016841F001010160012141604E
S31508004B1001F0DAFF2E68044600F00BF88D495120A3
S31508004B2008602E6001F0DAFF2046BDE8704001F00B
S31508004B30DDBF286840084000286001F0CFBF2DE996
S31508004B40F0418F4C8D4EA088834F4FF6FF78404535
S31508004B5040F2DC551CD18B48018802237F22201D98
S31508004B6000F06AFAA088404504BF0220A080B06918
S31508004B70800703D4B06940F00200B0610120B87024
S31508004B80A08830602846FFF767FF2846BDE8F08111
S31508004B90B2699207EED5BA78002AF6D1B268B36838
S31508004BA012F0010203D10F2809D2401C06E09B0728
S31508004BB005D523781BB1032801DB4044A080A088D3
S31508004BC022700228BCBF0220A0803068A1888842D3
S31508004BD0D4D1B06900F00300032818BFFFF78DFF92
S31508004BE00020D3E72DE9F04780466748017800257D
S31508004BF069B9C078072818BF09280DD0032818BF37
S31508004C00112809D013281CBF15280B2804D05F4883
S31508004C10016841F48071016001F056FF8146FFF793
S31508004C20EDFE4046FFF78BFF08B9012515E04D4F0D
S31508004C30484E3C68386840084000386001F04EFF2E
S31508004C40D6F800A0306820F04000306001F042FF3E
S31508004C50C6F800A03C6001F041FF00F042F8484663
S31508004C6001F044FF2800D7D0BDE8F0870220B9E755
S31508004C703A483B4A002141608160016821F00201FF
S31508004C8001600021344841704FF00071116081784D
S31508004C9009B100218170C178012914D13C4901224A
S31508004CA00A603C4A1268D20748BF03210FD4022281
S31508004CB0C270086C40F00100086404203649086098
S31508004CC0364908607047C178042901D10521C170A9
S31508004CD0704721484078002818BFFFF7C9BF00F081
S31508004CE00ABF002080F3108870472DE9F8431A4C54
S31508004CF02179207881F0010108421DD124E001F0D4
S31508004D00E3FEFFF77AFEE078052810D0154E114D20
S31508004D1000F046F8D5F80090286820F04000286092
S31508004D2001F0D8FEC5F80090376001F0D7FEFFF70E
S31508004D30D8FF404601F0DAFEE0780528DFD10020EA
S31508004D40A0700520FFF74EFF00202070BDE8F18314
S31508004D500000000000800040C7FF002010E000E0CF
S31508004D6004ED00E094ED00E0104000400C00004027
S31508004D700060E316084000401C4000400440004024
S31508004D80C2ED0020D0FA020896070808384000400D
S31508004D9018A000400C40004080E200E000E100E07E
S31508004DA03768306840084000306001F097BE000060
S31508004DB0636C6F636B732E630000000010B50020F0
S31508004DC001F04DFE594C40F68C2188422068B4BF4C
S31508004DD040F0080020F00800206010BD10B5044619
S31508004DE05348018882B000F05DF89DF800109DF8E0
S31508004DF00100FF2902BFFF280420002122004D4A96
S31508004E00136818BF801C23F46073C0B20828A8BFB3
S31508004E10072043EAC010106008291068A8BF0721B8
S31508004E20C00841EAC00010604348047013BD4348F7
S31508004E3000B5018883B000F035F8BDF800004FF6DC
S31508004E40FF7188420EBF4FF4E1600A2190FBF1F032
S31508004E50ADF800003848007808B3354801880223C1
S31508004E607F2201A800F0E8F89DF80500BDF800309B
S31508004E70FF2808BF0420811CC9B20829A8BF07213A
S31508004E80C1F12F0202EBD272C0F12F00521000FBC3
S31508004E900320C1F12F01B0FBF1F0ADF80000BDF819
S31508004EA000000EBD02237F22684600F0C5B82449DB
S31508004EB00A68032809D34B6D43F001034B650B6859
S31508004EC09B1AC3F313038342F9D3704710B5040042
S31508004ED004D110BD4FF47A70FFF7E9FF2046441E4F
S31508004EE080B20028F6D110BD20B1012807D00328CA
S31508004EF018D019E0134801B11721016012E049B131
S31508004F00480800F1B77000F55850B0FBF1F0B0F161
S31508004F10011F01D3202070470B4900F001024A60A7
S31508004F2040080860002070472120704700BC0040F8
S31508004F30C2FA020818000040BCFF0020C4FA0208A2
S31508004F4038200040100004E068C80040F0B5044668
S31508004F5089B00020FFF742FF294801880A237F22EB
S31508004F60684600F069F8BDF802004FF6FF75A842DA
S31508004F7005D14FF480710FF2940001F0BDFD0026B3
S31508004F800FF2A00701E02A4616B94FF47C4203E067
S31508004F90022E08BF4EF23F023DF81610B85DFFF725
S31508004FA0DEF9761C052EEED3012C03D114237F22BD
S31508004FB0144802E014237F22134801880FF26C0775
S31508004FC003A800F039F800262A4608E02A46012EEA
S31508004FD008BF4FF6C07202D0082E08BF002203A8E9
S31508004FE030F81610B85DFFF7BAF9761C0A2EEDD31D
S31508004FF0012C04BF0120FFF7F1FE09B0F0BD000047
S31508005000C0FA0208BEFA0208BCFA0208616E616CB0
S315080050106F6775652D63656C6C2D626961732E63A8
S315080050200000000000100C0D0E0000000102030431
S315080050300708090A0B0F000030B5044610467F28FA
S3150800504008BF00204BF23462914283B01AD108237C
S315080050507F2240F612016846FFF7EEFF08220FF29C
S31508005060C401684601F0B3FE30B908237F2240F236
S31508005070A2716846FFF7E0FF08226946204601F05C
S315080050803DFE37BD1F4D294300FB03111A46204636
S3150800509001F034FE37BD2DE9F0410C4619490FF2EF
S315080050A0780841EA0006C007154602D5602100F0D7
S315080050B02FF8E80702D5612100F02AF8124886423F
S315080050C004D3A819401E1149884202D3622100F070
S315080050D01FF8002706E0F05DFF2802D0692100F0DE
S315080050E017F87F1CAF42F6D36A082146304601F00E
S315080050F0CCFE28B14046BDE8F0416F2101F0FCBC6A
S31508005100BDE8F08100000808000808080010080833
S31508005110404601F0F1BC00006D66672D746F6B6543
S315080051206E2E6300FFFFFFFFFFFFFFFF30B50FF294
S315080051301811DFF80C510A6883B001A80024026030
S3150800514001202870002001F0E5FE30B1002001F0B2
S31508005150E1FE10B12C7049203EBDDFF8E800018859
S3150800516002237F220DF1020000F02FF802237F228E
S315080051700021684600F029F8002001A9BDF80220A0
S3150800518031F81010914208BF0124401C0228F4D3BC
S31508005190BDF8000024B1B0F57F7F07D100203EBDE1
S315080051A0B0F57F7F14BF042006200BE0012001F034
S315080051B0B1FE002001F0AEFE0028EFD000202870D6
S315080051C04A203EBD002129703EBD10B5FF2907DCE7
S315080051D01B4C247844B1BDE81040C9B202F0A4B90A
S315080051E0BDE81040FFF728BF10BD2DE9F041054680
S315080051F0FF2D0E46174698460FF2500012DC104C4B
S315080052002178A1B1617811B1BD2101F075FC0120A9
S315080052106070434632463946E8B202F0F2FA002098
S31508005220607004E0BDE8F041C82101F065BCBDE846
S31508005230F08103490978002918BF02F0EEBB7047D0
S31508005240B7FF0020C8FA0208FE01FD02746F6B65FD
S315080052506E2E630010B5DFF850461020206301F06B
S3150800526033FCDFF848160A6842F001020A6001F0CA
S315080052703DFCDFF83C06606020608A306168893151
S31508005280616001212163E060A060DFF82816E0680C
S315080052908930E060022020634FF6FF70086010BD79
S315080052A0DFF8140645F26401C1601E2141625021EF
S315080052B00162C821C1618165F021C16545F6900189
S315080052C04166882181660621C16644F2066101604D
S315080052D04FF6FF714160DFF8E405007838B1DFF872
S315080052E0E00548F2607101604FF4C1514160DFF892
S315080052F0D405016841F0040101600020DFF8C815F3
S3150800530048707047DFF8AC050068C00700D408E0AD
S315080053107047DFF8A005006810F0190F00D100E00B
S3150800532070470021002002F0DCBC2DE9F84F8046CA
S31508005330DFF89815012002F062FE8A21DFF8700571
S3150800534001FB08F14518681C4178007800EB012636
S31508005350DFF87C15DFF87C050978017000EB080991
S31508005360002089F80200B6B2B00603D5DFF8684512
S31508005370606E000640F18F80002106F007000328C2
S3150800538061D106F4406006F44042B0F5806F1CBF58
S31508005390B2F5804F002A56D00423B0F5006F08BF37
S315080053A0082303D0B0F5406F08BF0E2370065CBF14
S315080053B09B1CDBB2B2F5004F0CBF9F1C03F108071C
S315080053C0FFB2781C00EBD070C0054FEA106A5FEA9E
S315080053D0080014BF60682068504534D3E818B2F551
S315080053E0404FDFF8F8B402D102F08BFE06E04078B1
S315080053F0E95C01EB002080B202F064FE0021FF2880
S3150800540007D0DBF8002032F810004FF4567210422D
S3150800541000D00121080016D0300714D45FEA08002E
S3150800542014BF606820680AF10102904207D2E0685A
S315080054305FEA080214BF022201221042EED1E85D9B
S31508005440042818BF0021E06D000900F00100814220
S3150800545089F802001FD00029A16C4FF400604FF4B0
S3150800546080620BD0B8F1000F08BF1046014212D077
S31508005470606C40F00100606401200AE0B8F1000F9A
S3150800548008BF1046014206D0606C400840006064C0
S31508005490002089F80200BDE8F18F2DE9F84F04468F
S315080054A0DFF83454DFF82C6420000CBF28686868DD
S315080054B0C1B2052905DAFFF725FF7068401C706040
S315080054C089E040008DF800008A2000FB04FBDFF825
S315080054D0E0839DF8000008EB0B09484410F8081D06
S315080054E0427802EB01211FFA81FA817866318170D0
S315080054F0317819B9DFF8D813097831703178DFF8BF
S31508005500B4730170002131704170386C20F48050FA
S3150800551038642000686E02D17868400504D4012CEE
S3150800552023D17868000520D5FFF7ECFEDFF8B00335
S31508005530017891B1002101701AF4E45FDFF8A40341
S31508005540016802D00022402005E099F80100000910
S3150800555000F001028F2002F040FE20000CBF4FF43D
S3150800556080604FF40060786030E01AF4E45F2BD175
S3150800557000F088FD10B15FEA4A4025D518F80B00FF
S31508005580802821DA386C99F80110890626440ED548
S31508005590696E09060FD4A96CC9060CD439682200AD
S315080055A00CBF80224FF480720840104203D1FFF7E7
S315080055B0A9FE0020B070B2789DF80010484602F0A7
S315080055C0B9FE0020B07001E0FFF79CFE002C0CBF6E
S315080055D0012002202861BDE8F18F2DE9F84FB54C6E
S315080055E0BD4E2068216CDFF800B3DFF8F482DFF8DF
S315080055F0FC92DFF8D8A201EA000538E061B18A22F8
S31508005600AB49504308444078C00605D4B5480168FC
S3150800561000228F2002F0E1FD280608D50FB9FFF712
S3150800562071FE02F036FE802025F080052060E80530
S3150800563009D50FB9FFF766FE02F02BFE4FF480700E
S3150800564025F480752060680407D50FB9FFF75AFE60
S315080056504FF4804025F480452060280407D50FB90B
S31508005660FFF750FE4FF4004025F400452060002D5A
S3150800567073D00027280706D50020FFF756FE082016
S3150800568025F008052060E80606D50120FFF74DFE3F
S31508005690102025F01005206005F06000602803D171
S315080056A0B06CC0050AD401E0A80605D52020206004
S315080056B025F02005002006E0680606D54020206073
S315080056C025F040050120FFF7E8FEE80404D54FF46D
S315080056D0805025F480552060E8079DD5012020607C
S315080056E06D0802F03DFB6D0078B14FF448725146E3
S315080056F0012002F027FC02F078FA40054CBF03208F
S315080057000120002102F0EDFA012799F8010008B1FD
S3150800571000F0FAF899F80000002806D000F01EFC00
S31508005720012807D198F8000000283FF475AF9BF8C8
S31508005730000004287FF470AFF068400800F001000C
S31508005740002814BF7168316811B92168C904F7D5F2
S31508005750002814BF7168316850E700202060BDE852
S31508005760F18F634800687047F0B506460D4689B064
S315080057700021032001F016F904AC08E034F81120E2
S315080057805040491C08293080F8DB6D1EB61CE8B26B
S3150800579090B1002701F021F924F8170001F01DF94E
S315080057A0694621F817007F1C082FF3DB04A802F0CE
S315080057B05DFF00200021E5E701F04BF9012009B063
S315080057C0F0BD0321022001F0EDB84FF6FF71081A6B
S315080057D0292190FBF1F03A3040B2704738B501F014
S315080057E0FCF8FFF7F2FF434D04462878B0B90321C9
S315080057F0032001F0D7F84048018802237F22684633
S31508005800FFF71AFC01F0E9F8BDF80010401880B25D
S31508005810FFF7DBFF153868700120287001F019F9C9
S315080058206878201A40B232BD80B50321022001F003
S31508005830B9F8BDE80140D1E770B5304800780024D2
S3150800584090B9FFF7F1FF204E0546707848B13078D9
S31508005850401B40B202F010FF0B2805DB357001240F
S3150800586002E0012035707070204670BD244800782B
S31508005870704723490B78984200D1704780B5087065
S3150800588040B12049002008600848016821F08001DD
S31508005890016001BD00F076FC00F04CFC00F0B5FBA1
S315080058A0BDE8024000F099BB00200040842000407B
S315080058B0CCFD002000A000404C100040FAED00206E
S315080058C0D010004080200040C2FF0020135300087B
S315080058D0F9ED002060F9002020200040C8EA0020E9
S315080058E0D0FB0020D8FB0020DDED0020BEFF002005
S315080058F038200040C0FF0020C6FA0208DEED00206E
S31508005900C4FF0020541000407047000010B50D4831
S31508005910018884B00A237F226846FFF78DFBBDF80D
S3150800592000004FF6FF74A04204D14D210FF2180073
S3150800593001F0E2F8BDF8001022460020FEF70FFD40
S315080059401FBD0000C0FA0208616E616C6F6775655D
S315080059502D66696C7465722E63000000DFF84408D2
S31508005960007848B1DFF840080179012904BF407979
S31508005970042801D10120704700207047010644BF62
S315080059804FF6F83101EAC0007047491C800189B218
S31508005990B0FBF1F080B2FF288CBF0020C0F1FF00F9
S315080059A0C0B2704738B5DFF80808C17809B10020D9
S315080059B032BDDFF80848617871B1E1780079451899
S315080059C02079ADB28542A8BF054602F06EFE0121D8
S315080059D0A940491E084000E0002061790818C0B2B5
S315080059E032BD2DE9F0470446C00705D54FF4CE7100
S315080059F00FF6540001F080F8DFF8C457286DC00789
S31508005A0048BF8C2075D4DFF8A807DFF8B0770021E7
S31508005A100170417829B9397819B1A96F41F00101A6
S31508005A2002E0A96F49084900A967DFF87C877A78F8
S31508005A3098F80610DFF88C97DFF88C6792B1002289
S31508005A4002710129286D40F00400286506D14FF639
S31508005A50FF7030604FF40070C9F80000FFF7A2FF2E
S31508005A6082460CE0286D20F00400012928654FF0D5
S31508005A70000A04D100F035FA6420FFF718FAA86F77
S31508005A8020F00800A8671420E864C5F848A07878CC
S31508005A9038B198F80600002801BFA86C0028012034
S31508005AA0A864B8790028286D14BF40F0080020F0D3
S31508005AB008002865FFF752FF18B1306C40F008005F
S31508005AC03064202028626C602C606868DFF8FC1659
S31508005AD07F306860042028624FF4E0600860DFF8D1
S31508005AE0F0160968C9F80000286D40F0010028651D
S31508005AF00020BDE8F087DFF8DC0600214160816000
S31508005B00016821F0020101604FF00070DFF8C81645
S31508005B1008600120DFF8C41608707047332800D2E1
S31508005B20704710B5B0F5002F0CD2DFF8B04600214B
S31508005B302170FEF767FF02E0012002F0D1FD207810
S31508005B400028F9D010BD2DE9F84FDFF87C86DFF87C
S31508005B506056D8F80000D8F84010DFF8647601EAF5
S31508005B600004A4B2C8F800406878002840F0D38042
S31508005B70E007DFF86C66DFF844964CD5D7F800A046
S31508005B80386C796C41EA0041A96099F80000002850
S31508005B903DD09AF80100800639D501202870FFF714
S31508005BA0DDFEC0B31920FFF782F9DFF838B64FF4E7
S31508005BB04040CBF82800DBF800000090F06E40F477
S31508005BC00050F066F06E40F48050F0669AF80010C7
S31508005BD0A8684901B83101EB000AFFF7C2FDAAEB34
S31508005BE00000C0F31300FFF799FFF06E400840006D
S31508005BF0F066F06EBDF800100843F0660020CBF89A
S31508005C00280048F26070F066E888306003E00022F9
S31508005C10002002F0E2FA20060ED5287830B10020DE
S31508005C2028700022A968402002F0D7FAD8F83C006C
S31508005C3020F48050C8F83C00600608D5687830B96A
S31508005C40FFF78FFD01460022892002F0C6FAE0061A
S31508005C5052D5DFF854A5DFF86CB59AF80400012888
S31508005C6004BF9AF8061001291FD100F09CFB386F73
S31508005C7040F001003867002400208AF80600FFF784
S31508005C80E9FA0A20FFF713F94FF6FF70C8F8000083
S31508005C904FF4E060CBF800000920B8660120B8642C
S31508005CA0B86F40F00800B86718E02979491C2971CF
S31508005CB0C9B299F80220914215D2012808BF00F00E
S31508005CC0E3F8B86F20F00800B8671420B866FFF745
S31508005CD069FEB8644FF40070CBF80000386D40F0E8
S31508005CE00100386508E0687830B9FFF73AFD0146E3
S31508005CF000228D2002F071FA20070CD5FFF72EFE40
S31508005D0048B13068E88001203060D8F8400020F0BB
S31508005D100800C8F84000A0060AD52020386268782E
S31508005D2030B9FFF71EFD01460022882002F055FA19
S31508005D30687820B114F4407F04BF0120A870BDE83C
S31508005D40F18FDFF8A80400887047DFF86014002890
S31508005D50086814BF40F4404020F44040086070478B
S31508005D6070B582B00546FEF7D8FCDFF88404DFF884
S31508005D704444DFF83464002101601521E1600921FB
S31508005D8001651F21416001210166DFF86004008872
S31508005D90FEF729FBFFF784FA02F05AFF00F038F9FC
S31508005DA0308900F062F9708900F067F900F08CFE1E
S31508005DB0616841F04001616000F098FE707800F07B
S31508005DC0F5F8B07800F009F9DFF82804007800F053
S31508005DD036F9DFF8240490F90000FEF7DDFC307888
S31508005DE000F09CF996F9030000F0A4F9DFF80C041A
S31508005DF000F0C2F9BDF80000DFF80414C0054CBF76
S31508005E000020BDF800000870DFF8F8030078FEF7F8
S31508005E1086FC28B140F2F3310FF22C4000F06CFEFC
S31508005E20012D07D12068C00704D500F02DF8002001
S31508005E3000F0ACF985B92068C0070DD4012000F040
S31508005E40A5F900F0B0FA206840F001002060C820EB
S31508005E50FFF72DF80020B071F120DFF86C532864A5
S31508005E6040F2F910E86301F07BFFFFF76EFFFFF7DA
S31508005E70F1F92068C00704D54FF6FF70286000F0D6
S31508005E805EF8FEF732FF73BD70B5DFF87C53DFF8B6
S31508005E9018432E68A079012822D000F015FEB6B264
S31508005EA0DFF828232E604FF4E0611160DFF838131D
S31508005EB00A6A520852000A620A68520852000A60C0
S31508005EC00A6842F002020A604A6A42F001024A621D
S31508005ED00121A17100F00AFEBDE8704000F037BA52
S31508005EE070BD70B5DFF8C042A07938B300F05BFA30
S31508005EF000F0EAFD0546DFF81413AF4E01200860EE
S31508005F00306D40F0010030650020A071FFF7A2F95E
S31508005F1020203060306B40F002003063F06D40F0B6
S31508005F200800F065284600F0E1FD0A20FEF7BFFFED
S31508005F30A5494FF6FF70086000F001F870BD4FF4F0
S31508005F40E060A0490860704797488079704796488E
S31508005F500079012808BFFFF797BF70479248007974
S31508005F60704780B5022801DB012002BD8E49087101
S31508005F70897988420BD028B9012000F007F9FFF784
S31508005F80B0FF04E0FFF780FF002000F0FFF80020D4
S31508005F9002BD9F480068800200149A3801B211F1C8
S31508005FA0800FB8BF6FF07F0040B2704710B5044647
S31508005FB000F08AFD97490A68002C04D042F01202C4
S31508005FC00A60012103E022F012020A600021764AE3
S31508005FD0517043E074484078704738B5054600F07C
S31508005FE073FD0446FFF742FC40B98A482900016858
S31508005FF014BF41F0800121F0800101606A48857074
S315080060002046BDE8324000F071BD67488078704789
S3150800601081494A780B78814803EB022202608B7823
S31508006020CA7803EB022242600B794A7903EB022213
S315080060308260CA79897901EB0221C160704710B57F
S31508006040044600F041FD734922000A6814BF42F075
S31508006050200222F020020A6066490C70BDE8104052
S3150800606000F044BD5048008970474F4908816C4983
S31508006070086070474C48408970474B4948816949D0
S31508006080086070476848007870475748816A41F049
S3150800609002018162012101607047534800210160B5
S315080060A0816A21F0020181625020FEF700BF38B5EF
S315080060B05E4C5F4821695F4D0180E1694180E96C6A
S315080060C0818000202061FFF7E0FF0120E0610020C9
S315080060D0606220624CF25D00E864286840F4004083
S315080060E028604FF40040206048F20200206031BD6D
S315080060F080B5FFF7D2FF4D484FF4004101600021FB
S3150800610001604C490A6822F400420A60484A9388AA
S31508006110CB64118801615188C16101BD254902001E
S315080061200A6814BF42F0020222F002020A601E49FF
S315080061300870704738B504467F2C0AD13E4800F0EF
S315080061401BF8BDF80000C00554BFBDF800406FF04D
S315080061504A0400F0B9FC0546FFF788FB30B964B27B
S3150800616004F19A0080053549000C08600E48C47091
S31508006170284600F0BBFC31BD018802237F22684611
S31508006180FEF75ABF084890F903007047064989790F
S31508006190012906D12A490B7898421CBF087000F0DD
S315080061A042B97047D1FF0020D8ED002040A000403A
S315080061B0D0FB00208020004030200040F0EB00207B
S315080061C01020004000E100E004A0004080E100E06B
S315080061D0A820004010E000E004ED00E0D2FF002017
S315080061E064100040E41000406020004068EB002086
S315080061F05C100040D0FF00205CEB0020D2FA0208B9
S31508006200B9FF0020F9ED00201C10004028100040BE
S315080062100C1000408420004034FC002098200040E8
S315080062209420004090200040FDED0020181000400A
S31508006230F0FE0020C0100040D4FA020854100040B6
S31508006240D3FF0020704700007068792D636F6D6D6D
S315080062506F6E2E630000000038B50120FEF76FFC54
S315080062600020FEF7BBFD644C206840F00800206063
S31508006270FEF700F8FEF7A2FD00F023F88D78DD6042
S315080062800D8905604D89456000F012F8206820F0F8
S3150800629010002060FDF7BBFFFEF7E8FCFDF7E8FFFE
S315080062A0BDE83140FEF718B840F2016002F002BDC1
S315080062B088891060C8895060088A1860488A5860BA
S315080062C045E04E494E480A78C2604B784D4AD3603D
S315080062D04D4B7047F0B50F249D0004FA05F5166876
S315080062E0284215D0002505EB830720FA07F7FF0794
S315080062F00BD5AF0004FA07FC26EA0C0631F813C0E2
S3150800630004FA07F707EA0C073E436D1C042DEADB7F
S315080063101660F0BDF0B5FF24DD00AC4016682042DB
S3150800632013D00024012504EBC30720FA07F7FF075B
S3150800633008D505FA04F7BE43CF5C05FA04FC0CEA57
S3150800634007073E43641C082CEDDB1660F0BD2DE9FB
S31508006350F0410021002001F0C4FC01F0A4FD274C07
S31508006360206AF0B10026DFF8988000F055F8211D64
S31508006370FFF7D0FF761C032EF7DB0026002700F078
S3150800638045F804F11401FFF7A5FF761C206AF3B25D
S315080063902A1D04F11401FFF79DFF761C7F1C032FAD
S315080063A0EDDBBDE8F0812DE9F04101F088FD134CE5
S315080063B0206AF0B10026DFF8488000F02DF8214663
S315080063C0FFF7A8FF761C032EF7DB0026002700F050
S315080063D01DF804F10801FFF77DFF761C206AF3B269
S315080063E02A1D04F10801FFF775FF761C7F1C032F91
S315080063F0EDDBBDE8F081000000BC0040F8EA0020B3
S3150800640000B0004000B2004000B4004008EB472549
S31508006410206AF3B22A46704708EB462000F10C02C0
S31508006420206A33467047002818BF02F04ABE02F0B9
S3150800643049BE80B502F031FF01460FF250000B2924
S3150800644038BF00EB810002BD10B502F026FF0446F6
S3150800645002F027FFC0B208B9012C07D1072C11D8C2
S31508006460DFE804F004100608080A0C0E002010BD28
S31508006470092010BD022010BD032010BD0B2010BD41
S31508006480062010BD44F0800010BD0000554E4B009C
S315080064904649420042544C00455854005057520051
S315080064A05744470020535700435253004653480069
S315080064B042414400464C54002A490A685208520090
S315080064C00A600A68104308604FF4004126480160D4
S315080064D0002101606420FEF7EABC2DE9F047234D50
S315080064E0204FD5F80090224C8046286840F400409A
S315080064F02860386820F480503860207868B162785F
S315080065001C48A17800EB820200EB880012F82A2CBE
S3150800651010F82A0C891A461802E001202026207055
S31508006520B0B2FFF7C9FF0FF2500A02E0B0B2FFF7A8
S31508006530C3FF386B042805D0386B400754BF761E56
S31508006540761CF3E7F86A38B184F80180A6701FFA5A
S3150800655089F02860BDE8F0874FF48F71504600F047
S31508006560CBFAE6E7D0100040181000401C10004097
S3150800657099FD0020D8480008616E616C6F677565E3
S315080065802D76636F2E63000081014FF4FE5289B2A7
S315080065900C20FDF7E4BE2DE9F84F8F4CDFF83CB22E
S315080065A0A56820681FFA80FA00F053FA0127B02080
S315080065B0ADB200264FF00A08B946206308E016F186
S315080065C0190FB8BF4FF00A08464436B27019A060D2
S315080065D0DBF80000000702D559EA070028D0012099
S315080065E0FEF765FCB9F1000F11D0AAF10300874246
S315080065F002DAFF1CBFB213E00AF50040206006214C
S31508006600092000F0CFF957464FF000090BE0DBF8F8
S315080066100000000707D5042FA6BFFF1EBFB200273C
S3150800662007F5004020601A2EC9DB6FF00908CBE792
S31508006630A560C4F800A00820CBF8000068480068E8
S3150800664080B2BDE8F28F80B5624B66491B784FF081
S31508006650FF326BB1002819BF4A606348486041F2AF
S3150800666011100860614841880088BDE8044092E737
S31508006670002819BF4A600A604860086000F0E9F916
S31508006680BDE804400621092000F0DDB938B501202F
S31508006690FFF7D9FF04460020FFF7D5FF054601207E
S315080066A0FFF7D1FF4042001B00EB450000B232BDA8
S315080066B02DE9FE4F4E4CDFF83C81A06A454EADF8F9
S315080066C002002568D8F800B0307860B14FF6FF723E
S315080066D000210820FDF73CFEADF80000C022C021CD
S315080066E00820FDF73CFE4448DFF81091007818B101
S315080066F048F26070C9F8000070883C4F40F440408A
S3150800670040F04C00C9F83C000220A062012020603D
S3150800671040F24C40FEF7CBFB0120C8F80C00C8F845
S3150800672000000020388040207880307800B1202092
S31508006730FFF72AFFFFF7AAFF8246402038807F200E
S315080067407880FFF721FFFFF7A1FF0290504601F07E
S3150800675093FFFE2101FB00F70298AAEB00000190C7
S31508006760307860B1029801F087FF8246019801F0FF
S3150800677083FF80B207EB8A11B1FBF0F005E00198C0
S3150800678001F07AFF80B2B7FBF0F080B2401CC70375
S315080067901FFA8BF0C8F80000ADB20020C8F80C004C
S315080067A0022020602560BDF80200A0620020C9F81A
S315080067B03C00307830B1BDF800104FF6FF72082063
S315080067C0FDF7CDFD40F24C40FEF771FB380CBDE8F5
S315080067D0FE8F0000D4ED0020C010004018A0004035
S315080067E00070004038100040EEEEFFFFECFE00207F
S315080067F06020004028100040FAED0020D01000402C
S3150800680041003F2289B201E001463F220220FDF7FE
S31508006810A6BD2DE9F04F564C564D95B0E06CADF837
S3150800682010004FF6FF782068ADF80E004246E86A79
S31508006830ADF80C0000210120FDF78AFDADF80A002D
S31508006840424600210B20FDF783FDADF8080000261F
S315080068504FF4004020600DF1140B00202861686198
S3150800686048F2020000F088F84CF68C30E0644FF4E9
S31508006870805248F2F000E86211460120FDF76FFDEC
S31508006880424600210B20FDF76AFD0621062000F08E
S31508006890DAF8019000F082F800904CF69C30E0643B
S315080068A00020FFF7ADFF0621062000F07BF8B0B206
S315080068B0FFF7A6FF0621062000F074F800F08DF811
S315080068C02BF81600761C202EF1DB00F086F8102037
S315080068D0FFF796FF00F062F80099019A401ABBF894
S315080068E020108E1A404306FB06094FF0100A11279E
S315080068F000F04EF800F052F800F043F805DB1FFAF6
S3150800690087FA7F1C202F8146F2DBBAF1100F0ED1D1
S315080069100F2700F03DF800F041F800F032F806DBEA
S315080069201FFA87FA7F1E3FB2002F8146F1D5BDF8C0
S315080069301000E0644246BDF80E002060BDF80C0069
S31508006940E8620120BDF80A10FDF709FDBDF8081038
S3150800695042460B20FDF703FD01202861002000F0C8
S315080069600BF84FEA4A00C0B215B0BDE8F08F000038
S31508006970C010004018100040286040F24C40FEF756
S3150800698096BA0099401A404306FB060048457047E8
S315080069903BF817000199461AB8B231E706210720D5
S315080069A000F051B870B505460E4602F08FFC3F4C14
S315080069B0206C20F00800206402F08AFC00F084F8BD
S315080069C0E90141F001013A4A41EA0631116008211C
S315080069D02160BDE8704000F089B82DE9F041354CDA
S315080069E0354D324E25E002F071FC3449042008602A
S315080069F0306C40F0080030642F6828684008400072
S31508006A00286000F06BF8D4F80080206820F0400079
S31508006A10206000F05FF8C4F800802F6000F05EF890
S31508006A20306C274920F0080030640420086002F022
S31508006A304FFC30680007D6D508203060214800682A
S31508006A4080B2BDE8F08180B5FFF7ACFFBDE8014034
S31508006A50C3E7174801684908490001607047F8B557
S31508006A600746FEF7E4F9044639460320FFF7EBFF2D
S31508006A70054639460120FFF7E6FF0646FDF767FC9F
S31508006A8039460020FFF7DFFF0746FDF75FFC084899
S31508006A900168490849000160781B0004711BB0FBB6
S31508006AA0F1F060434000000CF2BD000018A0004061
S31508006AB0047000400080004094ED00E000E100E032
S31508006AC080E200E000700040EFF31180602181F35E
S31508006AD01188704700BF30BF00BF7047BFF35F8F94
S31508006AE0BFF34F8FBFF36F8F7047000080F3118895
S31508006AF07047000042DE704738B504460D46FDF77C
S31508006B00C2FBFFF7E1FF2946204602F0E5FB2B46CC
S31508006B1022460FF2D411002002F03CFD29462046F9
S31508006B20BDE83440E6E767482DE9F047664D016859
S31508006B302E1D4FF420687165016AB16563490968BD
S31508006B40F165416A3166816A7166C16AB166016B2F
S31508006B50F166806B306796F8340040074CBFF46BDB
S31508006B60B46B02F03AF90022F2648442584A0146AC
S31508006B7024BFA2F1200AA2452746316505F18C03F8
S31508006B80DFF850C1DFF850E118D3A0693064E46932
S31508006B907464746DC4F30804062C13D1704511D3BC
S31508006BA060450FD200884DF64264A0420AD130688B
S31508006BB0586040F201787068986003E000273764EF
S31508006BC0776407464548814202D2014600E0091D1E
S31508006BD00846904203D20C68B4F1CD3FF7D040493D
S31508006BE0081AB0640021002005EB8004401C062822
S31508006BF0A167F9DB002003E0C0B205EB8004A167BA
S31508006C00974222D252F8041D7145F9D36145F7D24D
S31508006C10CC07F5D5002405EB8409D9F87890894581
S31508006C2002D0641C062CF6DB062CE9D1002814BF1A
S31508006C30401E0520E0E7716F002405EB8402641C02
S31508006C40D76F9767052CF8DB19600146481EC9B24D
S31508006C500029F0D1706DC0F3080002280AD0032875
S31508006C6015D0042816D0052817D0062818D00C28C1
S31508006C701CD01EE01B480168890748BF40F6021869
S31508006C801CD40068C00719D540F2025816E040F631
S31508006C90012813E040F6022810E040F603280DE02C
S31508006CA0B8F5206F0AD140F6042807E040F6052813
S31508006CB004E018B1242838BF40F607284046BDE846
S31508006CC0F087000004ED00E00000002000E300E08B
S31508006CD098EA0020B8E302089041000898000020CE
S31508006CE098EA00201CA000400D0A5B415353455208
S31508006CF0543A25703A25645D0D0A0000814233D264
S31508006D0010441144401E491E10E011F8013900F8DC
S31508006D100139121F11F8013900F8013911F8013942
S31508006D2000F8013911F8013900F8013992B2042A3C
S31508006D30EBDA93B2002B1EBF11F8013900F80139BE
S31508006D40521EF6D1704711F8013B00F8013B121F9D
S31508006D5011F8013B00F8013B11F8013B00F8013B33
S31508006D6011F8013B00F8013B92B2042AEBDA93B220
S31508006D70002B1EBF11F8013B00F8013B521EF6D14D
S31508006D80704710E011F8013B00F8013B121F11F89B
S31508006D90013B00F8013B11F8013B00F8013B11F8F3
S31508006DA0013B00F8013B92B2042AEBDA93B2002BBE
S31508006DB01EBF11F8013B00F8013B521EF6D1704781
S31508006DC0130003D00A46194602F00EBC704710B5E8
S31508006DD000E0521E93B223B100F005F8F9D0181B53
S31508006DE010BD002010BD10F8013B11F8014BA3425D
S31508006DF0704700004148018A40F6A772914202BFD7
S31508006E00408A4FF47F41084203D1022801DB012062
S31508006E107047002070472DE9F84F82468846384D5E
S31508006E20DFF8D4B0FFF750FE2F68044628684008FC
S31508006E3040002860FFF752FE01208BF80000FFF79C
S31508006E40D9FF28B94FF483710FF2B800FFF754FE43
S31508006E502A48D0F8289041464AF48070C847064622
S31508006E602F60FFF73BFE2046FFF740FE00208BF819
S31508006E7000000FF298040EB1A05D04E041464AF402
S31508006E800070C847205CBDE8F28F2DE9F84F8046B0
S31508006E9089464FEA420A1A4EFFF716FE3768054634
S31508006EA03068400840003060FFF718FEFFF7A2FF81
S31508006EB028B94FF4A4710FF24C00FFF71DFE0F48D6
S31508006EC0D0F824B00023524649464046D8470446DF
S31508006ED03760FFF703FE2846FFF708FE0FF22C057A
S31508006EE00CB1285D05E05346002249464046D8477E
S31508006EF0285CBDE8F28F0000C6FF002000000808E5
S31508006F0094ED00E0666C6173682E6300000202026D
S31508006F104B4B46472DE9F04F85B080460F22FF219F
S31508006F206846FFF74DFFDFF8B0A06422FF21504600
S31508006F30FFF746FF0F250027284CDFF8A490294EB7
S31508006F40F05D19F807B0E15D401C00EBD070401009
S31508006F5001B11930401C00FB0BF2234830F817101A
S31508006F600FF2980092B202F0F5F9BBF1010F1CBFBF
S31508006F702AF817505D447F1C0F2FE1DB0FF29800AB
S31508006F800F2340F21C4240F2BD2102F0E3F94FF410
S31508006F90E04000F00CF90FF2540518B19D2128467F
S31508006FA0FFF7AAFD4FF4804000F001F918B19F21C0
S31508006FB02846FFF7A1FD4FF4805000F0F8F818B105
S31508006FC0A1212846FFF798FD6946404600F01DF9BD
S31508006FD005B0BDE8F08F00001CF600205CEE020844
S31508006FE07CEE02086CEE02083CEE020873696D2D11
S31508006FF0656570726F6D2E630000000043726561EF
S31508007000746F723A2030782532582C20576F726484
S31508007010733A2025640A000053696D45452064616A
S3150800702074613A20256420776F726473206F662036
S315080070302564206D61782C20746F6B656E436F75BF
S315080070406E743A2025640A0010B5DFF8944ADFF812
S31508007050143B2488001B06E010B5DFF80C4BDFF85C
S31508007060043B24681B1B03EB4000002304E030F8B4
S31508007070134021F813405B1C9342F8DB002010BD37
S315080070802DE9F04182B004460D4616460027DFF882
S31508007090D48A01E0BF1CFFB2B74217DAE819E95DE6
S315080070A04078DFF8C83A1B8801EB0020ADF80000ED
S315080070B0012207EBD77004EB6000C01A00F09CFBB6
S315080070C00100E7D002F0C8FA002000E00120BDE880
S315080070D0F681F8B504460F46154600260DE000F081
S315080070E019F8BDF8000004EB4601000A48707F1C39
S315080070F0BDF8000004F81600761CB6EB550FEEDB5B
S31508007100E80706D500F006F8BDF80000611901F891
S31508007110010CF1BD01226946B8B295E7DFF8C0292E
S31508007120DFF8401A1288801A01EB40010220FFF7A7
S3150800713072BEDFF83C1ADFF83C2A095C125CDFF8FD
S31508007140383A185C10B102F5997292B241EAC21047
S3150800715080B27047DFF8183ADFF8202A1B5C012B4B
S315080071601CBF32F81000081802EB4000704738B50B
S315080071700C46DFF80C1A0D782A462146FFF764FFFD
S31508007180208801001CBF4FF6FF7188420BD00120F2
S3150800719000E0401CC1B2A94207D2C0B234F81010B0
S315080071A022889142F5D0002032BD012032BDF0B5CB
S315080071B0DFF8B41987B008600C2269460020FFF78B
S315080071C04BFFBDF81600BDF80C200346040A012043
S315080071D000254FF6FF763DF81570BDF80010B94248
S315080071E003D1B74218BF002F00D100206D1C062D11
S315080071F0F1DBB21A914218BF0020DBB2C4F1FF01DD
S315080072008B4218BF002007B0F0BD2DE9F24F0446A7
S31508007210DFF870690020307070809CB0DFF868096C
S315080072200088ADF8020007A9FFF7A1FF83460120F1
S31508007230707009A9DFF854090588DFF85409B0F811
S315080072400080DFF89C080788BDF802A03846FFF7DB
S315080072508EFFB8B1BBF1000F3DD0BDF81C10BDF8CC
S3150800726024004FF6FE72914202D1012804D10CE0A7
S31508007270012908BF90422ED00846BDF8241088423E
S3150800728029D202E0BBF1000F24D0002070700297CB
S3150800729050460695CDF810800122DFF8E41891F8DB
S315080072A000804044ADF806006946BDF80600FFF7C1
S315080072B0CBFEDFF8E008008805904FF6FF79BDF8A9
S315080072C00000000B404518BF0F2801D1200021D02F
S315080072D0002516E0012470780028D8D03846CDF865
S315080072E008A0CDF818800495D6E7059805FB00F4A4
S315080072F0E01900F05DFCBDF80200201800F058FC0B
S315080073006D1C4545F1DB012030704D2002F0A4F9D3
S315080073100025F7E0BDF80650012201A92846FFF727
S3150800732093FEBDF80400C04300F0FF00ADF804006A
S315080073306F1CDFF864080588BDF80400A84218BF6A
S3150800734001244FF0000A20E0401CC1B2A94218D21D
S31508007350C0B2DFF84818BDF80E20834631F81B1076
S315080073609142F1D1FFF7E5FE4FF680710840BDF86E
S315080073700C104FF680721140884204BF1C9800F822
S315080073800BA00AF101001FFA80FABDF80400824535
S3150800739007DA022203A9B8B2FFF756FEBF1C00207F
S315080073A0D3E7002001E0401C80B2A84217DA1C99F6
S315080073B0095C8142F7D0012411E02AF81070BDF863
S315080073C0060000EB4300401C00F0DBFABDF80200A3
S315080073D0C0F3C710401C00EBD07007EB6007049899
S315080073E0DFF898A7BFB287420EDA00F099F8BDF821
S315080073F00000484508D0030A00F07F01BDF80400E4
S315080074007F1C834202DB012400252DE0002000E0DA
S31508007410401CA842D3DA1C9A125C9A42F8D1C0B230
S31508007420FF28CCD0DFF84827125C7F290CBF4FF025
S31508007430000C8C4694450BDABDF800C0DFF838E737
S315080074401EF800E04FEA0C6C4FEADC7CF44501D0EC
S315080074500124B4E7012AB0D07F293AF8100008BF02
S3150800746000210818A9E76D1CDFF834070088854253
S3150800747004DA3AF815004845F5D1012477800498CE
S31508007480BFB2874207DA00F04BF8BDF800007F1C50
S315080074904845F4D039E7002CFCD1029801220BA903
S315080074A080B2FFF7D1FDBDF82C0048450DD105E0A7
S315080074B0401C80B2202813DB2034A4B20699029A15
S315080074C0891A8C4205DB0120307000201DB0BDE80A
S315080074D0F08FA51820220BA9A8B2FFF7B5FD00204A
S315080074E00BA931F810104945E2D0A8B2FFF716FEED
S315080074F0203CA4B2E0E70298059905FB010000F0DC
S3150800750057FB6D1C4545F6DB01203070494600F0F7
S3150800751046F818B100F035F90028D6D10120D5E78C
S315080075200122694638468FE52DE9F0420F46DFF815
S315080075306816DFF8405609888F420446164699466B
S315080075400CD2DFF82C16C95D30467F2808BF00200C
S31508007550884203DAE95D894500D11CB940F2D54174
S3150800756000F00BFA31463846FFF7F4FD0188DFF8DC
S315080075700806C05D60B1384600F035FAE95D0129B4
S3150800758008BF207009D0022914BF2060208004E0BB
S315080075904A462046BDE8F0429BE5BDE8F0822DE963
S315080075A0F34FDFF83C05DFF8D8150488DFF8D40573
S315080075B00978407883B000281ABFDFF8CC05008820
S315080075C020460D18DFF8D0050088ADF80800ADB2E2
S315080075D0C04300F0FF0000EB013000F55060ADF845
S315080075E002002B1BDFF87C0501220DF1020100F0D9
S315080075F0E3FA6E1C0100B6B23AD10025DFF89C7595
S3150800760013E0E8B2FFF795FDADF80400331B37F831
S315080076101500ADF806000222DFF8480500F0CBFA9F
S31508007620010025D1B61CB6B26D1CBDF8080085420E
S31508007630E7DB002500E06D1CBDF80800854280F2F6
S315080076409B80DFF83405405D8DF80A004FF0000A8C
S315080076501BE001220DF102011FFA89F0FFF7F4FC85
S31508007660BB19DFF8000500F092F9010009F10109DC
S315080076707AD17F1CFFB2B7EB1B6FEADBDFF8240574
S31508007680405D8619B6B20AF1010ADFF8E404475DDF
S315080076905FFA8AF0B842CED25FFA8AF1E8B2FFF70B
S315080076A059FD80469DF80A00B8F80090C00140EAE6
S315080076B00520ADF80000012FBDF800000EBF40F010
S315080076C07F005FFA8AFA4AEA0000ADF80000311B2B
S315080076D0DFF8900400EB41004FF6FF71771C8945EF
S315080076E01EBFBDF80010BDF810209142BFB219D1D7
S315080076F09DF80C100029C6D001226946FFF7C5FB84
S3150800770001003E4630D1DFF86C04A8F80060425DFF
S31508007710DFF8940450F825103046FFF7B1FC00282E
S31508007720ACD124E0DFF84C14495D491C01EBD1715A
S315080077304FEAC15B01226946FFF7A7FB01003E46F7
S3150800774012D1A8F800609DF80A0098B14946E8B237
S3150800775000F049F90190331BDFF808044FEA1B6271
S3150800776000F029FA010089D001F076FF002005B063
S31508007770BDE8F08F00277DE7DFF808044680012082
S31508007780F5E7DFF804042DE9F0410688DFF8500331
S31508007790DFF8F05304886878DFF8C883002882B0D9
S315080077A012BF20463046264601226946FFF74CFCA2
S315080077B0BDF8000001280CBF4FF6FE70401EADF85C
S315080077C00000DFF8BC0307783846471E58B1BFB239
S315080077D0B819001B012200F00FF80100F4D001F0DF
S315080077E03BFF002006E0687880F001006870002002
S315080077F028700120BDE8F681694608EB4000FFF7CE
S3150800780044BB2DE9FE4F0D46DFF88C1309888842E4
S31508007810044617461E464FF000094FF001080ED2DF
S31508007820DFF84C13095D38467F2808BF00208842D8
S3150800783005DADFF84013095D8E4200D11DB94FF411
S31508007840BF6100F09AF839462046FFF783FC01909D
S31508007850CC4F787820B1CD48B0F800A0A04803E016
S31508007860CB48B0F800A0C8483978008849B9798863
S31508007870081ACE4909888842B4BF4320442001F03B
S31508007880EBFE01980188BC48005DF8B1204600F07F
S31508007890AAF8012E08BF297803D0022E0CBF298822
S315080078A02968814267D001980088401E00F069F86F
S315080078B0BC48065D7888AAF10101891B814201DB73
S315080078C0002837D1387868BB452046E00291CB4678
S315080078D022E002980BEBDB7300EB630000F002F981
S315080078E005EB0B0015F80B10407801EB0020711E14
S315080078F08B4580B207D1BDF8001001F0FF0100F0FA
S31508007900FF00ADF80010BDF8001088420BF1020028
S3150800791018BFC8465FFA80FBB345DADBB8F1000F3B
S31508007920C1D028E0BDF802100020FFF738FE10B3DA
S315080079304FF0010978888F49401C788080B20A5D2B
S315080079402946FFF79DFBB0B1654C7B88248885489E
S315080079505B1E00F01CF8010002D001F07DFE0AE073
S31508007960B9F1000F02D0FFF70CFF20B10199788812
S31508007970088030187880BDE8F78F0FF24420FFF7AB
S31508007980BBB801220DF1020180B2FFF75DBB1B1BDC
S3150800799001220DF1020100EB4300FFF776BA70B53C
S315080079A082B004460025192601226946A0B2FFF7CF
S315080079B04BFBBDF80000641C48B14FF47F41401AE8
S315080079C002D0FF3806D007E0681C40B276BDAD1C71
S315080079D0761EE9D168B276BDBDF80000C0B200B91E
S315080079E06D1CE843F1E738B50C4600210091614962
S315080079F00D5C2A4621466846FFF76BFB681C00EBC0
S31508007A00D07004EB600080B2FFF7C9FF002848BFBA
S31508007A10C043009940B2401832BDF0B55E490988A6
S31508007A200446564883B0254630F815608C4202D283
S31508007A305148405D18B940F23A71FFF79EFF4D482C
S31508007A40455D681C00EBD07006EB6007B8B2FFF71F
S31508007A50A6FF322814D2BFB2C10707EB6000204F39
S31508007A60404B3F884CBF00214FF47F41ADF80410CE
S31508007A70C01B012201A903EB4000FFF706FA60B11B
S31508007A8031462046FFF7AFFF00902B46401C00907A
S31508007A907F2269462046FFF7B4FEF7BD70B5394820
S31508007AA0017882B00024C1B94078002814BF36484E
S31508007AB00B480588324806780BE0F6B2701900F0D4
S31508007AC011F8BDF8000000281EBF4FF6FF71884266
S31508007AD0641C3046461E0028EFD1E0B276BD000091
S31508007AE0A0E902080122694680B2FFF7ADBAF8B5E7
S31508007AF0244C20780027002832D11C480588607855
S31508007B0000281ABF204806882E461D48077838469A
S31508007B10471E02281DDBFFB2B819FFF7E3FFBDF8C1
S31508007B2000000028F3D01B48008807FB006000F01F
S31508007B303FF80020ADF80000BB190A485B1B01227C
S31508007B40694600F039F8010018BF01F085FD38468E
S31508007B50F2BD3046FFF7E2FAF8B208B90120207004
S31508007B60F8B2F2BD00E0070870F90020A0E90208A3
S31508007B707CEE02086CEE02085CEE02081CF6002099
S31508007B809CE90208E0FE0020A4E90208A2E902082E
S31508007B90A6E902089EE90208AAE902083CEE0208DC
S31508007BA0ACE90208B0E9020894F10208A8E902085B
S31508007BB080B2FFF7B3BA01A900EB4300FFF765B936
S31508007BC073696D2D656570726F6D2D696E7465725A
S31508007BD06E616C2E6300000030B10368002A14BF82
S31508007BE0194323EA010101607047DFF8280380681A
S31508007BF07047F8B5DFF81C73BD6804460026DFF841
S31508007C001803044214BF0226BC6024EA0500C00318
S31508007C1007D50021002000F042F80021002000F0DE
S31508007C2060F830000CD1B86800F4804005F4804153
S31508007C30884205D0A00B00F0010000F0A2F8064625
S31508007C403046F2BD10B5B34CA078E17800F00100DB
S31508007C5001F001010843A168C90319D4C0B120691C
S31508007C6048B1E078000706D5216908208847E078FA
S31508007C7000F0F700E070E06870B1A07800070BD557
S31508007C80E16808208847A07800F0F700A07003E0B4
S31508007C90607808B100206070BDE8104021E12DE948
S31508007CA0F04104460D46FEF70FFF9A4F8046387896
S31508007CB00126A8B120000BD1B87800281CBFF868A7
S31508007CC0002805D0B878400602D5F96840208847CC
S31508007CD0FD60B878A0421CBFBC70FFF7B3FF002652
S31508007CE020E02DE9F04104460D46FEF7EDFE894FEA
S31508007CF0804638780126A8B120000BD1F8780028EC
S31508007D001CBF3869002805D0F878400602D53969BD
S31508007D10402088473D61F878A0421CBFFC70FFF7F9
S31508007D2091FF00264046FEF7E1FE3046BDE8F081A9
S31508007D3038B5784D2978884204460FD0200007D1F7
S31508007D4000210020FFF7CDFF00210020FFF7A7FF45
S31508007D502C702046FDF7F9FF00F0C3F8002032BD6D
S31508007D606C48007870476B496C480979C90705D58E
S31508007D704FF40041C16008210160B2E008210160AA
S31508007D8070472DE9F041634D644E0446287900F0AA
S31508007D90010121434FF4004706D00021B16560492F
S31508007DA00F6008213160F76000F0FE00204328715B
S31508007DB0FEF78AFEDFF86CE15B49DEF800805B4A75
S31508007DC05B4BDFF870C1002C28F4706823D048F4A8
S31508007DD00068CEF80080DEF8088028F04008CEF863
S31508007DE008804FF0080EBCF802806EF30B28ACF83A
S31508007DF0028093F800C00CF0BF0C83F800C0B2F8FC
S31508007E0002C06EF30B2CA2F802C00A7802F0BF0279
S31508007E100A70602122E048F48078CEF80080DEF807
S31508007E20088048F04008CEF808804FF0010EBCF8EC
S31508007E3002806EF30B28ACF8028093F800C04CF071
S31508007E40400C83F800C0B2F802C06EF30B2CA2F8FF
S31508007E5002C00A7842F040020A700021B165062184
S31508007E60354A1160FEF742FE7CB10620FCF728FA77
S31508007E70401E80413149C00F08702879800706D511
S31508007E8000F02FF82E48076001E000F02AF828795C
S31508007E9000F001024FF4804105F10800FFF79CFE4F
S31508007EA00020BDE8F0811B48017901F0FD01017150
S31508007EB0C80703D51A494FF40040086070471548AB
S31508007EC0017941F002010171C80700D4704710B565
S31508007ED013484FF400440460FFF745FF1848046050
S31508007EE010BD10B50B4C20782079C0070BD506209D
S31508007EF0FCF7DDF900B1012010490978C0B28842C3
S31508007F0008BF012001D000206070BDE81040FDF7D1
S31508007F10B0BC000004EF0020FFBC0FF814A8004016
S31508007F2080E100E004B00040FCEA00200CEB0020F1
S31508007F30F8EA002000EB002024BC0040F2ED002007
S31508007F4000E100E02DE9F84305460E4630001446E8
S31508007F5005D1FDF706FC2018C0F313004DE02F46A7
S31508007F60022F0FF2501803DB40214046FEF7C4FDEE
S31508007F70102C05D22846B047BDE8F143FDF7F1BB02
S31508007F80DFF8209159F8270018B148214046FEF736
S31508007F90B3FDB4F5002F03D349214046FEF7ACFDE7
S31508007FA049F82760404F414E95B9FEF78DFD0546C5
S31508007FB0FDF7D7FB2418A0B27860200C38600220A1
S31508007FC030602846FEF792FD306C40F0020011E062
S31508007FD0FEF77AFD0546FDF7C4FB2418A0B2F86043
S31508007FE0200CB860042030602846FEF77FFD306C10
S31508007FF040F004003064C4F31300BDE8F28370B5A2
S3150800800004462646022E0D4604DB66210FF2A4001E
S31508008010FEF772FDFEF758FD224951F82620AA42BE
S3150800802010D1002241F82620002C20490A6C04D1E0
S3150800803022F002020A64022203E022F004020A6421
S3150800804004220A60BDE87040FEF750BD70B5174CB3
S31508008050144E2068216C01EA0005ADB2A80709D5BF
S31508008060206C20F0020020643168080002D000204D
S315080080703060884768070AD5206C20F00400206421
S315080080807168080003D000207060012088472560C9
S3150800809070BD01F0D5BB010008BF012002010449EB
S315080080A000204FE770FC00204020004008A0004058
S315080080B09380000873796D626F6C2D74696D6572B3
S315080080C02E630000F8B5274D2E68040001D1FF2065
S315080080D0F2BDFEF7F9FC244F29683A7821F81240D8
S315080080E036F8021BA142FBD1FEF700FD29683A7853
S315080080F0B01E401A4010C1B2914208BFFF20C0B25C
S31508008100F2BD2DE9F843194C174D266881462878A3
S3150800811006EBC007FEF7D8FC8046082249463846D3
S31508008120FEF7ECFDF88800E00836F188814202BFC8
S3150800813031883A889142F7D171887A88914202BF8C
S31508008140B188BA889142EFD14046FEF7CFFC206845
S315080081502A78301AC010C1B2914208BFFF20C0B2B7
S31508008160BDE8F283CCEA0020F3ED0020D0EA002037
S3150800817038B504466048614D002912BF00210178D0
S31508008180491C01700120012101F0FDFB2878411CE2
S3150800819089B2032001F0F7FB200003D0FFF725FD85
S315080081A0002808D5FFF721FD40054CBF0320012014
S315080081B00021FFF774FD524844702846BDE8384050
S315080081C001224FF4806101F025BC80B5FDF7BFFEA2
S315080081D0BDE80240312001F03ABD38B50446402CCE
S315080081E0154606D1FFF701FD00F08020B0F1004FDB
S315080081F003D000210020FFF752FD002C3AD0402C76
S3150800820024D0882C18BF892C38D08C2C38D08D2CAB
S315080082102DD08F2C39D13B48007804280FD155B181
S315080082203949022008704CF25032BDE838403749C7
S315080082300020FFF787BEFDF78AFE312021E0FDF713
S3150800824086FE002D0CBF312000201AE0FDF77FFEC8
S3150800825001F0C1FD28482E4900780978884204D2E1
S31508008260BDE834400021012082E7402009E001F002
S31508008270D3FB03E0FDF76BFE002002E0FDF767FE87
S315080082808D20BDE8324001F0E2BCBDE83440B4219F
S3150800829045E01D480078022800D0704780B51D4883
S315080082A00078012807D0032810D11B480078022837
S315080082B018BF7C280AD115490020FFF7A0FEFDF754
S315080082C046FEBDE80240002001F0C1BC01BD38B53C
S315080082D0FEF7FAFB05460C480078002410B9FDF7AE
S315080082E0ABFA04462846FEF701FC1CB1BDE831404E
S315080082F001F0FBB931BD0000D7FF002018FF0020B0
S31508008300F0EB0020DDED0020E8FF0020CB8100081F
S31508008310FFED0020DDFF0020DEFF0020E9210FF23F
S315080083200800FEF7E9BB00006D61632D7068792EC1
S315080083306300000070B504468F480D46017816465E
S3150800834019B14188491C418070BD204601F04AFD9B
S3150800835080B1FDF75AFE38B1A078002E14BF40F060
S31508008360010000F0FE00A07029462046BDE87040D6
S315080083702E2200E070BD70B504460D461646601CF8
S3150800838001F032FD10F0070F1ABF41F64901884285
S3150800839000260121002001F0F6FA2078411C89B256
S315080083A0022001F0F0FA32462946204602F003FB85
S315080083B018B1BDE8704002F09DBF6F488188491C1E
S315080083C0818070BD2DE9F047A4B002F03EFB6A4DEE
S315080083D08046688808B100206880A988080004D00B
S315080083E00D2001F0D0FA0020A8805FEA080038D0F6
S315080083F002F03EF90646701C377801F0F5FC10F0DD
S31508008400070F1BBF41F64901884200242E24404627
S3150800841002F045F9304461420844A0F108010822F7
S3150800842001A8FEF76BFC01ACE078FDF7A7FA394620
S31508008430FDF7ABFA8146514894F902A0007888B155
S31508008440A86800280DD0002000907B1CDBB2002213
S31508008450414603A802F018FBAB685246494603A8F2
S31508008460984786E0404603F022FD0028F9D005210A
S31508008470404602F04FFB0746032000F08CFF404CB5
S31508008480404907F007002070FF20087086F8019021
S3150800849086F802A09DF80400F070404604F0BBF888
S315080084A00328404602D105F084FA62E004F0A4F8F5
S315080084B000F00500042807D02078032804D1404698
S315080084C001F005FC002854D102F04EFF18B102F065
S315080084D04BFF012802D1207800284AD1EA6810000B
S315080084E004D0002140469047002842D1264D2878DE
S315080084F0032818BF042805D0022821D1234800786C
S31508008500C0071DD402F030FF032819D1404604F0F5
S315080085103AF9B0F5004F13D1404604F057F91C4913
S31508008520098881420CD0404604F066F8000707D453
S31508008530404604F061F840061BD52078012818D17A
S315080085402878042803D1F80648BF01F0A1FA207854
S3150800855020B101280AD0032804D00AE0404604F0D6
S31508008560A3FD06E0404605F00DFF02E0404605F093
S3150800857057FF24B0BDE8F08758FC0020D1FB002047
S31508008580DDFF0020DEFF0020F2FA0020F6FA0020C8
S31508008590CAEB00202F49486000200870704710B5C4
S315080085A02C4C2278616800F003F80120207010BD79
S315080085B02DE9F041044628480068C0050D46904656
S315080085C004D071210FF2A800FEF796FA234F244E25
S315080085D03868002818BFB8F1000F02D03068854205
S315080085E003D0284600F028F8356080203860062138
S315080085F01C4801600721396001688907FCD5216894
S3150800860009BAB962616809BAB962A16809BAB962F0
S31508008610E16809BAB96201684907FCD5386B00BA3E
S315080086202060386B00BA6060386B00BAA060386B9F
S3150800863000BAE060BDE8F08102680B4912BACA6068
S31508008640426812BA8A60826812BA4A60C06800BA7A
S315080086500860704748FC002004ED00E00030004048
S3150800866050FC002010A000403830004000229FE750
S315080086706165732E63000000002848BF40427047BA
S3150800868001468AB20AB94BF6EF610F4A000C08BFD9
S315080086904FF6CE201180508070470288130448BFD9
S315080086A04A40510001801046704738B5064C622191
S315080086B02046FFF7F2FF054641F20B01A01CFFF723
S315080086C0ECFF684032BD0000BEED0020012100F03D
S315080086D01F029140DFF82825400942F8201070470C
S315080086E02DE9F04FDFF8204591B061681091072811
S315080086F008BF032006D0082808BF022002D0052894
S3150800870008BF0420DFF8045529686A6841EA02218F
S31508008710AA6841EA024100916968490703D5E169F7
S3150800872041F00201E1612968490703D5E16941F091
S315080087300401E1610099EA69D140C90703D5E169F5
S3150800874041F00801E161401EDFF8B864DFF8C07443
S3150800875000210328316000F24682DFE810F01C028F
S3150800876006001B000400616014E0386CC00703D5DE
S31508008770E06940F04000E061386C400703D5E069E5
S3150800878040F02000E061386C800703D5E06940F0CE
S315080087901000E061FEF798F9FBF782FD8DF83C00C2
S315080087A00120DFF87014DFF870A4C1F58031090BD9
S315080087B000FA01F1491ECAF838104FF00009090AF3
S315080087C007D1DFF85814097819B1616C41F0200116
S315080087D06164396CDFF84884DFF848240E91796CB7
S315080087E00D91D8F84C100C91D8F850100B91D8F878
S315080087F054100A91D8F858100991DAF8001008911F
S31508008800DAF804100791DAF814100691DAF8241049
S315080088100591DAF834100491DFF80C140968126827
S31508008820039202222260DFF8042412688DF80420DD
S31508008830DFF8FC2312688DF80520DFF8F8231268A4
S315080088408DF806204FF0FF326262DFF8B423136812
S31508008850DB040AD56B68DB0707D5E369DB0704D5B4
S31508008860336843F480738146336013689B040AD5E2
S315080088706B685B0607D5E369DB0704D5336843F401
S3150800888080438146336013685B0412D5009BD5F894
S3150800889018C023FA0CF3DB070BD5E369DB0708D509
S315080088A03368D5F818C000FA0CFC4CEA0303814675
S315080088B0336013681B0414D5009BD5F81CC023FA33
S315080088C00CF3DB070DD5E369DB0702D4E3691B0765
S315080088D007D53368D5F81CC0814600FA0CF0184352
S315080088E030603868800707D5E069C00604D5F07897
S315080088F040F0010000F080F93868400707D5E069C4
S31508008900800604D5F07840F0020000F075F9386862
S31508008910C00707D5E069400604D5F07840F00400A2
S3150800892000F06AF91068C00307D5E069000604D5A7
S31508008930F07840F0080000F05FF900206A68D20776
S315080089406A6848BF4FF480505206009AAB6948BF20
S3150800895040F40050DA40D207009AEB6948BF40F469
S315080089608040DA40D207E26948BF40F40040D206A8
S3150800897005D4E269920602D4E269520601D540F0AE
S315080089801000E269120648BF40F4803008400290A1
S31508008990A520FBF77CFC0120E063E069A16B11B11F
S315080089A0616A0142FAD0616A014200F0C58000207E
S315080089B0E063F07840F04000F07000F087FC04981F
S315080089C0CAF83400072038600F20C8F8000006F0FF
S315080089D03FFD1098944960600E9838640D98786445
S315080089E00C98C8F84C000B98C8F850000A98C8F8B4
S315080089F054000998C8F858000898CAF8000007985B
S31508008A00CAF804000698CAF814000598CAF824009B
S31508008A10029808608349039808604FF0FF3086493A
S31508008A200860824800683070814800687070814824
S31508008A300068B070606AE169EA69336808400199BC
S31508008A404B4000990B400106490E01F0010143EA2B
S31508008A5081230106890E01F0010143EA810301061B
S31508008A60C90E01F0010101FA02F200051A4300F0ED
S31508008A707C5010433060FEF727F800F029FC0020F0
S31508008A8020609DF83C0008B1FBF7F4FBF0786649D6
S31508008A900968C90304D5C0F3C00109B120212162C0
S31508008AA0396C890703D5C10744BF0221F960396CBF
S31508008AB0490704D5C0F3400109B10421F960396CAE
S31508008AC0C90704D5C0F3800008B10120F860D8F8BA
S31508008AD04C00800605D53068C00544BF0C20FFF75A
S31508008AE0F5FDD8F85000800605D53068400444BF27
S31508008AF00D20FFF7EBFDD8F85400800607D530683F
S31508008B00A969C840C00744BF0E20FFF7DFFDD8F8A3
S31508008B105800800607D53068E969C840C00744BFD1
S31508008B200F20FFF7D3FDF07840F08000F07011B009
S31508008B30BDE8F04F06F0C6BCB9F1000F7FF439AFB7
S31508008B40DAF818003749DFF8F4B040084000CAF8E8
S31508008B5018003448806840F00400886040F2072115
S31508008B60BBF80000884202BFBBF802004FF20F01B3
S31508008B70884205D14CF23C30ABF802004FF00109AF
S31508008B80012006F0A3FCB9F1000F03D04FF20F0045
S31508008B90ABF8020013E7FBF783FB0446A520FBF7B7
S31508008BA076FB00F093FB06F08DFC254D254F2E68CD
S31508008BB02868400840002860FDF790FFD7F8008035
S31508008BC0386820F040003860FDF784FFC7F8008059
S31508008BD02E60FDF783FF0CB1FBF74CFB11B0BDE827
S31508008BE0F04F00F075BB11B0BDE8F04F40F25741A9
S31508008BF00FF25400FDF780BF4FF00109F07070477F
S31508008C0000E200E080F600200400004008BC0040B6
S31508008C1014A000400000000004400040980708081F
S31508008C2014A8004008ED00E000E100E008B00040AC
S31508008C3008B2004008B4004080E200E000000020CE
S31508008C4094ED00E000800040736C6565702E63004B
S31508008C5010B5144C207858B91348018808237F2288
S31508008C60201DFCF7E9F9201D00F011F801202070FD
S31508008C7010BD10B50B4C01460822201DFEF73EF824
S31508008C80201D00F004F80120207010BD074880B5AB
S31508008C90014608220648FEF731F8BDE80140FDF70F
S31508008CA0B7B9000028FC0020D6FA02082CFC0020E0
S31508008CB034FC002010B50446FDF706FF4B4930206A
S31508008CC008604B4908604B49086010204A4908600B
S31508008CD0200A0028494808BF24024FF20F010480E1
S31508008CE04180BFF35F8F46480021016041604548D7
S31508008CF04549086010BD45480168C90708D5444A72
S31508008D0003211170016C49084900016401210160C1
S31508008D100168090703D5016C21F008010164704751
S31508008D2080B5002000F009F830B9BDE80440FA2102
S31508008D300FF2F400FDF7E0BE01BD2DE9F042354C17
S31508008D40216842428D1815F01F0108D0002802D468
S31508008D504842054403E04842284400F120052E48CD
S31508008D60A5F12006A84224BF2C48864203D3EFF378
S31508008D700880854201D300202DE0FDF7A5FE814637
S31508008D802748006810F0010718BF06F078FB20682E
S31508008D9001468D4206D2A84224BFCD2100F801190A
S31508008DA0F9D206E02038002201E000F8012B8842BB
S31508008DB0FBD32560304606F067FBE22001E006F8A3
S31508008DC0010BAE42FBD30FB106F042FB4846FDF756
S31508008DD08DFE20682038BDE8F0820E48006870478E
S31508008DE00C480068203870470E487047302000400D
S31508008DF030C8004030C0004010E0004000000020AD
S31508008E001C4000400400FA050CED00E018A00040E4
S31508008E10CAFF00206CEB0020C0DB00207017002082
S31508008E2094ED00E0000000206D6963726F2D696E95
S31508008E307465726E616C2E630000000038B502F02E
S31508008E4062FA044602F069FA054602F08BFA02460F
S31508008E5000942B460FF27C21002006F0C1FCBDE8E9
S31508008E60314002F071BA002007F046BC80B501F027
S31508008E70CCF8BDE8084002460FF28421002006F02F
S31508008E80AFBC012007F00FBE30B5044699B0206884
S31508008E9001F008F8C5B26846642107F015FE216896
S31508008EA0642D31BF2A4663224819A0F1630168463A
S31508008EB0FDF724FF6168684608F09FFA19B030BDCF
S31508008EC01FB5044669466B4808F028FE684608F050
S31508008ED0FAFE204608F03EFA1FBD38B50546664C30
S31508008EE004F1A40009F051F8204609F0E0F909F068
S31508008EF07BFD02F03BF9614802F0D1F909F0E4FD87
S31508008F005F4804F07BFC5F481DB169780170A8785A
S31508008F1002E00121017000205B49087009F063F83E
S31508008F2004F1100009F029F800F0BEF9016809B14A
S31508008F30FFF7AAFFFBF7A7F9544D2878FF2807D0B3
S31508008F4009F028FD20B9287809F0C8FDFF20287007
S31508008F5009F059FD02F0A7F909F0BDFD4C4809F0E2
S31508008F6050FE0FF2302009F04CFE204609F028FA90
S31508008F70E0E7F0B583B009F0A5FDFDF76DF906F059
S31508008F80A1FA012300220F21002000F0FDFA00F0CB
S31508008F9084F940F2A174C440E00708D5002009F01E
S31508008FA08DFE002009F014FF00200AF012F835495A
S31508008FB00FF2141401200870002033490870354850
S31508008FC008F0DBFF22460FF25C11002006F008FCD1
S31508008FD002F0A3F9054602F096F9064602F0C2F930
S31508008FE0074602F0BFF90246019500963B460FF286
S31508008FF04411002006F0F4FB22460FF26811002007
S3150800900006F0FCFB0020FFF768FF0020FEBD80B5D8
S3150800901000910346204A0FF28C111E4808F09AFF69
S3150800902040B1BDE808400FF2A0020FF23811002047
S3150800903006F0E4BB01BD704770470020704780B555
S315080090400FF2281001F034F809F0CCFA0FF22810C4
S3150800905001F02EF8084809F0E1F90FF22C1001F09A
S3150800906027F80E4801F070F8BDE8014001F024B871
S315080090700000000034FC0020A4F700208139020813
S31508009080C18E000808FC0020D4FF0020FBED00205C
S31508009090C0E90208B4F70020F5D50208E4FE00206E
S315080090A010B50B46144638B1014618460AF04CFB73
S315080090B020460BF003F80120BDE8104004F03ABA48
S315080090C0704770477047000069702D6D6F64656D55
S315080090D0000000006368616E6E656C2025752C20A3
S315080090E070616E2069642030782532782C20736888
S315080090F06F72742069642030782532780000000089
S3150800910025752062797465732072656D61696E696B
S315080091106E6720617420746F70206F6620686561C1
S31508009120702E000025732D61707020726561647958
S31508009130000000006368616E6E656C202575202846
S3150800914030782578292C206E6F6465206964203074
S31508009150782532782C2070616E2069642030782555
S315080091603278000025733E20000000005541525415
S31508009170206C696E6B000000617070206576656E04
S3150800918074207175657565007365744E6444617401
S3150800919061000000E0F80020559900080000000072
S315080091A000000000D0F10208BDD50208D8F1020877
S315080091B0DCF10208FBDA0208E0F10208E4F1020831
S315080091C0FBDA0208E0F10208ECF10208FBDA020811
S315080091D0F8F10208FCF102086D8E0008D8F10208C1
S315080091E010F202083D8E0008D8F1020818F20208AB
S315080091F0678E0008D8F1020824F2020821B8000890
S31508009200D8F102082CF20208838E0008D8F1020869
S3150800921000000000000000000000000030B52348F0
S3150800922001680020002201249440CBB2234213D0C7
S315080092300FF288001E4C30F8120006284CF23C3219
S315080092404FF20F031DD16088984216D12188080A6B
S315080092500B2812DA084612E0521C92B2082AE2D308
S315080092601449088140F201720889904204D11248D3
S31508009270D0E90023C1E9002330BD4FF4C060628005
S31508009280EEE740F20725A84201BF61889942218886
S31508009290A942E5D162800846E2E706480089000A45
S315080092A07047044800897047024870472C00004000
S315080092B000000020ACEF002090000020010402040A
S315080092C001030105060007020309010972B6704782
S315080092D062B670470BF05EB803460A469EA10420A4
S315080092E0FFE70CB480B502AA00F05CF801BC5DF893
S315080092F00CFB0A0003D0034698A11120F1E770473A
S3150800930000B589B0FDF7A0F80021079106910591EF
S31508009310049103910291019102469149009100231B
S315080093200FF250210120FFF7DCFF8E48C178437801
S315080093300278039181680291818801918178009170
S3150800934043200FF23C21FFF7CCFF09B000BD864948
S31508009350087070470EB410B5044683480078A1B06B
S3150800936080B10AF022FF68B180226946022000F027
S31508009370B7F823AB224600210FF27D1006F00CF950
S3150800938000F0DEF821B010BC5DF810FB0C220021BD
S315080093907648FDF715BD754931F81020521C21F89D
S315080093A0102070472DE9F04107466F480078A2B0B3
S315080093B00C469046002690B9380018BF012F0ED0EB
S315080093C0042F18BF052F0AD0312F18BF332F06D008
S315080093D0372F1EBF3B2F4FF6FF718F4275D10AF00C
S315080093E0E4FE002871D0802202A9384600F078F8F9
S315080093F0002C68D007E08DF80400012201A900209E
S3150800940000F07AF8641C207801005CD0A0F13002E4
S315080094100A2A05D20A2101FB0600A0F13006F1E767
S31508009420422818BF44280CD0462827D0572808D0E9
S31508009430622836D0662821D06C281CD070281DD00A
S31508009440D9E7422807D158F8042B6946012000F0CD
S31508009450DCFC01220DE0572858F8042B694604D194
S31508009460012000F0D2FC022203E0012000F0CDFC2E
S3150800947004226946C3E758F8046BC3E758F8041B87
S31508009480462807D10026885D00281EBF761CF6B23E
S31508009490FF2EF8D1F2B2002000F02EF898B9002677
S315080094A0B0E758F8047BB8B20028ABD001F0F7F85B
S315080094B00546B8B201F0DCF80146EAB2002000F031
S315080094C01BF800289ED000F03BF822B0BDE8F081DA
S315080094D00B461146122804BF1846FFF798BD704779
S315080094E010B5234C61600146227060680AF06CFE74
S315080094F0607010BD00000000F8B515000C461C4E43
S315080095001CD07078317873680F1AFFB2EDB2BD427D
S31508009510B8BF2F463A4621461844FDF7EFFB707848
S3150800952038187070ED1B3C44E8B238B17068711C8D
S315080095300AF0BBFE0028E4D00120F2BD0020F2BDEF
S3150800954010B50B4C6068611C0AF0AFFE08B101202B
